0096007026999992016062218244+00000+000000FM-15+702699999V0209999C000019999999N999999999+03401+01801999999ADDMA1101731999999REMMET069MOBOB0 METAR 7026 //008 000000 221824Z AUTO 00000KT //// 34/18 A3004=
0096007026999992016062218294+00000+000000FM-15+702699999V0209999C000019999999N999999999+03501+01801999999ADDMA1101691999999REMMET069MOBOB0 METAR 7026 //008 000000 221829Z AUTO 00000KT //// 35/18 A3003=
0096007026999992016062218344+00000+000000FM-15+702699999V0209999C000019999999N999999999+03501+01801999999ADDMA1101691999999REMMET069MOBOB0 METAR 7026 //008 000000 221834Z AUTO 00000KT //// 35/18 A3003=
0096007026999992016062218394+00000+000000FM-15+702699999V0209999C000019999999N999999999+03601+01901999999ADDMA1101691999999REMMET069MOBOB0 METAR 7026 //008 000000 221839Z AUTO 00000KT //// 36/19 A3003=
0096007026999992016062218444+00000+000000FM-15+702699999V0209999C000019999999N999999999+03601+01901999999ADDMA1101691999999REMMET069MOBOB0 METAR 7026 //008 000000 221844Z AUTO 00000KT //// 36/19 A3003=
0096007026999992016062218494+00000+000000FM-15+702699999V0209999C000019999999N999999999+03501+01901999999ADDMA1101691999999REMMET069MOBOB0 METAR 7026 //008 000000 221849Z AUTO 00000KT //// 35/19 A3003=
0096007026999992016062218544+00000+000000FM-15+702699999V0209999C000019999999N999999999+03501+01801999999ADDMA1101661999999REMMET069MOBOB0 METAR 7026 //008 000000 221854Z AUTO 00000KT //// 35/18 A3002=
0096007026999992016062218594+00000+000000FM-15+702699999V0209999C000019999999N999999999+03601+01901999999ADDMA1101661999999REMMET069MOBOB0 METAR 7026 //008 000000 221859Z AUTO 00000KT //// 36/19 A3002=
0096007026999992016062219044+00000+000000FM-15+702699999V0209999C000019999999N999999999+03501+01901999999ADDMA1101661999999REMMET069MOBOB0 METAR 7026 //008 000000 221904Z AUTO 00000KT //// 35/19 A3002=
0096007026999992016062219094+00000+000000FM-15+702699999V0209999C000019999999N999999999+03601+01801999999ADDMA1101661999999REMMET069MOBOB0 METAR 7026 //008 000000 221909Z AUTO 00000KT //// 36/18 A3002=
0096007026999992016062219144+00000+000000FM-15+702699999V0209999C000019999999N999999999+03601+01901999999ADDMA1101661999999REMMET069MOBOB0 METAR 7026 //008 000000 221914Z AUTO 00000KT //// 36/19 A3002=
0096007026999992016062219194+00000+000000FM-15+702699999V0209999C000019999999N999999999+03601+01801999999ADDMA1101691999999REMMET069MOBOB0 METAR 7026 //008 000000 221919Z AUTO 00000KT //// 36/18 A3003=
0096007026999992016062219244+00000+000000FM-15+702699999V0209999C000019999999N999999999+03601+01901999999ADDMA1101661999999REMMET069MOBOB0 METAR 7026 //008 000000 221924Z AUTO 00000KT //// 36/19 A3002=
0096007026999992016062219294+00000+000000FM-15+702699999V0209999C000019999999N999999999+03601+01901999999ADDMA1101661999999REMMET069MOBOB0 METAR 7026 //008 000000 221929Z AUTO 00000KT //// 36/19 A3002=
0096007026999992016062219344+00000+000000FM-15+702699999V0209999C000019999999N999999999+03601+01901999999ADDMA1101661999999REMMET069MOBOB0 METAR 7026 //008 000000 221934Z AUTO 00000KT //// 36/19 A3002=
0096007026999992016062219394+00000+000000FM-15+702699999V0209999C000019999999N999999999+03501+01901999999ADDMA1101661999999REMMET069MOBOB0 METAR 7026 //008 000000 221939Z AUTO 00000KT //// 35/19 A3002=
0096007026999992016062219444+00000+000000FM-15+702699999V0209999C000019999999N999999999+03601+01901999999ADDMA1101661999999REMMET069MOBOB0 METAR 7026 //008 000000 221944Z AUTO 00000KT //// 36/19 A3002=
0096007026999992016062219494+00000+000000FM-15+702699999V0209999C000019999999N999999999+03501+01801999999ADDMA1101661999999REMMET069MOBOB0 METAR 7026 //008 000000 221949Z AUTO 00000KT //// 35/18 A3002=
0096007026999992016062219544+00000+000000FM-15+702699999V0209999C000019999999N999999999+03601+01801999999ADDMA1101661999999REMMET069MOBOB0 METAR 7026 //008 000000 221954Z AUTO 00000KT //// 36/18 A3002=
0096007026999992016062219594+00000+000000FM-15+702699999V0209999C000019999999N999999999+03701+02001999999ADDMA1101661999999REMMET069MOBOB0 METAR 7026 //008 000000 221959Z AUTO 00000KT //// 37/20 A3002=
0143007026999992016062220044+00000+000000FM-15+702699999V0209999C000012200019N009999199+03701+01901999999ADDGF100991999999999999999999MA1101661999999REMMET090MOBOB0 METAR 7026 //008 000000 222004Z AUTO 00000KT 9999 CLR 37/19 A3002 RMK CDP03661 CLR=
0143007026999992016062220094+00000+000000FM-15+702699999V0209999C000012200019N009999199+03701+01801999999ADDGF100991999999999999999999MA1101661999999REMMET090MOBOB0 METAR 7026 //008 000000 222009Z AUTO 00000KT 9999 CLR 37/18 A3002 RMK CDP03661 CLR=
0143007026999992016062220144+00000+000000FM-15+702699999V0209999C000012200019N009999199+03701+01901999999ADDGF100991999999999999999999MA1101661999999REMMET090MOBOB0 METAR 7026 //008 000000 222014Z AUTO 00000KT 9999 CLR 37/19 A3002 RMK CDP03661 CLR=
0143007026999992016062220194+00000+000000FM-15+702699999V0209999C000012200019N009999199+03701+01901999999ADDGF100991999999999999999999MA1101661999999REMMET090MOBOB0 METAR 7026 //008 000000 222019Z AUTO 00000KT 9999 CLR 37/19 A3002 RMK CDP03661 CLR=
0143007026999992016062220244+00000+000000FM-15+702699999V0209999C000012200019N009999199+03701+01901999999ADDGF100991999999999999999999MA1101661999999REMMET090MOBOB0 METAR 7026 //008 000000 222024Z AUTO 00000KT 9999 CLR 37/19 A3002 RMK CDP03661 CLR=
0143007026999992016062220294+00000+000000FM-15+702699999V0209999C000012200019N009999199+03701+01901999999ADDGF100991999999999999999999MA1101661999999REMMET090MOBOB0 METAR 7026 //008 000000 222029Z AUTO 00000KT 9999 CLR 37/19 A3002 RMK CDP03661 CLR=
0143007026999992016062220344+00000+000000FM-15+702699999V0209999C000012200019N009999199+03801+02001999999ADDGF100991999999999999999999MA1101661999999REMMET090MOBOB0 METAR 7026 //008 000000 222034Z AUTO 00000KT 9999 CLR 38/20 A3002 RMK CDP03661 CLR=
0199007026999992016062220394+00000+000000FM-15+702699999V0209999C000019999999N009999199+03601+01901999999ADDGA1021+032921999GE19MSL   +99999+99999GF199999021999032921999999MA1101661999999REMMET108MOBOB0 METAR 7026 //008 000000 222039Z AUTO 00000KT 9999 FEW108 36/19 A3002 RMK CDP03661 FEW108 CLD AVG 108=
0143007026999992016062220444+00000+000000FM-15+702699999V0209999C000012200019N009999199+03701+01901999999ADDGF100991999999999999999999MA1101661999999REMMET090MOBOB0 METAR 7026 //008 000000 222044Z AUTO 00000KT 9999 CLR 37/19 A3002 RMK CDP03661 CLR=
0143007026999992016062220494+00000+000000FM-15+702699999V0209999C000012200019N009999199+03701+01801999999ADDGF100991999999999999999999MA1101661999999REMMET090MOBOB0 METAR 7026 //008 000000 222049Z AUTO 00000KT 9999 CLR 37/18 A3002 RMK CDP03661 CLR=
0143007026999992016062220544+00000+000000FM-15+702699999V0209999C000012200019N009999199+03601+01901999999ADDGF100991999999999999999999MA1101661999999REMMET090MOBOB0 METAR 7026 //008 000000 222054Z AUTO 00000KT 9999 CLR 36/19 A3002 RMK CDP03661 CLR=
0143007026999992016062220594+00000+000000FM-15+702699999V0209999C000012200019N009999199+03701+02001999999ADDGF100991999999999999999999MA1101661999999REMMET090MOBOB0 METAR 7026 //008 000000 222059Z AUTO 00000KT 9999 CLR 37/20 A3002 RMK CDP03661 CLR=
0143007026999992016062221044+00000+000000FM-15+702699999V0209999C000012200019N009999199+03701+01901999999ADDGF100991999999999999999999MA1101661999999REMMET090MOBOB0 METAR 7026 //008 000000 222104Z AUTO 00000KT 9999 CLR 37/19 A3002 RMK CDP03661 CLR=
0143007026999992016062221094+00000+000000FM-15+702699999V0209999C000012200019N009999199+03601+01901999999ADDGF100991999999999999999999MA1101691999999REMMET090MOBOB0 METAR 7026 //008 000000 222109Z AUTO 00000KT 9999 CLR 36/19 A3003 RMK CDP03661 CLR=
0143007026999992016062221144+00000+000000FM-15+702699999V0209999C000012200019N009999199+03601+01901999999ADDGF100991999999999999999999MA1101661999999REMMET090MOBOB0 METAR 7026 //008 000000 222114Z AUTO 00000KT 9999 CLR 36/19 A3002 RMK CDP03661 CLR=
0143007026999992016062221194+00000+000000FM-15+702699999V0209999C000012200019N009999199+03601+01901999999ADDGF100991999999999999999999MA1101661999999REMMET090MOBOB0 METAR 7026 //008 000000 222119Z AUTO 00000KT 9999 CLR 36/19 A3002 RMK CDP03661 CLR=
0143007026999992016062221244+00000+000000FM-15+702699999V0209999C000012200019N009999199+03601+01901999999ADDGF100991999999999999999999MA1101661999999REMMET090MOBOB0 METAR 7026 //008 000000 222124Z AUTO 00000KT 9999 CLR 36/19 A3002 RMK CDP03661 CLR=
0143007026999992016062221294+00000+000000FM-15+702699999V0209999C000012200019N009999199+03601+01901999999ADDGF100991999999999999999999MA1101661999999REMMET090MOBOB0 METAR 7026 //008 000000 222129Z AUTO 00000KT 9999 CLR 36/19 A3002 RMK CDP03661 CLR=
0143007026999992016062221344+00000+000000FM-15+702699999V0209999C000012200019N009999199+03601+01901999999ADDGF100991999999999999999999MA1101631999999REMMET090MOBOB0 METAR 7026 //008 000000 222134Z AUTO 00000KT 9999 CLR 36/19 A3001 RMK CDP03661 CLR=
0143007026999992016062221394+00000+000000FM-15+702699999V0209999C000012200019N009999199+03601+01901999999ADDGF100991999999999999999999MA1101631999999REMMET090MOBOB0 METAR 7026 //008 000000 222139Z AUTO 00000KT 9999 CLR 36/19 A3001 RMK CDP03661 CLR=
0143007026999992016062221444+00000+000000FM-15+702699999V0209999C000012200019N009999199+03601+02101999999ADDGF100991999999999999999999MA1101631999999REMMET090MOBOB0 METAR 7026 //008 000000 222144Z AUTO 00000KT 9999 CLR 36/21 A3001 RMK CDP03661 CLR=
0143007026999992016062221494+00000+000000FM-15+702699999V0209999C000012200019N009999199+03501+02001999999ADDGF100991999999999999999999MA1101591999999REMMET090MOBOB0 METAR 7026 //008 000000 222149Z AUTO 00000KT 9999 CLR 35/20 A3000 RMK CDP03661 CLR=
0143007026999992016062221544+00000+000000FM-15+702699999V0209999C000012200019N009999199+03501+01901999999ADDGF100991999999999999999999MA1101591999999REMMET090MOBOB0 METAR 7026 //008 000000 222154Z AUTO 00000KT 9999 CLR 35/19 A3000 RMK CDP03661 CLR=
0143007026999992016062221594+00000+000000FM-15+702699999V0209999C000012200019N009999199+03501+01901999999ADDGF100991999999999999999999MA1101631999999REMMET090MOBOB0 METAR 7026 //008 000000 222159Z AUTO 00000KT 9999 CLR 35/19 A3001 RMK CDP03661 CLR=
0143007026999992016062222044+00000+000000FM-15+702699999V0209999C000012200019N009999199+03501+01901999999ADDGF100991999999999999999999MA1101631999999REMMET090MOBOB0 METAR 7026 //008 000000 222204Z AUTO 00000KT 9999 CLR 35/19 A3001 RMK CDP03661 CLR=
0143007026999992016062222094+00000+000000FM-15+702699999V0209999C000012200019N009999199+03501+02001999999ADDGF100991999999999999999999MA1101631999999REMMET090MOBOB0 METAR 7026 //008 000000 222209Z AUTO 00000KT 9999 CLR 35/20 A3001 RMK CDP03661 CLR=
0143007026999992016062222144+00000+000000FM-15+702699999V0209999C000012200019N009999199+03401+02101999999ADDGF100991999999999999999999MA1101631999999REMMET090MOBOB0 METAR 7026 //008 000000 222214Z AUTO 00000KT 9999 CLR 34/21 A3001 RMK CDP03661 CLR=
0143007026999992016062222194+00000+000000FM-15+702699999V0209999C000012200019N009999199+03401+01901999999ADDGF100991999999999999999999MA1101631999999REMMET090MOBOB0 METAR 7026 //008 000000 222219Z AUTO 00000KT 9999 CLR 34/19 A3001 RMK CDP03661 CLR=
0143007026999992016062222244+00000+000000FM-15+702699999V0209999C000012200019N009999199+03401+02101999999ADDGF100991999999999999999999MA1101631999999REMMET090MOBOB0 METAR 7026 //008 000000 222224Z AUTO 00000KT 9999 CLR 34/21 A3001 RMK CDP03661 CLR=
0143007026999992016062222294+00000+000000FM-15+702699999V0209999C000012200019N009999199+03301+02001999999ADDGF100991999999999999999999MA1101631999999REMMET090MOBOB0 METAR 7026 //008 000000 222229Z AUTO 00000KT 9999 CLR 33/20 A3001 RMK CDP03661 CLR=
0143007026999992016062222344+00000+000000FM-15+702699999V0209999C000012200019N009999199+03401+02001999999ADDGF100991999999999999999999MA1101631999999REMMET090MOBOB0 METAR 7026 //008 000000 222234Z AUTO 00000KT 9999 CLR 34/20 A3001 RMK CDP03661 CLR=
0143007026999992016062222394+00000+000000FM-15+702699999V0209999C000012200019N009999199+03401+02001999999ADDGF100991999999999999999999MA1101631999999REMMET090MOBOB0 METAR 7026 //008 000000 222239Z AUTO 00000KT 9999 CLR 34/20 A3001 RMK CDP03661 CLR=
0143007026999992016062222444+00000+000000FM-15+702699999V0209999C000012200019N009999199+03401+01901999999ADDGF100991999999999999999999MA1101631999999REMMET090MOBOB0 METAR 7026 //008 000000 222244Z AUTO 00000KT 9999 CLR 34/19 A3001 RMK CDP03661 CLR=
0143007026999992016062222494+00000+000000FM-15+702699999V0209999C000012200019N009999199+03301+02101999999ADDGF100991999999999999999999MA1101631999999REMMET090MOBOB0 METAR 7026 //008 000000 222249Z AUTO 00000KT 9999 CLR 33/21 A3001 RMK CDP03661 CLR=
0143007026999992016062222544+00000+000000FM-15+702699999V0209999C000012200019N009999199+03301+02101999999ADDGF100991999999999999999999MA1101631999999REMMET090MOBOB0 METAR 7026 //008 000000 222254Z AUTO 00000KT 9999 CLR 33/21 A3001 RMK CDP03661 CLR=
0143007026999992016062222594+00000+000000FM-15+702699999V0209999C000012200019N009999199+03301+02001999999ADDGF100991999999999999999999MA1101631999999REMMET090MOBOB0 METAR 7026 //008 000000 222259Z AUTO 00000KT 9999 CLR 33/20 A3001 RMK CDP03661 CLR=
0143007026999992016062223044+00000+000000FM-15+702699999V0209999C000012200019N009999199+03301+02101999999ADDGF100991999999999999999999MA1101631999999REMMET090MOBOB0 METAR 7026 //008 000000 222304Z AUTO 00000KT 9999 CLR 33/21 A3001 RMK CDP03661 CLR=
0143007026999992016062223094+00000+000000FM-15+702699999V0209999C000012200019N009999199+03301+02001999999ADDGF100991999999999999999999MA1101631999999REMMET090MOBOB0 METAR 7026 //008 000000 222309Z AUTO 00000KT 9999 CLR 33/20 A3001 RMK CDP03661 CLR=
0143007026999992016062223144+00000+000000FM-15+702699999V0209999C000012200019N009999199+03201+02101999999ADDGF100991999999999999999999MA1101631999999REMMET090MOBOB0 METAR 7026 //008 000000 222314Z AUTO 00000KT 9999 CLR 32/21 A3001 RMK CDP03661 CLR=
0143007026999992016062223194+00000+000000FM-15+702699999V0209999C000012200019N009999199+03201+02101999999ADDGF100991999999999999999999MA1101661999999REMMET090MOBOB0 METAR 7026 //008 000000 222319Z AUTO 00000KT 9999 CLR 32/21 A3002 RMK CDP03661 CLR=
0143007026999992016062223244+00000+000000FM-15+702699999V0209999C000012200019N009999199+03201+02101999999ADDGF100991999999999999999999MA1101631999999REMMET090MOBOB0 METAR 7026 //008 000000 222324Z AUTO 00000KT 9999 CLR 32/21 A3001 RMK CDP03661 CLR=
0143007026999992016062223294+00000+000000FM-15+702699999V0209999C000012200019N009999199+03101+02101999999ADDGF100991999999999999999999MA1101661999999REMMET090MOBOB0 METAR 7026 //008 000000 222329Z AUTO 00000KT 9999 CLR 31/21 A3002 RMK CDP03661 CLR=
0143007026999992016062223344+00000+000000FM-15+702699999V0209999C000012200019N009999199+03101+02101999999ADDGF100991999999999999999999MA1101661999999REMMET090MOBOB0 METAR 7026 //008 000000 222334Z AUTO 00000KT 9999 CLR 31/21 A3002 RMK CDP03661 CLR=
0143007026999992016062223394+00000+000000FM-15+702699999V0209999C000012200019N009999199+03101+02101999999ADDGF100991999999999999999999MA1101661999999REMMET090MOBOB0 METAR 7026 //008 000000 222339Z AUTO 00000KT 9999 CLR 31/21 A3002 RMK CDP03661 CLR=
0143007026999992016062223444+00000+000000FM-15+702699999V0209999C000012200019N009999199+03101+02101999999ADDGF100991999999999999999999MA1101661999999REMMET090MOBOB0 METAR 7026 //008 000000 222344Z AUTO 00000KT 9999 CLR 31/21 A3002 RMK CDP03661 CLR=
0143007026999992016062223494+00000+000000FM-15+702699999V0209999C000012200019N009999199+03101+02101999999ADDGF100991999999999999999999MA1101661999999REMMET090MOBOB0 METAR 7026 //008 000000 222349Z AUTO 00000KT 9999 CLR 31/21 A3002 RMK CDP03661 CLR=
0143007026999992016062223544+00000+000000FM-15+702699999V0209999C000012200019N009999199+03101+02101999999ADDGF100991999999999999999999MA1101661999999REMMET090MOBOB0 METAR 7026 //008 000000 222354Z AUTO 00000KT 9999 CLR 31/21 A3002 RMK CDP03661 CLR=
0143007026999992016062223594+00000+000000FM-15+702699999V0209999C000012200019N009999199+03101+02101999999ADDGF100991999999999999999999MA1101661999999REMMET090MOBOB0 METAR 7026 //008 000000 222359Z AUTO 00000KT 9999 CLR 31/21 A3002 RMK CDP03661 CLR=
0143007026999992016062300044+00000+000000FM-15+702699999V0209999C000012200019N009999199+03101+02101999999ADDGF100991999999999999999999MA1101661999999REMMET090MOBOB0 METAR 7026 //008 000000 230004Z AUTO 00000KT 9999 CLR 31/21 A3002 RMK CDP03661 CLR=
0143007026999992016062300094+00000+000000FM-15+702699999V0209999C000012200019N009999199+03101+02101999999ADDGF100991999999999999999999MA1101661999999REMMET090MOBOB0 METAR 7026 //008 000000 230009Z AUTO 00000KT 9999 CLR 31/21 A3002 RMK CDP03661 CLR=
0143007026999992016062300144+00000+000000FM-15+702699999V0209999C000012200019N009999199+03101+02101999999ADDGF100991999999999999999999MA1101661999999REMMET090MOBOB0 METAR 7026 //008 000000 230014Z AUTO 00000KT 9999 CLR 31/21 A3002 RMK CDP03661 CLR=
0143007026999992016062300194+00000+000000FM-15+702699999V0209999C000012200019N009999199+03001+02101999999ADDGF100991999999999999999999MA1101661999999REMMET090MOBOB0 METAR 7026 //008 000000 230019Z AUTO 00000KT 9999 CLR 30/21 A3002 RMK CDP03661 CLR=
0143007026999992016062300244+00000+000000FM-15+702699999V0209999C000012200019N009999199+03001+02101999999ADDGF100991999999999999999999MA1101661999999REMMET090MOBOB0 METAR 7026 //008 000000 230024Z AUTO 00000KT 9999 CLR 30/21 A3002 RMK CDP03661 CLR=
0143007026999992016062300294+00000+000000FM-15+702699999V0209999C000012200019N009999199+03001+02101999999ADDGF100991999999999999999999MA1101661999999REMMET090MOBOB0 METAR 7026 //008 000000 230029Z AUTO 00000KT 9999 CLR 30/21 A3002 RMK CDP03661 CLR=
0143007026999992016062300344+00000+000000FM-15+702699999V0209999C000012200019N009999199+03001+02101999999ADDGF100991999999999999999999MA1101661999999REMMET090MOBOB0 METAR 7026 //008 000000 230034Z AUTO 00000KT 9999 CLR 30/21 A3002 RMK CDP03661 CLR=
0143007026999992016062300394+00000+000000FM-15+702699999V0209999C000012200019N009999199+03001+02101999999ADDGF100991999999999999999999MA1101661999999REMMET090MOBOB0 METAR 7026 //008 000000 230039Z AUTO 00000KT 9999 CLR 30/21 A3002 RMK CDP03661 CLR=
0143007026999992016062300444+00000+000000FM-15+702699999V0209999C000012200019N009999199+03001+02101999999ADDGF100991999999999999999999MA1101661999999REMMET090MOBOB0 METAR 7026 //008 000000 230044Z AUTO 00000KT 9999 CLR 30/21 A3002 RMK CDP03661 CLR=
0143007026999992016062300494+00000+000000FM-15+702699999V0209999C000012200019N009999199+03001+02101999999ADDGF100991999999999999999999MA1101661999999REMMET090MOBOB0 METAR 7026 //008 000000 230049Z AUTO 00000KT 9999 CLR 30/21 A3002 RMK CDP03661 CLR=
0143007026999992016062300544+00000+000000FM-15+702699999V0209999C000012200019N009999199+03001+02101999999ADDGF100991999999999999999999MA1101661999999REMMET090MOBOB0 METAR 7026 //008 000000 230054Z AUTO 00000KT 9999 CLR 30/21 A3002 RMK CDP03661 CLR=
0143007026999992016062300594+00000+000000FM-15+702699999V0209999C000012200019N009999199+03001+02101999999ADDGF100991999999999999999999MA1101691999999REMMET090MOBOB0 METAR 7026 //008 000000 230059Z AUTO 00000KT 9999 CLR 30/21 A3003 RMK CDP03661 CLR=
0199007026999992016062301044+00000+000000FM-15+702699999V0209999C000019999999N009999199+03001+02101999999ADDGA1021+018591999GE19MSL   +99999+99999GF199999021999018591999999MA1101691999999REMMET108MOBOB0 METAR 7026 //008 000000 230104Z AUTO 00000KT 9999 FEW061 30/21 A3003 RMK CDP03661 FEW061 CLD AVG 061=
0199007026999992016062301094+00000+000000FM-15+702699999V0209999C000019999999N009999199+03001+02101999999ADDGA1021+019201999GE19MSL   +99999+99999GF199999021999019201999999MA1101691999999REMMET108MOBOB0 METAR 7026 //008 000000 230109Z AUTO 00000KT 9999 FEW063 30/21 A3003 RMK CDP03661 FEW063 CLD AVG 063=
0143007026999992016062301144+00000+000000FM-15+702699999V0209999C000012200019N009999199+03001+02101999999ADDGF100991999999999999999999MA1101691999999REMMET090MOBOB0 METAR 7026 //008 000000 230114Z AUTO 00000KT 9999 CLR 30/21 A3003 RMK CDP03661 CLR=
0143007026999992016062301194+00000+000000FM-15+702699999V0209999C000012200019N009999199+03001+02101999999ADDGF100991999999999999999999MA1101691999999REMMET090MOBOB0 METAR 7026 //008 000000 230119Z AUTO 00000KT 9999 CLR 30/21 A3003 RMK CDP03661 CLR=
0143007026999992016062301244+00000+000000FM-15+702699999V0209999C000012200019N009999199+03001+02101999999ADDGF100991999999999999999999MA1101691999999REMMET090MOBOB0 METAR 7026 //008 000000 230124Z AUTO 00000KT 9999 CLR 30/21 A3003 RMK CDP03661 CLR=
0143007026999992016062301294+00000+000000FM-15+702699999V0209999C000012200019N009999199+03001+02101999999ADDGF100991999999999999999999MA1101691999999REMMET090MOBOB0 METAR 7026 //008 000000 230129Z AUTO 00000KT 9999 CLR 30/21 A3003 RMK CDP03661 CLR=
0143007026999992016062301344+00000+000000FM-15+702699999V0209999C000012200019N009999199+03001+02201999999ADDGF100991999999999999999999MA1101691999999REMMET090MOBOB0 METAR 7026 //008 000000 230134Z AUTO 00000KT 9999 CLR 30/22 A3003 RMK CDP03661 CLR=
0143007026999992016062301394+00000+000000FM-15+702699999V0209999C000012200019N009999199+03001+02101999999ADDGF100991999999999999999999MA1101731999999REMMET090MOBOB0 METAR 7026 //008 000000 230139Z AUTO 00000KT 9999 CLR 30/21 A3004 RMK CDP03661 CLR=
0143007026999992016062301444+00000+000000FM-15+702699999V0209999C000012200019N009999199+03001+02201999999ADDGF100991999999999999999999MA1101731999999REMMET090MOBOB0 METAR 7026 //008 000000 230144Z AUTO 00000KT 9999 CLR 30/22 A3004 RMK CDP03661 CLR=
0143007026999992016062301494+00000+000000FM-15+702699999V0209999C000012200019N009999199+03001+02201999999ADDGF100991999999999999999999MA1101731999999REMMET090MOBOB0 METAR 7026 //008 000000 230149Z AUTO 00000KT 9999 CLR 30/22 A3004 RMK CDP03661 CLR=
0143007026999992016062301544+00000+000000FM-15+702699999V0209999C000012200019N009999199+03001+02201999999ADDGF100991999999999999999999MA1101731999999REMMET090MOBOB0 METAR 7026 //008 000000 230154Z AUTO 00000KT 9999 CLR 30/22 A3004 RMK CDP03661 CLR=
0143007026999992016062301594+00000+000000FM-15+702699999V0209999C000012200019N009999199+03001+02201999999ADDGF100991999999999999999999MA1101731999999REMMET090MOBOB0 METAR 7026 //008 000000 230159Z AUTO 00000KT 9999 CLR 30/22 A3004 RMK CDP03661 CLR=
0143007026999992016062302044+00000+000000FM-15+702699999V0209999C000012200019N009999199+03001+02201999999ADDGF100991999999999999999999MA1101731999999REMMET090MOBOB0 METAR 7026 //008 000000 230204Z AUTO 00000KT 9999 CLR 30/22 A3004 RMK CDP03661 CLR=
0143007026999992016062302094+00000+000000FM-15+702699999V0209999C000012200019N009999199+03001+02201999999ADDGF100991999999999999999999MA1101761999999REMMET090MOBOB0 METAR 7026 //008 000000 230209Z AUTO 00000KT 9999 CLR 30/22 A3005 RMK CDP03661 CLR=
0143007026999992016062302144+00000+000000FM-15+702699999V0209999C000012200019N009999199+03001+02201999999ADDGF100991999999999999999999MA1101761999999REMMET090MOBOB0 METAR 7026 //008 000000 230214Z AUTO 00000KT 9999 CLR 30/22 A3005 RMK CDP03661 CLR=
0143007026999992016062302194+00000+000000FM-15+702699999V0209999C000012200019N009999199+03001+02201999999ADDGF100991999999999999999999MA1101761999999REMMET090MOBOB0 METAR 7026 //008 000000 230219Z AUTO 00000KT 9999 CLR 30/22 A3005 RMK CDP03661 CLR=
0143007026999992016062302244+00000+000000FM-15+702699999V0209999C000012200019N009999199+03001+02201999999ADDGF100991999999999999999999MA1101761999999REMMET090MOBOB0 METAR 7026 //008 000000 230224Z AUTO 00000KT 9999 CLR 30/22 A3005 RMK CDP03661 CLR=
0143007026999992016062302294+00000+000000FM-15+702699999V0209999C000012200019N009999199+03001+02201999999ADDGF100991999999999999999999MA1101761999999REMMET090MOBOB0 METAR 7026 //008 000000 230229Z AUTO 00000KT 9999 CLR 30/22 A3005 RMK CDP03661 CLR=
0143007026999992016062302344+00000+000000FM-15+702699999V0209999C000012200019N009999199+03001+02201999999ADDGF100991999999999999999999MA1101761999999REMMET090MOBOB0 METAR 7026 //008 000000 230234Z AUTO 00000KT 9999 CLR 30/22 A3005 RMK CDP03661 CLR=
0143007026999992016062302394+00000+000000FM-15+702699999V0209999C000012200019N009999199+03001+02201999999ADDGF100991999999999999999999MA1101761999999REMMET090MOBOB0 METAR 7026 //008 000000 230239Z AUTO 00000KT 9999 CLR 30/22 A3005 RMK CDP03661 CLR=
0143007026999992016062302444+00000+000000FM-15+702699999V0209999C000012200019N009999199+03001+02201999999ADDGF100991999999999999999999MA1101761999999REMMET090MOBOB0 METAR 7026 //008 000000 230244Z AUTO 00000KT 9999 CLR 30/22 A3005 RMK CDP03661 CLR=
0143007026999992016062302494+00000+000000FM-15+702699999V0209999C000012200019N009999199+03001+02201999999ADDGF100991999999999999999999MA1101761999999REMMET090MOBOB0 METAR 7026 //008 000000 230249Z AUTO 00000KT 9999 CLR 30/22 A3005 RMK CDP03661 CLR=
0143007026999992016062302544+00000+000000FM-15+702699999V0209999C000012200019N009999199+03001+02201999999ADDGF100991999999999999999999MA1101761999999REMMET090MOBOB0 METAR 7026 //008 000000 230254Z AUTO 00000KT 9999 CLR 30/22 A3005 RMK CDP03661 CLR=
0143007026999992016062302594+00000+000000FM-15+702699999V0209999C000012200019N009999199+03001+02201999999ADDGF100991999999999999999999MA1101761999999REMMET090MOBOB0 METAR 7026 //008 000000 230259Z AUTO 00000KT 9999 CLR 30/22 A3005 RMK CDP03661 CLR=
0143007026999992016062303044+00000+000000FM-15+702699999V0209999C000012200019N009999199+03001+02201999999ADDGF100991999999999999999999MA1101761999999REMMET090MOBOB0 METAR 7026 //008 000000 230304Z AUTO 00000KT 9999 CLR 30/22 A3005 RMK CDP03661 CLR=
0143007026999992016062303094+00000+000000FM-15+702699999V0209999C000012200019N009999199+02901+02201999999ADDGF100991999999999999999999MA1101761999999REMMET090MOBOB0 METAR 7026 //008 000000 230309Z AUTO 00000KT 9999 CLR 29/22 A3005 RMK CDP03661 CLR=
0143007026999992016062303144+00000+000000FM-15+702699999V0209999C000012200019N009999199+02901+02201999999ADDGF100991999999999999999999MA1101761999999REMMET090MOBOB0 METAR 7026 //008 000000 230314Z AUTO 00000KT 9999 CLR 29/22 A3005 RMK CDP03661 CLR=
0143007026999992016062303194+00000+000000FM-15+702699999V0209999C000012200019N009999199+02901+02201999999ADDGF100991999999999999999999MA1101761999999REMMET090MOBOB0 METAR 7026 //008 000000 230319Z AUTO 00000KT 9999 CLR 29/22 A3005 RMK CDP03661 CLR=
0143007026999992016062303244+00000+000000FM-15+702699999V0209999C000012200019N009999199+03001+02201999999ADDGF100991999999999999999999MA1101761999999REMMET090MOBOB0 METAR 7026 //008 000000 230324Z AUTO 00000KT 9999 CLR 30/22 A3005 RMK CDP03661 CLR=
0143007026999992016062303294+00000+000000FM-15+702699999V0209999C000012200019N009999199+03001+02201999999ADDGF100991999999999999999999MA1101761999999REMMET090MOBOB0 METAR 7026 //008 000000 230329Z AUTO 00000KT 9999 CLR 30/22 A3005 RMK CDP03661 CLR=
0143007026999992016062303344+00000+000000FM-15+702699999V0209999C000012200019N009999199+03001+02201999999ADDGF100991999999999999999999MA1101761999999REMMET090MOBOB0 METAR 7026 //008 000000 230334Z AUTO 00000KT 9999 CLR 30/22 A3005 RMK CDP03661 CLR=
0143007026999992016062303394+00000+000000FM-15+702699999V0209999C000012200019N009999199+02901+02201999999ADDGF100991999999999999999999MA1101761999999REMMET090MOBOB0 METAR 7026 //008 000000 230339Z AUTO 00000KT 9999 CLR 29/22 A3005 RMK CDP03661 CLR=
0143007026999992016062303444+00000+000000FM-15+702699999V0209999C000012200019N009999199+02901+02201999999ADDGF100991999999999999999999MA1101761999999REMMET090MOBOB0 METAR 7026 //008 000000 230344Z AUTO 00000KT 9999 CLR 29/22 A3005 RMK CDP03661 CLR=
0143007026999992016062303494+00000+000000FM-15+702699999V0209999C000012200019N009999199+02901+02201999999ADDGF100991999999999999999999MA1101761999999REMMET090MOBOB0 METAR 7026 //008 000000 230349Z AUTO 00000KT 9999 CLR 29/22 A3005 RMK CDP03661 CLR=
0143007026999992016062303544+00000+000000FM-15+702699999V0209999C000012200019N009999199+02901+02201999999ADDGF100991999999999999999999MA1101761999999REMMET090MOBOB0 METAR 7026 //008 000000 230354Z AUTO 00000KT 9999 CLR 29/22 A3005 RMK CDP03661 CLR=
0143007026999992016062303594+00000+000000FM-15+702699999V0209999C000012200019N009999199+02901+02201999999ADDGF100991999999999999999999MA1101761999999REMMET090MOBOB0 METAR 7026 //008 000000 230359Z AUTO 00000KT 9999 CLR 29/22 A3005 RMK CDP03661 CLR=
0143007026999992016062304044+00000+000000FM-15+702699999V0209999C000012200019N009999199+02901+02201999999ADDGF100991999999999999999999MA1101761999999REMMET090MOBOB0 METAR 7026 //008 000000 230404Z AUTO 00000KT 9999 CLR 29/22 A3005 RMK CDP03661 CLR=
0143007026999992016062304094+00000+000000FM-15+702699999V0209999C000012200019N009999199+02901+02201999999ADDGF100991999999999999999999MA1101761999999REMMET090MOBOB0 METAR 7026 //008 000000 230409Z AUTO 00000KT 9999 CLR 29/22 A3005 RMK CDP03661 CLR=
0143007026999992016062304144+00000+000000FM-15+702699999V0209999C000012200019N009999199+02901+02201999999ADDGF100991999999999999999999MA1101731999999REMMET090MOBOB0 METAR 7026 //008 000000 230414Z AUTO 00000KT 9999 CLR 29/22 A3004 RMK CDP03661 CLR=
0143007026999992016062304194+00000+000000FM-15+702699999V0209999C000012200019N009999199+02901+02201999999ADDGF100991999999999999999999MA1101731999999REMMET090MOBOB0 METAR 7026 //008 000000 230419Z AUTO 00000KT 9999 CLR 29/22 A3004 RMK CDP03661 CLR=
0143007026999992016062304244+00000+000000FM-15+702699999V0209999C000012200019N009999199+02901+02201999999ADDGF100991999999999999999999MA1101731999999REMMET090MOBOB0 METAR 7026 //008 000000 230424Z AUTO 00000KT 9999 CLR 29/22 A3004 RMK CDP03661 CLR=
0143007026999992016062304294+00000+000000FM-15+702699999V0209999C000012200019N009999199+02901+02201999999ADDGF100991999999999999999999MA1101691999999REMMET090MOBOB0 METAR 7026 //008 000000 230429Z AUTO 00000KT 9999 CLR 29/22 A3003 RMK CDP03661 CLR=
0143007026999992016062304344+00000+000000FM-15+702699999V0209999C000012200019N009999199+02901+02201999999ADDGF100991999999999999999999MA1101691999999REMMET090MOBOB0 METAR 7026 //008 000000 230434Z AUTO 00000KT 9999 CLR 29/22 A3003 RMK CDP03661 CLR=
0143007026999992016062304394+00000+000000FM-15+702699999V0209999C000012200019N009999199+02901+02201999999ADDGF100991999999999999999999MA1101691999999REMMET090MOBOB0 METAR 7026 //008 000000 230439Z AUTO 00000KT 9999 CLR 29/22 A3003 RMK CDP03661 CLR=
0143007026999992016062304444+00000+000000FM-15+702699999V0209999C000012200019N009999199+02901+02201999999ADDGF100991999999999999999999MA1101691999999REMMET090MOBOB0 METAR 7026 //008 000000 230444Z AUTO 00000KT 9999 CLR 29/22 A3003 RMK CDP03661 CLR=
0143007026999992016062304494+00000+000000FM-15+702699999V0209999C000012200019N009999199+02901+02201999999ADDGF100991999999999999999999MA1101661999999REMMET090MOBOB0 METAR 7026 //008 000000 230449Z AUTO 00000KT 9999 CLR 29/22 A3002 RMK CDP03661 CLR=
0143007026999992016062304544+00000+000000FM-15+702699999V0209999C000012200019N009999199+02901+02201999999ADDGF100991999999999999999999MA1101691999999REMMET090MOBOB0 METAR 7026 //008 000000 230454Z AUTO 00000KT 9999 CLR 29/22 A3003 RMK CDP03661 CLR=
0143007026999992016062304594+00000+000000FM-15+702699999V0209999C000012200019N009999199+02901+02201999999ADDGF100991999999999999999999MA1101691999999REMMET090MOBOB0 METAR 7026 //008 000000 230459Z AUTO 00000KT 9999 CLR 29/22 A3003 RMK CDP03661 CLR=
0143007026999992016062305044+00000+000000FM-15+702699999V0209999C000012200019N009999199+02901+02201999999ADDGF100991999999999999999999MA1101691999999REMMET090MOBOB0 METAR 7026 //008 000000 230504Z AUTO 00000KT 9999 CLR 29/22 A3003 RMK CDP03661 CLR=
0143007026999992016062305094+00000+000000FM-15+702699999V0209999C000012200019N009999199+02801+02201999999ADDGF100991999999999999999999MA1101661999999REMMET090MOBOB0 METAR 7026 //008 000000 230509Z AUTO 00000KT 9999 CLR 28/22 A3002 RMK CDP03661 CLR=
0143007026999992016062305144+00000+000000FM-15+702699999V0209999C000012200019N009999199+02801+02201999999ADDGF100991999999999999999999MA1101661999999REMMET090MOBOB0 METAR 7026 //008 000000 230514Z AUTO 00000KT 9999 CLR 28/22 A3002 RMK CDP03661 CLR=
0143007026999992016062305194+00000+000000FM-15+702699999V0209999C000012200019N009999199+02801+02201999999ADDGF100991999999999999999999MA1101661999999REMMET090MOBOB0 METAR 7026 //008 000000 230519Z AUTO 00000KT 9999 CLR 28/22 A3002 RMK CDP03661 CLR=
0143007026999992016062305244+00000+000000FM-15+702699999V0209999C000012200019N009999199+02801+02201999999ADDGF100991999999999999999999MA1101661999999REMMET090MOBOB0 METAR 7026 //008 000000 230524Z AUTO 00000KT 9999 CLR 28/22 A3002 RMK CDP03661 CLR=
0143007026999992016062305294+00000+000000FM-15+702699999V0209999C000012200019N009999199+02801+02201999999ADDGF100991999999999999999999MA1101661999999REMMET090MOBOB0 METAR 7026 //008 000000 230529Z AUTO 00000KT 9999 CLR 28/22 A3002 RMK CDP03661 CLR=
0143007026999992016062305344+00000+000000FM-15+702699999V0209999C000012200019N009999199+02801+02201999999ADDGF100991999999999999999999MA1101691999999REMMET090MOBOB0 METAR 7026 //008 000000 230534Z AUTO 00000KT 9999 CLR 28/22 A3003 RMK CDP03661 CLR=
0143007026999992016062305394+00000+000000FM-15+702699999V0209999C000012200019N009999199+02801+02201999999ADDGF100991999999999999999999MA1101691999999REMMET090MOBOB0 METAR 7026 //008 000000 230539Z AUTO 00000KT 9999 CLR 28/22 A3003 RMK CDP03661 CLR=
0143007026999992016062305444+00000+000000FM-15+702699999V0209999C000012200019N009999199+02801+02201999999ADDGF100991999999999999999999MA1101691999999REMMET090MOBOB0 METAR 7026 //008 000000 230544Z AUTO 00000KT 9999 CLR 28/22 A3003 RMK CDP03661 CLR=
0143007026999992016062305494+00000+000000FM-15+702699999V0209999C000012200019N009999199+02801+02201999999ADDGF100991999999999999999999MA1101691999999REMMET090MOBOB0 METAR 7026 //008 000000 230549Z AUTO 00000KT 9999 CLR 28/22 A3003 RMK CDP03661 CLR=
0143007026999992016062305544+00000+000000FM-15+702699999V0209999C000012200019N009999199+02801+02201999999ADDGF100991999999999999999999MA1101691999999REMMET090MOBOB0 METAR 7026 //008 000000 230554Z AUTO 00000KT 9999 CLR 28/22 A3003 RMK CDP03661 CLR=
0143007026999992016062305594+00000+000000FM-15+702699999V0209999C000012200019N009999199+02801+02201999999ADDGF100991999999999999999999MA1101691999999REMMET090MOBOB0 METAR 7026 //008 000000 230559Z AUTO 00000KT 9999 CLR 28/22 A3003 RMK CDP03661 CLR=
0143007026999992016062306044+00000+000000FM-15+702699999V0209999C000012200019N009999199+02801+02201999999ADDGF100991999999999999999999MA1101691999999REMMET090MOBOB0 METAR 7026 //008 000000 230604Z AUTO 00000KT 9999 CLR 28/22 A3003 RMK CDP03661 CLR=
0143007026999992016062306094+00000+000000FM-15+702699999V0209999C000012200019N009999199+02801+02201999999ADDGF100991999999999999999999MA1101691999999REMMET090MOBOB0 METAR 7026 //008 000000 230609Z AUTO 00000KT 9999 CLR 28/22 A3003 RMK CDP03661 CLR=
0143007026999992016062306144+00000+000000FM-15+702699999V0209999C000012200019N009999199+02801+02201999999ADDGF100991999999999999999999MA1101661999999REMMET090MOBOB0 METAR 7026 //008 000000 230614Z AUTO 00000KT 9999 CLR 28/22 A3002 RMK CDP03661 CLR=
0143007026999992016062306194+00000+000000FM-15+702699999V0209999C000012200019N009999199+02801+02201999999ADDGF100991999999999999999999MA1101661999999REMMET090MOBOB0 METAR 7026 //008 000000 230619Z AUTO 00000KT 9999 CLR 28/22 A3002 RMK CDP03661 CLR=
0143007026999992016062306244+00000+000000FM-15+702699999V0209999C000012200019N009999199+02801+02201999999ADDGF100991999999999999999999MA1101661999999REMMET090MOBOB0 METAR 7026 //008 000000 230624Z AUTO 00000KT 9999 CLR 28/22 A3002 RMK CDP03661 CLR=
0143007026999992016062306294+00000+000000FM-15+702699999V0209999C000012200019N009999199+02801+02201999999ADDGF100991999999999999999999MA1101661999999REMMET090MOBOB0 METAR 7026 //008 000000 230629Z AUTO 00000KT 9999 CLR 28/22 A3002 RMK CDP03661 CLR=
0143007026999992016062306344+00000+000000FM-15+702699999V0209999C000012200019N009999199+02801+02201999999ADDGF100991999999999999999999MA1101661999999REMMET090MOBOB0 METAR 7026 //008 000000 230634Z AUTO 00000KT 9999 CLR 28/22 A3002 RMK CDP03661 CLR=
0143007026999992016062306394+00000+000000FM-15+702699999V0209999C000012200019N009999199+02801+02201999999ADDGF100991999999999999999999MA1101661999999REMMET090MOBOB0 METAR 7026 //008 000000 230639Z AUTO 00000KT 9999 CLR 28/22 A3002 RMK CDP03661 CLR=
0143007026999992016062306444+00000+000000FM-15+702699999V0209999C000012200019N009999199+02801+02201999999ADDGF100991999999999999999999MA1101661999999REMMET090MOBOB0 METAR 7026 //008 000000 230644Z AUTO 00000KT 9999 CLR 28/22 A3002 RMK CDP03661 CLR=
0143007026999992016062306494+00000+000000FM-15+702699999V0209999C000012200019N009999199+02801+02201999999ADDGF100991999999999999999999MA1101661999999REMMET090MOBOB0 METAR 7026 //008 000000 230649Z AUTO 00000KT 9999 CLR 28/22 A3002 RMK CDP03661 CLR=
0143007026999992016062306544+00000+000000FM-15+702699999V0209999C000012200019N009999199+02801+02201999999ADDGF100991999999999999999999MA1101661999999REMMET090MOBOB0 METAR 7026 //008 000000 230654Z AUTO 00000KT 9999 CLR 28/22 A3002 RMK CDP03661 CLR=
0143007026999992016062306594+00000+000000FM-15+702699999V0209999C000012200019N009999199+02801+02201999999ADDGF100991999999999999999999MA1101661999999REMMET090MOBOB0 METAR 7026 //008 000000 230659Z AUTO 00000KT 9999 CLR 28/22 A3002 RMK CDP03661 CLR=
0143007026999992016062307044+00000+000000FM-15+702699999V0209999C000012200019N009999199+02801+02201999999ADDGF100991999999999999999999MA1101661999999REMMET090MOBOB0 METAR 7026 //008 000000 230704Z AUTO 00000KT 9999 CLR 28/22 A3002 RMK CDP03661 CLR=
0143007026999992016062307094+00000+000000FM-15+702699999V0209999C000012200019N009999199+02801+02101999999ADDGF100991999999999999999999MA1101661999999REMMET090MOBOB0 METAR 7026 //008 000000 230709Z AUTO 00000KT 9999 CLR 28/21 A3002 RMK CDP03661 CLR=
0143007026999992016062307144+00000+000000FM-15+702699999V0209999C000012200019N009999199+02801+02201999999ADDGF100991999999999999999999MA1101661999999REMMET090MOBOB0 METAR 7026 //008 000000 230714Z AUTO 00000KT 9999 CLR 28/22 A3002 RMK CDP03661 CLR=
0143007026999992016062307194+00000+000000FM-15+702699999V0209999C000012200019N009999199+02801+02101999999ADDGF100991999999999999999999MA1101631999999REMMET090MOBOB0 METAR 7026 //008 000000 230719Z AUTO 00000KT 9999 CLR 28/21 A3001 RMK CDP03661 CLR=
0143007026999992016062307244+00000+000000FM-15+702699999V0209999C000012200019N009999199+02801+02101999999ADDGF100991999999999999999999MA1101631999999REMMET090MOBOB0 METAR 7026 //008 000000 230724Z AUTO 00000KT 9999 CLR 28/21 A3001 RMK CDP03661 CLR=
0143007026999992016062307294+00000+000000FM-15+702699999V0209999C000012200019N009999199+02801+02101999999ADDGF100991999999999999999999MA1101631999999REMMET090MOBOB0 METAR 7026 //008 000000 230729Z AUTO 00000KT 9999 CLR 28/21 A3001 RMK CDP03661 CLR=
0143007026999992016062307344+00000+000000FM-15+702699999V0209999C000012200019N009999199+02801+02101999999ADDGF100991999999999999999999MA1101631999999REMMET090MOBOB0 METAR 7026 //008 000000 230734Z AUTO 00000KT 9999 CLR 28/21 A3001 RMK CDP03661 CLR=
0143007026999992016062307394+00000+000000FM-15+702699999V0209999C000012200019N009999199+02801+02101999999ADDGF100991999999999999999999MA1101631999999REMMET090MOBOB0 METAR 7026 //008 000000 230739Z AUTO 00000KT 9999 CLR 28/21 A3001 RMK CDP03661 CLR=
0143007026999992016062307444+00000+000000FM-15+702699999V0209999C000012200019N009999199+02801+02101999999ADDGF100991999999999999999999MA1101631999999REMMET090MOBOB0 METAR 7026 //008 000000 230744Z AUTO 00000KT 9999 CLR 28/21 A3001 RMK CDP03661 CLR=
0143007026999992016062307494+00000+000000FM-15+702699999V0209999C000012200019N009999199+02801+02101999999ADDGF100991999999999999999999MA1101631999999REMMET090MOBOB0 METAR 7026 //008 000000 230749Z AUTO 00000KT 9999 CLR 28/21 A3001 RMK CDP03661 CLR=
0143007026999992016062307544+00000+000000FM-15+702699999V0209999C000012200019N009999199+02701+02101999999ADDGF100991999999999999999999MA1101631999999REMMET090MOBOB0 METAR 7026 //008 000000 230754Z AUTO 00000KT 9999 CLR 27/21 A3001 RMK CDP03661 CLR=
0143007026999992016062307594+00000+000000FM-15+702699999V0209999C000012200019N009999199+02701+02101999999ADDGF100991999999999999999999MA1101631999999REMMET090MOBOB0 METAR 7026 //008 000000 230759Z AUTO 00000KT 9999 CLR 27/21 A3001 RMK CDP03661 CLR=
0143007026999992016062308054+00000+000000FM-15+702699999V0209999C000012200019N009999199+02701+02101999999ADDGF100991999999999999999999MA1101631999999REMMET090MOBOB0 METAR 7026 //008 000000 230805Z AUTO 00000KT 9999 CLR 27/21 A3001 RMK CDP03661 CLR=
0143007026999992016062308094+00000+000000FM-15+702699999V0209999C000012200019N009999199+02701+02101999999ADDGF100991999999999999999999MA1101631999999REMMET090MOBOB0 METAR 7026 //008 000000 230809Z AUTO 00000KT 9999 CLR 27/21 A3001 RMK CDP03661 CLR=
0143007026999992016062308144+00000+000000FM-15+702699999V0209999C000012200019N009999199+02701+02101999999ADDGF100991999999999999999999MA1101631999999REMMET090MOBOB0 METAR 7026 //008 000000 230814Z AUTO 00000KT 9999 CLR 27/21 A3001 RMK CDP03661 CLR=
0143007026999992016062308194+00000+000000FM-15+702699999V0209999C000012200019N009999199+02701+02101999999ADDGF100991999999999999999999MA1101631999999REMMET090MOBOB0 METAR 7026 //008 000000 230819Z AUTO 00000KT 9999 CLR 27/21 A3001 RMK CDP03661 CLR=
0143007026999992016062308244+00000+000000FM-15+702699999V0209999C000012200019N009999199+02701+02101999999ADDGF100991999999999999999999MA1101631999999REMMET090MOBOB0 METAR 7026 //008 000000 230824Z AUTO 00000KT 9999 CLR 27/21 A3001 RMK CDP03661 CLR=
0143007026999992016062308294+00000+000000FM-15+702699999V0209999C000012200019N009999199+02701+02101999999ADDGF100991999999999999999999MA1101631999999REMMET090MOBOB0 METAR 7026 //008 000000 230829Z AUTO 00000KT 9999 CLR 27/21 A3001 RMK CDP03661 CLR=
0143007026999992016062308344+00000+000000FM-15+702699999V0209999C000012200019N009999199+02701+02101999999ADDGF100991999999999999999999MA1101631999999REMMET090MOBOB0 METAR 7026 //008 000000 230834Z AUTO 00000KT 9999 CLR 27/21 A3001 RMK CDP03661 CLR=
0143007026999992016062308394+00000+000000FM-15+702699999V0209999C000012200019N009999199+02701+02101999999ADDGF100991999999999999999999MA1101661999999REMMET090MOBOB0 METAR 7026 //008 000000 230839Z AUTO 00000KT 9999 CLR 27/21 A3002 RMK CDP03661 CLR=
0143007026999992016062308444+00000+000000FM-15+702699999V0209999C000012200019N009999199+02701+02101999999ADDGF100991999999999999999999MA1101661999999REMMET090MOBOB0 METAR 7026 //008 000000 230844Z AUTO 00000KT 9999 CLR 27/21 A3002 RMK CDP03661 CLR=
0143007026999992016062308494+00000+000000FM-15+702699999V0209999C000012200019N009999199+02701+02101999999ADDGF100991999999999999999999MA1101661999999REMMET090MOBOB0 METAR 7026 //008 000000 230849Z AUTO 00000KT 9999 CLR 27/21 A3002 RMK CDP03661 CLR=
0143007026999992016062308544+00000+000000FM-15+702699999V0209999C000012200019N009999199+02701+02101999999ADDGF100991999999999999999999MA1101661999999REMMET090MOBOB0 METAR 7026 //008 000000 230854Z AUTO 00000KT 9999 CLR 27/21 A3002 RMK CDP03661 CLR=
0143007026999992016062308594+00000+000000FM-15+702699999V0209999C000012200019N009999199+02701+02101999999ADDGF100991999999999999999999MA1101661999999REMMET090MOBOB0 METAR 7026 //008 000000 230859Z AUTO 00000KT 9999 CLR 27/21 A3002 RMK CDP03661 CLR=
0143007026999992016062309044+00000+000000FM-15+702699999V0209999C000012200019N009999199+02701+02101999999ADDGF100991999999999999999999MA1101631999999REMMET090MOBOB0 METAR 7026 //008 000000 230904Z AUTO 00000KT 9999 CLR 27/21 A3001 RMK CDP03661 CLR=
0143007026999992016062309104+00000+000000FM-15+702699999V0209999C000012200019N009999199+02701+02101999999ADDGF100991999999999999999999MA1101661999999REMMET090MOBOB0 METAR 7026 //008 000000 230910Z AUTO 00000KT 9999 CLR 27/21 A3002 RMK CDP03661 CLR=
0199007026999992016062309194+00000+000000FM-15+702699999V0209999C000019999999N009999199+02701+02101999999ADDGA1021+020121999GE19MSL   +99999+99999GF199999021999020121999999MA1101661999999REMMET108MOBOB0 METAR 7026 //008 000000 230919Z AUTO 00000KT 9999 FEW066 27/21 A3002 RMK CDP03661 FEW066 CLD AVG 067=
0199007026999992016062309244+00000+000000FM-15+702699999V0209999C000019999999N009999199+02701+02101999999ADDGA1021+020121999GE19MSL   +99999+99999GF199999021999020121999999MA1101661999999REMMET108MOBOB0 METAR 7026 //008 000000 230924Z AUTO 00000KT 9999 FEW066 27/21 A3002 RMK CDP03661 FEW066 CLD AVG 067=
0143007026999992016062309294+00000+000000FM-15+702699999V0209999C000012200019N009999199+02701+02101999999ADDGF100991999999999999999999MA1101661999999REMMET090MOBOB0 METAR 7026 //008 000000 230929Z AUTO 00000KT 9999 CLR 27/21 A3002 RMK CDP03661 CLR=
0143007026999992016062309344+00000+000000FM-15+702699999V0209999C000012200019N009999199+02701+02101999999ADDGF100991999999999999999999MA1101661999999REMMET090MOBOB0 METAR 7026 //008 000000 230934Z AUTO 00000KT 9999 CLR 27/21 A3002 RMK CDP03661 CLR=
0143007026999992016062309394+00000+000000FM-15+702699999V0209999C000012200019N009999199+02701+02101999999ADDGF100991999999999999999999MA1101661999999REMMET090MOBOB0 METAR 7026 //008 000000 230939Z AUTO 00000KT 9999 CLR 27/21 A3002 RMK CDP03661 CLR=
0143007026999992016062309444+00000+000000FM-15+702699999V0209999C000012200019N009999199+02701+02101999999ADDGF100991999999999999999999MA1101661999999REMMET090MOBOB0 METAR 7026 //008 000000 230944Z AUTO 00000KT 9999 CLR 27/21 A3002 RMK CDP03661 CLR=
0143007026999992016062309494+00000+000000FM-15+702699999V0209999C000012200019N009999199+02701+02101999999ADDGF100991999999999999999999MA1101661999999REMMET090MOBOB0 METAR 7026 //008 000000 230949Z AUTO 00000KT 9999 CLR 27/21 A3002 RMK CDP03661 CLR=
0143007026999992016062309544+00000+000000FM-15+702699999V0209999C000012200019N009999199+02701+02101999999ADDGF100991999999999999999999MA1101661999999REMMET090MOBOB0 METAR 7026 //008 000000 230954Z AUTO 00000KT 9999 CLR 27/21 A3002 RMK CDP03661 CLR=
0143007026999992016062309594+00000+000000FM-15+702699999V0209999C000012200019N009999199+02701+02101999999ADDGF100991999999999999999999MA1101661999999REMMET090MOBOB0 METAR 7026 //008 000000 230959Z AUTO 00000KT 9999 CLR 27/21 A3002 RMK CDP03661 CLR=
0199007026999992016062310044+00000+000000FM-15+702699999V0209999C000019999999N009999199+02701+02001999999ADDGA1021+034751999GE19MSL   +99999+99999GF199999021999034751999999MA1101661999999REMMET108MOBOB0 METAR 7026 //008 000000 231004Z AUTO 00000KT 9999 FEW114 27/20 A3002 RMK CDP03661 FEW114 CLD AVG 114=
0143007026999992016062310094+00000+000000FM-15+702699999V0209999C000012200019N009999199+02701+02001999999ADDGF100991999999999999999999MA1101661999999REMMET090MOBOB0 METAR 7026 //008 000000 231009Z AUTO 00000KT 9999 CLR 27/20 A3002 RMK CDP03661 CLR=
0143007026999992016062310144+00000+000000FM-15+702699999V0209999C000012200019N009999199+02701+02001999999ADDGF100991999999999999999999MA1101661999999REMMET090MOBOB0 METAR 7026 //008 000000 231014Z AUTO 00000KT 9999 CLR 27/20 A3002 RMK CDP03661 CLR=
0143007026999992016062310194+00000+000000FM-15+702699999V0209999C000012200019N009999199+02701+02001999999ADDGF100991999999999999999999MA1101661999999REMMET090MOBOB0 METAR 7026 //008 000000 231019Z AUTO 00000KT 9999 CLR 27/20 A3002 RMK CDP03661 CLR=
0143007026999992016062310244+00000+000000FM-15+702699999V0209999C000012200019N009999199+02701+02001999999ADDGF100991999999999999999999MA1101661999999REMMET090MOBOB0 METAR 7026 //008 000000 231024Z AUTO 00000KT 9999 CLR 27/20 A3002 RMK CDP03661 CLR=
0199007026999992016062310294+00000+000000FM-15+702699999V0209999C000019999999N009999199+02701+02001999999ADDGA1021+026211999GE19MSL   +99999+99999GF199999021999026211999999MA1101661999999REMMET108MOBOB0 METAR 7026 //008 000000 231029Z AUTO 00000KT 9999 FEW086 27/20 A3002 RMK CDP03661 FEW086 CLD AVG 086=
0143007026999992016062310344+00000+000000FM-15+702699999V0209999C000012200019N009999199+02701+02001999999ADDGF100991999999999999999999MA1101661999999REMMET090MOBOB0 METAR 7026 //008 000000 231034Z AUTO 00000KT 9999 CLR 27/20 A3002 RMK CDP03661 CLR=
0143007026999992016062310394+00000+000000FM-15+702699999V0209999C000012200019N009999199+02701+02001999999ADDGF100991999999999999999999MA1101661999999REMMET090MOBOB0 METAR 7026 //008 000000 231039Z AUTO 00000KT 9999 CLR 27/20 A3002 RMK CDP03661 CLR=
0143007026999992016062310444+00000+000000FM-15+702699999V0209999C000012200019N009999199+02601+02001999999ADDGF100991999999999999999999MA1101661999999REMMET090MOBOB0 METAR 7026 //008 000000 231044Z AUTO 00000KT 9999 CLR 26/20 A3002 RMK CDP03661 CLR=
0143007026999992016062310494+00000+000000FM-15+702699999V0209999C000012200019N009999199+02701+02101999999ADDGF100991999999999999999999MA1101661999999REMMET090MOBOB0 METAR 7026 //008 000000 231049Z AUTO 00000KT 9999 CLR 27/21 A3002 RMK CDP03661 CLR=
0143007026999992016062310544+00000+000000FM-15+702699999V0209999C000012200019N009999199+02601+02001999999ADDGF100991999999999999999999MA1101661999999REMMET090MOBOB0 METAR 7026 //008 000000 231054Z AUTO 00000KT 9999 CLR 26/20 A3002 RMK CDP03661 CLR=
0143007026999992016062310594+00000+000000FM-15+702699999V0209999C000012200019N009999199+02601+02101999999ADDGF100991999999999999999999MA1101661999999REMMET090MOBOB0 METAR 7026 //008 000000 231059Z AUTO 00000KT 9999 CLR 26/21 A3002 RMK CDP03661 CLR=
0143007026999992016062311044+00000+000000FM-15+702699999V0209999C000012200019N009999199+02601+02001999999ADDGF100991999999999999999999MA1101661999999REMMET090MOBOB0 METAR 7026 //008 000000 231104Z AUTO 00000KT 9999 CLR 26/20 A3002 RMK CDP03661 CLR=
0143007026999992016062311094+00000+000000FM-15+702699999V0209999C000012200019N009999199+02701+02001999999ADDGF100991999999999999999999MA1101661999999REMMET090MOBOB0 METAR 7026 //008 000000 231109Z AUTO 00000KT 9999 CLR 27/20 A3002 RMK CDP03661 CLR=
0143007026999992016062311144+00000+000000FM-15+702699999V0209999C000012200019N009999199+02701+02001999999ADDGF100991999999999999999999MA1101661999999REMMET090MOBOB0 METAR 7026 //008 000000 231114Z AUTO 00000KT 9999 CLR 27/20 A3002 RMK CDP03661 CLR=
0143007026999992016062311194+00000+000000FM-15+702699999V0209999C000012200019N009999199+02701+02101999999ADDGF100991999999999999999999MA1101661999999REMMET090MOBOB0 METAR 7026 //008 000000 231119Z AUTO 00000KT 9999 CLR 27/21 A3002 RMK CDP03661 CLR=
0143007026999992016062311244+00000+000000FM-15+702699999V0209999C000012200019N009999199+02701+02001999999ADDGF100991999999999999999999MA1101661999999REMMET090MOBOB0 METAR 7026 //008 000000 231124Z AUTO 00000KT 9999 CLR 27/20 A3002 RMK CDP03661 CLR=
0143007026999992016062311294+00000+000000FM-15+702699999V0209999C000012200019N009999199+02701+02001999999ADDGF100991999999999999999999MA1101661999999REMMET090MOBOB0 METAR 7026 //008 000000 231129Z AUTO 00000KT 9999 CLR 27/20 A3002 RMK CDP03661 CLR=
0143007026999992016062311344+00000+000000FM-15+702699999V0209999C000012200019N009999199+02701+02001999999ADDGF100991999999999999999999MA1101661999999REMMET090MOBOB0 METAR 7026 //008 000000 231134Z AUTO 00000KT 9999 CLR 27/20 A3002 RMK CDP03661 CLR=
0143007026999992016062311394+00000+000000FM-15+702699999V0209999C000012200019N009999199+02701+02001999999ADDGF100991999999999999999999MA1101661999999REMMET090MOBOB0 METAR 7026 //008 000000 231139Z AUTO 00000KT 9999 CLR 27/20 A3002 RMK CDP03661 CLR=
0143007026999992016062311444+00000+000000FM-15+702699999V0209999C000012200019N009999199+02701+02001999999ADDGF100991999999999999999999MA1101661999999REMMET090MOBOB0 METAR 7026 //008 000000 231144Z AUTO 00000KT 9999 CLR 27/20 A3002 RMK CDP03661 CLR=
0143007026999992016062311494+00000+000000FM-15+702699999V0209999C000012200019N009999199+02701+02001999999ADDGF100991999999999999999999MA1101661999999REMMET090MOBOB0 METAR 7026 //008 000000 231149Z AUTO 00000KT 9999 CLR 27/20 A3002 RMK CDP03661 CLR=
0143007026999992016062311544+00000+000000FM-15+702699999V0209999C000012200019N009999199+02701+02001999999ADDGF100991999999999999999999MA1101661999999REMMET090MOBOB0 METAR 7026 //008 000000 231154Z AUTO 00000KT 9999 CLR 27/20 A3002 RMK CDP03661 CLR=
0199007026999992016062311594+00000+000000FM-15+702699999V0209999C000019999999N009999199+02701+02001999999ADDGA1021+020731999GE19MSL   +99999+99999GF199999021999020731999999MA1101661999999REMMET108MOBOB0 METAR 7026 //008 000000 231159Z AUTO 00000KT 9999 FEW068 27/20 A3002 RMK CDP03661 FEW068 CLD AVG 068=
0143007026999992016062312044+00000+000000FM-15+702699999V0209999C000012200019N009999199+02801+02001999999ADDGF100991999999999999999999MA1101661999999REMMET090MOBOB0 METAR 7026 //008 000000 231204Z AUTO 00000KT 9999 CLR 28/20 A3002 RMK CDP03661 CLR=
0143007026999992016062312144+00000+000000FM-15+702699999V0209999C000012200019N009999199+02801+02001999999ADDGF100991999999999999999999MA1101661999999REMMET090MOBOB0 METAR 7026 //008 000000 231214Z AUTO 00000KT 9999 CLR 28/20 A3002 RMK CDP03661 CLR=
0143007026999992016062312294+00000+000000FM-15+702699999V0209999C000012200019N009999199+02801+02001999999ADDGF100991999999999999999999MA1101691999999REMMET090MOBOB0 METAR 7026 //008 000000 231229Z AUTO 00000KT 9999 CLR 28/20 A3003 RMK CDP03661 CLR=
0143007026999992016062312444+00000+000000FM-15+702699999V0209999C000012200019N009999199+02801+02001999999ADDGF100991999999999999999999MA1101731999999REMMET090MOBOB0 METAR 7026 //008 000000 231244Z AUTO 00000KT 9999 CLR 28/20 A3004 RMK CDP03661 CLR=
0143007026999992016062312594+00000+000000FM-15+702699999V0209999C000012200019N009999199+02901+02001999999ADDGF100991999999999999999999MA1101761999999REMMET090MOBOB0 METAR 7026 //008 000000 231259Z AUTO 00000KT 9999 CLR 29/20 A3005 RMK CDP03661 CLR=
0143007026999992016062313144+00000+000000FM-15+702699999V0209999C000012200019N009999199+03001+02001999999ADDGF100991999999999999999999MA1101791999999REMMET090MOBOB0 METAR 7026 //008 000000 231314Z AUTO 00000KT 9999 CLR 30/20 A3006 RMK CDP03661 CLR=
0143007026999992016062313294+00000+000000FM-15+702699999V0209999C000012200019N009999199+03001+02001999999ADDGF100991999999999999999999MA1101791999999REMMET090MOBOB0 METAR 7026 //008 000000 231329Z AUTO 00000KT 9999 CLR 30/20 A3006 RMK CDP03661 CLR=
0143007026999992016062313444+00000+000000FM-15+702699999V0209999C000012200019N009999199+03101+02001999999ADDGF100991999999999999999999MA1101791999999REMMET090MOBOB0 METAR 7026 //008 000000 231344Z AUTO 00000KT 9999 CLR 31/20 A3006 RMK CDP03661 CLR=
0143007026999992016062313594+00000+000000FM-15+702699999V0209999C000012200019N009999199+03101+02101999999ADDGF100991999999999999999999MA1101791999999REMMET090MOBOB0 METAR 7026 //008 000000 231359Z AUTO 00000KT 9999 CLR 31/21 A3006 RMK CDP03661 CLR=
0143007026999992016062314144+00000+000000FM-15+702699999V0209999C000012200019N999999999+03101+02001999999ADDGF100991999999999999999999MA1101791999999REMMET090MOBOB0 METAR 7026 //008 000000 231414Z AUTO 00000KT //// CLR 31/20 A3006 RMK CDP03661 CLR=
0143007026999992016062314294+00000+000000FM-15+702699999V0209999C000012200019N009999199+03201+02001999999ADDGF100991999999999999999999MA1101831999999REMMET090MOBOB0 METAR 7026 //008 000000 231429Z AUTO 00000KT 9999 CLR 32/20 A3007 RMK CDP03661 CLR=
0143007026999992016062314444+00000+000000FM-15+702699999V0209999C000012200019N009999199+03301+02101999999ADDGF100991999999999999999999MA1101831999999REMMET090MOBOB0 METAR 7026 //008 000000 231444Z AUTO 00000KT 9999 CLR 33/21 A3007 RMK CDP03661 CLR=
0143007026999992016062314594+00000+000000FM-15+702699999V0209999C000012200019N009999199+03401+02101999999ADDGF100991999999999999999999MA1101831999999REMMET090MOBOB0 METAR 7026 //008 000000 231459Z AUTO 00000KT 9999 CLR 34/21 A3007 RMK CDP03661 CLR=
0143007026999992016062315144+00000+000000FM-15+702699999V0209999C000012200019N999999999+03401+02001999999ADDGF100991999999999999999999MA1101791999999REMMET090MOBOB0 METAR 7026 //008 000000 231514Z AUTO 00000KT //// CLR 34/20 A3006 RMK CDP03661 CLR=
0143007026999992016062315294+00000+000000FM-15+702699999V0209999C000012200019N009999199+03501+02101999999ADDGF100991999999999999999999MA1101761999999REMMET090MOBOB0 METAR 7026 //008 000000 231529Z AUTO 00000KT 9999 CLR 35/21 A3005 RMK CDP03661 CLR=
0143007026999992016062315444+00000+000000FM-15+702699999V0209999C000012200019N009999199+03401+02101999999ADDGF100991999999999999999999MA1101731999999REMMET090MOBOB0 METAR 7026 //008 000000 231544Z AUTO 00000KT 9999 CLR 34/21 A3004 RMK CDP03661 CLR=
0143007026999992016062315594+00000+000000FM-15+702699999V0209999C000012200019N999999999+03401+02101999999ADDGF100991999999999999999999MA1101661999999REMMET090MOBOB0 METAR 7026 //008 000000 231559Z AUTO 00000KT //// CLR 34/21 A3002 RMK CDP03661 CLR=
0143007026999992016062316144+00000+000000FM-15+702699999V0209999C000012200019N009999199+03501+02101999999ADDGF100991999999999999999999MA1101631999999REMMET090MOBOB0 METAR 7026 //008 000000 231614Z AUTO 00000KT 9999 CLR 35/21 A3001 RMK CDP03661 CLR=
0143007026999992016062316294+00000+000000FM-15+702699999V0209999C000012200019N009999199+03501+02101999999ADDGF100991999999999999999999MA1101631999999REMMET090MOBOB0 METAR 7026 //008 000000 231629Z AUTO 00000KT 9999 CLR 35/21 A3001 RMK CDP03661 CLR=
0143007026999992016062316444+00000+000000FM-15+702699999V0209999C000012200019N009999199+03601+02101999999ADDGF100991999999999999999999MA1101591999999REMMET090MOBOB0 METAR 7026 //008 000000 231644Z AUTO 00000KT 9999 CLR 36/21 A3000 RMK CDP03661 CLR=
0143007026999992016062316594+00000+000000FM-15+702699999V0209999C000012200019N009999199+03501+02001999999ADDGF100991999999999999999999MA1101591999999REMMET090MOBOB0 METAR 7026 //008 000000 231659Z AUTO 00000KT 9999 CLR 35/20 A3000 RMK CDP03661 CLR=
0143007026999992016062317144+00000+000000FM-15+702699999V0209999C000012200019N009999199+03601+02101999999ADDGF100991999999999999999999MA1101561999999REMMET090MOBOB0 METAR 7026 //008 000000 231714Z AUTO 00000KT 9999 CLR 36/21 A2999 RMK CDP03661 CLR=
0143007026999992016062317294+00000+000000FM-15+702699999V0209999C000012200019N999999999+03601+02001999999ADDGF100991999999999999999999MA1101521999999REMMET090MOBOB0 METAR 7026 //008 000000 231729Z AUTO 00000KT //// CLR 36/20 A2998 RMK CDP03661 CLR=
0143007026999992016062317444+00000+000000FM-15+702699999V0209999C000012200019N009999199+03601+02001999999ADDGF100991999999999999999999MA1101521999999REMMET090MOBOB0 METAR 7026 //008 000000 231744Z AUTO 00000KT 9999 CLR 36/20 A2998 RMK CDP03661 CLR=
0143007026999992016062317594+00000+000000FM-15+702699999V0209999C000012200019N009999199+03601+02001999999ADDGF100991999999999999999999MA1101521999999REMMET090MOBOB0 METAR 7026 //008 000000 231759Z AUTO 00000KT 9999 CLR 36/20 A2998 RMK CDP03661 CLR=
0199007026999992016062318144+00000+000000FM-15+702699999V0209999C000019999999N009999199+03601+02101999999ADDGA1041+020421999GE19MSL   +99999+99999GF199999041999020421999999MA1101491999999REMMET108MOBOB0 METAR 7026 //008 000000 231814Z AUTO 00000KT 9999 SCT067 36/21 A2997 RMK CDP03661 SCT067 CLD AVG 069=
0199007026999992016062318294+00000+000000FM-15+702699999V0209999C000019999999N009999199+03601+02101999999ADDGA1021+019201999GE19MSL   +99999+99999GF199999021999019201999999MA1101491999999REMMET108MOBOB0 METAR 7026 //008 000000 231829Z AUTO 00000KT 9999 FEW063 36/21 A2997 RMK CDP03661 FEW063 CLD AVG 063=
0199007026999992016062318444+00000+000000FM-15+702699999V0209999C000019999999N009999199+03701+02201999999ADDGA1021+017981999GE19MSL   +99999+99999GF199999021999017981999999MA1101461999999REMMET108MOBOB0 METAR 7026 //008 000000 231844Z AUTO 00000KT 9999 FEW059 37/22 A2996 RMK CDP03661 FEW059 CLD AVG 060=
0143007026999992016062318594+00000+000000FM-15+702699999V0209999C000012200019N009999199+03701+02101999999ADDGF100991999999999999999999MA1101491999999REMMET090MOBOB0 METAR 7026 //008 000000 231859Z AUTO 00000KT 9999 CLR 37/21 A2997 RMK CDP03661 CLR=
0143007026999992016062319144+00000+000000FM-15+702699999V0209999C000012200019N009999199+03701+02101999999ADDGF100991999999999999999999MA1101491999999REMMET090MOBOB0 METAR 7026 //008 000000 231914Z AUTO 00000KT 9999 CLR 37/21 A2997 RMK CDP03661 CLR=
0143007026999992016062319294+00000+000000FM-15+702699999V0209999C000012200019N009999199+03701+02001999999ADDGF100991999999999999999999MA1101461999999REMMET090MOBOB0 METAR 7026 //008 000000 231929Z AUTO 00000KT 9999 CLR 37/20 A2996 RMK CDP03661 CLR=
0143007026999992016062319444+00000+000000FM-15+702699999V0209999C000012200019N009999199+03701+02101999999ADDGF100991999999999999999999MA1101461999999REMMET090MOBOB0 METAR 7026 //008 000000 231944Z AUTO 00000KT 9999 CLR 37/21 A2996 RMK CDP03661 CLR=
0143007026999992016062319594+00000+000000FM-15+702699999V0209999C000012200019N009999199+03601+02001999999ADDGF100991999999999999999999MA1101421999999REMMET090MOBOB0 METAR 7026 //008 000000 231959Z AUTO 00000KT 9999 CLR 36/20 A2995 RMK CDP03661 CLR=
0143007026999992016062320144+00000+000000FM-15+702699999V0209999C000012200019N009999199+03601+02101999999ADDGF100991999999999999999999MA1101421999999REMMET090MOBOB0 METAR 7026 //008 000000 232014Z AUTO 00000KT 9999 CLR 36/21 A2995 RMK CDP03661 CLR=
0143007026999992016062320294+00000+000000FM-15+702699999V0209999C000012200019N009999199+03601+02101999999ADDGF100991999999999999999999MA1101391999999REMMET090MOBOB0 METAR 7026 //008 000000 232029Z AUTO 00000KT 9999 CLR 36/21 A2994 RMK CDP03661 CLR=
0143007026999992016062320444+00000+000000FM-15+702699999V0209999C000012200019N009999199+03601+02001999999ADDGF100991999999999999999999MA1101391999999REMMET090MOBOB0 METAR 7026 //008 000000 232044Z AUTO 00000KT 9999 CLR 36/20 A2994 RMK CDP03661 CLR=
0143007026999992016062320594+00000+000000FM-15+702699999V0209999C000012200019N009999199+03601+02001999999ADDGF100991999999999999999999MA1101421999999REMMET090MOBOB0 METAR 7026 //008 000000 232059Z AUTO 00000KT 9999 CLR 36/20 A2995 RMK CDP03661 CLR=
0143007026999992016062321144+00000+000000FM-15+702699999V0209999C000012200019N009999199+03601+02101999999ADDGF100991999999999999999999MA1101391999999REMMET090MOBOB0 METAR 7026 //008 000000 232114Z AUTO 00000KT 9999 CLR 36/21 A2994 RMK CDP03661 CLR=
0143007026999992016062321294+00000+000000FM-15+702699999V0209999C000012200019N009999199+03601+02101999999ADDGF100991999999999999999999MA1101321999999REMMET090MOBOB0 METAR 7026 //008 000000 232129Z AUTO 00000KT 9999 CLR 36/21 A2992 RMK CDP03661 CLR=
0143007026999992016062321444+00000+000000FM-15+702699999V0209999C000012200019N009999199+03601+02001999999ADDGF100991999999999999999999MA1101321999999REMMET090MOBOB0 METAR 7026 //008 000000 232144Z AUTO 00000KT 9999 CLR 36/20 A2992 RMK CDP03661 CLR=
0143007026999992016062321594+00000+000000FM-15+702699999V0209999C000012200019N009999199+03601+02101999999ADDGF100991999999999999999999MA1101291999999REMMET090MOBOB0 METAR 7026 //008 000000 232159Z AUTO 00000KT 9999 CLR 36/21 A2991 RMK CDP03661 CLR=
0143007026999992016062322144+00000+000000FM-15+702699999V0209999C000012200019N009999199+03501+02001999999ADDGF100991999999999999999999MA1101291999999REMMET090MOBOB0 METAR 7026 //008 000000 232214Z AUTO 00000KT 9999 CLR 35/20 A2991 RMK CDP03661 CLR=
0143007026999992016062322294+00000+000000FM-15+702699999V0209999C000012200019N009999199+03501+02001999999ADDGF100991999999999999999999MA1101321999999REMMET090MOBOB0 METAR 7026 //008 000000 232229Z AUTO 00000KT 9999 CLR 35/20 A2992 RMK CDP03661 CLR=
0143007026999992016062322444+00000+000000FM-15+702699999V0209999C000012200019N009999199+03501+02001999999ADDGF100991999999999999999999MA1101291999999REMMET090MOBOB0 METAR 7026 //008 000000 232244Z AUTO 00000KT 9999 CLR 35/20 A2991 RMK CDP03661 CLR=
0143007026999992016062322594+00000+000000FM-15+702699999V0209999C000012200019N009999199+03501+02001999999ADDGF100991999999999999999999MA1101321999999REMMET090MOBOB0 METAR 7026 //008 000000 232259Z AUTO 00000KT 9999 CLR 35/20 A2992 RMK CDP03661 CLR=
0143007026999992016062323144+00000+000000FM-15+702699999V0209999C000012200019N009999199+03501+02001999999ADDGF100991999999999999999999MA1101321999999REMMET090MOBOB0 METAR 7026 //008 000000 232314Z AUTO 00000KT 9999 CLR 35/20 A2992 RMK CDP03661 CLR=
0143007026999992016062323294+00000+000000FM-15+702699999V0209999C000012200019N009999199+03401+02001999999ADDGF100991999999999999999999MA1101351999999REMMET090MOBOB0 METAR 7026 //008 000000 232329Z AUTO 00000KT 9999 CLR 34/20 A2993 RMK CDP03661 CLR=
0143007026999992016062323444+00000+000000FM-15+702699999V0209999C000012200019N009999199+03401+02001999999ADDGF100991999999999999999999MA1101351999999REMMET090MOBOB0 METAR 7026 //008 000000 232344Z AUTO 00000KT 9999 CLR 34/20 A2993 RMK CDP03661 CLR=
0143007026999992016062323594+00000+000000FM-15+702699999V0209999C000012200019N009999199+03301+02001999999ADDGF100991999999999999999999MA1101391999999REMMET090MOBOB0 METAR 7026 //008 000000 232359Z AUTO 00000KT 9999 CLR 33/20 A2994 RMK CDP03661 CLR=
0143007026999992016062400144+00000+000000FM-15+702699999V0209999C000012200019N009999199+03301+02001999999ADDGF100991999999999999999999MA1101391999999REMMET090MOBOB0 METAR 7026 //008 000000 240014Z AUTO 00000KT 9999 CLR 33/20 A2994 RMK CDP03661 CLR=
0143007026999992016062400294+00000+000000FM-15+702699999V0209999C000012200019N009999199+03301+02001999999ADDGF100991999999999999999999MA1101391999999REMMET090MOBOB0 METAR 7026 //008 000000 240029Z AUTO 00000KT 9999 CLR 33/20 A2994 RMK CDP03661 CLR=
0143007026999992016062400444+00000+000000FM-15+702699999V0209999C000012200019N009999199+03201+02001999999ADDGF100991999999999999999999MA1101421999999REMMET090MOBOB0 METAR 7026 //008 000000 240044Z AUTO 00000KT 9999 CLR 32/20 A2995 RMK CDP03661 CLR=
0143007026999992016062400594+00000+000000FM-15+702699999V0209999C000012200019N009999199+03201+02001999999ADDGF100991999999999999999999MA1101461999999REMMET090MOBOB0 METAR 7026 //008 000000 240059Z AUTO 00000KT 9999 CLR 32/20 A2996 RMK CDP03661 CLR=
0143007026999992016062401144+00000+000000FM-15+702699999V0209999C000012200019N009999199+03201+02001999999ADDGF100991999999999999999999MA1101461999999REMMET090MOBOB0 METAR 7026 //008 000000 240114Z AUTO 00000KT 9999 CLR 32/20 A2996 RMK CDP03661 CLR=
0143007026999992016062401294+00000+000000FM-15+702699999V0209999C000012200019N009999199+03201+02001999999ADDGF100991999999999999999999MA1101461999999REMMET090MOBOB0 METAR 7026 //008 000000 240129Z AUTO 00000KT 9999 CLR 32/20 A2996 RMK CDP03661 CLR=
0143007026999992016062401444+00000+000000FM-15+702699999V0209999C000012200019N009999199+03101+02001999999ADDGF100991999999999999999999MA1101421999999REMMET090MOBOB0 METAR 7026 //008 000000 240144Z AUTO 00000KT 9999 CLR 31/20 A2995 RMK CDP03661 CLR=
0143007026999992016062401594+00000+000000FM-15+702699999V0209999C000012200019N009999199+03101+02001999999ADDGF100991999999999999999999MA1101491999999REMMET090MOBOB0 METAR 7026 //008 000000 240159Z AUTO 00000KT 9999 CLR 31/20 A2997 RMK CDP03661 CLR=
0143007026999992016062402144+00000+000000FM-15+702699999V0209999C000012200019N009999199+03101+01901999999ADDGF100991999999999999999999MA1101591999999REMMET090MOBOB0 METAR 7026 //008 000000 240214Z AUTO 00000KT 9999 CLR 31/19 A3000 RMK CDP03661 CLR=
0143007026999992016062402294+00000+000000FM-15+702699999V0209999C000012200019N999999999+03101+01901999999ADDGF100991999999999999999999MA1101631999999REMMET090MOBOB0 METAR 7026 //008 000000 240229Z AUTO 00000KT //// CLR 31/19 A3001 RMK CDP03661 CLR=
0143007026999992016062402444+00000+000000FM-15+702699999V0209999C000012200019N009999199+02901+02001999999ADDGF100991999999999999999999MA1101691999999REMMET090MOBOB0 METAR 7026 //008 000000 240244Z AUTO 00000KT 9999 CLR 29/20 A3003 RMK CDP03661 CLR=
0143007026999992016062402594+00000+000000FM-15+702699999V0209999C000012200019N009999199+02901+01901999999ADDGF100991999999999999999999MA1101691999999REMMET090MOBOB0 METAR 7026 //008 000000 240259Z AUTO 00000KT 9999 CLR 29/19 A3003 RMK CDP03661 CLR=
0143007026999992016062403144+00000+000000FM-15+702699999V0209999C000012200019N009999199+02601+01801999999ADDGF100991999999999999999999MA1101691999999REMMET090MOBOB0 METAR 7026 //008 000000 240314Z AUTO 00000KT 9999 CLR 26/18 A3003 RMK CDP03661 CLR=
0143007026999992016062403294+00000+000000FM-15+702699999V0209999C000012200019N009999199+02601+01801999999ADDGF100991999999999999999999MA1101761999999REMMET090MOBOB0 METAR 7026 //008 000000 240329Z AUTO 00000KT 9999 CLR 26/18 A3005 RMK CDP03661 CLR=
0143007026999992016062403444+00000+000000FM-15+702699999V0209999C000012200019N999999999+02601+01801999999ADDGF100991999999999999999999MA1101791999999REMMET090MOBOB0 METAR 7026 //008 000000 240344Z AUTO 00000KT //// CLR 26/18 A3006 RMK CDP03661 CLR=
0143007026999992016062403594+00000+000000FM-15+702699999V0209999C000012200019N999999999+02501+01701999999ADDGF100991999999999999999999MA1101761999999REMMET090MOBOB0 METAR 7026 //008 000000 240359Z AUTO 00000KT //// CLR 25/17 A3005 RMK CDP03661 CLR=
0199007026999992016062404144+00000+000000FM-15+702699999V0209999C000019999999N009999199+02501+01801999999ADDGA1021+033221999GE19MSL   +99999+99999GF199999021999033221999999MA1101791999999REMMET108MOBOB0 METAR 7026 //008 000000 240414Z AUTO 00000KT 9999 FEW109 25/18 A3006 RMK CDP03661 FEW109 CLD AVG 109=
0143007026999992016062404294+00000+000000FM-15+702699999V0209999C000012200019N999999999+02501+01801999999ADDGF100991999999999999999999MA1101901999999REMMET090MOBOB0 METAR 7026 //008 000000 240429Z AUTO 00000KT //// CLR 25/18 A3009 RMK CDP03661 CLR=
0152007026999992016062404444+00000+000000FM-15+702699999V0209999C000012200019N002000199+02301+02101999999ADDAW1621GF100991999999999999999999MA1101931999999REMMET093MOBOB0 METAR 7026 //008 000000 240444Z AUTO 00000KT 2000 RA CLR 23/21 A3010 RMK CDP03661 CLR=
0153007026999992016062404594+00000+000000FM-15+702699999V0209999C000012200019N001800199+02101+02101999999ADDAW1631GF100991999999999999999999MA1101961999999REMMET094MOBOB0 METAR 7026 //008 000000 240459Z AUTO 00000KT 1800 +RA CLR 21/21 A3011 RMK CDP03661 CLR=
0209007026999992016062405144+00000+000000FM-15+702699999V0209999C000019999999N008000199+02101+02101999999ADDAW1511GA1021+026211999GE19MSL   +99999+99999GF199999021999026211999999MA1101901999999REMMET112MOBOB0 METAR 7026 //008 000000 240514Z AUTO 00000KT 8000 -DZ FEW086 21/21 A3009 RMK CDP03661 FEW086 CLD AVG 086=
0153007026999992016062405294+00000+000000FM-15+702699999V0209999C000012200019N006000199+02101+02101999999ADDAW1611GF100991999999999999999999MA1101931999999REMMET094MOBOB0 METAR 7026 //008 000000 240529Z AUTO 00000KT 6000 -RA CLR 21/21 A3010 RMK CDP03661 CLR=
0153007026999992016062405444+00000+000000FM-15+702699999V0209999C000012200019N006000199+02101+02101999999ADDAW1611GF100991999999999999999999MA1101901999999REMMET094MOBOB0 METAR 7026 //008 000000 240544Z AUTO 00000KT 6000 -RA CLR 21/21 A3009 RMK CDP03661 CLR=
0199007026999992016062405594+00000+000000FM-15+702699999V0209999C000019999999N999999999+02101+02101999999ADDGA1021+026521999GE19MSL   +99999+99999GF199999021999026521999999MA1101861999999REMMET108MOBOB0 METAR 7026 //008 000000 240559Z AUTO 00000KT //// FEW087 21/21 A3008 RMK CDP03661 FEW087 CLD AVG 087=
0152007026999992016062406144+00000+000000FM-15+702699999V0209999C000012200019N009999199+02101+02101999999ADDAW1051GF100991999999999999999999MA1101831999999REMMET093MOBOB0 METAR 7026 //008 000000 240614Z AUTO 00000KT 9999 HZ CLR 21/21 A3007 RMK CDP03661 CLR=
0208007026999992016062406294+00000+000000FM-15+702699999V0209999C000019999999N009999199+02101+02101999999ADDAW1051GA1021+024991999GE19MSL   +99999+99999GF199999021999024991999999MA1101761999999REMMET111MOBOB0 METAR 7026 //008 000000 240629Z AUTO 00000KT 9999 HZ FEW082 21/21 A3005 RMK CDP03661 FEW082 CLD AVG 082=
0152007026999992016062406444+00000+000000FM-15+702699999V0209999C000012200019N009999199+02201+02001999999ADDAW1051GF100991999999999999999999MA1101761999999REMMET093MOBOB0 METAR 7026 //008 000000 240644Z AUTO 00000KT 9999 HZ CLR 22/20 A3005 RMK CDP03661 CLR=
0143007026999992016062406594+00000+000000FM-15+702699999V0209999C000012200019N999999999+02201+02001999999ADDGF100991999999999999999999MA1101661999999REMMET090MOBOB0 METAR 7026 //008 000000 240659Z AUTO 00000KT //// CLR 22/20 A3002 RMK CDP03661 CLR=
0153007026999992016062407144+00000+000000FM-15+702699999V0209999C000012200019N008000199+02101+02101999999ADDAW1511GF100991999999999999999999MA1101631999999REMMET094MOBOB0 METAR 7026 //008 000000 240714Z AUTO 00000KT 8000 -DZ CLR 21/21 A3001 RMK CDP03661 CLR=
0152007026999992016062407294+00000+000000FM-15+702699999V0209999C000012200019N009999199+02101+02001999999ADDAW1051GF100991999999999999999999MA1101561999999REMMET093MOBOB0 METAR 7026 //008 000000 240729Z AUTO 00000KT 9999 HZ CLR 21/20 A2999 RMK CDP03661 CLR=
0152007026999992016062407444+00000+000000FM-15+702699999V0209999C000012200019N009000199+02101+02001999999ADDAW1051GF100991999999999999999999MA1101521999999REMMET093MOBOB0 METAR 7026 //008 000000 240744Z AUTO 00000KT 9000 HZ CLR 21/20 A2998 RMK CDP03661 CLR=
0152007026999992016062407594+00000+000000FM-15+702699999V0209999C000012200019N009999199+02101+02101999999ADDAW1051GF100991999999999999999999MA1101491999999REMMET093MOBOB0 METAR 7026 //008 000000 240759Z AUTO 00000KT 9999 HZ CLR 21/21 A2997 RMK CDP03661 CLR=
0152007026999992016062408144+00000+000000FM-15+702699999V0209999C000012200019N009999199+02201+02001999999ADDAW1051GF100991999999999999999999MA1101461999999REMMET093MOBOB0 METAR 7026 //008 000000 240814Z AUTO 00000KT 9999 HZ CLR 22/20 A2996 RMK CDP03661 CLR=
0152007026999992016062408294+00000+000000FM-15+702699999V0209999C000012200019N009999199+02201+02001999999ADDAW1051GF100991999999999999999999MA1101421999999REMMET093MOBOB0 METAR 7026 //008 000000 240829Z AUTO 00000KT 9999 HZ CLR 22/20 A2995 RMK CDP03661 CLR=
0152007026999992016062408444+00000+000000FM-15+702699999V0209999C000012200019N009999199+02201+02001999999ADDAW1051GF100991999999999999999999MA1101461999999REMMET093MOBOB0 METAR 7026 //008 000000 240844Z AUTO 00000KT 9999 HZ CLR 22/20 A2996 RMK CDP03661 CLR=
0143007026999992016062408594+00000+000000FM-15+702699999V0209999C000012200019N009999199+02201+02001999999ADDGF100991999999999999999999MA1101521999999REMMET090MOBOB0 METAR 7026 //008 000000 240859Z AUTO 00000KT 9999 CLR 22/20 A2998 RMK CDP03661 CLR=
0152007026999992016062409144+00000+000000FM-15+702699999V0209999C000012200019N009999199+02201+02101999999ADDAW1051GF100991999999999999999999MA1101491999999REMMET093MOBOB0 METAR 7026 //008 000000 240914Z AUTO 00000KT 9999 HZ CLR 22/21 A2997 RMK CDP03661 CLR=
0152007026999992016062409294+00000+000000FM-15+702699999V0209999C000012200019N009999199+02101+02001999999ADDAW1051GF100991999999999999999999MA1101491999999REMMET093MOBOB0 METAR 7026 //008 000000 240929Z AUTO 00000KT 9999 HZ CLR 21/20 A2997 RMK CDP03661 CLR=
0152007026999992016062409444+00000+000000FM-15+702699999V0209999C000012200019N009999199+02201+02001999999ADDAW1051GF100991999999999999999999MA1101461999999REMMET093MOBOB0 METAR 7026 //008 000000 240944Z AUTO 00000KT 9999 HZ CLR 22/20 A2996 RMK CDP03661 CLR=
0152007026999992016062409594+00000+000000FM-15+702699999V0209999C000012200019N009999199+02201+01901999999ADDAW1051GF100991999999999999999999MA1101491999999REMMET093MOBOB0 METAR 7026 //008 000000 240959Z AUTO 00000KT 9999 HZ CLR 22/19 A2997 RMK CDP03661 CLR=
0143007026999992016062410144+00000+000000FM-15+702699999V0209999C000012200019N009999199+02201+02001999999ADDGF100991999999999999999999MA1101491999999REMMET090MOBOB0 METAR 7026 //008 000000 241014Z AUTO 00000KT 9999 CLR 22/20 A2997 RMK CDP03661 CLR=
0143007026999992016062410294+00000+000000FM-15+702699999V0209999C000012200019N009999199+02201+02001999999ADDGF100991999999999999999999MA1101521999999REMMET090MOBOB0 METAR 7026 //008 000000 241029Z AUTO 00000KT 9999 CLR 22/20 A2998 RMK CDP03661 CLR=
0143007026999992016062410444+00000+000000FM-15+702699999V0209999C000012200019N009999199+02201+02001999999ADDGF100991999999999999999999MA1101561999999REMMET090MOBOB0 METAR 7026 //008 000000 241044Z AUTO 00000KT 9999 CLR 22/20 A2999 RMK CDP03661 CLR=
0143007026999992016062410594+00000+000000FM-15+702699999V0209999C000012200019N999999999+02201+02001999999ADDGF100991999999999999999999MA1101591999999REMMET090MOBOB0 METAR 7026 //008 000000 241059Z AUTO 00000KT //// CLR 22/20 A3000 RMK CDP03661 CLR=
0143007026999992016062411144+00000+000000FM-15+702699999V0209999C000012200019N999999999+02201+02001999999ADDGF100991999999999999999999MA1101561999999REMMET090MOBOB0 METAR 7026 //008 000000 241114Z AUTO 00000KT //// CLR 22/20 A2999 RMK CDP03661 CLR=
0143007026999992016062411294+00000+000000FM-15+702699999V0209999C000012200019N009999199+02201+02001999999ADDGF100991999999999999999999MA1101561999999REMMET090MOBOB0 METAR 7026 //008 000000 241129Z AUTO 00000KT 9999 CLR 22/20 A2999 RMK CDP03661 CLR=
0143007026999992016062411444+00000+000000FM-15+702699999V0209999C000012200019N009999199+02201+02001999999ADDGF100991999999999999999999MA1101561999999REMMET090MOBOB0 METAR 7026 //008 000000 241144Z AUTO 00000KT 9999 CLR 22/20 A2999 RMK CDP03661 CLR=
0143007026999992016062411594+00000+000000FM-15+702699999V0209999C000012200019N009999199+02301+02001999999ADDGF100991999999999999999999MA1101591999999REMMET090MOBOB0 METAR 7026 //008 000000 241159Z AUTO 00000KT 9999 CLR 23/20 A3000 RMK CDP03661 CLR=
0143007026999992016062412144+00000+000000FM-15+702699999V0209999C000012200019N009999199+02401+02001999999ADDGF100991999999999999999999MA1101591999999REMMET090MOBOB0 METAR 7026 //008 000000 241214Z AUTO 00000KT 9999 CLR 24/20 A3000 RMK CDP03661 CLR=
0143007026999992016062412294+00000+000000FM-15+702699999V0209999C000012200019N999999999+02401+02001999999ADDGF100991999999999999999999MA1101591999999REMMET090MOBOB0 METAR 7026 //008 000000 241229Z AUTO 00000KT //// CLR 24/20 A3000 RMK CDP03661 CLR=
0143007026999992016062412444+00000+000000FM-15+702699999V0209999C000012200019N009999199+02401+02101999999ADDGF100991999999999999999999MA1101631999999REMMET090MOBOB0 METAR 7026 //008 000000 241244Z AUTO 00000KT 9999 CLR 24/21 A3001 RMK CDP03661 CLR=
0143007026999992016062412594+00000+000000FM-15+702699999V0209999C000012200019N009999199+02401+02001999999ADDGF100991999999999999999999MA1101591999999REMMET090MOBOB0 METAR 7026 //008 000000 241259Z AUTO 00000KT 9999 CLR 24/20 A3000 RMK CDP03661 CLR=
0143007026999992016062413144+00000+000000FM-15+702699999V0209999C000012200019N009999199+02501+02101999999ADDGF100991999999999999999999MA1101631999999REMMET090MOBOB0 METAR 7026 //008 000000 241314Z AUTO 00000KT 9999 CLR 25/21 A3001 RMK CDP03661 CLR=
0143007026999992016062413294+00000+000000FM-15+702699999V0209999C000012200019N009999199+02501+02101999999ADDGF100991999999999999999999MA1101631999999REMMET090MOBOB0 METAR 7026 //008 000000 241329Z AUTO 00000KT 9999 CLR 25/21 A3001 RMK CDP03661 CLR=
0143007026999992016062413444+00000+000000FM-15+702699999V0209999C000012200019N009999199+02501+02101999999ADDGF100991999999999999999999MA1101661999999REMMET090MOBOB0 METAR 7026 //008 000000 241344Z AUTO 00000KT 9999 CLR 25/21 A3002 RMK CDP03661 CLR=
0143007026999992016062413594+00000+000000FM-15+702699999V0209999C000012200019N009999199+02601+02101999999ADDGF100991999999999999999999MA1101631999999REMMET090MOBOB0 METAR 7026 //008 000000 241359Z AUTO 00000KT 9999 CLR 26/21 A3001 RMK CDP03661 CLR=
0143007026999992016062414144+00000+000000FM-15+702699999V0209999C000012200019N009999199+02601+02201999999ADDGF100991999999999999999999MA1101661999999REMMET090MOBOB0 METAR 7026 //008 000000 241414Z AUTO 00000KT 9999 CLR 26/22 A3002 RMK CDP03661 CLR=
0143007026999992016062414294+00000+000000FM-15+702699999V0209999C000012200019N009999199+02601+02101999999ADDGF100991999999999999999999MA1101631999999REMMET090MOBOB0 METAR 7026 //008 000000 241429Z AUTO 00000KT 9999 CLR 26/21 A3001 RMK CDP03661 CLR=
0143007026999992016062414444+00000+000000FM-15+702699999V0209999C000012200019N009999199+02701+02201999999ADDGF100991999999999999999999MA1101631999999REMMET090MOBOB0 METAR 7026 //008 000000 241444Z AUTO 00000KT 9999 CLR 27/22 A3001 RMK CDP03661 CLR=
0143007026999992016062414594+00000+000000FM-15+702699999V0209999C000012200019N009999199+02701+02201999999ADDGF100991999999999999999999MA1101661999999REMMET090MOBOB0 METAR 7026 //008 000000 241459Z AUTO 00000KT 9999 CLR 27/22 A3002 RMK CDP03661 CLR=
0199007026999992016062415144+00000+000000FM-15+702699999V0209999C000019999999N009999199+02701+02201999999ADDGA1021+035971999GE19MSL   +99999+99999GF199999021999035971999999MA1101661999999REMMET108MOBOB0 METAR 7026 //008 000000 241514Z AUTO 00000KT 9999 FEW118 27/22 A3002 RMK CDP03661 FEW118 CLD AVG 118=
0143007026999992016062415294+00000+000000FM-15+702699999V0209999C000012200019N999999999+02701+02201999999ADDGF100991999999999999999999MA1101661999999REMMET090MOBOB0 METAR 7026 //008 000000 241529Z AUTO 00000KT //// CLR 27/22 A3002 RMK CDP03661 CLR=
0199007026999992016062415444+00000+000000FM-15+702699999V0209999C000019999999N009999199+02601+02201999999ADDGA1021+032611999GE19MSL   +99999+99999GF199999021999032611999999MA1101691999999REMMET108MOBOB0 METAR 7026 //008 000000 241544Z AUTO 00000KT 9999 FEW107 26/22 A3003 RMK CDP03661 FEW107 CLD AVG 107=
0143007026999992016062415594+00000+000000FM-15+702699999V0209999C000012200019N009999199+02701+02201999999ADDGF100991999999999999999999MA1101661999999REMMET090MOBOB0 METAR 7026 //008 000000 241559Z AUTO 00000KT 9999 CLR 27/22 A3002 RMK CDP03661 CLR=
0143007026999992016062416144+00000+000000FM-15+702699999V0209999C000012200019N009999199+02801+02201999999ADDGF100991999999999999999999MA1101661999999REMMET090MOBOB0 METAR 7026 //008 000000 241614Z AUTO 00000KT 9999 CLR 28/22 A3002 RMK CDP03661 CLR=
0143007026999992016062416294+00000+000000FM-15+702699999V0209999C000012200019N009999199+02801+02201999999ADDGF100991999999999999999999MA1101661999999REMMET090MOBOB0 METAR 7026 //008 000000 241629Z AUTO 00000KT 9999 CLR 28/22 A3002 RMK CDP03661 CLR=
0143007026999992016062416454+00000+000000FM-15+702699999V0209999C000012200019N009999199+02801+02201999999ADDGF100991999999999999999999MA1101661999999REMMET090MOBOB0 METAR 7026 //008 000000 241645Z AUTO 00000KT 9999 CLR 28/22 A3002 RMK CDP03661 CLR=
0096007026999992016062417144+00000+000000FM-15+702699999V0209999C000019999999N999999999+02901+02201999999ADDMA1101661999999REMMET069MOBOB0 METAR 7026 //008 000000 241714Z AUTO 00000KT //// 29/22 A3002=
0143007026999992016062417294+00000+000000FM-15+702699999V0209999C000012200019N999999999+03001+02201999999ADDGF100991999999999999999999MA1101661999999REMMET090MOBOB0 METAR 7026 //008 000000 241729Z AUTO 00000KT //// CLR 30/22 A3002 RMK CDP03661 CLR=
0143007026999992016062417444+00000+000000FM-15+702699999V0209999C000012200019N009999199+03001+02201999999ADDGF100991999999999999999999MA1101661999999REMMET090MOBOB0 METAR 7026 //008 000000 241744Z AUTO 00000KT 9999 CLR 30/22 A3002 RMK CDP03661 CLR=
0143007026999992016062417594+00000+000000FM-15+702699999V0209999C000012200019N999999999+03101+02201999999ADDGF100991999999999999999999MA1101631999999REMMET090MOBOB0 METAR 7026 //008 000000 241759Z AUTO 00000KT //// CLR 31/22 A3001 RMK CDP03661 CLR=
0143007026999992016062418144+00000+000000FM-15+702699999V0209999C000012200019N009999199+03101+02101999999ADDGF100991999999999999999999MA1101631999999REMMET090MOBOB0 METAR 7026 //008 000000 241814Z AUTO 00000KT 9999 CLR 31/21 A3001 RMK CDP03661 CLR=
0143007026999992016062418294+00000+000000FM-15+702699999V0209999C000012200019N009999199+03101+02201999999ADDGF100991999999999999999999MA1101631999999REMMET090MOBOB0 METAR 7026 //008 000000 241829Z AUTO 00000KT 9999 CLR 31/22 A3001 RMK CDP03661 CLR=
0143007026999992016062418444+00000+000000FM-15+702699999V0209999C000012200019N009999199+03101+02201999999ADDGF100991999999999999999999MA1101631999999REMMET090MOBOB0 METAR 7026 //008 000000 241844Z AUTO 00000KT 9999 CLR 31/22 A3001 RMK CDP03661 CLR=
0143007026999992016062418594+00000+000000FM-15+702699999V0209999C000012200019N009999199+03101+02201999999ADDGF100991999999999999999999MA1101591999999REMMET090MOBOB0 METAR 7026 //008 000000 241859Z AUTO 00000KT 9999 CLR 31/22 A3000 RMK CDP03661 CLR=
0143007026999992016062419144+00000+000000FM-15+702699999V0209999C000012200019N009999199+03101+02201999999ADDGF100991999999999999999999MA1101631999999REMMET090MOBOB0 METAR 7026 //008 000000 241914Z AUTO 00000KT 9999 CLR 31/22 A3001 RMK CDP03661 CLR=
0143007026999992016062419294+00000+000000FM-15+702699999V0209999C000012200019N009999199+03201+02301999999ADDGF100991999999999999999999MA1101591999999REMMET090MOBOB0 METAR 7026 //008 000000 241929Z AUTO 00000KT 9999 CLR 32/23 A3000 RMK CDP03661 CLR=
0143007026999992016062419444+00000+000000FM-15+702699999V0209999C000012200019N009999199+03101+02201999999ADDGF100991999999999999999999MA1101591999999REMMET090MOBOB0 METAR 7026 //008 000000 241944Z AUTO 00000KT 9999 CLR 31/22 A3000 RMK CDP03661 CLR=
0143007026999992016062419594+00000+000000FM-15+702699999V0209999C000012200019N999999999+03101+02201999999ADDGF100991999999999999999999MA1101631999999REMMET090MOBOB0 METAR 7026 //008 000000 241959Z AUTO 00000KT //// CLR 31/22 A3001 RMK CDP03661 CLR=
0143007026999992016062420144+00000+000000FM-15+702699999V0209999C000012200019N009999199+03201+02201999999ADDGF100991999999999999999999MA1101561999999REMMET090MOBOB0 METAR 7026 //008 000000 242014Z AUTO 00000KT 9999 CLR 32/22 A2999 RMK CDP03661 CLR=
0143007026999992016062420294+00000+000000FM-15+702699999V0209999C000012200019N009999199+03201+02301999999ADDGF100991999999999999999999MA1101521999999REMMET090MOBOB0 METAR 7026 //008 000000 242029Z AUTO 00000KT 9999 CLR 32/23 A2998 RMK CDP03661 CLR=
0143007026999992016062420444+00000+000000FM-15+702699999V0209999C000012200019N009999199+03201+02201999999ADDGF100991999999999999999999MA1101521999999REMMET090MOBOB0 METAR 7026 //008 000000 242044Z AUTO 00000KT 9999 CLR 32/22 A2998 RMK CDP03661 CLR=
0143007026999992016062420594+00000+000000FM-15+702699999V0209999C000012200019N009999199+03201+02101999999ADDGF100991999999999999999999MA1101521999999REMMET090MOBOB0 METAR 7026 //008 000000 242059Z AUTO 00000KT 9999 CLR 32/21 A2998 RMK CDP03661 CLR=
0143007026999992016062421144+00000+000000FM-15+702699999V0209999C000012200019N999999999+03301+02101999999ADDGF100991999999999999999999MA1101561999999REMMET090MOBOB0 METAR 7026 //008 000000 242114Z AUTO 00000KT //// CLR 33/21 A2999 RMK CDP03661 CLR=
0143007026999992016062421294+00000+000000FM-15+702699999V0209999C000012200019N009999199+03301+02101999999ADDGF100991999999999999999999MA1101561999999REMMET090MOBOB0 METAR 7026 //008 000000 242129Z AUTO 00000KT 9999 CLR 33/21 A2999 RMK CDP03661 CLR=
0143007026999992016062421444+00000+000000FM-15+702699999V0209999C000012200019N999999999+03301+02101999999ADDGF100991999999999999999999MA1101521999999REMMET090MOBOB0 METAR 7026 //008 000000 242144Z AUTO 00000KT //// CLR 33/21 A2998 RMK CDP03661 CLR=
0143007026999992016062421594+00000+000000FM-15+702699999V0209999C000012200019N009999199+03301+02101999999ADDGF100991999999999999999999MA1101521999999REMMET090MOBOB0 METAR 7026 //008 000000 242159Z AUTO 00000KT 9999 CLR 33/21 A2998 RMK CDP03661 CLR=
0143007026999992016062422144+00000+000000FM-15+702699999V0209999C000012200019N999999999+03301+02101999999ADDGF100991999999999999999999MA1101521999999REMMET090MOBOB0 METAR 7026 //008 000000 242214Z AUTO 00000KT //// CLR 33/21 A2998 RMK CDP03661 CLR=
0143007026999992016062422294+00000+000000FM-15+702699999V0209999C000012200019N009999199+03301+02101999999ADDGF100991999999999999999999MA1101521999999REMMET090MOBOB0 METAR 7026 //008 000000 242229Z AUTO 00000KT 9999 CLR 33/21 A2998 RMK CDP03661 CLR=
0143007026999992016062422444+00000+000000FM-15+702699999V0209999C000012200019N009999199+03401+02101999999ADDGF100991999999999999999999MA1101521999999REMMET090MOBOB0 METAR 7026 //008 000000 242244Z AUTO 00000KT 9999 CLR 34/21 A2998 RMK CDP03661 CLR=
0143007026999992016062422594+00000+000000FM-15+702699999V0209999C000012200019N009999199+03301+02101999999ADDGF100991999999999999999999MA1101521999999REMMET090MOBOB0 METAR 7026 //008 000000 242259Z AUTO 00000KT 9999 CLR 33/21 A2998 RMK CDP03661 CLR=
0143007026999992016062423144+00000+000000FM-15+702699999V0209999C000012200019N009999199+03301+02101999999ADDGF100991999999999999999999MA1101521999999REMMET090MOBOB0 METAR 7026 //008 000000 242314Z AUTO 00000KT 9999 CLR 33/21 A2998 RMK CDP03661 CLR=
0143007026999992016062423294+00000+000000FM-15+702699999V0209999C000012200019N009999199+03201+02101999999ADDGF100991999999999999999999MA1101521999999REMMET090MOBOB0 METAR 7026 //008 000000 242329Z AUTO 00000KT 9999 CLR 32/21 A2998 RMK CDP03661 CLR=
0143007026999992016062423444+00000+000000FM-15+702699999V0209999C000012200019N999999999+03201+02201999999ADDGF100991999999999999999999MA1101561999999REMMET090MOBOB0 METAR 7026 //008 000000 242344Z AUTO 00000KT //// CLR 32/22 A2999 RMK CDP03661 CLR=
0143007026999992016062423594+00000+000000FM-15+702699999V0209999C000012200019N009999199+03101+02201999999ADDGF100991999999999999999999MA1101591999999REMMET090MOBOB0 METAR 7026 //008 000000 242359Z AUTO 00000KT 9999 CLR 31/22 A3000 RMK CDP03661 CLR=
0143007026999992016062500144+00000+000000FM-15+702699999V0209999C000012200019N009999199+03001+02301999999ADDGF100991999999999999999999MA1101631999999REMMET090MOBOB0 METAR 7026 //008 000000 250014Z AUTO 00000KT 9999 CLR 30/23 A3001 RMK CDP03661 CLR=
0152007026999992016062500294+00000+000000FM-15+702699999V0209999C000012200019N009999199+03001+02301999999ADDAW1051GF100991999999999999999999MA1101591999999REMMET093MOBOB0 METAR 7026 //008 000000 250029Z AUTO 00000KT 9999 HZ CLR 30/23 A3000 RMK CDP03661 CLR=
0152007026999992016062500444+00000+000000FM-15+702699999V0209999C000012200019N009999199+02901+02301999999ADDAW1051GF100991999999999999999999MA1101591999999REMMET093MOBOB0 METAR 7026 //008 000000 250044Z AUTO 00000KT 9999 HZ CLR 29/23 A3000 RMK CDP03661 CLR=
0152007026999992016062500594+00000+000000FM-15+702699999V0209999C000012200019N009999199+02901+02301999999ADDAW1051GF100991999999999999999999MA1101591999999REMMET093MOBOB0 METAR 7026 //008 000000 250059Z AUTO 00000KT 9999 HZ CLR 29/23 A3000 RMK CDP03661 CLR=
0199007026999992016062501144+00000+000000FM-15+702699999V0209999C000019999999N009999199+02901+02301999999ADDGA1021+028351999GE19MSL   +99999+99999GF199999021999028351999999MA1101661999999REMMET108MOBOB0 METAR 7026 //008 000000 250114Z AUTO 00000KT 9999 FEW093 29/23 A3002 RMK CDP03661 FEW093 CLD AVG 093=
0152007026999992016062501294+00000+000000FM-15+702699999V0209999C000012200019N009999199+02801+02201999999ADDAW1051GF100991999999999999999999MA1101691999999REMMET093MOBOB0 METAR 7026 //008 000000 250129Z AUTO 00000KT 9999 HZ CLR 28/22 A3003 RMK CDP03661 CLR=
0143007026999992016062501444+00000+000000FM-15+702699999V0209999C000012200019N999999999+02801+02301999999ADDGF100991999999999999999999MA1101691999999REMMET090MOBOB0 METAR 7026 //008 000000 250144Z AUTO 00000KT //// CLR 28/23 A3003 RMK CDP03661 CLR=
0199007026999992016062501594+00000+000000FM-15+702699999V0209999C000019999999N009999199+02701+02301999999ADDGA1021+009141999GE19MSL   +99999+99999GF199999021999009141999999MA1101691999999REMMET108MOBOB0 METAR 7026 //008 000000 250159Z AUTO 00000KT 9999 FEW030 27/23 A3003 RMK CDP03661 FEW030 CLD AVG 031=
0199007026999992016062502144+00000+000000FM-15+702699999V0209999C000019999999N999999999+02701+02301999999ADDGA1021+028651999GE19MSL   +99999+99999GF199999021999028651999999MA1101691999999REMMET108MOBOB0 METAR 7026 //008 000000 250214Z AUTO 00000KT //// FEW094 27/23 A3003 RMK CDP03661 FEW094 CLD AVG 094=
0208007026999992016062502294+00000+000000FM-15+702699999V0209999C000019999999N009999199+02701+02301999999ADDAW1051GA1021+033221999GE19MSL   +99999+99999GF199999021999033221999999MA1101691999999REMMET111MOBOB0 METAR 7026 //008 000000 250229Z AUTO 00000KT 9999 HZ FEW109 27/23 A3003 RMK CDP03661 FEW109 CLD AVG 109=
0143007026999992016062502444+00000+000000FM-15+702699999V0209999C000012200019N009999199+02701+02301999999ADDGF100991999999999999999999MA1101661999999REMMET090MOBOB0 METAR 7026 //008 000000 250244Z AUTO 00000KT 9999 CLR 27/23 A3002 RMK CDP03661 CLR=
0199007026999992016062502594+00000+000000FM-15+702699999V0209999C000019999999N009999199+02701+02301999999ADDGA1021+032921999GE19MSL   +99999+99999GF199999021999032921999999MA1101661999999REMMET108MOBOB0 METAR 7026 //008 000000 250259Z AUTO 00000KT 9999 FEW108 27/23 A3002 RMK CDP03661 FEW108 CLD AVG 108=
0208007026999992016062503144+00000+000000FM-15+702699999V0209999C000019999999N009999199+02701+02301999999ADDAW1051GA1021+033531999GE19MSL   +99999+99999GF199999021999033531999999MA1101661999999REMMET111MOBOB0 METAR 7026 //008 000000 250314Z AUTO 00000KT 9999 HZ FEW110 27/23 A3002 RMK CDP03661 FEW110 CLD AVG 110=
0143007026999992016062503294+00000+000000FM-15+702699999V0209999C000012200019N999999999+02701+02301999999ADDGF100991999999999999999999MA1101661999999REMMET090MOBOB0 METAR 7026 //008 000000 250329Z AUTO 00000KT //// CLR 27/23 A3002 RMK CDP03661 CLR=
0143007026999992016062503444+00000+000000FM-15+702699999V0209999C000012200019N009999199+02601+02201999999ADDGF100991999999999999999999MA1101661999999REMMET090MOBOB0 METAR 7026 //008 000000 250344Z AUTO 00000KT 9999 CLR 26/22 A3002 RMK CDP03661 CLR=
0143007026999992016062503594+00000+000000FM-15+702699999V0209999C000012200019N999999999+02601+02201999999ADDGF100991999999999999999999MA1101661999999REMMET090MOBOB0 METAR 7026 //008 000000 250359Z AUTO 00000KT //// CLR 26/22 A3002 RMK CDP03661 CLR=
0143007026999992016062504144+00000+000000FM-15+702699999V0209999C000012200019N009999199+02601+02301999999ADDGF100991999999999999999999MA1101661999999REMMET090MOBOB0 METAR 7026 //008 000000 250414Z AUTO 00000KT 9999 CLR 26/23 A3002 RMK CDP03661 CLR=
0143007026999992016062504294+00000+000000FM-15+702699999V0209999C000012200019N999999999+02601+02301999999ADDGF100991999999999999999999MA1101661999999REMMET090MOBOB0 METAR 7026 //008 000000 250429Z AUTO 00000KT //// CLR 26/23 A3002 RMK CDP03661 CLR=
0152007026999992016062504444+00000+000000FM-15+702699999V0209999C000012200019N009999199+02601+02301999999ADDAW1051GF100991999999999999999999MA1101661999999REMMET093MOBOB0 METAR 7026 //008 000000 250444Z AUTO 00000KT 9999 HZ CLR 26/23 A3002 RMK CDP03661 CLR=
0152007026999992016062504594+00000+000000FM-15+702699999V0209999C000012200019N009999199+02501+02201999999ADDAW1051GF100991999999999999999999MA1101661999999REMMET093MOBOB0 METAR 7026 //008 000000 250459Z AUTO 00000KT 9999 HZ CLR 25/22 A3002 RMK CDP03661 CLR=
0152007026999992016062505144+00000+000000FM-15+702699999V0209999C000012200019N009999199+02501+02201999999ADDAW1051GF100991999999999999999999MA1101661999999REMMET093MOBOB0 METAR 7026 //008 000000 250514Z AUTO 00000KT 9999 HZ CLR 25/22 A3002 RMK CDP03661 CLR=
0152007026999992016062505294+00000+000000FM-15+702699999V0209999C000012200019N009999199+02501+02201999999ADDAW1051GF100991999999999999999999MA1101661999999REMMET093MOBOB0 METAR 7026 //008 000000 250529Z AUTO 00000KT 9999 HZ CLR 25/22 A3002 RMK CDP03661 CLR=
0152007026999992016062505444+00000+000000FM-15+702699999V0209999C000012200019N009999199+02501+02201999999ADDAW1051GF100991999999999999999999MA1101661999999REMMET093MOBOB0 METAR 7026 //008 000000 250544Z AUTO 00000KT 9999 HZ CLR 25/22 A3002 RMK CDP03661 CLR=
0152007026999992016062505594+00000+000000FM-15+702699999V0209999C000012200019N009999199+02501+02201999999ADDAW1051GF100991999999999999999999MA1101661999999REMMET093MOBOB0 METAR 7026 //008 000000 250559Z AUTO 00000KT 9999 HZ CLR 25/22 A3002 RMK CDP03661 CLR=
0152007026999992016062506144+00000+000000FM-15+702699999V0209999C000012200019N009999199+02501+02201999999ADDAW1051GF100991999999999999999999MA1101661999999REMMET093MOBOB0 METAR 7026 //008 000000 250614Z AUTO 00000KT 9999 HZ CLR 25/22 A3002 RMK CDP03661 CLR=
0152007026999992016062506294+00000+000000FM-15+702699999V0209999C000012200019N009999199+02501+02201999999ADDAW1051GF100991999999999999999999MA1101661999999REMMET093MOBOB0 METAR 7026 //008 000000 250629Z AUTO 00000KT 9999 HZ CLR 25/22 A3002 RMK CDP03661 CLR=
0152007026999992016062506444+00000+000000FM-15+702699999V0209999C000012200019N009999199+02401+02301999999ADDAW1051GF100991999999999999999999MA1101661999999REMMET093MOBOB0 METAR 7026 //008 000000 250644Z AUTO 00000KT 9999 HZ CLR 24/23 A3002 RMK CDP03661 CLR=
0152007026999992016062506594+00000+000000FM-15+702699999V0209999C000012200019N009000199+02401+02201999999ADDAW1051GF100991999999999999999999MA1101661999999REMMET093MOBOB0 METAR 7026 //008 000000 250659Z AUTO 00000KT 9000 HZ CLR 24/22 A3002 RMK CDP03661 CLR=
0143007026999992016062507144+00000+000000FM-15+702699999V0209999C000012200019N999999999+02401+02201999999ADDGF100991999999999999999999MA1101661999999REMMET090MOBOB0 METAR 7026 //008 000000 250714Z AUTO 00000KT //// CLR 24/22 A3002 RMK CDP03661 CLR=
0152007026999992016062507294+00000+000000FM-15+702699999V0209999C000012200019N008000199+02401+02201999999ADDAW1051GF100991999999999999999999MA1101661999999REMMET093MOBOB0 METAR 7026 //008 000000 250729Z AUTO 00000KT 8000 HZ CLR 24/22 A3002 RMK CDP03661 CLR=
0152007026999992016062507444+00000+000000FM-15+702699999V0209999C000012200019N008000199+02401+02201999999ADDAW1051GF100991999999999999999999MA1101661999999REMMET093MOBOB0 METAR 7026 //008 000000 250744Z AUTO 00000KT 8000 HZ CLR 24/22 A3002 RMK CDP03661 CLR=
0152007026999992016062507594+00000+000000FM-15+702699999V0209999C000012200019N006000199+02401+02301999999ADDAW1051GF100991999999999999999999MA1101661999999REMMET093MOBOB0 METAR 7026 //008 000000 250759Z AUTO 00000KT 6000 HZ CLR 24/23 A3002 RMK CDP03661 CLR=
0152007026999992016062508144+00000+000000FM-15+702699999V0209999C000012200019N006000199+02401+02201999999ADDAW1051GF100991999999999999999999MA1101631999999REMMET093MOBOB0 METAR 7026 //008 000000 250814Z AUTO 00000KT 6000 HZ CLR 24/22 A3001 RMK CDP03661 CLR=
0152007026999992016062508294+00000+000000FM-15+702699999V0209999C000012200019N004800199+02401+02201999999ADDAW1051GF100991999999999999999999MA1101661999999REMMET093MOBOB0 METAR 7026 //008 000000 250829Z AUTO 00000KT 4800 HZ CLR 24/22 A3002 RMK CDP03661 CLR=
0152007026999992016062508444+00000+000000FM-15+702699999V0209999C000012200019N004800199+02401+02201999999ADDAW1051GF100991999999999999999999MA1101691999999REMMET093MOBOB0 METAR 7026 //008 000000 250844Z AUTO 00000KT 4800 HZ CLR 24/22 A3003 RMK CDP03661 CLR=
0152007026999992016062508594+00000+000000FM-15+702699999V0209999C000012200019N006000199+02301+02201999999ADDAW1051GF100991999999999999999999MA1101691999999REMMET093MOBOB0 METAR 7026 //008 000000 250859Z AUTO 00000KT 6000 HZ CLR 23/22 A3003 RMK CDP03661 CLR=
0152007026999992016062509144+00000+000000FM-15+702699999V0209999C000012200019N004400199+02301+02201999999ADDAW1051GF100991999999999999999999MA1101691999999REMMET093MOBOB0 METAR 7026 //008 000000 250914Z AUTO 00000KT 4400 HZ CLR 23/22 A3003 RMK CDP03661 CLR=
0208007026999992016062509294+00000+000000FM-15+702699999V0209999C000019999999N006000199+02301+02201999999ADDAW1051GA1021+010971999GE19MSL   +99999+99999GF199999021999010971999999MA1101731999999REMMET111MOBOB0 METAR 7026 //008 000000 250929Z AUTO 00000KT 6000 HZ FEW036 23/22 A3004 RMK CDP03661 FEW036 CLD AVG 036=
0152007026999992016062509444+00000+000000FM-15+702699999V0209999C000012200019N004800199+02301+02201999999ADDAW1051GF100991999999999999999999MA1101731999999REMMET093MOBOB0 METAR 7026 //008 000000 250944Z AUTO 00000KT 4800 HZ CLR 23/22 A3004 RMK CDP03661 CLR=
0152007026999992016062509594+00000+000000FM-15+702699999V0209999C000012200019N004800199+02301+02201999999ADDAW1051GF100991999999999999999999MA1101761999999REMMET093MOBOB0 METAR 7026 //008 000000 250959Z AUTO 00000KT 4800 HZ CLR 23/22 A3005 RMK CDP03661 CLR=
0152007026999992016062510144+00000+000000FM-15+702699999V0209999C000012200019N006000199+02301+02201999999ADDAW1051GF100991999999999999999999MA1101761999999REMMET093MOBOB0 METAR 7026 //008 000000 251014Z AUTO 00000KT 6000 HZ CLR 23/22 A3005 RMK CDP03661 CLR=
0152007026999992016062510294+00000+000000FM-15+702699999V0209999C000012200019N008000199+02301+02201999999ADDAW1051GF100991999999999999999999MA1101761999999REMMET093MOBOB0 METAR 7026 //008 000000 251029Z AUTO 00000KT 8000 HZ CLR 23/22 A3005 RMK CDP03661 CLR=
0152007026999992016062510444+00000+000000FM-15+702699999V0209999C000012200019N009000199+02401+02201999999ADDAW1051GF100991999999999999999999MA1101791999999REMMET093MOBOB0 METAR 7026 //008 000000 251044Z AUTO 00000KT 9000 HZ CLR 24/22 A3006 RMK CDP03661 CLR=
