0097007070999992015092520244+00000+000000FM-15+707099999V0209999C000019999999N999999999+02901+00401999999REMMET069MOBOB0 METAR 7070 //008 000000 252024Z AUTO 00000KT //// 29/04 A2488=EQDQ01842.5 1APOA  
0097007070999992015092520304+00000+000000FM-15+707099999V0209999V000519999999N999999999+03001+00501999999REMMET069MOBOB0 METAR 7070 //008 000000 252030Z AUTO VRB01KT //// 30/05 A2488=EQDQ01842.5 1APOA  
0097007070999992015092520354+00000+000000FM-15+707099999V0209999C000019999999N999999999+03001+00501999999REMMET069MOBOB0 METAR 7070 //008 000000 252035Z AUTO 00000KT //// 30/05 A2488=EQDQ01842.5 1APOA  
0097007070999992015092520404+00000+000000FM-15+707099999V0201901N000519999999N999999999+03201+00601999999REMMET069MOBOB0 METAR 7070 //008 000000 252040Z AUTO 19001KT //// 32/06 A2488=EQDQ01842.5 1APOA  
0097007070999992015092520454+00000+000000FM-15+707099999V0209999C000019999999N999999999+03201+00601999999REMMET069MOBOB0 METAR 7070 //008 000000 252045Z AUTO 00000KT //// 32/06 A2488=EQDQ01842.5 1APOA  
0097007070999992015092520504+00000+000000FM-15+707099999V0209999C000019999999N999999999+03201+00501999999REMMET069MOBOB0 METAR 7070 //008 000000 252050Z AUTO 00000KT //// 32/05 A2488=EQDQ01842.5 1APOA  
0097007070999992015092520554+00000+000000FM-15+707099999V0209999C000019999999N999999999+03101+00501999999REMMET069MOBOB0 METAR 7070 //008 000000 252055Z AUTO 00000KT //// 31/05 A2487=EQDQ01842.2 1APOA  
0097007070999992015092521004+00000+000000FM-15+707099999V0209999C000019999999N999999999+03101+00501999999REMMET069MOBOB0 METAR 7070 //008 000000 252100Z AUTO 00000KT //// 31/05 A2487=EQDQ01842.2 1APOA  
0097007070999992015092521054+00000+000000FM-15+707099999V0202001N000519999999N999999999+03101+00401999999REMMET069MOBOB0 METAR 7070 //008 000000 252105Z AUTO 20001KT //// 31/04 A2487=EQDQ01842.2 1APOA  
0097007070999992015092521104+00000+000000FM-15+707099999V0201901N000519999999N999999999+03201+00501999999REMMET069MOBOB0 METAR 7070 //008 000000 252110Z AUTO 19001KT //// 32/05 A2487=EQDQ01842.2 1APOA  
0097007070999992015092521154+00000+000000FM-15+707099999V0202001N000519999999N999999999+03201+00401999999REMMET069MOBOB0 METAR 7070 //008 000000 252115Z AUTO 20001KT //// 32/04 A2487=EQDQ01842.2 1APOA  
0097007070999992015092521204+00000+000000FM-15+707099999V0201901N000519999999N999999999+03201+00501999999REMMET069MOBOB0 METAR 7070 //008 000000 252120Z AUTO 19001KT //// 32/05 A2487=EQDQ01842.2 1APOA  
0097007070999992015092521384+00000+000000FM-15+707099999V0209999C000019999999N999999999+03201+00501999999REMMET069MOBOB0 METAR 7070 //008 000000 252138Z AUTO 00000KT //// 32/05 A2487=EQDQ01842.2 1APOA  
0097007070999992015092521444+00000+000000FM-15+707099999V0209999C000019999999N999999999+03301+00501999999REMMET069MOBOB0 METAR 7070 //008 000000 252144Z AUTO 00000KT //// 33/05 A2486=EQDQ01841.9 1APOA  
0097007070999992015092521494+00000+000000FM-15+707099999V0209999C000019999999N999999999+03201+00601999999REMMET069MOBOB0 METAR 7070 //008 000000 252149Z AUTO 00000KT //// 32/06 A2486=EQDQ01841.9 1APOA  
0097007070999992015092521554+00000+000000FM-15+707099999V0209999C000019999999N999999999+03301+00601999999REMMET069MOBOB0 METAR 7070 //008 000000 252155Z AUTO 00000KT //// 33/06 A2486=EQDQ01841.9 1APOA  
0097007070999992015092522004+00000+000000FM-15+707099999V0201901N000519999999N999999999+03301+00501999999REMMET069MOBOB0 METAR 7070 //008 000000 252200Z AUTO 19001KT //// 33/05 A2486=EQDQ01841.9 1APOA  
0097007070999992015092522054+00000+000000FM-15+707099999V0209999C000019999999N999999999+03301+00501999999REMMET069MOBOB0 METAR 7070 //008 000000 252205Z AUTO 00000KT //// 33/05 A2486=EQDQ01841.9 1APOA  
0097007070999992015092522104+00000+000000FM-15+707099999V0209999C000019999999N999999999+03401+00601999999REMMET069MOBOB0 METAR 7070 //008 000000 252210Z AUTO 00000KT //// 34/06 A2486=EQDQ01841.9 1APOA  
0097007070999992015092522154+00000+000000FM-15+707099999V0209999C000019999999N999999999+03301+00501999999REMMET069MOBOB0 METAR 7070 //008 000000 252215Z AUTO 00000KT //// 33/05 A2485=EQDQ01841.5 1APOA  
0097007070999992015092522204+00000+000000FM-15+707099999V0201001N000519999999N999999999+03301+00401999999REMMET069MOBOB0 METAR 7070 //008 000000 252220Z AUTO 10001KT //// 33/04 A2485=EQDQ01841.5 1APOA  
0097007070999992015092522254+00000+000000FM-15+707099999V0201801N000519999999N999999999+03301+00501999999REMMET069MOBOB0 METAR 7070 //008 000000 252225Z AUTO 18001KT //// 33/05 A2485=EQDQ01841.5 1APOA  
0097007070999992015092522304+00000+000000FM-15+707099999V0209999C000019999999N999999999+03201+00501999999REMMET069MOBOB0 METAR 7070 //008 000000 252230Z AUTO 00000KT //// 32/05 A2485=EQDQ01841.5 1APOA  
0097007070999992015092522354+00000+000000FM-15+707099999V0209999C000019999999N999999999+03301+00601999999REMMET069MOBOB0 METAR 7070 //008 000000 252235Z AUTO 00000KT //// 33/06 A2485=EQDQ01841.5 1APOA  
0097007070999992015092522404+00000+000000FM-15+707099999V0209999C000019999999N999999999+03201+00501999999REMMET069MOBOB0 METAR 7070 //008 000000 252240Z AUTO 00000KT //// 32/05 A2485=EQDQ01841.5 1APOA  
0097007070999992015092522454+00000+000000FM-15+707099999V0209999C000019999999N999999999+03201+00501999999REMMET069MOBOB0 METAR 7070 //008 000000 252245Z AUTO 00000KT //// 32/05 A2485=EQDQ01841.5 1APOA  
0097007070999992015092522504+00000+000000FM-15+707099999V0209999C000019999999N999999999+03201+00501999999REMMET069MOBOB0 METAR 7070 //008 000000 252250Z AUTO 00000KT //// 32/05 A2485=EQDQ01841.5 1APOA  
0097007070999992015092522564+00000+000000FM-15+707099999V0209999C000019999999N999999999+03301+00401999999REMMET069MOBOB0 METAR 7070 //008 000000 252256Z AUTO 00000KT //// 33/04 A2485=EQDQ01841.5 1APOA  
0097007070999992015092523044+00000+000000FM-15+707099999V0209999C000019999999N999999999+03201+00401999999REMMET069MOBOB0 METAR 7070 //008 000000 252304Z AUTO 00000KT //// 32/04 A2485=EQDQ01841.5 1APOA  
0097007070999992015092523094+00000+000000FM-15+707099999V0209999C000019999999N999999999+03201+00401999999REMMET069MOBOB0 METAR 7070 //008 000000 252309Z AUTO 00000KT //// 32/04 A2485=EQDQ01841.5 1APOA  
0097007070999992015092523154+00000+000000FM-15+707099999V0209999C000019999999N999999999+03201+00401999999REMMET069MOBOB0 METAR 7070 //008 000000 252315Z AUTO 00000KT //// 32/04 A2485=EQDQ01841.5 1APOA  
0097007070999992015092523204+00000+000000FM-15+707099999V0209999C000019999999N999999999+03201+00401999999REMMET069MOBOB0 METAR 7070 //008 000000 252320Z AUTO 00000KT //// 32/04 A2485=EQDQ01841.5 1APOA  
0097007070999992015092523254+00000+000000FM-15+707099999V0209999C000019999999N999999999+03201+00401999999REMMET069MOBOB0 METAR 7070 //008 000000 252325Z AUTO 00000KT //// 32/04 A2485=EQDQ01841.5 1APOA  
0097007070999992015092523304+00000+000000FM-15+707099999V0209999C000019999999N999999999+03201+00401999999REMMET069MOBOB0 METAR 7070 //008 000000 252330Z AUTO 00000KT //// 32/04 A2485=EQDQ01841.5 1APOA  
0097007070999992015092523354+00000+000000FM-15+707099999V0209999C000019999999N999999999+03201+00501999999REMMET069MOBOB0 METAR 7070 //008 000000 252335Z AUTO 00000KT //// 32/05 A2486=EQDQ01841.9 1APOA  
0097007070999992015092523404+00000+000000FM-15+707099999V0209999C000019999999N999999999+03101+00501999999REMMET069MOBOB0 METAR 7070 //008 000000 252340Z AUTO 00000KT //// 31/05 A2486=EQDQ01841.9 1APOA  
0097007070999992015092523454+00000+000000FM-15+707099999V0209999C000019999999N999999999+03001+00501999999REMMET069MOBOB0 METAR 7070 //008 000000 252345Z AUTO 00000KT //// 30/05 A2486=EQDQ01841.9 1APOA  
0097007070999992015092523504+00000+000000FM-15+707099999V0209999C000019999999N999999999+03001+00501999999REMMET069MOBOB0 METAR 7070 //008 000000 252350Z AUTO 00000KT //// 30/05 A2486=EQDQ01841.9 1APOA  
0097007070999992015092523554+00000+000000FM-15+707099999V0209999C000019999999N999999999+02901+00501999999REMMET069MOBOB0 METAR 7070 //008 000000 252355Z AUTO 00000KT //// 29/05 A2486=EQDQ01841.9 1APOA  
0097007070999992015092600004+00000+000000FM-15+707099999V0209999C000019999999N999999999+03001+00501999999REMMET069MOBOB0 METAR 7070 //008 000000 260000Z AUTO 00000KT //// 30/05 A2486=EQDQ01841.9 1APOA  
0097007070999992015092600054+00000+000000FM-15+707099999V0201101N000519999999N999999999+02801+00601999999REMMET069MOBOB0 METAR 7070 //008 000000 260005Z AUTO 11001KT //// 28/06 A2486=EQDQ01841.9 1APOA  
0097007070999992015092600104+00000+000000FM-15+707099999V0209999C000019999999N999999999+02701+00601999999REMMET069MOBOB0 METAR 7070 //008 000000 260010Z AUTO 00000KT //// 27/06 A2486=EQDQ01841.9 1APOA  
0097007070999992015092600154+00000+000000FM-15+707099999V0209999C000019999999N999999999+02701+00701999999REMMET069MOBOB0 METAR 7070 //008 000000 260015Z AUTO 00000KT //// 27/07 A2486=EQDQ01841.9 1APOA  
0097007070999992015092600204+00000+000000FM-15+707099999V0209999C000019999999N999999999+02601+00601999999REMMET069MOBOB0 METAR 7070 //008 000000 260020Z AUTO 00000KT //// 26/06 A2486=EQDQ01841.9 1APOA  
0097007070999992015092600254+00000+000000FM-15+707099999V0209999C000019999999N999999999+02601+00601999999REMMET069MOBOB0 METAR 7070 //008 000000 260025Z AUTO 00000KT //// 26/06 A2486=EQDQ01841.9 1APOA  
0097007070999992015092600304+00000+000000FM-15+707099999V0209999C000019999999N999999999+02601+00601999999REMMET069MOBOB0 METAR 7070 //008 000000 260030Z AUTO 00000KT //// 26/06 A2486=EQDQ01841.9 1APOA  
0097007070999992015092600354+00000+000000FM-15+707099999V0209999C000019999999N999999999+02501+00601999999REMMET069MOBOB0 METAR 7070 //008 000000 260035Z AUTO 00000KT //// 25/06 A2486=EQDQ01841.9 1APOA  
0097007070999992015092600404+00000+000000FM-15+707099999V0209999C000019999999N999999999+02501+00601999999REMMET069MOBOB0 METAR 7070 //008 000000 260040Z AUTO 00000KT //// 25/06 A2486=EQDQ01841.9 1APOA  
0097007070999992015092600454+00000+000000FM-15+707099999V0209999C000019999999N999999999+02401+00601999999REMMET069MOBOB0 METAR 7070 //008 000000 260045Z AUTO 00000KT //// 24/06 A2486=EQDQ01841.9 1APOA  
0097007070999992015092600504+00000+000000FM-15+707099999V0209999C000019999999N999999999+02401+00501999999REMMET069MOBOB0 METAR 7070 //008 000000 260050Z AUTO 00000KT //// 24/05 A2487=EQDQ01842.2 1APOA  
0097007070999992015092600554+00000+000000FM-15+707099999V0209999C000019999999N999999999+02401+00601999999REMMET069MOBOB0 METAR 7070 //008 000000 260055Z AUTO 00000KT //// 24/06 A2487=EQDQ01842.2 1APOA  
0097007070999992015092601004+00000+000000FM-15+707099999V0209999C000019999999N999999999+02301+00601999999REMMET069MOBOB0 METAR 7070 //008 000000 260100Z AUTO 00000KT //// 23/06 A2486=EQDQ01841.9 1APOA  
0097007070999992015092601054+00000+000000FM-15+707099999V0209999C000019999999N999999999+02301+00501999999REMMET069MOBOB0 METAR 7070 //008 000000 260105Z AUTO 00000KT //// 23/05 A2487=EQDQ01842.2 1APOA  
0097007070999992015092601104+00000+000000FM-15+707099999V0209999C000019999999N999999999+02301+00501999999REMMET069MOBOB0 METAR 7070 //008 000000 260110Z AUTO 00000KT //// 23/05 A2487=EQDQ01842.2 1APOA  
0097007070999992015092601154+00000+000000FM-15+707099999V0209999C000019999999N999999999+02301+00501999999REMMET069MOBOB0 METAR 7070 //008 000000 260115Z AUTO 00000KT //// 23/05 A2487=EQDQ01842.2 1APOA  
0097007070999992015092601204+00000+000000FM-15+707099999V0209999C000019999999N999999999+02301+00601999999REMMET069MOBOB0 METAR 7070 //008 000000 260120Z AUTO 00000KT //// 23/06 A2487=EQDQ01842.2 1APOA  
0097007070999992015092601254+00000+000000FM-15+707099999V0209999C000019999999N999999999+02201+00601999999REMMET069MOBOB0 METAR 7070 //008 000000 260125Z AUTO 00000KT //// 22/06 A2487=EQDQ01842.2 1APOA  
0097007070999992015092601304+00000+000000FM-15+707099999V0209999C000019999999N999999999+02201+00701999999REMMET069MOBOB0 METAR 7070 //008 000000 260130Z AUTO 00000KT //// 22/07 A2487=EQDQ01842.2 1APOA  
0097007070999992015092601354+00000+000000FM-15+707099999V0209999C000019999999N999999999+02101+00601999999REMMET069MOBOB0 METAR 7070 //008 000000 260135Z AUTO 00000KT //// 21/06 A2487=EQDQ01842.2 1APOA  
0097007070999992015092601404+00000+000000FM-15+707099999V0209999C000019999999N999999999+02101+00601999999REMMET069MOBOB0 METAR 7070 //008 000000 260140Z AUTO 00000KT //// 21/06 A2487=EQDQ01842.2 1APOA  
0097007070999992015092601454+00000+000000FM-15+707099999V0209999C000019999999N999999999+02101+00601999999REMMET069MOBOB0 METAR 7070 //008 000000 260145Z AUTO 00000KT //// 21/06 A2488=EQDQ01842.5 1APOA  
0097007070999992015092601504+00000+000000FM-15+707099999V0209999C000019999999N999999999+02101+00601999999REMMET069MOBOB0 METAR 7070 //008 000000 260150Z AUTO 00000KT //// 21/06 A2488=EQDQ01842.5 1APOA  
0097007070999992015092601554+00000+000000FM-15+707099999V0209999C000019999999N999999999+02101+00601999999REMMET069MOBOB0 METAR 7070 //008 000000 260155Z AUTO 00000KT //// 21/06 A2488=EQDQ01842.5 1APOA  
0097007070999992015092602004+00000+000000FM-15+707099999V0209999C000019999999N999999999+02101+00501999999REMMET069MOBOB0 METAR 7070 //008 000000 260200Z AUTO 00000KT //// 21/05 A2488=EQDQ01842.5 1APOA  
0097007070999992015092602054+00000+000000FM-15+707099999V0209999C000019999999N999999999+02101+00501999999REMMET069MOBOB0 METAR 7070 //008 000000 260205Z AUTO 00000KT //// 21/05 A2488=EQDQ01842.5 1APOA  
0097007070999992015092602104+00000+000000FM-15+707099999V0209999C000019999999N999999999+02101+00501999999REMMET069MOBOB0 METAR 7070 //008 000000 260210Z AUTO 00000KT //// 21/05 A2488=EQDQ01842.5 1APOA  
0097007070999992015092602154+00000+000000FM-15+707099999V0209999C000019999999N999999999+02101+00501999999REMMET069MOBOB0 METAR 7070 //008 000000 260215Z AUTO 00000KT //// 21/05 A2488=EQDQ01842.5 1APOA  
0097007070999992015092602204+00000+000000FM-15+707099999V0209999C000019999999N999999999+02101+00501999999REMMET069MOBOB0 METAR 7070 //008 000000 260220Z AUTO 00000KT //// 21/05 A2489=EQDQ01842.9 1APOA  
0097007070999992015092602254+00000+000000FM-15+707099999V0209999C000019999999N999999999+02001+00501999999REMMET069MOBOB0 METAR 7070 //008 000000 260225Z AUTO 00000KT //// 20/05 A2489=EQDQ01842.9 1APOA  
0097007070999992015092602304+00000+000000FM-15+707099999V0209999C000019999999N999999999+02001+00501999999REMMET069MOBOB0 METAR 7070 //008 000000 260230Z AUTO 00000KT //// 20/05 A2489=EQDQ01842.9 1APOA  
0097007070999992015092602354+00000+000000FM-15+707099999V0209999C000019999999N999999999+02001+00501999999REMMET069MOBOB0 METAR 7070 //008 000000 260235Z AUTO 00000KT //// 20/05 A2489=EQDQ01842.9 1APOA  
0097007070999992015092602404+00000+000000FM-15+707099999V0209999C000019999999N999999999+02001+00601999999REMMET069MOBOB0 METAR 7070 //008 000000 260240Z AUTO 00000KT //// 20/06 A2490=EQDQ01843.2 1APOA  
0097007070999992015092602454+00000+000000FM-15+707099999V0209999C000019999999N999999999+02001+00501999999REMMET069MOBOB0 METAR 7070 //008 000000 260245Z AUTO 00000KT //// 20/05 A2490=EQDQ01843.2 1APOA  
0097007070999992015092602504+00000+000000FM-15+707099999V0209999C000019999999N999999999+02001+00601999999REMMET069MOBOB0 METAR 7070 //008 000000 260250Z AUTO 00000KT //// 20/06 A2490=EQDQ01843.2 1APOA  
0097007070999992015092602554+00000+000000FM-15+707099999V0209999C000019999999N999999999+01901+00601999999REMMET069MOBOB0 METAR 7070 //008 000000 260255Z AUTO 00000KT //// 19/06 A2490=EQDQ01843.2 1APOA  
0097007070999992015092603004+00000+000000FM-15+707099999V0209999C000019999999N999999999+01901+00501999999REMMET069MOBOB0 METAR 7070 //008 000000 260300Z AUTO 00000KT //// 19/05 A2490=EQDQ01843.2 1APOA  
0097007070999992015092603054+00000+000000FM-15+707099999V0209999C000019999999N999999999+01901+00601999999REMMET069MOBOB0 METAR 7070 //008 000000 260305Z AUTO 00000KT //// 19/06 A2490=EQDQ01843.2 1APOA  
0097007070999992015092603104+00000+000000FM-15+707099999V0209999C000019999999N999999999+01901+00601999999REMMET069MOBOB0 METAR 7070 //008 000000 260310Z AUTO 00000KT //// 19/06 A2490=EQDQ01843.2 1APOA  
0097007070999992015092603154+00000+000000FM-15+707099999V0209999C000019999999N999999999+01901+00601999999REMMET069MOBOB0 METAR 7070 //008 000000 260315Z AUTO 00000KT //// 19/06 A2490=EQDQ01843.2 1APOA  
0097007070999992015092603204+00000+000000FM-15+707099999V0209999C000019999999N999999999+01801+00601999999REMMET069MOBOB0 METAR 7070 //008 000000 260320Z AUTO 00000KT //// 18/06 A2490=EQDQ01843.2 1APOA  
0097007070999992015092603254+00000+000000FM-15+707099999V0201201N000519999999N999999999+01801+00601999999REMMET069MOBOB0 METAR 7070 //008 000000 260325Z AUTO 12001KT //// 18/06 A2490=EQDQ01843.2 1APOA  
0097007070999992015092603304+00000+000000FM-15+707099999V0209999C000019999999N999999999+01801+00601999999REMMET069MOBOB0 METAR 7070 //008 000000 260330Z AUTO 00000KT //// 18/06 A2491=EQDQ01843.5 1APOA  
0097007070999992015092603354+00000+000000FM-15+707099999V0209999C000019999999N999999999+01801+00601999999REMMET069MOBOB0 METAR 7070 //008 000000 260335Z AUTO 00000KT //// 18/06 A2491=EQDQ01843.5 1APOA  
0097007070999992015092603404+00000+000000FM-15+707099999V0209999C000019999999N999999999+01801+00601999999REMMET069MOBOB0 METAR 7070 //008 000000 260340Z AUTO 00000KT //// 18/06 A2491=EQDQ01843.5 1APOA  
0097007070999992015092603454+00000+000000FM-15+707099999V0209999C000019999999N999999999+01701+00601999999REMMET069MOBOB0 METAR 7070 //008 000000 260345Z AUTO 00000KT //// 17/06 A2491=EQDQ01843.5 1APOA  
0097007070999992015092603504+00000+000000FM-15+707099999V0209999C000019999999N999999999+01801+00601999999REMMET069MOBOB0 METAR 7070 //008 000000 260350Z AUTO 00000KT //// 18/06 A2491=EQDQ01843.5 1APOA  
0097007070999992015092603554+00000+000000FM-15+707099999V0209999C000019999999N999999999+01701+00601999999REMMET069MOBOB0 METAR 7070 //008 000000 260355Z AUTO 00000KT //// 17/06 A2491=EQDQ01843.5 1APOA  
0097007070999992015092604004+00000+000000FM-15+707099999V0209999C000019999999N999999999+01701+00601999999REMMET069MOBOB0 METAR 7070 //008 000000 260400Z AUTO 00000KT //// 17/06 A2490=EQDQ01843.2 1APOA  
0097007070999992015092604054+00000+000000FM-15+707099999V0209999C000019999999N999999999+01701+00601999999REMMET069MOBOB0 METAR 7070 //008 000000 260405Z AUTO 00000KT //// 17/06 A2490=EQDQ01843.2 1APOA  
0097007070999992015092604104+00000+000000FM-15+707099999V0209999C000019999999N999999999+01701+00701999999REMMET069MOBOB0 METAR 7070 //008 000000 260410Z AUTO 00000KT //// 17/07 A2490=EQDQ01843.2 1APOA  
0097007070999992015092604154+00000+000000FM-15+707099999V0209999C000019999999N999999999+01701+00601999999REMMET069MOBOB0 METAR 7070 //008 000000 260415Z AUTO 00000KT //// 17/06 A2490=EQDQ01843.2 1APOA  
0097007070999992015092604204+00000+000000FM-15+707099999V0209999C000019999999N999999999+01701+00601999999REMMET069MOBOB0 METAR 7070 //008 000000 260420Z AUTO 00000KT //// 17/06 A2490=EQDQ01843.2 1APOA  
0097007070999992015092604254+00000+000000FM-15+707099999V0202001N000519999999N999999999+01701+00601999999REMMET069MOBOB0 METAR 7070 //008 000000 260425Z AUTO 20001KT //// 17/06 A2490=EQDQ01843.2 1APOA  
0097007070999992015092604304+00000+000000FM-15+707099999V0209999C000019999999N999999999+01701+00601999999REMMET069MOBOB0 METAR 7070 //008 000000 260430Z AUTO 00000KT //// 17/06 A2490=EQDQ01843.2 1APOA  
0097007070999992015092604354+00000+000000FM-15+707099999V0209999C000019999999N999999999+01701+00601999999REMMET069MOBOB0 METAR 7070 //008 000000 260435Z AUTO 00000KT //// 17/06 A2490=EQDQ01843.2 1APOA  
0097007070999992015092604404+00000+000000FM-15+707099999V0209999C000019999999N999999999+01701+00601999999REMMET069MOBOB0 METAR 7070 //008 000000 260440Z AUTO 00000KT //// 17/06 A2490=EQDQ01843.2 1APOA  
0097007070999992015092604454+00000+000000FM-15+707099999V0209999C000019999999N999999999+01701+00601999999REMMET069MOBOB0 METAR 7070 //008 000000 260445Z AUTO 00000KT //// 17/06 A2490=EQDQ01843.2 1APOA  
0097007070999992015092604534+00000+000000FM-15+707099999V0209999C000019999999N999999999+01701+00501999999REMMET069MOBOB0 METAR 7070 //008 000000 260453Z AUTO 00000KT //// 17/05 A2489=EQDQ01842.9 1APOA  
0097007070999992015092604594+00000+000000FM-15+707099999V0209999C000019999999N999999999+01701+00601999999REMMET069MOBOB0 METAR 7070 //008 000000 260459Z AUTO 00000KT //// 17/06 A2489=EQDQ01842.9 1APOA  
0097007070999992015092605044+00000+000000FM-15+707099999V0209999C000019999999N999999999+01701+00601999999REMMET069MOBOB0 METAR 7070 //008 000000 260504Z AUTO 00000KT //// 17/06 A2489=EQDQ01842.9 1APOA  
0097007070999992015092605104+00000+000000FM-15+707099999V0209999C000019999999N999999999+01701+00701999999REMMET069MOBOB0 METAR 7070 //008 000000 260510Z AUTO 00000KT //// 17/07 A2489=EQDQ01842.9 1APOA  
0097007070999992015092605154+00000+000000FM-15+707099999V0209999C000019999999N999999999+01601+00701999999REMMET069MOBOB0 METAR 7070 //008 000000 260515Z AUTO 00000KT //// 16/07 A2489=EQDQ01842.9 1APOA  
0097007070999992015092605214+00000+000000FM-15+707099999V0209999C000019999999N999999999+01601+00701999999REMMET069MOBOB0 METAR 7070 //008 000000 260521Z AUTO 00000KT //// 16/07 A2489=EQDQ01842.9 1APOA  
0097007070999992015092605254+00000+000000FM-15+707099999V0209999C000019999999N999999999+01601+00601999999REMMET069MOBOB0 METAR 7070 //008 000000 260525Z AUTO 00000KT //// 16/06 A2489=EQDQ01842.9 1APOA  
0097007070999992015092605304+00000+000000FM-15+707099999V0209999C000019999999N999999999+01601+00601999999REMMET069MOBOB0 METAR 7070 //008 000000 260530Z AUTO 00000KT //// 16/06 A2489=EQDQ01842.9 1APOA  
0097007070999992015092605354+00000+000000FM-15+707099999V0209999C000019999999N999999999+01501+00601999999REMMET069MOBOB0 METAR 7070 //008 000000 260535Z AUTO 00000KT //// 15/06 A2488=EQDQ01842.5 1APOA  
0097007070999992015092605404+00000+000000FM-15+707099999V0209999C000019999999N999999999+01601+00701999999REMMET069MOBOB0 METAR 7070 //008 000000 260540Z AUTO 00000KT //// 16/07 A2488=EQDQ01842.5 1APOA  
0097007070999992015092605454+00000+000000FM-15+707099999V0209999C000019999999N999999999+01501+00701999999REMMET069MOBOB0 METAR 7070 //008 000000 260545Z AUTO 00000KT //// 15/07 A2488=EQDQ01842.5 1APOA  
0097007070999992015092605504+00000+000000FM-15+707099999V0209999C000019999999N999999999+01501+00601999999REMMET069MOBOB0 METAR 7070 //008 000000 260550Z AUTO 00000KT //// 15/06 A2488=EQDQ01842.5 1APOA  
0097007070999992015092605554+00000+000000FM-15+707099999V0209999C000019999999N999999999+01501+00601999999REMMET069MOBOB0 METAR 7070 //008 000000 260555Z AUTO 00000KT //// 15/06 A2488=EQDQ01842.5 1APOA  
0097007070999992015092606004+00000+000000FM-15+707099999V0209999C000019999999N999999999+01501+00601999999REMMET069MOBOB0 METAR 7070 //008 000000 260600Z AUTO 00000KT //// 15/06 A2488=EQDQ01842.5 1APOA  
0097007070999992015092606054+00000+000000FM-15+707099999V0209999C000019999999N999999999+01601+00501999999REMMET069MOBOB0 METAR 7070 //008 000000 260605Z AUTO 00000KT //// 16/05 A2488=EQDQ01842.5 1APOA  
0097007070999992015092606104+00000+000000FM-15+707099999V0209999C000019999999N999999999+01601+00501999999REMMET069MOBOB0 METAR 7070 //008 000000 260610Z AUTO 00000KT //// 16/05 A2488=EQDQ01842.5 1APOA  
0097007070999992015092606154+00000+000000FM-15+707099999V0209999C000019999999N999999999+01601+00501999999REMMET069MOBOB0 METAR 7070 //008 000000 260615Z AUTO 00000KT //// 16/05 A2488=EQDQ01842.5 1APOA  
0097007070999992015092606204+00000+000000FM-15+707099999V0209999C000019999999N999999999+01601+00501999999REMMET069MOBOB0 METAR 7070 //008 000000 260620Z AUTO 00000KT //// 16/05 A2488=EQDQ01842.5 1APOA  
0097007070999992015092606254+00000+000000FM-15+707099999V0209999C000019999999N999999999+01601+00501999999REMMET069MOBOB0 METAR 7070 //008 000000 260625Z AUTO 00000KT //// 16/05 A2488=EQDQ01842.5 1APOA  
0097007070999992015092606304+00000+000000FM-15+707099999V0209999C000019999999N999999999+01601+00501999999REMMET069MOBOB0 METAR 7070 //008 000000 260630Z AUTO 00000KT //// 16/05 A2488=EQDQ01842.5 1APOA  
0097007070999992015092606354+00000+000000FM-15+707099999V0209999C000019999999N999999999+01601+00501999999REMMET069MOBOB0 METAR 7070 //008 000000 260635Z AUTO 00000KT //// 16/05 A2488=EQDQ01842.5 1APOA  
0097007070999992015092606404+00000+000000FM-15+707099999V0209999C000019999999N999999999+01601+00501999999REMMET069MOBOB0 METAR 7070 //008 000000 260640Z AUTO 00000KT //// 16/05 A2487=EQDQ01842.2 1APOA  
0097007070999992015092606454+00000+000000FM-15+707099999V0209999C000019999999N999999999+01601+00501999999REMMET069MOBOB0 METAR 7070 //008 000000 260645Z AUTO 00000KT //// 16/05 A2488=EQDQ01842.5 1APOA  
0097007070999992015092606504+00000+000000FM-15+707099999V0209999C000019999999N999999999+01601+00501999999REMMET069MOBOB0 METAR 7070 //008 000000 260650Z AUTO 00000KT //// 16/05 A2488=EQDQ01842.5 1APOA  
0097007070999992015092606554+00000+000000FM-15+707099999V0209999C000019999999N999999999+01601+00601999999REMMET069MOBOB0 METAR 7070 //008 000000 260655Z AUTO 00000KT //// 16/06 A2488=EQDQ01842.5 1APOA  
0097007070999992015092607004+00000+000000FM-15+707099999V0209999C000019999999N999999999+01501+00601999999REMMET069MOBOB0 METAR 7070 //008 000000 260700Z AUTO 00000KT //// 15/06 A2488=EQDQ01842.5 1APOA  
0097007070999992015092607054+00000+000000FM-15+707099999V0209999C000019999999N999999999+01501+00601999999REMMET069MOBOB0 METAR 7070 //008 000000 260705Z AUTO 00000KT //// 15/06 A2488=EQDQ01842.5 1APOA  
0097007070999992015092607104+00000+000000FM-15+707099999V0209999C000019999999N999999999+01501+00601999999REMMET069MOBOB0 METAR 7070 //008 000000 260710Z AUTO 00000KT //// 15/06 A2487=EQDQ01842.2 1APOA  
0097007070999992015092607154+00000+000000FM-15+707099999V0209999C000019999999N999999999+01501+00601999999REMMET069MOBOB0 METAR 7070 //008 000000 260715Z AUTO 00000KT //// 15/06 A2487=EQDQ01842.2 1APOA  
0097007070999992015092607204+00000+000000FM-15+707099999V0209999C000019999999N999999999+01501+00601999999REMMET069MOBOB0 METAR 7070 //008 000000 260720Z AUTO 00000KT //// 15/06 A2487=EQDQ01842.2 1APOA  
0097007070999992015092607254+00000+000000FM-15+707099999V0209999C000019999999N999999999+01401+00601999999REMMET069MOBOB0 METAR 7070 //008 000000 260725Z AUTO 00000KT //// 14/06 A2487=EQDQ01842.2 1APOA  
0097007070999992015092607354+00000+000000FM-15+707099999V0209999C000019999999N999999999+01401+00701999999REMMET069MOBOB0 METAR 7070 //008 000000 260735Z AUTO 00000KT //// 14/07 A2487=EQDQ01842.2 1APOA  
0097007070999992015092607374+00000+000000FM-15+707099999V0209999C000019999999N999999999+01401+00601999999REMMET069MOBOB0 METAR 7070 //008 000000 260737Z AUTO 00000KT //// 14/06 A2487=EQDQ01842.2 1APOA  
0097007070999992015092607454+00000+000000FM-15+707099999V0209999C000019999999N999999999+01401+00601999999REMMET069MOBOB0 METAR 7070 //008 000000 260745Z AUTO 00000KT //// 14/06 A2487=EQDQ01842.2 1APOA  
0097007070999992015092607504+00000+000000FM-15+707099999V0209999C000019999999N999999999+01401+00601999999REMMET069MOBOB0 METAR 7070 //008 000000 260750Z AUTO 00000KT //// 14/06 A2488=EQDQ01842.5 1APOA  
0097007070999992015092607554+00000+000000FM-15+707099999V0209999C000019999999N999999999+01401+00501999999REMMET069MOBOB0 METAR 7070 //008 000000 260755Z AUTO 00000KT //// 14/05 A2487=EQDQ01842.2 1APOA  
0097007070999992015092608004+00000+000000FM-15+707099999V0209999C000019999999N999999999+01301+00501999999REMMET069MOBOB0 METAR 7070 //008 000000 260800Z AUTO 00000KT //// 13/05 A2488=EQDQ01842.5 1APOA  
0097007070999992015092608054+00000+000000FM-15+707099999V0209999C000019999999N999999999+01301+00501999999REMMET069MOBOB0 METAR 7070 //008 000000 260805Z AUTO 00000KT //// 13/05 A2488=EQDQ01842.5 1APOA  
0097007070999992015092608104+00000+000000FM-15+707099999V0209999C000019999999N999999999+01301+00501999999REMMET069MOBOB0 METAR 7070 //008 000000 260810Z AUTO 00000KT //// 13/05 A2488=EQDQ01842.5 1APOA  
0097007070999992015092608154+00000+000000FM-15+707099999V0209999C000019999999N999999999+01401+00501999999REMMET069MOBOB0 METAR 7070 //008 000000 260815Z AUTO 00000KT //// 14/05 A2488=EQDQ01842.5 1APOA  
0097007070999992015092608204+00000+000000FM-15+707099999V0209999C000019999999N999999999+01401+00501999999REMMET069MOBOB0 METAR 7070 //008 000000 260820Z AUTO 00000KT //// 14/05 A2488=EQDQ01842.5 1APOA  
0097007070999992015092608254+00000+000000FM-15+707099999V0209999C000019999999N999999999+01401+00501999999REMMET069MOBOB0 METAR 7070 //008 000000 260825Z AUTO 00000KT //// 14/05 A2488=EQDQ01842.5 1APOA  
0097007070999992015092608304+00000+000000FM-15+707099999V0209999C000019999999N999999999+01301+00501999999REMMET069MOBOB0 METAR 7070 //008 000000 260830Z AUTO 00000KT //// 13/05 A2488=EQDQ01842.5 1APOA  
0097007070999992015092608364+00000+000000FM-15+707099999V0209999C000019999999N999999999+01301+00601999999REMMET069MOBOB0 METAR 7070 //008 000000 260836Z AUTO 00000KT //// 13/06 A2487=EQDQ01842.2 1APOA  
0097007070999992015092608444+00000+000000FM-15+707099999V0209999C000019999999N999999999+01301+00501999999REMMET069MOBOB0 METAR 7070 //008 000000 260844Z AUTO 00000KT //// 13/05 A2487=EQDQ01842.2 1APOA  
0097007070999992015092608494+00000+000000FM-15+707099999V0209999C000019999999N999999999+01301+00501999999REMMET069MOBOB0 METAR 7070 //008 000000 260849Z AUTO 00000KT //// 13/05 A2487=EQDQ01842.2 1APOA  
0097007070999992015092608554+00000+000000FM-15+707099999V0209999C000019999999N999999999+01301+00501999999REMMET069MOBOB0 METAR 7070 //008 000000 260855Z AUTO 00000KT //// 13/05 A2487=EQDQ01842.2 1APOA  
0097007070999992015092609004+00000+000000FM-15+707099999V0209999C000019999999N999999999+01201+00501999999REMMET069MOBOB0 METAR 7070 //008 000000 260900Z AUTO 00000KT //// 12/05 A2487=EQDQ01842.2 1APOA  
0097007070999992015092609054+00000+000000FM-15+707099999V0209999C000019999999N999999999+01201+00501999999REMMET069MOBOB0 METAR 7070 //008 000000 260905Z AUTO 00000KT //// 12/05 A2487=EQDQ01842.2 1APOA  
0097007070999992015092609104+00000+000000FM-15+707099999V0209999C000019999999N999999999+01201+00501999999REMMET069MOBOB0 METAR 7070 //008 000000 260910Z AUTO 00000KT //// 12/05 A2486=EQDQ01841.9 1APOA  
0097007070999992015092609154+00000+000000FM-15+707099999V0209999C000019999999N999999999+01201+00501999999REMMET069MOBOB0 METAR 7070 //008 000000 260915Z AUTO 00000KT //// 12/05 A2486=EQDQ01841.9 1APOA  
0097007070999992015092609204+00000+000000FM-15+707099999V0209999C000019999999N999999999+01201+00501999999REMMET069MOBOB0 METAR 7070 //008 000000 260920Z AUTO 00000KT //// 12/05 A2486=EQDQ01841.9 1APOA  
0097007070999992015092609254+00000+000000FM-15+707099999V0209999C000019999999N999999999+01201+00501999999REMMET069MOBOB0 METAR 7070 //008 000000 260925Z AUTO 00000KT //// 12/05 A2486=EQDQ01841.9 1APOA  
0097007070999992015092609304+00000+000000FM-15+707099999V0209999C000019999999N999999999+01201+00501999999REMMET069MOBOB0 METAR 7070 //008 000000 260930Z AUTO 00000KT //// 12/05 A2486=EQDQ01841.9 1APOA  
0097007070999992015092609354+00000+000000FM-15+707099999V0209999C000019999999N999999999+01201+00501999999REMMET069MOBOB0 METAR 7070 //008 000000 260935Z AUTO 00000KT //// 12/05 A2486=EQDQ01841.9 1APOA  
0097007070999992015092609404+00000+000000FM-15+707099999V0209999C000019999999N999999999+01201+00501999999REMMET069MOBOB0 METAR 7070 //008 000000 260940Z AUTO 00000KT //// 12/05 A2486=EQDQ01841.9 1APOA  
0097007070999992015092609454+00000+000000FM-15+707099999V0209999C000019999999N999999999+01201+00501999999REMMET069MOBOB0 METAR 7070 //008 000000 260945Z AUTO 00000KT //// 12/05 A2486=EQDQ01841.9 1APOA  
0097007070999992015092609504+00000+000000FM-15+707099999V0209999C000019999999N999999999+01201+00501999999REMMET069MOBOB0 METAR 7070 //008 000000 260950Z AUTO 00000KT //// 12/05 A2485=EQDQ01841.5 1APOA  
0097007070999992015092609554+00000+000000FM-15+707099999V0209999C000019999999N999999999+01101+00501999999REMMET069MOBOB0 METAR 7070 //008 000000 260955Z AUTO 00000KT //// 11/05 A2485=EQDQ01841.5 1APOA  
0097007070999992015092610004+00000+000000FM-15+707099999V0209999C000019999999N999999999+01101+00501999999REMMET069MOBOB0 METAR 7070 //008 000000 261000Z AUTO 00000KT //// 11/05 A2485=EQDQ01841.5 1APOA  
0097007070999992015092610054+00000+000000FM-15+707099999V0209999C000019999999N999999999+01101+00501999999REMMET069MOBOB0 METAR 7070 //008 000000 261005Z AUTO 00000KT //// 11/05 A2485=EQDQ01841.5 1APOA  
0097007070999992015092610104+00000+000000FM-15+707099999V0209999C000019999999N999999999+01101+00501999999REMMET069MOBOB0 METAR 7070 //008 000000 261010Z AUTO 00000KT //// 11/05 A2485=EQDQ01841.5 1APOA  
0097007070999992015092610154+00000+000000FM-15+707099999V0209999C000019999999N999999999+01101+00601999999REMMET069MOBOB0 METAR 7070 //008 000000 261015Z AUTO 00000KT //// 11/06 A2485=EQDQ01841.5 1APOA  
0097007070999992015092610204+00000+000000FM-15+707099999V0209999C000019999999N999999999+01101+00501999999REMMET069MOBOB0 METAR 7070 //008 000000 261020Z AUTO 00000KT //// 11/05 A2485=EQDQ01841.5 1APOA  
0097007070999992015092610254+00000+000000FM-15+707099999V0209999C000019999999N999999999+01101+00501999999REMMET069MOBOB0 METAR 7070 //008 000000 261025Z AUTO 00000KT //// 11/05 A2485=EQDQ01841.5 1APOA  
0097007070999992015092610304+00000+000000FM-15+707099999V0209999C000019999999N999999999+01101+00501999999REMMET069MOBOB0 METAR 7070 //008 000000 261030Z AUTO 00000KT //// 11/05 A2485=EQDQ01841.5 1APOA  
0097007070999992015092610354+00000+000000FM-15+707099999V0209999C000019999999N999999999+01101+00501999999REMMET069MOBOB0 METAR 7070 //008 000000 261035Z AUTO 00000KT //// 11/05 A2485=EQDQ01841.5 1APOA  
0097007070999992015092610404+00000+000000FM-15+707099999V0209999C000019999999N999999999+01101+00501999999REMMET069MOBOB0 METAR 7070 //008 000000 261040Z AUTO 00000KT //// 11/05 A2485=EQDQ01841.5 1APOA  
0097007070999992015092610454+00000+000000FM-15+707099999V0209999C000019999999N999999999+01101+00501999999REMMET069MOBOB0 METAR 7070 //008 000000 261045Z AUTO 00000KT //// 11/05 A2485=EQDQ01841.5 1APOA  
0097007070999992015092610504+00000+000000FM-15+707099999V0209999C000019999999N999999999+01101+00501999999REMMET069MOBOB0 METAR 7070 //008 000000 261050Z AUTO 00000KT //// 11/05 A2485=EQDQ01841.5 1APOA  
0097007070999992015092610554+00000+000000FM-15+707099999V0209999C000019999999N999999999+01101+00501999999REMMET069MOBOB0 METAR 7070 //008 000000 261055Z AUTO 00000KT //// 11/05 A2485=EQDQ01841.5 1APOA  
0097007070999992015092611004+00000+000000FM-15+707099999V0209999C000019999999N999999999+01101+00501999999REMMET069MOBOB0 METAR 7070 //008 000000 261100Z AUTO 00000KT //// 11/05 A2485=EQDQ01841.5 1APOA  
0097007070999992015092611054+00000+000000FM-15+707099999V0209999C000019999999N999999999+01101+00401999999REMMET069MOBOB0 METAR 7070 //008 000000 261105Z AUTO 00000KT //// 11/04 A2485=EQDQ01841.5 1APOA  
0097007070999992015092611104+00000+000000FM-15+707099999V0209999C000019999999N999999999+01101+00401999999REMMET069MOBOB0 METAR 7070 //008 000000 261110Z AUTO 00000KT //// 11/04 A2485=EQDQ01841.5 1APOA  
0097007070999992015092611154+00000+000000FM-15+707099999V0209999C000019999999N999999999+01101+00401999999REMMET069MOBOB0 METAR 7070 //008 000000 261115Z AUTO 00000KT //// 11/04 A2485=EQDQ01841.5 1APOA  
0097007070999992015092611204+00000+000000FM-15+707099999V0209999C000019999999N999999999+01101+00401999999REMMET069MOBOB0 METAR 7070 //008 000000 261120Z AUTO 00000KT //// 11/04 A2485=EQDQ01841.5 1APOA  
0097007070999992015092611254+00000+000000FM-15+707099999V0209999C000019999999N999999999+01101+00401999999REMMET069MOBOB0 METAR 7070 //008 000000 261125Z AUTO 00000KT //// 11/04 A2485=EQDQ01841.5 1APOA  
0097007070999992015092611304+00000+000000FM-15+707099999V0209999C000019999999N999999999+01101+00401999999REMMET069MOBOB0 METAR 7070 //008 000000 261130Z AUTO 00000KT //// 11/04 A2485=EQDQ01841.5 1APOA  
0097007070999992015092611354+00000+000000FM-15+707099999V0209999C000019999999N999999999+01101+00501999999REMMET069MOBOB0 METAR 7070 //008 000000 261135Z AUTO 00000KT //// 11/05 A2485=EQDQ01841.5 1APOA  
0097007070999992015092611404+00000+000000FM-15+707099999V0209999C000019999999N999999999+01101+00501999999REMMET069MOBOB0 METAR 7070 //008 000000 261140Z AUTO 00000KT //// 11/05 A2485=EQDQ01841.5 1APOA  
0097007070999992015092611454+00000+000000FM-15+707099999V0209999C000019999999N999999999+01101+00501999999REMMET069MOBOB0 METAR 7070 //008 000000 261145Z AUTO 00000KT //// 11/05 A2485=EQDQ01841.5 1APOA  
0097007070999992015092611504+00000+000000FM-15+707099999V0203501N000519999999N999999999+01101+00401999999REMMET069MOBOB0 METAR 7070 //008 000000 261150Z AUTO 35001KT //// 11/04 A2485=EQDQ01841.5 1APOA  
0097007070999992015092611554+00000+000000FM-15+707099999V0209999C000019999999N999999999+01101+00401999999REMMET069MOBOB0 METAR 7070 //008 000000 261155Z AUTO 00000KT //// 11/04 A2485=EQDQ01841.5 1APOA  
0097007070999992015092612004+00000+000000FM-15+707099999V0209999C000019999999N999999999+01101+00401999999REMMET069MOBOB0 METAR 7070 //008 000000 261200Z AUTO 00000KT //// 11/04 A2485=EQDQ01841.5 1APOA  
0097007070999992015092612054+00000+000000FM-15+707099999V0209999C000019999999N999999999+01001+00401999999REMMET069MOBOB0 METAR 7070 //008 000000 261205Z AUTO 00000KT //// 10/04 A2485=EQDQ01841.5 1APOA  
0097007070999992015092612104+00000+000000FM-15+707099999V0209999C000019999999N999999999+01001+00401999999REMMET069MOBOB0 METAR 7070 //008 000000 261210Z AUTO 00000KT //// 10/04 A2485=EQDQ01841.5 1APOA  
0097007070999992015092612154+00000+000000FM-15+707099999V0209999C000019999999N999999999+01001+00401999999REMMET069MOBOB0 METAR 7070 //008 000000 261215Z AUTO 00000KT //// 10/04 A2485=EQDQ01841.5 1APOA  
0097007070999992015092612204+00000+000000FM-15+707099999V0209999C000019999999N999999999+01101+00401999999REMMET069MOBOB0 METAR 7070 //008 000000 261220Z AUTO 00000KT //// 11/04 A2485=EQDQ01841.5 1APOA  
0097007070999992015092612254+00000+000000FM-15+707099999V0209999C000019999999N999999999+01101+00401999999REMMET069MOBOB0 METAR 7070 //008 000000 261225Z AUTO 00000KT //// 11/04 A2484=EQDQ01841.2 1APOA  
0097007070999992015092612304+00000+000000FM-15+707099999V0209999C000019999999N999999999+01001+00401999999REMMET069MOBOB0 METAR 7070 //008 000000 261230Z AUTO 00000KT //// 10/04 A2484=EQDQ01841.2 1APOA  
0097007070999992015092612354+00000+000000FM-15+707099999V0209999C000019999999N999999999+01001+00401999999REMMET069MOBOB0 METAR 7070 //008 000000 261235Z AUTO 00000KT //// 10/04 A2484=EQDQ01841.2 1APOA  
0097007070999992015092612404+00000+000000FM-15+707099999V0209999C000019999999N999999999+01001+00401999999REMMET069MOBOB0 METAR 7070 //008 000000 261240Z AUTO 00000KT //// 10/04 A2485=EQDQ01841.5 1APOA  
0097007070999992015092612454+00000+000000FM-15+707099999V0209999C000019999999N999999999+01001+00401999999REMMET069MOBOB0 METAR 7070 //008 000000 261245Z AUTO 00000KT //// 10/04 A2485=EQDQ01841.5 1APOA  
0097007070999992015092612504+00000+000000FM-15+707099999V0209999C000019999999N999999999+01001+00401999999REMMET069MOBOB0 METAR 7070 //008 000000 261250Z AUTO 00000KT //// 10/04 A2485=EQDQ01841.5 1APOA  
0097007070999992015092612554+00000+000000FM-15+707099999V0209999C000019999999N999999999+01001+00401999999REMMET069MOBOB0 METAR 7070 //008 000000 261255Z AUTO 00000KT //// 10/04 A2485=EQDQ01841.5 1APOA  
0097007070999992015092613004+00000+000000FM-15+707099999V0209999C000019999999N999999999+01001+00401999999REMMET069MOBOB0 METAR 7070 //008 000000 261300Z AUTO 00000KT //// 10/04 A2485=EQDQ01841.5 1APOA  
0097007070999992015092613054+00000+000000FM-15+707099999V0209999C000019999999N999999999+01001+00301999999REMMET069MOBOB0 METAR 7070 //008 000000 261305Z AUTO 00000KT //// 10/03 A2485=EQDQ01841.5 1APOA  
0097007070999992015092613104+00000+000000FM-15+707099999V0209999C000019999999N999999999+01001+00301999999REMMET069MOBOB0 METAR 7070 //008 000000 261310Z AUTO 00000KT //// 10/03 A2485=EQDQ01841.5 1APOA  
0097007070999992015092613154+00000+000000FM-15+707099999V0209999C000019999999N999999999+01001+00401999999REMMET069MOBOB0 METAR 7070 //008 000000 261315Z AUTO 00000KT //// 10/04 A2485=EQDQ01841.5 1APOA  
0097007070999992015092613204+00000+000000FM-15+707099999V0209999C000019999999N999999999+01001+00401999999REMMET069MOBOB0 METAR 7070 //008 000000 261320Z AUTO 00000KT //// 10/04 A2485=EQDQ01841.5 1APOA  
0097007070999992015092613254+00000+000000FM-15+707099999V0209999C000019999999N999999999+01001+00401999999REMMET069MOBOB0 METAR 7070 //008 000000 261325Z AUTO 00000KT //// 10/04 A2485=EQDQ01841.5 1APOA  
