0157007026999992017021014044+00000+000000FM-15+702699999V0209999V000512200019N009999199+00201-00801999999ADDGF100991999999999999999999MA1103181999999REMMET104MOBOB0 METAR 7026 //008 000000 101404Z AUTO VRB01KT 9999 CLR 02/M08 A3047 RMK CDP03661 CLR CDP03605 CLR=
0157007026999992017021014144+00000+000000FM-15+702699999V0209999V000512200019N009999199+00201-00801999999ADDGF100991999999999999999999MA1103181999999REMMET104MOBOB0 METAR 7026 //008 000000 101414Z AUTO VRB01KT 9999 CLR 02/M08 A3047 RMK CDP03605 CLR CDP03661 CLR=
0157007026999992017021014194+00000+000000FM-15+702699999V0209999V001012200019N009999199+00301-00801999999ADDGF100991999999999999999999MA1103181999999REMMET104MOBOB0 METAR 7026 //008 000000 101419Z AUTO VRB02KT 9999 CLR 03/M08 A3047 RMK CDP03605 CLR CDP03661 CLR=
0157007026999992017021014244+00000+000000FM-15+702699999V0209999V001512200019N009999199+00301-00901999999ADDGF100991999999999999999999MA1103181999999REMMET104MOBOB0 METAR 7026 //008 000000 101424Z AUTO VRB03KT 9999 CLR 03/M09 A3047 RMK CDP03605 CLR CDP03661 CLR=
0157007026999992017021014294+00000+000000FM-15+702699999V0200301N000512200019N009999199+00301-00801999999ADDGF100991999999999999999999MA1103181999999REMMET104MOBOB0 METAR 7026 //008 000000 101429Z AUTO 03001KT 9999 CLR 03/M08 A3047 RMK CDP03605 CLR CDP03661 CLR=
0144007026999992017021014344+00000+000000FM-15+702699999V0209999V001012200019N009999199+00301-00801999999ADDGF100991999999999999999999MA1103181999999REMMET091MOBOB0 METAR 7026 //008 000000 101434Z AUTO VRB02KT 9999 CLR 03/M08 A3047 RMK CDP03661 CLR=
0157007026999992017021014394+00000+000000FM-15+702699999V0202601N000512200019N009999199+00301-00801999999ADDGF100991999999999999999999MA1103181999999REMMET104MOBOB0 METAR 7026 //008 000000 101439Z AUTO 26001KT 9999 CLR 03/M08 A3047 RMK CDP03661 CLR CDP03605 CLR=
0157007026999992017021014444+00000+000000FM-15+702699999V0209999C000012200019N009999199+00401-00801999999ADDGF100991999999999999999999MA1103181999999REMMET104MOBOB0 METAR 7026 //008 000000 101444Z AUTO 00000KT 9999 CLR 04/M08 A3047 RMK CDP03605 CLR CDP03661 CLR=
0172007026999992017021014494+00000+000000FM-15+702699999V0201101N000512200019N009999199+00401-00801999999ADDGF100991999999999999999999MA1103181999999REMMET119MOBOB0 METAR 7026 //008 000000 101449Z AUTO 11001KT 9999 CLR 04/M08 A3047 RMK CDP03605 CLR CDP03661 FEW056 CLD AVG 056=
0157007026999992017021014544+00000+000000FM-15+702699999V0209999V000512200019N009999199+00401-00901999999ADDGF100991999999999999999999MA1103181999999REMMET104MOBOB0 METAR 7026 //008 000000 101454Z AUTO VRB01KT 9999 CLR 04/M09 A3047 RMK CDP03661 CLR CDP03605 CLR=
0157007026999992017021014594+00000+000000FM-15+702699999V0209999C000012200019N009999199+00401-00901999999ADDGF100991999999999999999999MA1103181999999REMMET104MOBOB0 METAR 7026 //008 000000 101459Z AUTO 00000KT 9999 CLR 04/M09 A3047 RMK CDP03661 CLR CDP03605 CLR=
0157007026999992017021015044+00000+000000FM-15+702699999V0209999V001012200019N009999199+00501-00801999999ADDGF100991999999999999999999MA1103181999999REMMET104MOBOB0 METAR 7026 //008 000000 101504Z AUTO VRB02KT 9999 CLR 05/M08 A3047 RMK CDP03661 CLR CDP03605 CLR=
0157007026999992017021015094+00000+000000FM-15+702699999V0200101N000512200019N009999199+00501-00801999999ADDGF100991999999999999999999MA1103151999999REMMET104MOBOB0 METAR 7026 //008 000000 101509Z AUTO 01001KT 9999 CLR 05/M08 A3046 RMK CDP03605 CLR CDP03661 CLR=
0157007026999992017021015144+00000+000000FM-15+702699999V0203501N000512200019N009999199+00601-00901999999ADDGF100991999999999999999999MA1103151999999REMMET104MOBOB0 METAR 7026 //008 000000 101514Z AUTO 35001KT 9999 CLR 06/M09 A3046 RMK CDP03605 CLR CDP03661 CLR=
0157007026999992017021015194+00000+000000FM-15+702699999V0203001N001512200019N009999199+00501-00901999999ADDGF100991999999999999999999MA1103151999999REMMET104MOBOB0 METAR 7026 //008 000000 101519Z AUTO 30003KT 9999 CLR 05/M09 A3046 RMK CDP03661 CLR CDP03605 CLR=
0157007026999992017021015244+00000+000000FM-15+702699999V0209999V001512200019N009999199+00601-00901999999ADDGF100991999999999999999999MA1103151999999REMMET104MOBOB0 METAR 7026 //008 000000 101524Z AUTO VRB03KT 9999 CLR 06/M09 A3046 RMK CDP03605 CLR CDP03661 CLR=
0157007026999992017021015294+00000+000000FM-15+702699999V0209999V001512200019N009999199+00501-00901999999ADDGF100991999999999999999999MA1103151999999REMMET104MOBOB0 METAR 7026 //008 000000 101529Z AUTO VRB03KT 9999 CLR 05/M09 A3046 RMK CDP03661 CLR CDP03605 CLR=
0157007026999992017021015344+00000+000000FM-15+702699999V0203001N001512200019N009999199+00501-00901999999ADDGF100991999999999999999999MA1103151999999REMMET104MOBOB0 METAR 7026 //008 000000 101534Z AUTO 30003KT 9999 CLR 05/M09 A3046 RMK CDP03605 CLR CDP03661 CLR=
0157007026999992017021015394+00000+000000FM-15+702699999V0209999V002112200019N009999199+00601-00901999999ADDGF100991999999999999999999MA1103151999999REMMET104MOBOB0 METAR 7026 //008 000000 101539Z AUTO VRB04KT 9999 CLR 06/M09 A3046 RMK CDP03605 CLR CDP03661 CLR=
0157007026999992017021015444+00000+000000FM-15+702699999V0209999V000512200019N009999199+00601-00901999999ADDGF100991999999999999999999MA1103151999999REMMET104MOBOB0 METAR 7026 //008 000000 101544Z AUTO VRB01KT 9999 CLR 06/M09 A3046 RMK CDP03661 CLR CDP03605 CLR=
0157007026999992017021015494+00000+000000FM-15+702699999V0209999V001512200019N009999199+00601-00901999999ADDGF100991999999999999999999MA1103121999999REMMET104MOBOB0 METAR 7026 //008 000000 101549Z AUTO VRB03KT 9999 CLR 06/M09 A3045 RMK CDP03605 CLR CDP03661 CLR=
0157007026999992017021015544+00000+000000FM-15+702699999V0209999V001012200019N009999199+00601-00901999999ADDGF100991999999999999999999MA1103121999999REMMET104MOBOB0 METAR 7026 //008 000000 101554Z AUTO VRB02KT 9999 CLR 06/M09 A3045 RMK CDP03661 CLR CDP03605 CLR=
0157007026999992017021015594+00000+000000FM-15+702699999V0203201N002112200019N009999199+00601-00901999999ADDGF100991999999999999999999MA1103121999999REMMET104MOBOB0 METAR 7026 //008 000000 101559Z AUTO 32004KT 9999 CLR 06/M09 A3045 RMK CDP03605 CLR CDP03661 CLR=
0157007026999992017021016044+00000+000000FM-15+702699999V0209999V002612200019N009999199+00601-00901999999ADDGF100991999999999999999999MA1103121999999REMMET104MOBOB0 METAR 7026 //008 000000 101604Z AUTO VRB05KT 9999 CLR 06/M09 A3045 RMK CDP03661 CLR CDP03605 CLR=
0157007026999992017021016094+00000+000000FM-15+702699999V0203001N002612200019N009999199+00701-00801999999ADDGF100991999999999999999999MA1103121999999REMMET104MOBOB0 METAR 7026 //008 000000 101609Z AUTO 30005KT 9999 CLR 07/M08 A3045 RMK CDP03605 CLR CDP03661 CLR=
0157007026999992017021016144+00000+000000FM-15+702699999V0202801N001012200019N009999199+00601-00801999999ADDGF100991999999999999999999MA1103081999999REMMET104MOBOB0 METAR 7026 //008 000000 101614Z AUTO 28002KT 9999 CLR 06/M08 A3044 RMK CDP03661 CLR CDP03605 CLR=
0157007026999992017021016194+00000+000000FM-15+702699999V0209999V001012200019N009999199+00601-00901999999ADDGF100991999999999999999999MA1103081999999REMMET104MOBOB0 METAR 7026 //008 000000 101619Z AUTO VRB02KT 9999 CLR 06/M09 A3044 RMK CDP03605 CLR CDP03661 CLR=
0157007026999992017021016244+00000+000000FM-15+702699999V0209999V000512200019N009999199+00801-00801999999ADDGF100991999999999999999999MA1103081999999REMMET104MOBOB0 METAR 7026 //008 000000 101624Z AUTO VRB01KT 9999 CLR 08/M08 A3044 RMK CDP03661 CLR CDP03605 CLR=
0157007026999992017021016294+00000+000000FM-15+702699999V0209999V001512200019N009999199+00701-00801999999ADDGF100991999999999999999999MA1103081999999REMMET104MOBOB0 METAR 7026 //008 000000 101629Z AUTO VRB03KT 9999 CLR 07/M08 A3044 RMK CDP03605 CLR CDP03661 CLR=
0157007026999992017021016344+00000+000000FM-15+702699999V0209999V001512200019N009999199+00801-00701999999ADDGF100991999999999999999999MA1103051999999REMMET104MOBOB0 METAR 7026 //008 000000 101634Z AUTO VRB03KT 9999 CLR 08/M07 A3043 RMK CDP03661 CLR CDP03605 CLR=
0157007026999992017021016394+00000+000000FM-15+702699999V0209999V000512200019N009999199+00901-00701999999ADDGF100991999999999999999999MA1103051999999REMMET104MOBOB0 METAR 7026 //008 000000 101639Z AUTO VRB01KT 9999 CLR 09/M07 A3043 RMK CDP03605 CLR CDP03661 CLR=
0157007026999992017021016444+00000+000000FM-15+702699999V0209999V000512200019N009999199+00801-00801999999ADDGF100991999999999999999999MA1103051999999REMMET104MOBOB0 METAR 7026 //008 000000 101644Z AUTO VRB01KT 9999 CLR 08/M08 A3043 RMK CDP03661 CLR CDP03605 CLR=
0157007026999992017021016494+00000+000000FM-15+702699999V0209999C000012200019N009999199+00901-00701999999ADDGF100991999999999999999999MA1103011999999REMMET104MOBOB0 METAR 7026 //008 000000 101649Z AUTO 00000KT 9999 CLR 09/M07 A3042 RMK CDP03661 CLR CDP03605 CLR=
0157007026999992017021016544+00000+000000FM-15+702699999V0209999V001012200019N009999199+00901-00701999999ADDGF100991999999999999999999MA1103011999999REMMET104MOBOB0 METAR 7026 //008 000000 101654Z AUTO VRB02KT 9999 CLR 09/M07 A3042 RMK CDP03661 CLR CDP03605 CLR=
0157007026999992017021016594+00000+000000FM-15+702699999V0209999V000512200019N009999199+00801-00801999999ADDGF100991999999999999999999MA1102981999999REMMET104MOBOB0 METAR 7026 //008 000000 101659Z AUTO VRB01KT 9999 CLR 08/M08 A3041 RMK CDP03605 CLR CDP03661 CLR=
0157007026999992017021017044+00000+000000FM-15+702699999V0209999V001012200019N009999199+00901-00801999999ADDGF100991999999999999999999MA1102981999999REMMET104MOBOB0 METAR 7026 //008 000000 101704Z AUTO VRB02KT 9999 CLR 09/M08 A3041 RMK CDP03661 CLR CDP03605 CLR=
0157007026999992017021017094+00000+000000FM-15+702699999V0209999V002112200019N009999199+00901-00801999999ADDGF100991999999999999999999MA1102951999999REMMET104MOBOB0 METAR 7026 //008 000000 101709Z AUTO VRB04KT 9999 CLR 09/M08 A3040 RMK CDP03605 CLR CDP03661 CLR=
0157007026999992017021017144+00000+000000FM-15+702699999V0209999V001512200019N009999199+01001-00701999999ADDGF100991999999999999999999MA1102951999999REMMET104MOBOB0 METAR 7026 //008 000000 101714Z AUTO VRB03KT 9999 CLR 10/M07 A3040 RMK CDP03661 CLR CDP03605 CLR=
0157007026999992017021017194+00000+000000FM-15+702699999V0209999V001512200019N009999199+00901-00801999999ADDGF100991999999999999999999MA1102951999999REMMET104MOBOB0 METAR 7026 //008 000000 101719Z AUTO VRB03KT 9999 CLR 09/M08 A3040 RMK CDP03605 CLR CDP03661 CLR=
0157007026999992017021017244+00000+000000FM-15+702699999V0209999V000512200019N009999199+00901-00901999999ADDGF100991999999999999999999MA1102951999999REMMET104MOBOB0 METAR 7026 //008 000000 101724Z AUTO VRB01KT 9999 CLR 09/M09 A3040 RMK CDP03661 CLR CDP03605 CLR=
0157007026999992017021017294+00000+000000FM-15+702699999V0209999V001512200019N009999199+01001-00601999999ADDGF100991999999999999999999MA1102951999999REMMET104MOBOB0 METAR 7026 //008 000000 101729Z AUTO VRB03KT 9999 CLR 10/M06 A3040 RMK CDP03605 CLR CDP03661 CLR=
0157007026999992017021017344+00000+000000FM-15+702699999V0209999V001512200019N009999199+01001-00701999999ADDGF100991999999999999999999MA1102951999999REMMET104MOBOB0 METAR 7026 //008 000000 101734Z AUTO VRB03KT 9999 CLR 10/M07 A3040 RMK CDP03661 CLR CDP03605 CLR=
0157007026999992017021017394+00000+000000FM-15+702699999V0209999V002112200019N009999199+01001-00701999999ADDGF100991999999999999999999MA1102951999999REMMET104MOBOB0 METAR 7026 //008 000000 101739Z AUTO VRB04KT 9999 CLR 10/M07 A3040 RMK CDP03605 CLR CDP03661 CLR=
0157007026999992017021017444+00000+000000FM-15+702699999V0209999V001012200019N009999199+01101-00601999999ADDGF100991999999999999999999MA1102951999999REMMET104MOBOB0 METAR 7026 //008 000000 101744Z AUTO VRB02KT 9999 CLR 11/M06 A3040 RMK CDP03605 CLR CDP03661 CLR=
0157007026999992017021017494+00000+000000FM-15+702699999V0209999V001512200019N009999199+01001-00701999999ADDGF100991999999999999999999MA1102911999999REMMET104MOBOB0 METAR 7026 //008 000000 101749Z AUTO VRB03KT 9999 CLR 10/M07 A3039 RMK CDP03605 CLR CDP03661 CLR=
0157007026999992017021017544+00000+000000FM-15+702699999V0209999V001012200019N009999199+00901-00801999999ADDGF100991999999999999999999MA1102881999999REMMET104MOBOB0 METAR 7026 //008 000000 101754Z AUTO VRB02KT 9999 CLR 09/M08 A3038 RMK CDP03605 CLR CDP03661 CLR=
0157007026999992017021017594+00000+000000FM-15+702699999V0209999V003112200019N009999199+01001-00701999999ADDGF100991999999999999999999MA1102881999999REMMET104MOBOB0 METAR 7026 //008 000000 101759Z AUTO VRB06KT 9999 CLR 10/M07 A3038 RMK CDP03605 CLR CDP03661 CLR=
0157007026999992017021018044+00000+000000FM-15+702699999V0209999V001012200019N009999199+01001-00601999999ADDGF100991999999999999999999MA1102881999999REMMET104MOBOB0 METAR 7026 //008 000000 101804Z AUTO VRB02KT 9999 CLR 10/M06 A3038 RMK CDP03661 CLR CDP03605 CLR=
0157007026999992017021018094+00000+000000FM-15+702699999V0209999V002112200019N009999199+01101-00701999999ADDGF100991999999999999999999MA1102841999999REMMET104MOBOB0 METAR 7026 //008 000000 101809Z AUTO VRB04KT 9999 CLR 11/M07 A3037 RMK CDP03605 CLR CDP03661 CLR=
0157007026999992017021018144+00000+000000FM-15+702699999V0209999V001512200019N009999199+01101-00801999999ADDGF100991999999999999999999MA1102811999999REMMET104MOBOB0 METAR 7026 //008 000000 101814Z AUTO VRB03KT 9999 CLR 11/M08 A3036 RMK CDP03661 CLR CDP03605 CLR=
0157007026999992017021018194+00000+000000FM-15+702699999V0203101N003112200019N009999199+01101-00701999999ADDGF100991999999999999999999MA1102811999999REMMET104MOBOB0 METAR 7026 //008 000000 101819Z AUTO 31006KT 9999 CLR 11/M07 A3036 RMK CDP03605 CLR CDP03661 CLR=
0157007026999992017021018244+00000+000000FM-15+702699999V0209999V001012200019N009999199+01001-00801999999ADDGF100991999999999999999999MA1102811999999REMMET104MOBOB0 METAR 7026 //008 000000 101824Z AUTO VRB02KT 9999 CLR 10/M08 A3036 RMK CDP03661 CLR CDP03605 CLR=
0157007026999992017021018294+00000+000000FM-15+702699999V0209999V001512200019N009999199+01101-00801999999ADDGF100991999999999999999999MA1102811999999REMMET104MOBOB0 METAR 7026 //008 000000 101829Z AUTO VRB03KT 9999 CLR 11/M08 A3036 RMK CDP03605 CLR CDP03661 CLR=
0168007026999992017021018344+00000+000000FM-15+702699999V0203001N004112200019N009999199+01001-00801999999ADDGF100991999999999999999999MA1102781999999OC100671REMMET107MOBOB0 METAR 7026 //008 000000 101834Z AUTO 30008G13KT 9999 CLR 10/M08 A3035 RMK CDP03661 CLR CDP03605 CLR=
0157007026999992017021018394+00000+000000FM-15+702699999V0209999V001012200019N009999199+01001-00801999999ADDGF100991999999999999999999MA1102781999999REMMET104MOBOB0 METAR 7026 //008 000000 101839Z AUTO VRB02KT 9999 CLR 10/M08 A3035 RMK CDP03661 CLR CDP03605 CLR=
0157007026999992017021018444+00000+000000FM-15+702699999V0209999V002112200019N009999199+01001-00801999999ADDGF100991999999999999999999MA1102781999999REMMET104MOBOB0 METAR 7026 //008 000000 101844Z AUTO VRB04KT 9999 CLR 10/M08 A3035 RMK CDP03605 CLR CDP03661 CLR=
0157007026999992017021018494+00000+000000FM-15+702699999V0209999V001012200019N009999199+01001-00701999999ADDGF100991999999999999999999MA1102781999999REMMET104MOBOB0 METAR 7026 //008 000000 101849Z AUTO VRB02KT 9999 CLR 10/M07 A3035 RMK CDP03661 CLR CDP03605 CLR=
0168007026999992017021018544+00000+000000FM-15+702699999V0202801N003612200019N009999199+01001-00701999999ADDGF100991999999999999999999MA1102781999999OC100621REMMET107MOBOB0 METAR 7026 //008 000000 101854Z AUTO 28007G12KT 9999 CLR 10/M07 A3035 RMK CDP03661 CLR CDP03605 CLR=
0157007026999992017021018594+00000+000000FM-15+702699999V0209999V002112200019N009999199+01001-00701999999ADDGF100991999999999999999999MA1102741999999REMMET104MOBOB0 METAR 7026 //008 000000 101859Z AUTO VRB04KT 9999 CLR 10/M07 A3034 RMK CDP03605 CLR CDP03661 CLR=
0157007026999992017021019044+00000+000000FM-15+702699999V0209999V001512200019N009999199+01101-00701999999ADDGF100991999999999999999999MA1102741999999REMMET104MOBOB0 METAR 7026 //008 000000 101904Z AUTO VRB03KT 9999 CLR 11/M07 A3034 RMK CDP03661 CLR CDP03605 CLR=
0157007026999992017021019094+00000+000000FM-15+702699999V0209999V001012200019N009999199+01001-00701999999ADDGF100991999999999999999999MA1102711999999REMMET104MOBOB0 METAR 7026 //008 000000 101909Z AUTO VRB02KT 9999 CLR 10/M07 A3033 RMK CDP03605 CLR CDP03661 CLR=
0157007026999992017021019144+00000+000000FM-15+702699999V0209999V002112200019N009999199+01001-00701999999ADDGF100991999999999999999999MA1102711999999REMMET104MOBOB0 METAR 7026 //008 000000 101914Z AUTO VRB04KT 9999 CLR 10/M07 A3033 RMK CDP03605 CLR CDP03661 CLR=
0157007026999992017021019194+00000+000000FM-15+702699999V0209999V001512200019N009999199+01001-00701999999ADDGF100991999999999999999999MA1102711999999REMMET104MOBOB0 METAR 7026 //008 000000 101919Z AUTO VRB03KT 9999 CLR 10/M07 A3033 RMK CDP03661 CLR CDP03605 CLR=
0157007026999992017021019244+00000+000000FM-15+702699999V0209999V001012200019N009999199+01101-00701999999ADDGF100991999999999999999999MA1102711999999REMMET104MOBOB0 METAR 7026 //008 000000 101924Z AUTO VRB02KT 9999 CLR 11/M07 A3033 RMK CDP03605 CLR CDP03661 CLR=
0157007026999992017021019294+00000+000000FM-15+702699999V0209999V002112200019N009999199+01101-00701999999ADDGF100991999999999999999999MA1102711999999REMMET104MOBOB0 METAR 7026 //008 000000 101929Z AUTO VRB04KT 9999 CLR 11/M07 A3033 RMK CDP03605 CLR CDP03661 CLR=
0168007026999992017021019344+00000+000000FM-15+702699999V0202901N004112200019N009999199+01101-00701999999ADDGF100991999999999999999999MA1102671999999OC100671REMMET107MOBOB0 METAR 7026 //008 000000 101934Z AUTO 29008G13KT 9999 CLR 11/M07 A3032 RMK CDP03661 CLR CDP03605 CLR=
0154007026999992017021019394+00000+000000FM-15+702699999V0202801V004119999999N009999199+01105-00605999999ADDOC100671REMMET115MOBOB0 METAR 7026 //008 000000 101939Z AUTO 28008G13KT 230V290 9999 CLR 11/M06 A3032 RMK CDP03605 CLR CDP03661 CLR=EQDD01      0ADE539
0157007026999992017021019444+00000+000000FM-15+702699999V0209999V002112200019N009999199+01101-00701999999ADDGF100991999999999999999999MA1102711999999REMMET104MOBOB0 METAR 7026 //008 000000 101944Z AUTO VRB04KT 9999 CLR 11/M07 A3033 RMK CDP03661 CLR CDP03605 CLR=
0157007026999992017021019494+00000+000000FM-15+702699999V0209999V002612200019N009999199+01101-00701999999ADDGF100991999999999999999999MA1102711999999REMMET104MOBOB0 METAR 7026 //008 000000 101949Z AUTO VRB05KT 9999 CLR 11/M07 A3033 RMK CDP03605 CLR CDP03661 CLR=
0157007026999992017021019544+00000+000000FM-15+702699999V0209999V002612200019N009999199+01101-00701999999ADDGF100991999999999999999999MA1102671999999REMMET104MOBOB0 METAR 7026 //008 000000 101954Z AUTO VRB05KT 9999 CLR 11/M07 A3032 RMK CDP03605 CLR CDP03661 CLR=
0157007026999992017021019594+00000+000000FM-15+702699999V0209999V002612200019N009999199+01101-00601999999ADDGF100991999999999999999999MA1102641999999REMMET104MOBOB0 METAR 7026 //008 000000 101959Z AUTO VRB05KT 9999 CLR 11/M06 A3031 RMK CDP03605 CLR CDP03661 CLR=
0157007026999992017021020044+00000+000000FM-15+702699999V0209999V002112200019N009999199+01101-00701999999ADDGF100991999999999999999999MA1102641999999REMMET104MOBOB0 METAR 7026 //008 000000 102004Z AUTO VRB04KT 9999 CLR 11/M07 A3031 RMK CDP03661 CLR CDP03605 CLR=
0157007026999992017021020094+00000+000000FM-15+702699999V0209999V002112200019N009999199+01101-00701999999ADDGF100991999999999999999999MA1102641999999REMMET104MOBOB0 METAR 7026 //008 000000 102009Z AUTO VRB04KT 9999 CLR 11/M07 A3031 RMK CDP03605 CLR CDP03661 CLR=
0157007026999992017021020144+00000+000000FM-15+702699999V0209999V002112200019N009999199+01201-00601999999ADDGF100991999999999999999999MA1102671999999REMMET104MOBOB0 METAR 7026 //008 000000 102014Z AUTO VRB04KT 9999 CLR 12/M06 A3032 RMK CDP03661 CLR CDP03605 CLR=
0157007026999992017021020194+00000+000000FM-15+702699999V0209999V001512200019N009999199+01101-00701999999ADDGF100991999999999999999999MA1102671999999REMMET104MOBOB0 METAR 7026 //008 000000 102019Z AUTO VRB03KT 9999 CLR 11/M07 A3032 RMK CDP03605 CLR CDP03661 CLR=
0157007026999992017021020244+00000+000000FM-15+702699999V0209999V001012200019N009999199+01201-00601999999ADDGF100991999999999999999999MA1102641999999REMMET104MOBOB0 METAR 7026 //008 000000 102024Z AUTO VRB02KT 9999 CLR 12/M06 A3031 RMK CDP03605 CLR CDP03661 CLR=
0157007026999992017021020294+00000+000000FM-15+702699999V0209999V003112200019N009999199+01201-00601999999ADDGF100991999999999999999999MA1102641999999REMMET104MOBOB0 METAR 7026 //008 000000 102029Z AUTO VRB06KT 9999 CLR 12/M06 A3031 RMK CDP03661 CLR CDP03605 CLR=
0157007026999992017021020344+00000+000000FM-15+702699999V0209999V002112200019N009999199+01201-00601999999ADDGF100991999999999999999999MA1102611999999REMMET104MOBOB0 METAR 7026 //008 000000 102034Z AUTO VRB04KT 9999 CLR 12/M06 A3030 RMK CDP03605 CLR CDP03661 CLR=
0157007026999992017021020394+00000+000000FM-15+702699999V0209999V001512200019N009999199+01101-00701999999ADDGF100991999999999999999999MA1102611999999REMMET104MOBOB0 METAR 7026 //008 000000 102039Z AUTO VRB03KT 9999 CLR 11/M07 A3030 RMK CDP03605 CLR CDP03661 CLR=
0157007026999992017021020444+00000+000000FM-15+702699999V0209999V001512200019N009999199+01201-00601999999ADDGF100991999999999999999999MA1102611999999REMMET104MOBOB0 METAR 7026 //008 000000 102044Z AUTO VRB03KT 9999 CLR 12/M06 A3030 RMK CDP03605 CLR CDP03661 CLR=
0157007026999992017021020494+00000+000000FM-15+702699999V0209999V002112200019N009999199+01201-00601999999ADDGF100991999999999999999999MA1102611999999REMMET104MOBOB0 METAR 7026 //008 000000 102049Z AUTO VRB04KT 9999 CLR 12/M06 A3030 RMK CDP03605 CLR CDP03661 CLR=
0157007026999992017021020544+00000+000000FM-15+702699999V0209999V002612200019N009999199+01201-00601999999ADDGF100991999999999999999999MA1102611999999REMMET104MOBOB0 METAR 7026 //008 000000 102054Z AUTO VRB05KT 9999 CLR 12/M06 A3030 RMK CDP03605 CLR CDP03661 CLR=
0157007026999992017021020594+00000+000000FM-15+702699999V0209999V002612200019N009999199+01201-00601999999ADDGF100991999999999999999999MA1102611999999REMMET104MOBOB0 METAR 7026 //008 000000 102059Z AUTO VRB05KT 9999 CLR 12/M06 A3030 RMK CDP03605 CLR CDP03661 CLR=
0157007026999992017021021044+00000+000000FM-15+702699999V0209999V002112200019N009999199+01201-00601999999ADDGF100991999999999999999999MA1102611999999REMMET104MOBOB0 METAR 7026 //008 000000 102104Z AUTO VRB04KT 9999 CLR 12/M06 A3030 RMK CDP03605 CLR CDP03661 CLR=
0157007026999992017021021094+00000+000000FM-15+702699999V0202601N003112200019N009999199+01201-00601999999ADDGF100991999999999999999999MA1102571999999REMMET104MOBOB0 METAR 7026 //008 000000 102109Z AUTO 26006KT 9999 CLR 12/M06 A3029 RMK CDP03605 CLR CDP03661 CLR=
0157007026999992017021021144+00000+000000FM-15+702699999V0209999V002112200019N009999199+01101-00601999999ADDGF100991999999999999999999MA1102571999999REMMET104MOBOB0 METAR 7026 //008 000000 102114Z AUTO VRB04KT 9999 CLR 11/M06 A3029 RMK CDP03605 CLR CDP03661 CLR=
0157007026999992017021021194+00000+000000FM-15+702699999V0209999V002112200019N009999199+01101-00601999999ADDGF100991999999999999999999MA1102541999999REMMET104MOBOB0 METAR 7026 //008 000000 102119Z AUTO VRB04KT 9999 CLR 11/M06 A3028 RMK CDP03605 CLR CDP03661 CLR=
0157007026999992017021021244+00000+000000FM-15+702699999V0209999V001512200019N009999199+01101-00701999999ADDGF100991999999999999999999MA1102541999999REMMET104MOBOB0 METAR 7026 //008 000000 102124Z AUTO VRB03KT 9999 CLR 11/M07 A3028 RMK CDP03605 CLR CDP03661 CLR=
0157007026999992017021021294+00000+000000FM-15+702699999V0209999V003112200019N009999199+01101-00601999999ADDGF100991999999999999999999MA1102541999999REMMET104MOBOB0 METAR 7026 //008 000000 102129Z AUTO VRB06KT 9999 CLR 11/M06 A3028 RMK CDP03661 CLR CDP03605 CLR=
0157007026999992017021021344+00000+000000FM-15+702699999V0209999V001512200019N009999199+01101-00601999999ADDGF100991999999999999999999MA1102511999999REMMET104MOBOB0 METAR 7026 //008 000000 102134Z AUTO VRB03KT 9999 CLR 11/M06 A3027 RMK CDP03661 CLR CDP03605 CLR=
0157007026999992017021021394+00000+000000FM-15+702699999V0209999V002112200019N009999199+01101-00601999999ADDGF100991999999999999999999MA1102541999999REMMET104MOBOB0 METAR 7026 //008 000000 102139Z AUTO VRB04KT 9999 CLR 11/M06 A3028 RMK CDP03605 CLR CDP03661 CLR=
0157007026999992017021021444+00000+000000FM-15+702699999V0209999V002112200019N009999199+01001-00601999999ADDGF100991999999999999999999MA1102511999999REMMET104MOBOB0 METAR 7026 //008 000000 102144Z AUTO VRB04KT 9999 CLR 10/M06 A3027 RMK CDP03605 CLR CDP03661 CLR=
0157007026999992017021021494+00000+000000FM-15+702699999V0209999V002112200019N009999199+01001-00601999999ADDGF100991999999999999999999MA1102511999999REMMET104MOBOB0 METAR 7026 //008 000000 102149Z AUTO VRB04KT 9999 CLR 10/M06 A3027 RMK CDP03605 CLR CDP03661 CLR=
0157007026999992017021021544+00000+000000FM-15+702699999V0209999V002612200019N009999199+01001-00601999999ADDGF100991999999999999999999MA1102511999999REMMET104MOBOB0 METAR 7026 //008 000000 102154Z AUTO VRB05KT 9999 CLR 10/M06 A3027 RMK CDP03605 CLR CDP03661 CLR=
0157007026999992017021021594+00000+000000FM-15+702699999V0209999V001012200019N009999199+01001-00601999999ADDGF100991999999999999999999MA1102511999999REMMET104MOBOB0 METAR 7026 //008 000000 102159Z AUTO VRB02KT 9999 CLR 10/M06 A3027 RMK CDP03605 CLR CDP03661 CLR=
0157007026999992017021022044+00000+000000FM-15+702699999V0209999V002112200019N009999199+01001-00601999999ADDGF100991999999999999999999MA1102511999999REMMET104MOBOB0 METAR 7026 //008 000000 102204Z AUTO VRB04KT 9999 CLR 10/M06 A3027 RMK CDP03605 CLR CDP03661 CLR=
0157007026999992017021022094+00000+000000FM-15+702699999V0209999V001012200019N009999199+01001-00601999999ADDGF100991999999999999999999MA1102511999999REMMET104MOBOB0 METAR 7026 //008 000000 102209Z AUTO VRB02KT 9999 CLR 10/M06 A3027 RMK CDP03661 CLR CDP03605 CLR=
0157007026999992017021022144+00000+000000FM-15+702699999V0209999V001012200019N009999199+01101-00601999999ADDGF100991999999999999999999MA1102511999999REMMET104MOBOB0 METAR 7026 //008 000000 102214Z AUTO VRB02KT 9999 CLR 11/M06 A3027 RMK CDP03605 CLR CDP03661 CLR=
0157007026999992017021022194+00000+000000FM-15+702699999V0209999V001512200019N009999199+01001-00601999999ADDGF100991999999999999999999MA1102511999999REMMET104MOBOB0 METAR 7026 //008 000000 102219Z AUTO VRB03KT 9999 CLR 10/M06 A3027 RMK CDP03605 CLR CDP03661 CLR=
0157007026999992017021022244+00000+000000FM-15+702699999V0209999V001512200019N009999199+01001-00601999999ADDGF100991999999999999999999MA1102511999999REMMET104MOBOB0 METAR 7026 //008 000000 102224Z AUTO VRB03KT 9999 CLR 10/M06 A3027 RMK CDP03605 CLR CDP03661 CLR=
0157007026999992017021022294+00000+000000FM-15+702699999V0209999V001512200019N009999199+01001-00501999999ADDGF100991999999999999999999MA1102511999999REMMET104MOBOB0 METAR 7026 //008 000000 102229Z AUTO VRB03KT 9999 CLR 10/M05 A3027 RMK CDP03605 CLR CDP03661 CLR=
0157007026999992017021022344+00000+000000FM-15+702699999V0209999V001512200019N009999199+01001-00601999999ADDGF100991999999999999999999MA1102511999999REMMET104MOBOB0 METAR 7026 //008 000000 102234Z AUTO VRB03KT 9999 CLR 10/M06 A3027 RMK CDP03661 CLR CDP03605 CLR=
0157007026999992017021022394+00000+000000FM-15+702699999V0209999V001012200019N009999199+01001-00501999999ADDGF100991999999999999999999MA1102511999999REMMET104MOBOB0 METAR 7026 //008 000000 102239Z AUTO VRB02KT 9999 CLR 10/M05 A3027 RMK CDP03605 CLR CDP03661 CLR=
0157007026999992017021022444+00000+000000FM-15+702699999V0209999V001012200019N009999199+01001-00601999999ADDGF100991999999999999999999MA1102511999999REMMET104MOBOB0 METAR 7026 //008 000000 102244Z AUTO VRB02KT 9999 CLR 10/M06 A3027 RMK CDP03605 CLR CDP03661 CLR=
0157007026999992017021022494+00000+000000FM-15+702699999V0209999V001512200019N009999199+00901-00501999999ADDGF100991999999999999999999MA1102511999999REMMET104MOBOB0 METAR 7026 //008 000000 102249Z AUTO VRB03KT 9999 CLR 09/M05 A3027 RMK CDP03605 CLR CDP03661 CLR=
0157007026999992017021022544+00000+000000FM-15+702699999V0209999V001012200019N009999199+00901-00501999999ADDGF100991999999999999999999MA1102511999999REMMET104MOBOB0 METAR 7026 //008 000000 102254Z AUTO VRB02KT 9999 CLR 09/M05 A3027 RMK CDP03605 CLR CDP03661 CLR=
0157007026999992017021022594+00000+000000FM-15+702699999V0209999V001012200019N009999199+00901-00501999999ADDGF100991999999999999999999MA1102511999999REMMET104MOBOB0 METAR 7026 //008 000000 102259Z AUTO VRB02KT 9999 CLR 09/M05 A3027 RMK CDP03661 CLR CDP03605 CLR=
0157007026999992017021023044+00000+000000FM-15+702699999V0209999V000512200019N009999199+00901-00501999999ADDGF100991999999999999999999MA1102511999999REMMET104MOBOB0 METAR 7026 //008 000000 102304Z AUTO VRB01KT 9999 CLR 09/M05 A3027 RMK CDP03605 CLR CDP03661 CLR=
0157007026999992017021023094+00000+000000FM-15+702699999V0209999V001512200019N009999199+00901-00501999999ADDGF100991999999999999999999MA1102511999999REMMET104MOBOB0 METAR 7026 //008 000000 102309Z AUTO VRB03KT 9999 CLR 09/M05 A3027 RMK CDP03605 CLR CDP03661 CLR=
0157007026999992017021023144+00000+000000FM-15+702699999V0209999V001512200019N009999199+00901-00501999999ADDGF100991999999999999999999MA1102511999999REMMET104MOBOB0 METAR 7026 //008 000000 102314Z AUTO VRB03KT 9999 CLR 09/M05 A3027 RMK CDP03605 CLR CDP03661 CLR=
0157007026999992017021023194+00000+000000FM-15+702699999V0209999V000512200019N009999199+00901-00501999999ADDGF100991999999999999999999MA1102511999999REMMET104MOBOB0 METAR 7026 //008 000000 102319Z AUTO VRB01KT 9999 CLR 09/M05 A3027 RMK CDP03605 CLR CDP03661 CLR=
0157007026999992017021023244+00000+000000FM-15+702699999V0209999V001012200019N009999199+00901-00501999999ADDGF100991999999999999999999MA1102511999999REMMET104MOBOB0 METAR 7026 //008 000000 102324Z AUTO VRB02KT 9999 CLR 09/M05 A3027 RMK CDP03605 CLR CDP03661 CLR=
0157007026999992017021023294+00000+000000FM-15+702699999V0209999V001012200019N009999199+00901-00501999999ADDGF100991999999999999999999MA1102511999999REMMET104MOBOB0 METAR 7026 //008 000000 102329Z AUTO VRB02KT 9999 CLR 09/M05 A3027 RMK CDP03605 CLR CDP03661 CLR=
0157007026999992017021023344+00000+000000FM-15+702699999V0209999V001012200019N009999199+00901-00501999999ADDGF100991999999999999999999MA1102511999999REMMET104MOBOB0 METAR 7026 //008 000000 102334Z AUTO VRB02KT 9999 CLR 09/M05 A3027 RMK CDP03605 CLR CDP03661 CLR=
0157007026999992017021023394+00000+000000FM-15+702699999V0209999V001012200019N009999199+00901-00501999999ADDGF100991999999999999999999MA1102511999999REMMET104MOBOB0 METAR 7026 //008 000000 102339Z AUTO VRB02KT 9999 CLR 09/M05 A3027 RMK CDP03661 CLR CDP03605 CLR=
0157007026999992017021023444+00000+000000FM-15+702699999V0209999V001012200019N009999199+00801-00501999999ADDGF100991999999999999999999MA1102511999999REMMET104MOBOB0 METAR 7026 //008 000000 102344Z AUTO VRB02KT 9999 CLR 08/M05 A3027 RMK CDP03605 CLR CDP03661 CLR=
0157007026999992017021023494+00000+000000FM-15+702699999V0209999V001012200019N009999199+00801-00501999999ADDGF100991999999999999999999MA1102511999999REMMET104MOBOB0 METAR 7026 //008 000000 102349Z AUTO VRB02KT 9999 CLR 08/M05 A3027 RMK CDP03661 CLR CDP03605 CLR=
0157007026999992017021023544+00000+000000FM-15+702699999V0209999V001012200019N009999199+00801-00501999999ADDGF100991999999999999999999MA1102511999999REMMET104MOBOB0 METAR 7026 //008 000000 102354Z AUTO VRB02KT 9999 CLR 08/M05 A3027 RMK CDP03661 CLR CDP03605 CLR=
0157007026999992017021023594+00000+000000FM-15+702699999V0209999V001512200019N009999199+00801-00501999999ADDGF100991999999999999999999MA1102511999999REMMET104MOBOB0 METAR 7026 //008 000000 102359Z AUTO VRB03KT 9999 CLR 08/M05 A3027 RMK CDP03661 CLR CDP03605 CLR=
0157007026999992017021100044+00000+000000FM-15+702699999V0209999V000512200019N009999199+00801-00501999999ADDGF100991999999999999999999MA1102511999999REMMET104MOBOB0 METAR 7026 //008 000000 110004Z AUTO VRB01KT 9999 CLR 08/M05 A3027 RMK CDP03605 CLR CDP03661 CLR=
0157007026999992017021100094+00000+000000FM-15+702699999V0209999V001012200019N009999199+00801-00501999999ADDGF100991999999999999999999MA1102511999999REMMET104MOBOB0 METAR 7026 //008 000000 110009Z AUTO VRB02KT 9999 CLR 08/M05 A3027 RMK CDP03605 CLR CDP03661 CLR=
0157007026999992017021100144+00000+000000FM-15+702699999V0209999V001012200019N009999199+00801-00501999999ADDGF100991999999999999999999MA1102471999999REMMET104MOBOB0 METAR 7026 //008 000000 110014Z AUTO VRB02KT 9999 CLR 08/M05 A3026 RMK CDP03605 CLR CDP03661 CLR=
0157007026999992017021100194+00000+000000FM-15+702699999V0209999V000512200019N009999199+00801-00501999999ADDGF100991999999999999999999MA1102471999999REMMET104MOBOB0 METAR 7026 //008 000000 110019Z AUTO VRB01KT 9999 CLR 08/M05 A3026 RMK CDP03605 CLR CDP03661 CLR=
0157007026999992017021100244+00000+000000FM-15+702699999V0209999V001012200019N009999199+00801-00501999999ADDGF100991999999999999999999MA1102471999999REMMET104MOBOB0 METAR 7026 //008 000000 110024Z AUTO VRB02KT 9999 CLR 08/M05 A3026 RMK CDP03605 CLR CDP03661 CLR=
0157007026999992017021100294+00000+000000FM-15+702699999V0209999V001012200019N009999199+00801-00401999999ADDGF100991999999999999999999MA1102441999999REMMET104MOBOB0 METAR 7026 //008 000000 110029Z AUTO VRB02KT 9999 CLR 08/M04 A3025 RMK CDP03661 CLR CDP03605 CLR=
0157007026999992017021100344+00000+000000FM-15+702699999V0209999V001012200019N009999199+00801-00501999999ADDGF100991999999999999999999MA1102441999999REMMET104MOBOB0 METAR 7026 //008 000000 110034Z AUTO VRB02KT 9999 CLR 08/M05 A3025 RMK CDP03605 CLR CDP03661 CLR=
0157007026999992017021100394+00000+000000FM-15+702699999V0209999V001012200019N009999199+00801-00401999999ADDGF100991999999999999999999MA1102441999999REMMET104MOBOB0 METAR 7026 //008 000000 110039Z AUTO VRB02KT 9999 CLR 08/M04 A3025 RMK CDP03605 CLR CDP03661 CLR=
0157007026999992017021100444+00000+000000FM-15+702699999V0209999V001012200019N009999199+00801-00501999999ADDGF100991999999999999999999MA1102441999999REMMET104MOBOB0 METAR 7026 //008 000000 110044Z AUTO VRB02KT 9999 CLR 08/M05 A3025 RMK CDP03605 CLR CDP03661 CLR=
0157007026999992017021100494+00000+000000FM-15+702699999V0209999V001012200019N009999199+00801-00501999999ADDGF100991999999999999999999MA1102441999999REMMET104MOBOB0 METAR 7026 //008 000000 110049Z AUTO VRB02KT 9999 CLR 08/M05 A3025 RMK CDP03661 CLR CDP03605 CLR=
0157007026999992017021100544+00000+000000FM-15+702699999V0209999V001012200019N009999199+00801-00501999999ADDGF100991999999999999999999MA1102401999999REMMET104MOBOB0 METAR 7026 //008 000000 110054Z AUTO VRB02KT 9999 CLR 08/M05 A3024 RMK CDP03605 CLR CDP03661 CLR=
0157007026999992017021100594+00000+000000FM-15+702699999V0209999V001012200019N009999199+00801-00501999999ADDGF100991999999999999999999MA1102371999999REMMET104MOBOB0 METAR 7026 //008 000000 110059Z AUTO VRB02KT 9999 CLR 08/M05 A3023 RMK CDP03661 CLR CDP03605 CLR=
0157007026999992017021101044+00000+000000FM-15+702699999V0201901N000512200019N009999199+00801-00501999999ADDGF100991999999999999999999MA1102371999999REMMET104MOBOB0 METAR 7026 //008 000000 110104Z AUTO 19001KT 9999 CLR 08/M05 A3023 RMK CDP03605 CLR CDP03661 CLR=
0157007026999992017021101094+00000+000000FM-15+702699999V0209999V001012200019N009999199+00701-00501999999ADDGF100991999999999999999999MA1102371999999REMMET104MOBOB0 METAR 7026 //008 000000 110109Z AUTO VRB02KT 9999 CLR 07/M05 A3023 RMK CDP03661 CLR CDP03605 CLR=
0157007026999992017021101144+00000+000000FM-15+702699999V0209999V001012200019N009999199+00701-00501999999ADDGF100991999999999999999999MA1102371999999REMMET104MOBOB0 METAR 7026 //008 000000 110114Z AUTO VRB02KT 9999 CLR 07/M05 A3023 RMK CDP03605 CLR CDP03661 CLR=
0157007026999992017021101194+00000+000000FM-15+702699999V0209999V001012200019N009999199+00701-00501999999ADDGF100991999999999999999999MA1102371999999REMMET104MOBOB0 METAR 7026 //008 000000 110119Z AUTO VRB02KT 9999 CLR 07/M05 A3023 RMK CDP03661 CLR CDP03605 CLR=
0157007026999992017021101244+00000+000000FM-15+702699999V0209999V001512200019N009999199+00701-00501999999ADDGF100991999999999999999999MA1102371999999REMMET104MOBOB0 METAR 7026 //008 000000 110124Z AUTO VRB03KT 9999 CLR 07/M05 A3023 RMK CDP03605 CLR CDP03661 CLR=
0157007026999992017021101524+00000+000000FM-15+702699999V0209999C000012200019N009999199+00701-00301999999ADDGF100991999999999999999999MA1102371999999REMMET104MOBOB0 METAR 7026 //008 000000 110152Z AUTO 00000KT 9999 CLR 07/M03 A3023 RMK CDP03661 CLR CDP03605 CLR=
0157007026999992017021101594+00000+000000FM-15+702699999V0209999C000012200019N009999199+00701-00301999999ADDGF100991999999999999999999MA1102341999999REMMET104MOBOB0 METAR 7026 //008 000000 110159Z AUTO 00000KT 9999 CLR 07/M03 A3022 RMK CDP03605 CLR CDP03661 CLR=
0157007026999992017021102044+00000+000000FM-15+702699999V0209999C000012200019N009999199+00701-00301999999ADDGF100991999999999999999999MA1102341999999REMMET104MOBOB0 METAR 7026 //008 000000 110204Z AUTO 00000KT 9999 CLR 07/M03 A3022 RMK CDP03605 CLR CDP03661 CLR=
0157007026999992017021102094+00000+000000FM-15+702699999V0209999V001512200019N009999199+00701-00201999999ADDGF100991999999999999999999MA1102341999999REMMET104MOBOB0 METAR 7026 //008 000000 110209Z AUTO VRB03KT 9999 CLR 07/M02 A3022 RMK CDP03605 CLR CDP03661 CLR=
0157007026999992017021102144+00000+000000FM-15+702699999V0209999V001512200019N009999199+00701-00201999999ADDGF100991999999999999999999MA1102341999999REMMET104MOBOB0 METAR 7026 //008 000000 110214Z AUTO VRB03KT 9999 CLR 07/M02 A3022 RMK CDP03605 CLR CDP03661 CLR=
0157007026999992017021102194+00000+000000FM-15+702699999V0209999V001012200019N009999199+00701-00201999999ADDGF100991999999999999999999MA1102341999999REMMET104MOBOB0 METAR 7026 //008 000000 110219Z AUTO VRB02KT 9999 CLR 07/M02 A3022 RMK CDP03605 CLR CDP03661 CLR=
0157007026999992017021102244+00000+000000FM-15+702699999V0209999V001512200019N009999199+00701-00201999999ADDGF100991999999999999999999MA1102341999999REMMET104MOBOB0 METAR 7026 //008 000000 110224Z AUTO VRB03KT 9999 CLR 07/M02 A3022 RMK CDP03661 CLR CDP03605 CLR=
0157007026999992017021102294+00000+000000FM-15+702699999V0209999V001512200019N009999199+00701-00201999999ADDGF100991999999999999999999MA1102341999999REMMET104MOBOB0 METAR 7026 //008 000000 110229Z AUTO VRB03KT 9999 CLR 07/M02 A3022 RMK CDP03661 CLR CDP03605 CLR=
0157007026999992017021102344+00000+000000FM-15+702699999V0209999V001512200019N009999199+00701-00201999999ADDGF100991999999999999999999MA1102341999999REMMET104MOBOB0 METAR 7026 //008 000000 110234Z AUTO VRB03KT 9999 CLR 07/M02 A3022 RMK CDP03605 CLR CDP03661 CLR=
0157007026999992017021102394+00000+000000FM-15+702699999V0209999V001512200019N009999199+00701-00201999999ADDGF100991999999999999999999MA1102341999999REMMET104MOBOB0 METAR 7026 //008 000000 110239Z AUTO VRB03KT 9999 CLR 07/M02 A3022 RMK CDP03661 CLR CDP03605 CLR=
0157007026999992017021102444+00000+000000FM-15+702699999V0209999V002112200019N009999199+00701-00201999999ADDGF100991999999999999999999MA1102341999999REMMET104MOBOB0 METAR 7026 //008 000000 110244Z AUTO VRB04KT 9999 CLR 07/M02 A3022 RMK CDP03605 CLR CDP03661 CLR=
0157007026999992017021102494+00000+000000FM-15+702699999V0209999V002112200019N009999199+00701-00201999999ADDGF100991999999999999999999MA1102341999999REMMET104MOBOB0 METAR 7026 //008 000000 110249Z AUTO VRB04KT 9999 CLR 07/M02 A3022 RMK CDP03605 CLR CDP03661 CLR=
0157007026999992017021102544+00000+000000FM-15+702699999V0209999V001512200019N009999199+00601-00201999999ADDGF100991999999999999999999MA1102341999999REMMET104MOBOB0 METAR 7026 //008 000000 110254Z AUTO VRB03KT 9999 CLR 06/M02 A3022 RMK CDP03605 CLR CDP03661 CLR=
0157007026999992017021102594+00000+000000FM-15+702699999V0209999V001012200019N009999199+00601-00101999999ADDGF100991999999999999999999MA1102341999999REMMET104MOBOB0 METAR 7026 //008 000000 110259Z AUTO VRB02KT 9999 CLR 06/M01 A3022 RMK CDP03661 CLR CDP03605 CLR=
0157007026999992017021103044+00000+000000FM-15+702699999V0209999V001512200019N009999199+00601-00201999999ADDGF100991999999999999999999MA1102341999999REMMET104MOBOB0 METAR 7026 //008 000000 110304Z AUTO VRB03KT 9999 CLR 06/M02 A3022 RMK CDP03605 CLR CDP03661 CLR=
0157007026999992017021103094+00000+000000FM-15+702699999V0209999V001012200019N009999199+00601-00201999999ADDGF100991999999999999999999MA1102341999999REMMET104MOBOB0 METAR 7026 //008 000000 110309Z AUTO VRB02KT 9999 CLR 06/M02 A3022 RMK CDP03661 CLR CDP03605 CLR=
0157007026999992017021103144+00000+000000FM-15+702699999V0209999V001512200019N009999199+00601-00201999999ADDGF100991999999999999999999MA1102341999999REMMET104MOBOB0 METAR 7026 //008 000000 110314Z AUTO VRB03KT 9999 CLR 06/M02 A3022 RMK CDP03605 CLR CDP03661 CLR=
0157007026999992017021103194+00000+000000FM-15+702699999V0209999V001512200019N009999199+00601-00201999999ADDGF100991999999999999999999MA1102341999999REMMET104MOBOB0 METAR 7026 //008 000000 110319Z AUTO VRB03KT 9999 CLR 06/M02 A3022 RMK CDP03661 CLR CDP03605 CLR=
0157007026999992017021103244+00000+000000FM-15+702699999V0209999V001512200019N009999199+00601-00201999999ADDGF100991999999999999999999MA1102341999999REMMET104MOBOB0 METAR 7026 //008 000000 110324Z AUTO VRB03KT 9999 CLR 06/M02 A3022 RMK CDP03605 CLR CDP03661 CLR=
0157007026999992017021103294+00000+000000FM-15+702699999V0209999V001012200019N009999199+00601-00101999999ADDGF100991999999999999999999MA1102341999999REMMET104MOBOB0 METAR 7026 //008 000000 110329Z AUTO VRB02KT 9999 CLR 06/M01 A3022 RMK CDP03661 CLR CDP03605 CLR=
0157007026999992017021103344+00000+000000FM-15+702699999V0209999V001012200019N009999199+00601-00101999999ADDGF100991999999999999999999MA1102341999999REMMET104MOBOB0 METAR 7026 //008 000000 110334Z AUTO VRB02KT 9999 CLR 06/M01 A3022 RMK CDP03605 CLR CDP03661 CLR=
0157007026999992017021103394+00000+000000FM-15+702699999V0209999V002112200019N009999199+00601-00101999999ADDGF100991999999999999999999MA1102341999999REMMET104MOBOB0 METAR 7026 //008 000000 110339Z AUTO VRB04KT 9999 CLR 06/M01 A3022 RMK CDP03605 CLR CDP03661 CLR=
0157007026999992017021103444+00000+000000FM-15+702699999V0209999V001012200019N009999199+00601-00101999999ADDGF100991999999999999999999MA1102341999999REMMET104MOBOB0 METAR 7026 //008 000000 110344Z AUTO VRB02KT 9999 CLR 06/M01 A3022 RMK CDP03661 CLR CDP03605 CLR=
0157007026999992017021103494+00000+000000FM-15+702699999V0209999V002112200019N009999199+00601-00101999999ADDGF100991999999999999999999MA1102301999999REMMET104MOBOB0 METAR 7026 //008 000000 110349Z AUTO VRB04KT 9999 CLR 06/M01 A3021 RMK CDP03605 CLR CDP03661 CLR=
0157007026999992017021103544+00000+000000FM-15+702699999V0209999V002112200019N009999199+00601-00101999999ADDGF100991999999999999999999MA1102301999999REMMET104MOBOB0 METAR 7026 //008 000000 110354Z AUTO VRB04KT 9999 CLR 06/M01 A3021 RMK CDP03605 CLR CDP03661 CLR=
0157007026999992017021103594+00000+000000FM-15+702699999V0209999V002112200019N009999199+00601-00101999999ADDGF100991999999999999999999MA1102271999999REMMET104MOBOB0 METAR 7026 //008 000000 110359Z AUTO VRB04KT 9999 CLR 06/M01 A3020 RMK CDP03605 CLR CDP03661 CLR=
0157007026999992017021104134+00000+000000FM-15+702699999V0209999C000012200019N009999199+00601-00101999999ADDGF100991999999999999999999MA1102271999999REMMET104MOBOB0 METAR 7026 //008 000000 110413Z AUTO 00000KT 9999 CLR 06/M01 A3020 RMK CDP03605 CLR CDP03661 CLR=
0157007026999992017021104154+00000+000000FM-15+702699999V0209999C000012200019N009999199+00601-00101999999ADDGF100991999999999999999999MA1102271999999REMMET104MOBOB0 METAR 7026 //008 000000 110415Z AUTO 00000KT 9999 CLR 06/M01 A3020 RMK CDP03605 CLR CDP03661 CLR=
0157007026999992017021104244+00000+000000FM-15+702699999V0209999V001012200019N009999199+00601-00101999999ADDGF100991999999999999999999MA1102231999999REMMET104MOBOB0 METAR 7026 //008 000000 110424Z AUTO VRB02KT 9999 CLR 06/M01 A3019 RMK CDP03605 CLR CDP03661 CLR=
0157007026999992017021104294+00000+000000FM-15+702699999V0209999V002612200019N009999199+00601-00101999999ADDGF100991999999999999999999MA1102231999999REMMET104MOBOB0 METAR 7026 //008 000000 110429Z AUTO VRB05KT 9999 CLR 06/M01 A3019 RMK CDP03661 CLR CDP03605 CLR=
0157007026999992017021104344+00000+000000FM-15+702699999V0209999V001512200019N009999199+00601-00101999999ADDGF100991999999999999999999MA1102231999999REMMET104MOBOB0 METAR 7026 //008 000000 110434Z AUTO VRB03KT 9999 CLR 06/M01 A3019 RMK CDP03605 CLR CDP03661 CLR=
0157007026999992017021104394+00000+000000FM-15+702699999V0209999V001512200019N009999199+00601-00101999999ADDGF100991999999999999999999MA1102231999999REMMET104MOBOB0 METAR 7026 //008 000000 110439Z AUTO VRB03KT 9999 CLR 06/M01 A3019 RMK CDP03661 CLR CDP03605 CLR=
0157007026999992017021104444+00000+000000FM-15+702699999V0209999V002112200019N009999199+00601-00101999999ADDGF100991999999999999999999MA1102231999999REMMET104MOBOB0 METAR 7026 //008 000000 110444Z AUTO VRB04KT 9999 CLR 06/M01 A3019 RMK CDP03605 CLR CDP03661 CLR=
0157007026999992017021104494+00000+000000FM-15+702699999V0209999V001512200019N009999199+00601-00101999999ADDGF100991999999999999999999MA1102231999999REMMET104MOBOB0 METAR 7026 //008 000000 110449Z AUTO VRB03KT 9999 CLR 06/M01 A3019 RMK CDP03661 CLR CDP03605 CLR=
0157007026999992017021104544+00000+000000FM-15+702699999V0209999V002112200019N009999199+00601-00101999999ADDGF100991999999999999999999MA1102231999999REMMET104MOBOB0 METAR 7026 //008 000000 110454Z AUTO VRB04KT 9999 CLR 06/M01 A3019 RMK CDP03605 CLR CDP03661 CLR=
0157007026999992017021104594+00000+000000FM-15+702699999V0209999V002612200019N009999199+00601-00101999999ADDGF100991999999999999999999MA1102231999999REMMET104MOBOB0 METAR 7026 //008 000000 110459Z AUTO VRB05KT 9999 CLR 06/M01 A3019 RMK CDP03605 CLR CDP03661 CLR=
0157007026999992017021105044+00000+000000FM-15+702699999V0209999V002112200019N009999199+00601-00101999999ADDGF100991999999999999999999MA1102231999999REMMET104MOBOB0 METAR 7026 //008 000000 110504Z AUTO VRB04KT 9999 CLR 06/M01 A3019 RMK CDP03605 CLR CDP03661 CLR=
0157007026999992017021105094+00000+000000FM-15+702699999V0209999V003112200019N009999199+00601-00101999999ADDGF100991999999999999999999MA1102201999999REMMET104MOBOB0 METAR 7026 //008 000000 110509Z AUTO VRB06KT 9999 CLR 06/M01 A3018 RMK CDP03661 CLR CDP03605 CLR=
0157007026999992017021105144+00000+000000FM-15+702699999V0209999V002612200019N009999199+00601-00101999999ADDGF100991999999999999999999MA1102201999999REMMET104MOBOB0 METAR 7026 //008 000000 110514Z AUTO VRB05KT 9999 CLR 06/M01 A3018 RMK CDP03661 CLR CDP03605 CLR=
0157007026999992017021105194+00000+000000FM-15+702699999V0209999V002612200019N009999199+00601-00101999999ADDGF100991999999999999999999MA1102201999999REMMET104MOBOB0 METAR 7026 //008 000000 110519Z AUTO VRB05KT 9999 CLR 06/M01 A3018 RMK CDP03605 CLR CDP03661 CLR=
0156007026999992017021105244+00000+000000FM-15+702699999V0209999V002112200019N009999199+00601+00001999999ADDGF100991999999999999999999MA1102171999999REMMET103MOBOB0 METAR 7026 //008 000000 110524Z AUTO VRB04KT 9999 CLR 06/00 A3017 RMK CDP03605 CLR CDP03661 CLR=
0156007026999992017021105294+00000+000000FM-15+702699999V0209999V002112200019N009999199+00601+00001999999ADDGF100991999999999999999999MA1102201999999REMMET103MOBOB0 METAR 7026 //008 000000 110529Z AUTO VRB04KT 9999 CLR 06/00 A3018 RMK CDP03605 CLR CDP03661 CLR=
0157007026999992017021105344+00000+000000FM-15+702699999V0209999V003112200019N009999199+00601-00101999999ADDGF100991999999999999999999MA1102171999999REMMET104MOBOB0 METAR 7026 //008 000000 110534Z AUTO VRB06KT 9999 CLR 06/M01 A3017 RMK CDP03605 CLR CDP03661 CLR=
0156007026999992017021105394+00000+000000FM-15+702699999V0209999V002612200019N009999199+00601+00001999999ADDGF100991999999999999999999MA1102171999999REMMET103MOBOB0 METAR 7026 //008 000000 110539Z AUTO VRB05KT 9999 CLR 06/00 A3017 RMK CDP03661 CLR CDP03605 CLR=
0156007026999992017021105444+00000+000000FM-15+702699999V0209999V002612200019N009999199+00601+00001999999ADDGF100991999999999999999999MA1102171999999REMMET103MOBOB0 METAR 7026 //008 000000 110544Z AUTO VRB05KT 9999 CLR 06/00 A3017 RMK CDP03661 CLR CDP03605 CLR=
0156007026999992017021105494+00000+000000FM-15+702699999V0209999V003112200019N009999199+00601+00001999999ADDGF100991999999999999999999MA1102171999999REMMET103MOBOB0 METAR 7026 //008 000000 110549Z AUTO VRB06KT 9999 CLR 06/00 A3017 RMK CDP03605 CLR CDP03661 CLR=
0156007026999992017021105544+00000+000000FM-15+702699999V0209999V002612200019N009999199+00601+00001999999ADDGF100991999999999999999999MA1102131999999REMMET103MOBOB0 METAR 7026 //008 000000 110554Z AUTO VRB05KT 9999 CLR 06/00 A3016 RMK CDP03661 CLR CDP03605 CLR=
0156007026999992017021105594+00000+000000FM-15+702699999V0209999V002612200019N009999199+00601+00001999999ADDGF100991999999999999999999MA1102131999999REMMET103MOBOB0 METAR 7026 //008 000000 110559Z AUTO VRB05KT 9999 CLR 06/00 A3016 RMK CDP03605 CLR CDP03661 CLR=
0156007026999992017021106044+00000+000000FM-15+702699999V0209999V001512200019N009999199+00601+00001999999ADDGF100991999999999999999999MA1102131999999REMMET103MOBOB0 METAR 7026 //008 000000 110604Z AUTO VRB03KT 9999 CLR 06/00 A3016 RMK CDP03605 CLR CDP03661 CLR=
0156007026999992017021106094+00000+000000FM-15+702699999V0209999V002112200019N009999199+00601+00001999999ADDGF100991999999999999999999MA1102131999999REMMET103MOBOB0 METAR 7026 //008 000000 110609Z AUTO VRB04KT 9999 CLR 06/00 A3016 RMK CDP03605 CLR CDP03661 CLR=
0156007026999992017021106144+00000+000000FM-15+702699999V0209999V002612200019N009999199+00601+00001999999ADDGF100991999999999999999999MA1102131999999REMMET103MOBOB0 METAR 7026 //008 000000 110614Z AUTO VRB05KT 9999 CLR 06/00 A3016 RMK CDP03661 CLR CDP03605 CLR=
0156007026999992017021106194+00000+000000FM-15+702699999V0209999V003112200019N009999199+00601+00001999999ADDGF100991999999999999999999MA1102101999999REMMET103MOBOB0 METAR 7026 //008 000000 110619Z AUTO VRB06KT 9999 CLR 06/00 A3015 RMK CDP03605 CLR CDP03661 CLR=
0156007026999992017021106244+00000+000000FM-15+702699999V0209999V002112200019N009999199+00601+00001999999ADDGF100991999999999999999999MA1102101999999REMMET103MOBOB0 METAR 7026 //008 000000 110624Z AUTO VRB04KT 9999 CLR 06/00 A3015 RMK CDP03661 CLR CDP03605 CLR=
0156007026999992017021106294+00000+000000FM-15+702699999V0209999V002612200019N009999199+00601+00001999999ADDGF100991999999999999999999MA1102101999999REMMET103MOBOB0 METAR 7026 //008 000000 110629Z AUTO VRB05KT 9999 CLR 06/00 A3015 RMK CDP03605 CLR CDP03661 CLR=
0156007026999992017021106344+00000+000000FM-15+702699999V0202101N002612200019N009999199+00701+00001999999ADDGF100991999999999999999999MA1102101999999REMMET103MOBOB0 METAR 7026 //008 000000 110634Z AUTO 21005KT 9999 CLR 07/00 A3015 RMK CDP03605 CLR CDP03661 CLR=
0156007026999992017021106394+00000+000000FM-15+702699999V0209999V002112200019N009999199+00701+00101999999ADDGF100991999999999999999999MA1102071999999REMMET103MOBOB0 METAR 7026 //008 000000 110639Z AUTO VRB04KT 9999 CLR 07/01 A3014 RMK CDP03661 CLR CDP03605 CLR=
0156007026999992017021106444+00000+000000FM-15+702699999V0209999V002112200019N009999199+00701+00101999999ADDGF100991999999999999999999MA1102071999999REMMET103MOBOB0 METAR 7026 //008 000000 110644Z AUTO VRB04KT 9999 CLR 07/01 A3014 RMK CDP03605 CLR CDP03661 CLR=
0156007026999992017021106494+00000+000000FM-15+702699999V0209999V002112200019N009999199+00701+00101999999ADDGF100991999999999999999999MA1102071999999REMMET103MOBOB0 METAR 7026 //008 000000 110649Z AUTO VRB04KT 9999 CLR 07/01 A3014 RMK CDP03661 CLR CDP03605 CLR=
0156007026999992017021106544+00000+000000FM-15+702699999V0209999V002112200019N009999199+00701+00101999999ADDGF100991999999999999999999MA1102071999999REMMET103MOBOB0 METAR 7026 //008 000000 110654Z AUTO VRB04KT 9999 CLR 07/01 A3014 RMK CDP03605 CLR CDP03661 CLR=
0156007026999992017021106594+00000+000000FM-15+702699999V0209999V002112200019N009999199+00701+00101999999ADDGF100991999999999999999999MA1102071999999REMMET103MOBOB0 METAR 7026 //008 000000 110659Z AUTO VRB04KT 9999 CLR 07/01 A3014 RMK CDP03661 CLR CDP03605 CLR=
0156007026999992017021107044+00000+000000FM-15+702699999V0209999V002612200019N009999199+00701+00001999999ADDGF100991999999999999999999MA1102031999999REMMET103MOBOB0 METAR 7026 //008 000000 110704Z AUTO VRB05KT 9999 CLR 07/00 A3013 RMK CDP03605 CLR CDP03661 CLR=
0156007026999992017021107094+00000+000000FM-15+702699999V0209999V002112200019N009999199+00701+00001999999ADDGF100991999999999999999999MA1102071999999REMMET103MOBOB0 METAR 7026 //008 000000 110709Z AUTO VRB04KT 9999 CLR 07/00 A3014 RMK CDP03661 CLR CDP03605 CLR=
0156007026999992017021107144+00000+000000FM-15+702699999V0209999V002112200019N009999199+00701+00001999999ADDGF100991999999999999999999MA1102031999999REMMET103MOBOB0 METAR 7026 //008 000000 110714Z AUTO VRB04KT 9999 CLR 07/00 A3013 RMK CDP03605 CLR CDP03661 CLR=
0156007026999992017021107194+00000+000000FM-15+702699999V0209999V002612200019N009999199+00701+00001999999ADDGF100991999999999999999999MA1102031999999REMMET103MOBOB0 METAR 7026 //008 000000 110719Z AUTO VRB05KT 9999 CLR 07/00 A3013 RMK CDP03661 CLR CDP03605 CLR=
0156007026999992017021107244+00000+000000FM-15+702699999V0209999V002112200019N009999199+00701+00101999999ADDGF100991999999999999999999MA1102031999999REMMET103MOBOB0 METAR 7026 //008 000000 110724Z AUTO VRB04KT 9999 CLR 07/01 A3013 RMK CDP03605 CLR CDP03661 CLR=
0156007026999992017021107294+00000+000000FM-15+702699999V0209999V002112200019N009999199+00701+00001999999ADDGF100991999999999999999999MA1102031999999REMMET103MOBOB0 METAR 7026 //008 000000 110729Z AUTO VRB04KT 9999 CLR 07/00 A3013 RMK CDP03605 CLR CDP03661 CLR=
0156007026999992017021107344+00000+000000FM-15+702699999V0209999V002612200019N009999199+00701+00001999999ADDGF100991999999999999999999MA1102071999999REMMET103MOBOB0 METAR 7026 //008 000000 110734Z AUTO VRB05KT 9999 CLR 07/00 A3014 RMK CDP03605 CLR CDP03661 CLR=
0156007026999992017021107394+00000+000000FM-15+702699999V0209999V002112200019N009999199+00701+00101999999ADDGF100991999999999999999999MA1102031999999REMMET103MOBOB0 METAR 7026 //008 000000 110739Z AUTO VRB04KT 9999 CLR 07/01 A3013 RMK CDP03605 CLR CDP03661 CLR=
0156007026999992017021107444+00000+000000FM-15+702699999V0209999V002112200019N009999199+00701+00101999999ADDGF100991999999999999999999MA1102031999999REMMET103MOBOB0 METAR 7026 //008 000000 110744Z AUTO VRB04KT 9999 CLR 07/01 A3013 RMK CDP03661 CLR CDP03605 CLR=
0156007026999992017021107494+00000+000000FM-15+702699999V0209999V002112200019N009999199+00701+00101999999ADDGF100991999999999999999999MA1102031999999REMMET103MOBOB0 METAR 7026 //008 000000 110749Z AUTO VRB04KT 9999 CLR 07/01 A3013 RMK CDP03605 CLR CDP03661 CLR=
0156007026999992017021107544+00000+000000FM-15+702699999V0209999V002112200019N009999199+00701+00101999999ADDGF100991999999999999999999MA1102031999999REMMET103MOBOB0 METAR 7026 //008 000000 110754Z AUTO VRB04KT 9999 CLR 07/01 A3013 RMK CDP03605 CLR CDP03661 CLR=
0171007026999992017021107594+00000+000000FM-15+702699999V0209999V002612200019N009999199+00701+00101999999ADDGF100991999999999999999999MA1102031999999REMMET118MOBOB0 METAR 7026 //008 000000 110759Z AUTO VRB05KT 9999 CLR 07/01 A3013 RMK CDP03605 CLR CDP03661 FEW084 CLD AVG 084=
0156007026999992017021108044+00000+000000FM-15+702699999V0209999V001512200019N009999199+00701+00101999999ADDGF100991999999999999999999MA1102031999999REMMET103MOBOB0 METAR 7026 //008 000000 110804Z AUTO VRB03KT 9999 CLR 07/01 A3013 RMK CDP03605 CLR CDP03661 CLR=
0156007026999992017021108094+00000+000000FM-15+702699999V0209999V003112200019N009999199+00701+00101999999ADDGF100991999999999999999999MA1102031999999REMMET103MOBOB0 METAR 7026 //008 000000 110809Z AUTO VRB06KT 9999 CLR 07/01 A3013 RMK CDP03661 CLR CDP03605 CLR=
0156007026999992017021108144+00000+000000FM-15+702699999V0209999V002612200019N009999199+00701+00101999999ADDGF100991999999999999999999MA1102031999999REMMET103MOBOB0 METAR 7026 //008 000000 110814Z AUTO VRB05KT 9999 CLR 07/01 A3013 RMK CDP03605 CLR CDP03661 CLR=
0156007026999992017021108194+00000+000000FM-15+702699999V0209999V002612200019N009999199+00701+00101999999ADDGF100991999999999999999999MA1102001999999REMMET103MOBOB0 METAR 7026 //008 000000 110819Z AUTO VRB05KT 9999 CLR 07/01 A3012 RMK CDP03605 CLR CDP03661 CLR=
0156007026999992017021108244+00000+000000FM-15+702699999V0209999V002612200019N009999199+00701+00101999999ADDGF100991999999999999999999MA1102001999999REMMET103MOBOB0 METAR 7026 //008 000000 110824Z AUTO VRB05KT 9999 CLR 07/01 A3012 RMK CDP03661 CLR CDP03605 CLR=
0156007026999992017021108294+00000+000000FM-15+702699999V0209999V002112200019N009999199+00701+00101999999ADDGF100991999999999999999999MA1102001999999REMMET103MOBOB0 METAR 7026 //008 000000 110829Z AUTO VRB04KT 9999 CLR 07/01 A3012 RMK CDP03605 CLR CDP03661 CLR=
0156007026999992017021108344+00000+000000FM-15+702699999V0209999V001512200019N009999199+00701+00101999999ADDGF100991999999999999999999MA1102001999999REMMET103MOBOB0 METAR 7026 //008 000000 110834Z AUTO VRB03KT 9999 CLR 07/01 A3012 RMK CDP03605 CLR CDP03661 CLR=
0156007026999992017021108394+00000+000000FM-15+702699999V0209999V002612200019N009999199+00701+00101999999ADDGF100991999999999999999999MA1102001999999REMMET103MOBOB0 METAR 7026 //008 000000 110839Z AUTO VRB05KT 9999 CLR 07/01 A3012 RMK CDP03661 CLR CDP03605 CLR=
0156007026999992017021108444+00000+000000FM-15+702699999V0209999V002112200019N009999199+00801+00101999999ADDGF100991999999999999999999MA1102001999999REMMET103MOBOB0 METAR 7026 //008 000000 110844Z AUTO VRB04KT 9999 CLR 08/01 A3012 RMK CDP03661 CLR CDP03605 CLR=
0156007026999992017021108494+00000+000000FM-15+702699999V0209999V003112200019N009999199+00801+00101999999ADDGF100991999999999999999999MA1102001999999REMMET103MOBOB0 METAR 7026 //008 000000 110849Z AUTO VRB06KT 9999 CLR 08/01 A3012 RMK CDP03605 CLR CDP03661 CLR=
0156007026999992017021108544+00000+000000FM-15+702699999V0209999V002612200019N009999199+00801+00101999999ADDGF100991999999999999999999MA1102001999999REMMET103MOBOB0 METAR 7026 //008 000000 110854Z AUTO VRB05KT 9999 CLR 08/01 A3012 RMK CDP03661 CLR CDP03605 CLR=
0156007026999992017021108594+00000+000000FM-15+702699999V0209999V002112200019N009999199+00801+00101999999ADDGF100991999999999999999999MA1102001999999REMMET103MOBOB0 METAR 7026 //008 000000 110859Z AUTO VRB04KT 9999 CLR 08/01 A3012 RMK CDP03605 CLR CDP03661 CLR=
0156007026999992017021109044+00000+000000FM-15+702699999V0209999V002612200019N009999199+00701+00101999999ADDGF100991999999999999999999MA1101961999999REMMET103MOBOB0 METAR 7026 //008 000000 110904Z AUTO VRB05KT 9999 CLR 07/01 A3011 RMK CDP03605 CLR CDP03661 CLR=
0156007026999992017021109094+00000+000000FM-15+702699999V0209999V002112200019N009999199+00801+00101999999ADDGF100991999999999999999999MA1101961999999REMMET103MOBOB0 METAR 7026 //008 000000 110909Z AUTO VRB04KT 9999 CLR 08/01 A3011 RMK CDP03605 CLR CDP03661 CLR=
0156007026999992017021109144+00000+000000FM-15+702699999V0209999V002112200019N009999199+00801+00101999999ADDGF100991999999999999999999MA1101961999999REMMET103MOBOB0 METAR 7026 //008 000000 110914Z AUTO VRB04KT 9999 CLR 08/01 A3011 RMK CDP03661 CLR CDP03605 CLR=
0153007026999992017021109194+00000+000000FM-15+702699999V0202701V003619999999N009999199+00805+00105999999ADDOC100721REMMET114MOBOB0 METAR 7026 //008 000000 110919Z AUTO 27007G14KT 210V300 9999 CLR 08/01 A3011 RMK CDP03605 CLR CDP03661 CLR=EQDD01      0ADE539
0156007026999992017021109244+00000+000000FM-15+702699999V0209999V002612200019N009999199+00801+00101999999ADDGF100991999999999999999999MA1102001999999REMMET103MOBOB0 METAR 7026 //008 000000 110924Z AUTO VRB05KT 9999 CLR 08/01 A3012 RMK CDP03605 CLR CDP03661 CLR=
0156007026999992017021109294+00000+000000FM-15+702699999V0209999V002612200019N009999199+00801+00101999999ADDGF100991999999999999999999MA1102001999999REMMET103MOBOB0 METAR 7026 //008 000000 110929Z AUTO VRB05KT 9999 CLR 08/01 A3012 RMK CDP03605 CLR CDP03661 CLR=
0156007026999992017021109344+00000+000000FM-15+702699999V0209999V003112200019N009999199+00801+00101999999ADDGF100991999999999999999999MA1102001999999REMMET103MOBOB0 METAR 7026 //008 000000 110934Z AUTO VRB06KT 9999 CLR 08/01 A3012 RMK CDP03605 CLR CDP03661 CLR=
0156007026999992017021109394+00000+000000FM-15+702699999V0209999V002612200019N009999199+00801+00101999999ADDGF100991999999999999999999MA1101961999999REMMET103MOBOB0 METAR 7026 //008 000000 110939Z AUTO VRB05KT 9999 CLR 08/01 A3011 RMK CDP03605 CLR CDP03661 CLR=
0156007026999992017021109444+00000+000000FM-15+702699999V0209999V002112200019N009999199+00801+00101999999ADDGF100991999999999999999999MA1101961999999REMMET103MOBOB0 METAR 7026 //008 000000 110944Z AUTO VRB04KT 9999 CLR 08/01 A3011 RMK CDP03605 CLR CDP03661 CLR=
0153007026999992017021109494+00000+000000FM-15+702699999V0202301V003619999999N009999199+00905+00105999999ADDOC100721REMMET114MOBOB0 METAR 7026 //008 000000 110949Z AUTO 23007G14KT 160V270 9999 CLR 09/01 A3011 RMK CDP03605 CLR CDP03661 CLR=EQDD01      0ADE539
0156007026999992017021109544+00000+000000FM-15+702699999V0209999V003112200019N009999199+00901+00101999999ADDGF100991999999999999999999MA1101961999999REMMET103MOBOB0 METAR 7026 //008 000000 110954Z AUTO VRB06KT 9999 CLR 09/01 A3011 RMK CDP03605 CLR CDP03661 CLR=
0156007026999992017021109594+00000+000000FM-15+702699999V0209999V002612200019N009999199+00901+00101999999ADDGF100991999999999999999999MA1101961999999REMMET103MOBOB0 METAR 7026 //008 000000 110959Z AUTO VRB05KT 9999 CLR 09/01 A3011 RMK CDP03661 CLR CDP03605 CLR=
0167007026999992017021110044+00000+000000FM-15+702699999V0202701N004612200019N009999199+00901+00101999999ADDGF100991999999999999999999MA1102001999999OC100881REMMET106MOBOB0 METAR 7026 //008 000000 111004Z AUTO 27009G17KT 9999 CLR 09/01 A3012 RMK CDP03661 CLR CDP03605 CLR=
0156007026999992017021110094+00000+000000FM-15+702699999V0209999V003112200019N009999199+00901+00101999999ADDGF100991999999999999999999MA1102001999999REMMET103MOBOB0 METAR 7026 //008 000000 111009Z AUTO VRB06KT 9999 CLR 09/01 A3012 RMK CDP03605 CLR CDP03661 CLR=
0156007026999992017021110144+00000+000000FM-15+702699999V0209999V002112200019N009999199+00901+00101999999ADDGF100991999999999999999999MA1102001999999REMMET103MOBOB0 METAR 7026 //008 000000 111014Z AUTO VRB04KT 9999 CLR 09/01 A3012 RMK CDP03605 CLR CDP03661 CLR=
0156007026999992017021110194+00000+000000FM-15+702699999V0209999V003112200019N009999199+00901+00101999999ADDGF100991999999999999999999MA1102001999999REMMET103MOBOB0 METAR 7026 //008 000000 111019Z AUTO VRB06KT 9999 CLR 09/01 A3012 RMK CDP03605 CLR CDP03661 CLR=
0156007026999992017021110244+00000+000000FM-15+702699999V0209999V003112200019N009999199+00901+00101999999ADDGF100991999999999999999999MA1102001999999REMMET103MOBOB0 METAR 7026 //008 000000 111024Z AUTO VRB06KT 9999 CLR 09/01 A3012 RMK CDP03661 CLR CDP03605 CLR=
0156007026999992017021110294+00000+000000FM-15+702699999V0209999V002112200019N009999199+00901+00101999999ADDGF100991999999999999999999MA1102031999999REMMET103MOBOB0 METAR 7026 //008 000000 111029Z AUTO VRB04KT 9999 CLR 09/01 A3013 RMK CDP03605 CLR CDP03661 CLR=
0156007026999992017021110344+00000+000000FM-15+702699999V0209999V003112200019N009999199+00901+00101999999ADDGF100991999999999999999999MA1102031999999REMMET103MOBOB0 METAR 7026 //008 000000 111034Z AUTO VRB06KT 9999 CLR 09/01 A3013 RMK CDP03605 CLR CDP03661 CLR=
0153007026999992017021110394+00000+000000FM-15+702699999V0202801V004619999999N009999199+00905+00105999999ADDOC100821REMMET114MOBOB0 METAR 7026 //008 000000 111039Z AUTO 28009G16KT 230V300 9999 CLR 09/01 A3013 RMK CDP03661 CLR CDP03605 CLR=EQDD01      0ADE539
0156007026999992017021110444+00000+000000FM-15+702699999V0209999V001512200019N009999199+00901+00101999999ADDGF100991999999999999999999MA1102031999999REMMET103MOBOB0 METAR 7026 //008 000000 111044Z AUTO VRB03KT 9999 CLR 09/01 A3013 RMK CDP03605 CLR CDP03661 CLR=
0156007026999992017021110494+00000+000000FM-15+702699999V0209999V002612200019N009999199+00901+00101999999ADDGF100991999999999999999999MA1102031999999REMMET103MOBOB0 METAR 7026 //008 000000 111049Z AUTO VRB05KT 9999 CLR 09/01 A3013 RMK CDP03661 CLR CDP03605 CLR=
0167007026999992017021110544+00000+000000FM-15+702699999V0202701N003612200019N009999199+00901+00101999999ADDGF100991999999999999999999MA1102031999999OC100931REMMET106MOBOB0 METAR 7026 //008 000000 111054Z AUTO 27007G18KT 9999 CLR 09/01 A3013 RMK CDP03605 CLR CDP03661 CLR=
0156007026999992017021110594+00000+000000FM-15+702699999V0209999V003112200019N009999199+00901+00101999999ADDGF100991999999999999999999MA1102071999999REMMET103MOBOB0 METAR 7026 //008 000000 111059Z AUTO VRB06KT 9999 CLR 09/01 A3014 RMK CDP03661 CLR CDP03605 CLR=
0156007026999992017021111044+00000+000000FM-15+702699999V0209999V003112200019N009999199+00901+00101999999ADDGF100991999999999999999999MA1102101999999REMMET103MOBOB0 METAR 7026 //008 000000 111104Z AUTO VRB06KT 9999 CLR 09/01 A3015 RMK CDP03605 CLR CDP03661 CLR=
0156007026999992017021111094+00000+000000FM-15+702699999V0209999V002612200019N009999199+00901+00101999999ADDGF100991999999999999999999MA1102101999999REMMET103MOBOB0 METAR 7026 //008 000000 111109Z AUTO VRB05KT 9999 CLR 09/01 A3015 RMK CDP03661 CLR CDP03605 CLR=
0153007026999992017021111144+00000+000000FM-15+702699999V0202801V004119999999N009999199+00905+00105999999ADDOC100721REMMET114MOBOB0 METAR 7026 //008 000000 111114Z AUTO 28008G14KT 200V310 9999 CLR 09/01 A3015 RMK CDP03605 CLR CDP03661 CLR=EQDD01      0ADE539
0156007026999992017021111194+00000+000000FM-15+702699999V0209999V003112200019N009999199+00901+00101999999ADDGF100991999999999999999999MA1102101999999REMMET103MOBOB0 METAR 7026 //008 000000 111119Z AUTO VRB06KT 9999 CLR 09/01 A3015 RMK CDP03605 CLR CDP03661 CLR=
0156007026999992017021111244+00000+000000FM-15+702699999V0209999V003612200019N009999199+00901+00101999999ADDGF100991999999999999999999MA1102101999999REMMET103MOBOB0 METAR 7026 //008 000000 111124Z AUTO VRB07KT 9999 CLR 09/01 A3015 RMK CDP03661 CLR CDP03605 CLR=
0156007026999992017021111294+00000+000000FM-15+702699999V0209999V002112200019N009999199+00901+00101999999ADDGF100991999999999999999999MA1102101999999REMMET103MOBOB0 METAR 7026 //008 000000 111129Z AUTO VRB04KT 9999 CLR 09/01 A3015 RMK CDP03605 CLR CDP03661 CLR=
0156007026999992017021111344+00000+000000FM-15+702699999V0202801N002112200019N009999199+00901+00101999999ADDGF100991999999999999999999MA1102101999999REMMET103MOBOB0 METAR 7026 //008 000000 111134Z AUTO 28004KT 9999 CLR 09/01 A3015 RMK CDP03605 CLR CDP03661 CLR=
0156007026999992017021111394+00000+000000FM-15+702699999V0209999V002112200019N009999199+00901+00101999999ADDGF100991999999999999999999MA1102131999999REMMET103MOBOB0 METAR 7026 //008 000000 111139Z AUTO VRB04KT 9999 CLR 09/01 A3016 RMK CDP03661 CLR CDP03605 CLR=
0156007026999992017021111444+00000+000000FM-15+702699999V0209999V002612200019N009999199+00901+00101999999ADDGF100991999999999999999999MA1102131999999REMMET103MOBOB0 METAR 7026 //008 000000 111144Z AUTO VRB05KT 9999 CLR 09/01 A3016 RMK CDP03661 CLR CDP03605 CLR=
0156007026999992017021111494+00000+000000FM-15+702699999V0209999V001512200019N009999199+00901+00101999999ADDGF100991999999999999999999MA1102131999999REMMET103MOBOB0 METAR 7026 //008 000000 111149Z AUTO VRB03KT 9999 CLR 09/01 A3016 RMK CDP03605 CLR CDP03661 CLR=
0156007026999992017021111544+00000+000000FM-15+702699999V0209999V002612200019N009999199+00901+00201999999ADDGF100991999999999999999999MA1102101999999REMMET103MOBOB0 METAR 7026 //008 000000 111154Z AUTO VRB05KT 9999 CLR 09/02 A3015 RMK CDP03605 CLR CDP03661 CLR=
0156007026999992017021111594+00000+000000FM-15+702699999V0209999V002612200019N009999199+00901+00201999999ADDGF100991999999999999999999MA1102131999999REMMET103MOBOB0 METAR 7026 //008 000000 111159Z AUTO VRB05KT 9999 CLR 09/02 A3016 RMK CDP03605 CLR CDP03661 CLR=
0156007026999992017021112044+00000+000000FM-15+702699999V0209999V002612200019N009999199+00901+00201999999ADDGF100991999999999999999999MA1102131999999REMMET103MOBOB0 METAR 7026 //008 000000 111204Z AUTO VRB05KT 9999 CLR 09/02 A3016 RMK CDP03605 CLR CDP03661 CLR=
0156007026999992017021112094+00000+000000FM-15+702699999V0209999V002612200019N009999199+00801+00201999999ADDGF100991999999999999999999MA1102131999999REMMET103MOBOB0 METAR 7026 //008 000000 111209Z AUTO VRB05KT 9999 CLR 08/02 A3016 RMK CDP03605 CLR CDP03661 CLR=
0156007026999992017021112144+00000+000000FM-15+702699999V0209999V002612200019N009999199+00801+00201999999ADDGF100991999999999999999999MA1102131999999REMMET103MOBOB0 METAR 7026 //008 000000 111214Z AUTO VRB05KT 9999 CLR 08/02 A3016 RMK CDP03661 CLR CDP03605 CLR=
0156007026999992017021112194+00000+000000FM-15+702699999V0209999V002112200019N009999199+00801+00201999999ADDGF100991999999999999999999MA1102131999999REMMET103MOBOB0 METAR 7026 //008 000000 111219Z AUTO VRB04KT 9999 CLR 08/02 A3016 RMK CDP03605 CLR CDP03661 CLR=
0156007026999992017021112244+00000+000000FM-15+702699999V0209999V002612200019N009999199+00901+00201999999ADDGF100991999999999999999999MA1102131999999REMMET103MOBOB0 METAR 7026 //008 000000 111224Z AUTO VRB05KT 9999 CLR 09/02 A3016 RMK CDP03605 CLR CDP03661 CLR=
0156007026999992017021112294+00000+000000FM-15+702699999V0209999V002612200019N009999199+00901+00201999999ADDGF100991999999999999999999MA1102131999999REMMET103MOBOB0 METAR 7026 //008 000000 111229Z AUTO VRB05KT 9999 CLR 09/02 A3016 RMK CDP03605 CLR CDP03661 CLR=
0156007026999992017021112344+00000+000000FM-15+702699999V0209999V002612200019N009999199+00801+00201999999ADDGF100991999999999999999999MA1102131999999REMMET103MOBOB0 METAR 7026 //008 000000 111234Z AUTO VRB05KT 9999 CLR 08/02 A3016 RMK CDP03661 CLR CDP03605 CLR=
0156007026999992017021112394+00000+000000FM-15+702699999V0209999V002612200019N009999199+00901+00201999999ADDGF100991999999999999999999MA1102131999999REMMET103MOBOB0 METAR 7026 //008 000000 111239Z AUTO VRB05KT 9999 CLR 09/02 A3016 RMK CDP03661 CLR CDP03605 CLR=
0156007026999992017021112444+00000+000000FM-15+702699999V0209999V003112200019N009999199+00901+00201999999ADDGF100991999999999999999999MA1102131999999REMMET103MOBOB0 METAR 7026 //008 000000 111244Z AUTO VRB06KT 9999 CLR 09/02 A3016 RMK CDP03605 CLR CDP03661 CLR=
0156007026999992017021112494+00000+000000FM-15+702699999V0209999V003112200019N009999199+00801+00201999999ADDGF100991999999999999999999MA1102101999999REMMET103MOBOB0 METAR 7026 //008 000000 111249Z AUTO VRB06KT 9999 CLR 08/02 A3015 RMK CDP03605 CLR CDP03661 CLR=
0156007026999992017021112544+00000+000000FM-15+702699999V0209999V003112200019N009999199+00901+00201999999ADDGF100991999999999999999999MA1102101999999REMMET103MOBOB0 METAR 7026 //008 000000 111254Z AUTO VRB06KT 9999 CLR 09/02 A3015 RMK CDP03661 CLR CDP03605 CLR=
0156007026999992017021112594+00000+000000FM-15+702699999V0209999V002612200019N009999199+00901+00201999999ADDGF100991999999999999999999MA1102101999999REMMET103MOBOB0 METAR 7026 //008 000000 111259Z AUTO VRB05KT 9999 CLR 09/02 A3015 RMK CDP03605 CLR CDP03661 CLR=
0156007026999992017021113044+00000+000000FM-15+702699999V0209999V003112200019N009999199+00901+00201999999ADDGF100991999999999999999999MA1102101999999REMMET103MOBOB0 METAR 7026 //008 000000 111304Z AUTO VRB06KT 9999 CLR 09/02 A3015 RMK CDP03605 CLR CDP03661 CLR=
0156007026999992017021113094+00000+000000FM-15+702699999V0209999V002612200019N009999199+00901+00201999999ADDGF100991999999999999999999MA1102101999999REMMET103MOBOB0 METAR 7026 //008 000000 111309Z AUTO VRB05KT 9999 CLR 09/02 A3015 RMK CDP03661 CLR CDP03605 CLR=
0156007026999992017021113144+00000+000000FM-15+702699999V0209999V002112200019N009999199+00901+00201999999ADDGF100991999999999999999999MA1102101999999REMMET103MOBOB0 METAR 7026 //008 000000 111314Z AUTO VRB04KT 9999 CLR 09/02 A3015 RMK CDP03605 CLR CDP03661 CLR=
0156007026999992017021113194+00000+000000FM-15+702699999V0209999V003112200019N009999199+00901+00201999999ADDGF100991999999999999999999MA1102101999999REMMET103MOBOB0 METAR 7026 //008 000000 111319Z AUTO VRB06KT 9999 CLR 09/02 A3015 RMK CDP03605 CLR CDP03661 CLR=
0156007026999992017021113244+00000+000000FM-15+702699999V0209999V003112200019N009999199+00901+00201999999ADDGF100991999999999999999999MA1102101999999REMMET103MOBOB0 METAR 7026 //008 000000 111324Z AUTO VRB06KT 9999 CLR 09/02 A3015 RMK CDP03605 CLR CDP03661 CLR=
0153007026999992017021113294+00000+000000FM-15+702699999V0202701V004119999999N009999199+00905+00205999999ADDOC100821REMMET114MOBOB0 METAR 7026 //008 000000 111329Z AUTO 27008G16KT 220V310 9999 CLR 09/02 A3015 RMK CDP03605 CLR CDP03661 CLR=EQDD01      0ADE539
0156007026999992017021113344+00000+000000FM-15+702699999V0209999V003112200019N009999199+01001+00201999999ADDGF100991999999999999999999MA1102101999999REMMET103MOBOB0 METAR 7026 //008 000000 111334Z AUTO VRB06KT 9999 CLR 10/02 A3015 RMK CDP03605 CLR CDP03661 CLR=
0153007026999992017021113394+00000+000000FM-15+702699999V0202601V003619999999N009999199+01005+00205999999ADDOC100771REMMET114MOBOB0 METAR 7026 //008 000000 111339Z AUTO 26007G15KT 220V290 9999 CLR 10/02 A3015 RMK CDP03605 CLR CDP03661 CLR=EQDD01      0ADE539
0156007026999992017021113444+00000+000000FM-15+702699999V0202701N003612200019N009999199+01001+00201999999ADDGF100991999999999999999999MA1102101999999REMMET103MOBOB0 METAR 7026 //008 000000 111344Z AUTO 27007KT 9999 CLR 10/02 A3015 RMK CDP03661 CLR CDP03605 CLR=
0153007026999992017021113494+00000+000000FM-15+702699999V0202701V004619999999N009999199+01005+00205999999ADDOC100771REMMET114MOBOB0 METAR 7026 //008 000000 111349Z AUTO 27009G15KT 230V290 9999 CLR 10/02 A3015 RMK CDP03605 CLR CDP03661 CLR=EQDD01      0ADE539
0156007026999992017021113544+00000+000000FM-15+702699999V0209999V003112200019N009999199+01001+00201999999ADDGF100991999999999999999999MA1102101999999REMMET103MOBOB0 METAR 7026 //008 000000 111354Z AUTO VRB06KT 9999 CLR 10/02 A3015 RMK CDP03661 CLR CDP03605 CLR=
0153007026999992017021113594+00000+000000FM-15+702699999V0202601V003619999999N009999199+01105+00205999999ADDOC100821REMMET114MOBOB0 METAR 7026 //008 000000 111359Z AUTO 26007G16KT 200V290 9999 CLR 11/02 A3015 RMK CDP03605 CLR CDP03661 CLR=EQDD01      0ADE539
0156007026999992017021114044+00000+000000FM-15+702699999V0202701N002612200019N009999199+01101+00201999999ADDGF100991999999999999999999MA1102131999999REMMET103MOBOB0 METAR 7026 //008 000000 111404Z AUTO 27005KT 9999 CLR 11/02 A3016 RMK CDP03661 CLR CDP03605 CLR=
0156007026999992017021114094+00000+000000FM-15+702699999V0209999V003612200019N009999199+01101+00201999999ADDGF100991999999999999999999MA1102131999999REMMET103MOBOB0 METAR 7026 //008 000000 111409Z AUTO VRB07KT 9999 CLR 11/02 A3016 RMK CDP03661 CLR CDP03605 CLR=
0167007026999992017021114144+00000+000000FM-15+702699999V0202701N003612200019N009999199+01101+00201999999ADDGF100991999999999999999999MA1102101999999OC100721REMMET106MOBOB0 METAR 7026 //008 000000 111414Z AUTO 27007G14KT 9999 CLR 11/02 A3015 RMK CDP03661 CLR CDP03605 CLR=
0156007026999992017021114194+00000+000000FM-15+702699999V0209999V003112200019N009999199+01101+00201999999ADDGF100991999999999999999999MA1102101999999REMMET103MOBOB0 METAR 7026 //008 000000 111419Z AUTO VRB06KT 9999 CLR 11/02 A3015 RMK CDP03605 CLR CDP03661 CLR=
0156007026999992017021114244+00000+000000FM-15+702699999V0209999V003612200019N009999199+01201+00201999999ADDGF100991999999999999999999MA1102101999999REMMET103MOBOB0 METAR 7026 //008 000000 111424Z AUTO VRB07KT 9999 CLR 12/02 A3015 RMK CDP03605 CLR CDP03661 CLR=
0156007026999992017021114294+00000+000000FM-15+702699999V0209999V003112200019N009999199+01201+00201999999ADDGF100991999999999999999999MA1102101999999REMMET103MOBOB0 METAR 7026 //008 000000 111429Z AUTO VRB06KT 9999 CLR 12/02 A3015 RMK CDP03605 CLR CDP03661 CLR=
0156007026999992017021114344+00000+000000FM-15+702699999V0209999V003112200019N009999199+01201+00201999999ADDGF100991999999999999999999MA1102101999999REMMET103MOBOB0 METAR 7026 //008 000000 111434Z AUTO VRB06KT 9999 CLR 12/02 A3015 RMK CDP03605 CLR CDP03661 CLR=
0156007026999992017021114394+00000+000000FM-15+702699999V0209999V003112200019N009999199+01201+00201999999ADDGF100991999999999999999999MA1102101999999REMMET103MOBOB0 METAR 7026 //008 000000 111439Z AUTO VRB06KT 9999 CLR 12/02 A3015 RMK CDP03605 CLR CDP03661 CLR=
0156007026999992017021114444+00000+000000FM-15+702699999V0209999V003112200019N009999199+01301+00201999999ADDGF100991999999999999999999MA1102101999999REMMET103MOBOB0 METAR 7026 //008 000000 111444Z AUTO VRB06KT 9999 CLR 13/02 A3015 RMK CDP03605 CLR CDP03661 CLR=
0153007026999992017021114494+00000+000000FM-15+702699999V0202601V004119999999N009999199+01405+00205999999ADDOC100821REMMET114MOBOB0 METAR 7026 //008 000000 111449Z AUTO 26008G16KT 210V280 9999 CLR 14/02 A3015 RMK CDP03605 CLR CDP03661 CLR=EQDD01      0ADE539
0156007026999992017021114544+00000+000000FM-15+702699999V0209999V003112200019N009999199+01401+00201999999ADDGF100991999999999999999999MA1102071999999REMMET103MOBOB0 METAR 7026 //008 000000 111454Z AUTO VRB06KT 9999 CLR 14/02 A3014 RMK CDP03605 CLR CDP03661 CLR=
0156007026999992017021114594+00000+000000FM-15+702699999V0209999V002612200019N009999199+01501+00201999999ADDGF100991999999999999999999MA1102071999999REMMET103MOBOB0 METAR 7026 //008 000000 111459Z AUTO VRB05KT 9999 CLR 15/02 A3014 RMK CDP03605 CLR CDP03661 CLR=
0153007026999992017021115044+00000+000000FM-15+702699999V0202501V004119999999N009999199+01505+00205999999ADDOC100821REMMET114MOBOB0 METAR 7026 //008 000000 111504Z AUTO 25008G16KT 190V290 9999 CLR 15/02 A3014 RMK CDP03605 CLR CDP03661 CLR=EQDD01      0ADE539
0153007026999992017021115094+00000+000000FM-15+702699999V0202601V003619999999N009999199+01505+00205999999ADDOC100821REMMET114MOBOB0 METAR 7026 //008 000000 111509Z AUTO 26007G16KT 210V280 9999 CLR 15/02 A3014 RMK CDP03661 CLR CDP03605 CLR=EQDD01      0ADE539
0156007026999992017021115144+00000+000000FM-15+702699999V0209999V003612200019N009999199+01501+00201999999ADDGF100991999999999999999999MA1102071999999REMMET103MOBOB0 METAR 7026 //008 000000 111514Z AUTO VRB07KT 9999 CLR 15/02 A3014 RMK CDP03661 CLR CDP03605 CLR=
0153007026999992017021115194+00000+000000FM-15+702699999V0202501V003619999999N009999199+01605+00205999999ADDOC100771REMMET114MOBOB0 METAR 7026 //008 000000 111519Z AUTO 25007G15KT 190V280 9999 CLR 16/02 A3013 RMK CDP03605 CLR CDP03661 CLR=EQDD01      0ADE539
0153007026999992017021115244+00000+000000FM-15+702699999V0202801V004619999999N009999199+01605+00205999999ADDOC100771REMMET114MOBOB0 METAR 7026 //008 000000 111524Z AUTO 28009G15KT 240V300 9999 CLR 16/02 A3014 RMK CDP03605 CLR CDP03661 CLR=EQDD01      0ADE539
0156007026999992017021115294+00000+000000FM-15+702699999V0209999V002612200019N009999199+01601+00201999999ADDGF100991999999999999999999MA1102031999999REMMET103MOBOB0 METAR 7026 //008 000000 111529Z AUTO VRB05KT 9999 CLR 16/02 A3013 RMK CDP03605 CLR CDP03661 CLR=
0153007026999992017021115344+00000+000000FM-15+702699999V0202701V003619999999N009999199+01705+00205999999ADDOC100821REMMET114MOBOB0 METAR 7026 //008 000000 111534Z AUTO 27007G16KT 200V300 9999 CLR 17/02 A3013 RMK CDP03605 CLR CDP03661 CLR=EQDD01      0ADE539
0153007026999992017021115394+00000+000000FM-15+702699999V0202701V004119999999N009999199+01705+00205999999ADDOC100821REMMET114MOBOB0 METAR 7026 //008 000000 111539Z AUTO 27008G16KT 210V290 9999 CLR 17/02 A3013 RMK CDP03661 CLR CDP03605 CLR=EQDD01      0ADE539
0156007026999992017021115444+00000+000000FM-15+702699999V0209999V003612200019N009999199+01701+00201999999ADDGF100991999999999999999999MA1102071999999REMMET103MOBOB0 METAR 7026 //008 000000 111544Z AUTO VRB07KT 9999 CLR 17/02 A3014 RMK CDP03661 CLR CDP03605 CLR=
0156007026999992017021115494+00000+000000FM-15+702699999V0209999V003112200019N009999199+01701+00301999999ADDGF100991999999999999999999MA1102031999999REMMET103MOBOB0 METAR 7026 //008 000000 111549Z AUTO VRB06KT 9999 CLR 17/03 A3013 RMK CDP03661 CLR CDP03605 CLR=
0153007026999992017021115544+00000+000000FM-15+702699999V0202701V004119999999N009999199+01805+00305999999ADDOC100771REMMET114MOBOB0 METAR 7026 //008 000000 111554Z AUTO 27008G15KT 210V300 9999 CLR 18/03 A3013 RMK CDP03605 CLR CDP03661 CLR=EQDD01      0ADE539
0156007026999992017021115594+00000+000000FM-15+702699999V0209999V003112200019N009999199+01801+00201999999ADDGF100991999999999999999999MA1102031999999REMMET103MOBOB0 METAR 7026 //008 000000 111559Z AUTO VRB06KT 9999 CLR 18/02 A3013 RMK CDP03605 CLR CDP03661 CLR=
0153007026999992017021116044+00000+000000FM-15+702699999V0202601V004119999999N009999199+01805+00305999999ADDOC100821REMMET114MOBOB0 METAR 7026 //008 000000 111604Z AUTO 26008G16KT 190V290 9999 CLR 18/03 A3013 RMK CDP03661 CLR CDP03605 CLR=EQDD01      0ADE539
0156007026999992017021116094+00000+000000FM-15+702699999V0209999V003612200019N009999199+01801+00301999999ADDGF100991999999999999999999MA1102031999999REMMET103MOBOB0 METAR 7026 //008 000000 111609Z AUTO VRB07KT 9999 CLR 18/03 A3013 RMK CDP03605 CLR CDP03661 CLR=
0156007026999992017021116144+00000+000000FM-15+702699999V0209999V003612200019N009999199+01801+00301999999ADDGF100991999999999999999999MA1102031999999REMMET103MOBOB0 METAR 7026 //008 000000 111614Z AUTO VRB07KT 9999 CLR 18/03 A3013 RMK CDP03605 CLR CDP03661 CLR=
0153007026999992017021116194+00000+000000FM-15+702699999V0202601V004619999999N009999199+01805+00305999999ADDOC100821REMMET114MOBOB0 METAR 7026 //008 000000 111619Z AUTO 26009G16KT 210V300 9999 CLR 18/03 A3013 RMK CDP03605 CLR CDP03661 CLR=EQDD01      0ADE539
0153007026999992017021116244+00000+000000FM-15+702699999V0202801V005119999999N009999199+01905+00305999999ADDOC100931REMMET114MOBOB0 METAR 7026 //008 000000 111624Z AUTO 28010G18KT 230V300 9999 CLR 19/03 A3013 RMK CDP03605 CLR CDP03661 CLR=EQDD01      0ADE539
0153007026999992017021116294+00000+000000FM-15+702699999V0202601V003619999999N009999199+01905+00305999999ADDOC100981REMMET114MOBOB0 METAR 7026 //008 000000 111629Z AUTO 26007G19KT 220V290 9999 CLR 19/03 A3013 RMK CDP03605 CLR CDP03661 CLR=EQDD01      0ADE539
0156007026999992017021116344+00000+000000FM-15+702699999V0209999V003112200019N009999199+01901+00301999999ADDGF100991999999999999999999MA1102001999999REMMET103MOBOB0 METAR 7026 //008 000000 111634Z AUTO VRB06KT 9999 CLR 19/03 A3012 RMK CDP03661 CLR CDP03605 CLR=
0156007026999992017021116394+00000+000000FM-15+702699999V0209999V003112200019N009999199+01901+00301999999ADDGF100991999999999999999999MA1102001999999REMMET103MOBOB0 METAR 7026 //008 000000 111639Z AUTO VRB06KT 9999 CLR 19/03 A3012 RMK CDP03605 CLR CDP03661 CLR=
0156007026999992017021116444+00000+000000FM-15+702699999V0209999V003112200019N009999199+01901+00301999999ADDGF100991999999999999999999MA1101961999999REMMET103MOBOB0 METAR 7026 //008 000000 111644Z AUTO VRB06KT 9999 CLR 19/03 A3011 RMK CDP03661 CLR CDP03605 CLR=
0153007026999992017021116494+00000+000000FM-15+702699999V0202801V004619999999N009999199+01905+00305999999ADDOC100821REMMET114MOBOB0 METAR 7026 //008 000000 111649Z AUTO 28009G16KT 250V310 9999 CLR 19/03 A3011 RMK CDP03605 CLR CDP03661 CLR=EQDD01      0ADE539
0167007026999992017021116564+00000+000000FM-15+702699999V0202701N004112200019N009999199+01901+00401999999ADDGF100991999999999999999999MA1101961999999OC100821REMMET106MOBOB0 METAR 7026 //008 000000 111656Z AUTO 27008G16KT 9999 CLR 19/04 A3011 RMK CDP03605 CLR CDP03661 CLR=
0156007026999992017021116594+00000+000000FM-15+702699999V0209999V002612200019N009999199+01901+00401999999ADDGF100991999999999999999999MA1101961999999REMMET103MOBOB0 METAR 7026 //008 000000 111659Z AUTO VRB05KT 9999 CLR 19/04 A3011 RMK CDP03661 CLR CDP03605 CLR=
0156007026999992017021117084+00000+000000FM-15+702699999V0209999V003112200019N009999199+02001+00401999999ADDGF100991999999999999999999MA1101931999999REMMET103MOBOB0 METAR 7026 //008 000000 111708Z AUTO VRB06KT 9999 CLR 20/04 A3010 RMK CDP03605 CLR CDP03661 CLR=
0153007026999992017021117144+00000+000000FM-15+702699999V0202801V004619999999N009999199+02105+00405999999ADDOC100771REMMET114MOBOB0 METAR 7026 //008 000000 111714Z AUTO 28009G15KT 230V310 9999 CLR 21/04 A3009 RMK CDP03661 CLR CDP03605 CLR=EQDD01      0ADE539
0156007026999992017021117194+00000+000000FM-15+702699999V0209999V002612200019N009999199+02001+00401999999ADDGF100991999999999999999999MA1101901999999REMMET103MOBOB0 METAR 7026 //008 000000 111719Z AUTO VRB05KT 9999 CLR 20/04 A3009 RMK CDP03605 CLR CDP03661 CLR=
0156007026999992017021117244+00000+000000FM-15+702699999V0209999V003112200019N009999199+02101+00401999999ADDGF100991999999999999999999MA1101861999999REMMET103MOBOB0 METAR 7026 //008 000000 111724Z AUTO VRB06KT 9999 CLR 21/04 A3008 RMK CDP03605 CLR CDP03661 CLR=
0153007026999992017021117294+00000+000000FM-15+702699999V0202701V005119999999N009999199+02005+00405999999ADDOC100881REMMET114MOBOB0 METAR 7026 //008 000000 111729Z AUTO 27010G17KT 230V290 9999 CLR 20/04 A3008 RMK CDP03605 CLR CDP03661 CLR=EQDD01      0ADE539
0156007026999992017021117344+00000+000000FM-15+702699999V0209999V002612200019N009999199+02101+00401999999ADDGF100991999999999999999999MA1101861999999REMMET103MOBOB0 METAR 7026 //008 000000 111734Z AUTO VRB05KT 9999 CLR 21/04 A3008 RMK CDP03605 CLR CDP03661 CLR=
0156007026999992017021117394+00000+000000FM-15+702699999V0209999V003612200019N009999199+02101+00401999999ADDGF100991999999999999999999MA1101861999999REMMET103MOBOB0 METAR 7026 //008 000000 111739Z AUTO VRB07KT 9999 CLR 21/04 A3008 RMK CDP03661 CLR CDP03605 CLR=
0153007026999992017021117444+00000+000000FM-15+702699999V0202701V004619999999N009999199+02105+00405999999ADDOC100881REMMET114MOBOB0 METAR 7026 //008 000000 111744Z AUTO 27009G17KT 190V310 9999 CLR 21/04 A3007 RMK CDP03605 CLR CDP03661 CLR=EQDD01      0ADE539
0156007026999992017021117494+00000+000000FM-15+702699999V0209999V003612200019N009999199+02101+00501999999ADDGF100991999999999999999999MA1101831999999REMMET103MOBOB0 METAR 7026 //008 000000 111749Z AUTO VRB07KT 9999 CLR 21/05 A3007 RMK CDP03661 CLR CDP03605 CLR=
0156007026999992017021117544+00000+000000FM-15+702699999V0209999V002612200019N009999199+02101+00501999999ADDGF100991999999999999999999MA1101831999999REMMET103MOBOB0 METAR 7026 //008 000000 111754Z AUTO VRB05KT 9999 CLR 21/05 A3007 RMK CDP03605 CLR CDP03661 CLR=
0156007026999992017021118054+00000+000000FM-15+702699999V0209999V003112200019N009999199+02201+00501999999ADDGF100991999999999999999999MA1101791999999REMMET103MOBOB0 METAR 7026 //008 000000 111805Z AUTO VRB06KT 9999 CLR 22/05 A3006 RMK CDP03661 CLR CDP03605 CLR=
0153007026999992017021118144+00000+000000FM-15+702699999V0202501V004619999999N009999199+02205+00505999999ADDOC100771REMMET114MOBOB0 METAR 7026 //008 000000 111814Z AUTO 25009G15KT 170V280 9999 CLR 22/05 A3005 RMK CDP03605 CLR CDP03661 CLR=EQDD01      0ADE539
0156007026999992017021118194+00000+000000FM-15+702699999V0209999V002612200019N009999199+02201+00501999999ADDGF100991999999999999999999MA1101761999999REMMET103MOBOB0 METAR 7026 //008 000000 111819Z AUTO VRB05KT 9999 CLR 22/05 A3005 RMK CDP03661 CLR CDP03605 CLR=
0156007026999992017021118244+00000+000000FM-15+702699999V0209999V003612200019N009999199+02201+00501999999ADDGF100991999999999999999999MA1101761999999REMMET103MOBOB0 METAR 7026 //008 000000 111824Z AUTO VRB07KT 9999 CLR 22/05 A3005 RMK CDP03661 CLR CDP03605 CLR=
0153007026999992017021118294+00000+000000FM-15+702699999V0202701V005119999999N009999199+02305+00605999999ADDOC100931REMMET114MOBOB0 METAR 7026 //008 000000 111829Z AUTO 27010G18KT 200V300 9999 CLR 23/06 A3005 RMK CDP03661 CLR CDP03605 CLR=EQDD01      0ADE539
0167007026999992017021118344+00000+000000FM-15+702699999V0202601N004112200019N009999199+02301+00601999999ADDGF100991999999999999999999MA1101731999999OC100821REMMET106MOBOB0 METAR 7026 //008 000000 111834Z AUTO 26008G16KT 9999 CLR 23/06 A3004 RMK CDP03605 CLR CDP03661 CLR=
0153007026999992017021118394+00000+000000FM-15+702699999V0202801V006219999999N009999199+02305+00605999999ADDOC101081REMMET114MOBOB0 METAR 7026 //008 000000 111839Z AUTO 28012G21KT 240V300 9999 CLR 23/06 A3004 RMK CDP03661 CLR CDP03605 CLR=EQDD01      0ADE539
0167007026999992017021118444+00000+000000FM-15+702699999V0202701N004612200019N009999199+02301+00601999999ADDGF100991999999999999999999MA1101731999999OC101081REMMET106MOBOB0 METAR 7026 //008 000000 111844Z AUTO 27009G21KT 9999 CLR 23/06 A3004 RMK CDP03605 CLR CDP03661 CLR=
0153007026999992017021118494+00000+000000FM-15+702699999V0202701V004119999999N009999199+02305+00605999999ADDOC100931REMMET114MOBOB0 METAR 7026 //008 000000 111849Z AUTO 27008G18KT 200V300 9999 CLR 23/06 A3004 RMK CDP03605 CLR CDP03661 CLR=EQDD01      0ADE539
0156007026999992017021118544+00000+000000FM-15+702699999V0209999V003112200019N009999199+02301+00601999999ADDGF100991999999999999999999MA1101731999999REMMET103MOBOB0 METAR 7026 //008 000000 111854Z AUTO VRB06KT 9999 CLR 23/06 A3004 RMK CDP03605 CLR CDP03661 CLR=
0153007026999992017021118594+00000+000000FM-15+702699999V0202801V005119999999N009999199+02305+00605999999ADDOC100821REMMET114MOBOB0 METAR 7026 //008 000000 111859Z AUTO 28010G16KT 220V300 9999 CLR 23/06 A3004 RMK CDP03605 CLR CDP03661 CLR=EQDD01      0ADE539
0153007026999992017021119044+00000+000000FM-15+702699999V0202701V004119999999N009999199+02305+00605999999ADDOC100821REMMET114MOBOB0 METAR 7026 //008 000000 111904Z AUTO 27008G16KT 210V300 9999 CLR 23/06 A3003 RMK CDP03605 CLR CDP03661 CLR=EQDD01      0ADE539
0153007026999992017021119094+00000+000000FM-15+702699999V0202701V004119999999N009999199+02305+00605999999ADDOC100821REMMET114MOBOB0 METAR 7026 //008 000000 111909Z AUTO 27008G16KT 180V300 9999 CLR 23/06 A3003 RMK CDP03661 CLR CDP03605 CLR=EQDD01      0ADE539
0167007026999992017021119144+00000+000000FM-15+702699999V0202801N006212200019N009999199+02301+00601999999ADDGF100991999999999999999999MA1101691999999OC100881REMMET106MOBOB0 METAR 7026 //008 000000 111914Z AUTO 28012G17KT 9999 CLR 23/06 A3003 RMK CDP03661 CLR CDP03605 CLR=
0156007026999992017021119194+00000+000000FM-15+702699999V0209999V002612200019N009999199+02301+00701999999ADDGF100991999999999999999999MA1101691999999REMMET103MOBOB0 METAR 7026 //008 000000 111919Z AUTO VRB05KT 9999 CLR 23/07 A3003 RMK CDP03605 CLR CDP03661 CLR=
0156007026999992017021119244+00000+000000FM-15+702699999V0209999V002612200019N009999199+02301+00601999999ADDGF100991999999999999999999MA1101661999999REMMET103MOBOB0 METAR 7026 //008 000000 111924Z AUTO VRB05KT 9999 CLR 23/06 A3002 RMK CDP03605 CLR CDP03661 CLR=
0156007026999992017021119294+00000+000000FM-15+702699999V0209999V003112200019N009999199+02301+00601999999ADDGF100991999999999999999999MA1101661999999REMMET103MOBOB0 METAR 7026 //008 000000 111929Z AUTO VRB06KT 9999 CLR 23/06 A3002 RMK CDP03605 CLR CDP03661 CLR=
0156007026999992017021119344+00000+000000FM-15+702699999V0209999V002612200019N009999199+02301+00601999999ADDGF100991999999999999999999MA1101661999999REMMET103MOBOB0 METAR 7026 //008 000000 111934Z AUTO VRB05KT 9999 CLR 23/06 A3002 RMK CDP03605 CLR CDP03661 CLR=
0156007026999992017021119394+00000+000000FM-15+702699999V0209999V002112200019N009999199+02401+00701999999ADDGF100991999999999999999999MA1101661999999REMMET103MOBOB0 METAR 7026 //008 000000 111939Z AUTO VRB04KT 9999 CLR 24/07 A3002 RMK CDP03605 CLR CDP03661 CLR=
0167007026999992017021119444+00000+000000FM-15+702699999V0202801N003612200019N009999199+02401+00701999999ADDGF100991999999999999999999MA1101661999999OC100671REMMET106MOBOB0 METAR 7026 //008 000000 111944Z AUTO 28007G13KT 9999 CLR 24/07 A3002 RMK CDP03661 CLR CDP03605 CLR=
0156007026999992017021119494+00000+000000FM-15+702699999V0209999V002612200019N009999199+02401+00701999999ADDGF100991999999999999999999MA1101661999999REMMET103MOBOB0 METAR 7026 //008 000000 111949Z AUTO VRB05KT 9999 CLR 24/07 A3002 RMK CDP03605 CLR CDP03661 CLR=
0156007026999992017021119544+00000+000000FM-15+702699999V0209999V002612200019N009999199+02401+00701999999ADDGF100991999999999999999999MA1101631999999REMMET103MOBOB0 METAR 7026 //008 000000 111954Z AUTO VRB05KT 9999 CLR 24/07 A3001 RMK CDP03605 CLR CDP03661 CLR=
0156007026999992017021119594+00000+000000FM-15+702699999V0209999V002612200019N009999199+02401+00701999999ADDGF100991999999999999999999MA1101631999999REMMET103MOBOB0 METAR 7026 //008 000000 111959Z AUTO VRB05KT 9999 CLR 24/07 A3001 RMK CDP03661 CLR CDP03605 CLR=
0156007026999992017021120044+00000+000000FM-15+702699999V0209999V002612200019N009999199+02401+00701999999ADDGF100991999999999999999999MA1101631999999REMMET103MOBOB0 METAR 7026 //008 000000 112004Z AUTO VRB05KT 9999 CLR 24/07 A3001 RMK CDP03605 CLR CDP03661 CLR=
0156007026999992017021120094+00000+000000FM-15+702699999V0209999V003112200019N009999199+02501+00801999999ADDGF100991999999999999999999MA1101631999999REMMET103MOBOB0 METAR 7026 //008 000000 112009Z AUTO VRB06KT 9999 CLR 25/08 A3001 RMK CDP03605 CLR CDP03661 CLR=
0156007026999992017021120144+00000+000000FM-15+702699999V0209999V002612200019N009999199+02401+00701999999ADDGF100991999999999999999999MA1101631999999REMMET103MOBOB0 METAR 7026 //008 000000 112014Z AUTO VRB05KT 9999 CLR 24/07 A3001 RMK CDP03661 CLR CDP03605 CLR=
0156007026999992017021120194+00000+000000FM-15+702699999V0209999V002612200019N009999199+02501+00701999999ADDGF100991999999999999999999MA1101631999999REMMET103MOBOB0 METAR 7026 //008 000000 112019Z AUTO VRB05KT 9999 CLR 25/07 A3001 RMK CDP03605 CLR CDP03661 CLR=
0153007026999992017021120244+00000+000000FM-15+702699999V0202601V003619999999N009999199+02405+00705999999ADDOC100721REMMET114MOBOB0 METAR 7026 //008 000000 112024Z AUTO 26007G14KT 200V300 9999 CLR 24/07 A3001 RMK CDP03605 CLR CDP03661 CLR=EQDD01      0ADE539
0156007026999992017021120294+00000+000000FM-15+702699999V0209999V002112200019N009999199+02401+00801999999ADDGF100991999999999999999999MA1101631999999REMMET103MOBOB0 METAR 7026 //008 000000 112029Z AUTO VRB04KT 9999 CLR 24/08 A3001 RMK CDP03605 CLR CDP03661 CLR=
0156007026999992017021120344+00000+000000FM-15+702699999V0209999V002612200019N009999199+02401+00801999999ADDGF100991999999999999999999MA1101631999999REMMET103MOBOB0 METAR 7026 //008 000000 112034Z AUTO VRB05KT 9999 CLR 24/08 A3001 RMK CDP03661 CLR CDP03605 CLR=
0156007026999992017021120394+00000+000000FM-15+702699999V0209999V002612200019N009999199+02401+00801999999ADDGF100991999999999999999999MA1101631999999REMMET103MOBOB0 METAR 7026 //008 000000 112039Z AUTO VRB05KT 9999 CLR 24/08 A3001 RMK CDP03605 CLR CDP03661 CLR=
0156007026999992017021120444+00000+000000FM-15+702699999V0209999V002612200019N009999199+02401+00801999999ADDGF100991999999999999999999MA1101631999999REMMET103MOBOB0 METAR 7026 //008 000000 112044Z AUTO VRB05KT 9999 CLR 24/08 A3001 RMK CDP03661 CLR CDP03605 CLR=
0156007026999992017021120494+00000+000000FM-15+702699999V0209999V002612200019N009999199+02401+00801999999ADDGF100991999999999999999999MA1101591999999REMMET103MOBOB0 METAR 7026 //008 000000 112049Z AUTO VRB05KT 9999 CLR 24/08 A3000 RMK CDP03605 CLR CDP03661 CLR=
0156007026999992017021120544+00000+000000FM-15+702699999V0209999V003112200019N009999199+02401+00901999999ADDGF100991999999999999999999MA1101591999999REMMET103MOBOB0 METAR 7026 //008 000000 112054Z AUTO VRB06KT 9999 CLR 24/09 A3000 RMK CDP03605 CLR CDP03661 CLR=
0156007026999992017021120594+00000+000000FM-15+702699999V0209999V002112200019N009999199+02401+00901999999ADDGF100991999999999999999999MA1101591999999REMMET103MOBOB0 METAR 7026 //008 000000 112059Z AUTO VRB04KT 9999 CLR 24/09 A3000 RMK CDP03605 CLR CDP03661 CLR=
0156007026999992017021121044+00000+000000FM-15+702699999V0209999V003112200019N009999199+02401+00901999999ADDGF100991999999999999999999MA1101591999999REMMET103MOBOB0 METAR 7026 //008 000000 112104Z AUTO VRB06KT 9999 CLR 24/09 A3000 RMK CDP03605 CLR CDP03661 CLR=
0156007026999992017021121094+00000+000000FM-15+702699999V0209999V002112200019N009999199+02401+00901999999ADDGF100991999999999999999999MA1101591999999REMMET103MOBOB0 METAR 7026 //008 000000 112109Z AUTO VRB04KT 9999 CLR 24/09 A3000 RMK CDP03605 CLR CDP03661 CLR=
0156007026999992017021121144+00000+000000FM-15+702699999V0209999V003112200019N009999199+02401+00901999999ADDGF100991999999999999999999MA1101631999999REMMET103MOBOB0 METAR 7026 //008 000000 112114Z AUTO VRB06KT 9999 CLR 24/09 A3001 RMK CDP03605 CLR CDP03661 CLR=
0156007026999992017021121194+00000+000000FM-15+702699999V0209999V002112200019N009999199+02501+00901999999ADDGF100991999999999999999999MA1101591999999REMMET103MOBOB0 METAR 7026 //008 000000 112119Z AUTO VRB04KT 9999 CLR 25/09 A3000 RMK CDP03605 CLR CDP03661 CLR=
0156007026999992017021121244+00000+000000FM-15+702699999V0209999V003112200019N009999199+02501+01001999999ADDGF100991999999999999999999MA1101591999999REMMET103MOBOB0 METAR 7026 //008 000000 112124Z AUTO VRB06KT 9999 CLR 25/10 A3000 RMK CDP03605 CLR CDP03661 CLR=
0156007026999992017021121294+00000+000000FM-15+702699999V0209999V003112200019N009999199+02401+00901999999ADDGF100991999999999999999999MA1101591999999REMMET103MOBOB0 METAR 7026 //008 000000 112129Z AUTO VRB06KT 9999 CLR 24/09 A3000 RMK CDP03605 CLR CDP03661 CLR=
0167007026999992017021121344+00000+000000FM-15+702699999V0202701N004112200019N009999199+02401+00901999999ADDGF100991999999999999999999MA1101591999999OC100771REMMET106MOBOB0 METAR 7026 //008 000000 112134Z AUTO 27008G15KT 9999 CLR 24/09 A3000 RMK CDP03661 CLR CDP03605 CLR=
0156007026999992017021121394+00000+000000FM-15+702699999V0209999V001512200019N009999199+02401+01001999999ADDGF100991999999999999999999MA1101591999999REMMET103MOBOB0 METAR 7026 //008 000000 112139Z AUTO VRB03KT 9999 CLR 24/10 A3000 RMK CDP03605 CLR CDP03661 CLR=
0153007026999992017021121444+00000+000000FM-15+702699999V0202701V004119999999N009999199+02405+01005999999ADDOC100721REMMET114MOBOB0 METAR 7026 //008 000000 112144Z AUTO 27008G14KT 230V300 9999 CLR 24/10 A3000 RMK CDP03661 CLR CDP03605 CLR=EQDD01      0ADE539
0156007026999992017021121494+00000+000000FM-15+702699999V0209999V002112200019N009999199+02401+01001999999ADDGF100991999999999999999999MA1101591999999REMMET103MOBOB0 METAR 7026 //008 000000 112149Z AUTO VRB04KT 9999 CLR 24/10 A3000 RMK CDP03605 CLR CDP03661 CLR=
0156007026999992017021121544+00000+000000FM-15+702699999V0209999V002112200019N009999199+02401+01001999999ADDGF100991999999999999999999MA1101631999999REMMET103MOBOB0 METAR 7026 //008 000000 112154Z AUTO VRB04KT 9999 CLR 24/10 A3001 RMK CDP03605 CLR CDP03661 CLR=
0156007026999992017021121594+00000+000000FM-15+702699999V0209999V003112200019N009999199+02401+01001999999ADDGF100991999999999999999999MA1101631999999REMMET103MOBOB0 METAR 7026 //008 000000 112159Z AUTO VRB06KT 9999 CLR 24/10 A3001 RMK CDP03605 CLR CDP03661 CLR=
0153007026999992017021122044+00000+000000FM-15+702699999V0202701V004119999999N009999199+02405+01005999999ADDOC100821REMMET114MOBOB0 METAR 7026 //008 000000 112204Z AUTO 27008G16KT 200V300 9999 CLR 24/10 A3001 RMK CDP03605 CLR CDP03661 CLR=EQDD01      0ADE539
0153007026999992017021122094+00000+000000FM-15+702699999V0202601V004119999999N009999199+02405+01005999999ADDOC100771REMMET114MOBOB0 METAR 7026 //008 000000 112209Z AUTO 26008G15KT 220V290 9999 CLR 24/10 A3001 RMK CDP03661 CLR CDP03605 CLR=EQDD01      0ADE539
0156007026999992017021122144+00000+000000FM-15+702699999V0209999V003112200019N009999199+02401+01001999999ADDGF100991999999999999999999MA1101631999999REMMET103MOBOB0 METAR 7026 //008 000000 112214Z AUTO VRB06KT 9999 CLR 24/10 A3001 RMK CDP03605 CLR CDP03661 CLR=
0167007026999992017021122194+00000+000000FM-15+702699999V0202801N005112200019N009999199+02301+01001999999ADDGF100991999999999999999999MA1101631999999OC100771REMMET106MOBOB0 METAR 7026 //008 000000 112219Z AUTO 28010G15KT 9999 CLR 23/10 A3001 RMK CDP03605 CLR CDP03661 CLR=
0153007026999992017021122244+00000+000000FM-15+702699999V0202801V003619999999N009999199+02305+01005999999ADDOC100771REMMET114MOBOB0 METAR 7026 //008 000000 112224Z AUTO 28007G15KT 220V300 9999 CLR 23/10 A3001 RMK CDP03605 CLR CDP03661 CLR=EQDD01      0ADE539
0156007026999992017021122294+00000+000000FM-15+702699999V0209999V003112200019N009999199+02301+01001999999ADDGF100991999999999999999999MA1101631999999REMMET103MOBOB0 METAR 7026 //008 000000 112229Z AUTO VRB06KT 9999 CLR 23/10 A3001 RMK CDP03661 CLR CDP03605 CLR=
0156007026999992017021122344+00000+000000FM-15+702699999V0209999V003112200019N009999199+02301+01001999999ADDGF100991999999999999999999MA1101631999999REMMET103MOBOB0 METAR 7026 //008 000000 112234Z AUTO VRB06KT 9999 CLR 23/10 A3001 RMK CDP03605 CLR CDP03661 CLR=
