0228010010999992017010100004+70933-008667FM-12+000999999V0203401N009019999999N020000199-00371-00841102631ADDAA106000021AY171021AY221021GA1061+008001061GE19MSL   +99999+99999GF106991061999008001999999MA1999999102511MD1310191+9999MW1701OD139901701999REMSYN07601001 11570 63409 11037 21084 30251 40263 53019 69901 77072 86500 333 91117=
0089010010999992017010101004+70933-008667FM-12+000999999V0203401N009019999999N999999999-00381-00891102711ADDMA1999999102591MD1310211+9999REMSYN04801001 46/// /3409 11038 21089 30259 40271 53021=
0089010010999992017010102004+70933-008667FM-12+000999999V0203401N009019999999N999999999-00391-00831102621ADDMA1999999102501MD1990101+9999REMSYN04801001 46/// /3409 11039 21083 30250 40262 50010=
0093010010999992017010103004+70939-008669FM-12+001099999V0203441N0098199999999999999999-00401-00871102711ADDKA1010M-00381KA2010N-00411MA1999999102591MD1310081+9999OC101761OD190101041999REMSYN004BUFR
0093010010999992017010104004+70939-008669FM-12+001099999V0203251N0067199999999999999999-00391-00831102681ADDKA1010M-00381KA2010N-00411MA1999999102561MD1510031+9999OC101181OD190100941999REMSYN004BUFR
0089010010999992017010105004+70933-008667FM-12+000999999V0203501N007019999999N999999999-00411-00811102651ADDMA1999999102531MD1990031+9999REMSYN04801001 46/// /3507 11041 21081 30253 40265 50003=
0252010010999992017010106004+70939-008669FM-12+001099999V0203431N0053100600199030000199-00421-00841102651ADDAA112999999AA224000131AY171061AY221061GA1071+006001061GA2999+999999101GA3999+999999101GE19MSL   +99999+99999GF107991071999006001999999IA1249KA1120M-00061KA2120N-00421MA1999999102531MD1510051+9999MW1021OC101091OD190601041999UA19999999039REMSYN004BUFR
0093010010999992017010107004+70939-008669FM-12+001099999V0202721N0042199999999999999999-00441-00921102641ADDKA1010M-00421KA2010N-00441MA1999999102521MD1610041+9999OC101201OD190100531999REMSYN004BUFR
0089010010999992017010108004+70933-008667FM-12+000999999V0203501N005019999999N999999999-00441-00871102621ADDMA1999999102501MD1710031+9999REMSYN04801001 46/// /3505 11044 21087 30250 40262 57003=
0187010010999992017010109004+70933-008667FM-12+000999999V0203301N002019999999N030000199-00441-00861102551ADDAY171021AY221021GA1071+008001061GE19MSL   +99999+99999GF107991071999008001999999MA1999999102431MD1810111+9999MW1711REMSYN06001001 41580 73302 11044 21086 30243 40255 58011 77172 875//=
0089010010999992017010110004+70933-008667FM-12+000999999V0203001N002019999999N999999999-00451-00951102511ADDMA1999999102391MD1810131+9999REMSYN04801001 46/// /3002 11045 21095 30239 40251 58013=
0089010010999992017010111004+70933-008667FM-12+000999999V0202701N004019999999N999999999-00471-01031102441ADDMA1999999102321MD1810181+9999REMSYN04801001 46/// /2704 11047 21103 30232 40244 58018=
0248010010999992017010112004+70933-008667FM-12+000999999V0202601N004019999999N030000199-00481-00991102371ADDAA106000021AY171021AY221021GA1071+008001061GE19MSL   +99999+99999GF107991071999008001999999MA1999999102251MD1810181+9999MW1021OD139901301999SA1+0131REMSYN08801001 11580 72604 11048 21099 30225 40237 58018 69901 70272 875// 222// 00013 333 91113=
0093010010999992017010113004+70939-008669FM-12+001099999V0202721N0039199999999999999999-00471-00891102361ADDKA1010M-00471KA2010N-00481MA1999999102241MD1510151+9999OC100831OD190100391999REMSYN004BUFR
0089010010999992017010114004+70933-008667FM-12+000999999V0202901N007019999999N999999999-00491-00781102321ADDMA1999999102201MD1610121+9999REMSYN04801001 46/// /2907 11049 21078 30220 40232 56012=
0224010010999992017010115004+70939-008669FM-12+001099999V0203341N0055100300199001000199-00521-00741102251ADDAY171031AY221031GA1081+003001061GA2999+999999101GA3999+999999101GE19MSL   +99999+99999GF108991081999003001999999KA1010M-00491KA2010N-00531MA1999999102131MD1810121+9999MW1721OC101061OD190100681999UA19999999039REMSYN004BUFR
0089010010999992017010116004+70933-008667FM-12+000999999V0202801N007019999999N999999999-00531-00781102171ADDMA1999999102051MD1810201+9999REMSYN04801001 46/// /2807 11053 21078 30205 40217 58020=
0093010010999992017010117004+70939-008669FM-12+001099999V0202851N0060199999999999999999-00521-00961102151ADDKA1010M-00511KA2010N-00531MA1999999102031MD1610181+9999OC101111OD190100681999REMSYN004BUFR
0247010010999992017010118004+70933-008667FM-12+000999999V0202901N004019999999N010000199-00501-01021102131ADDAA112000731AY171021AY221021GA1071+004501061GE19MSL   +99999+99999GF107991071999004501999999KA1120M-00421MA1999999102011MD1610121+9999MW1361OD139901501999REMSYN08201001 11460 72904 11050 21102 30201 40213 56012 69972 73672 875// 333 11042 91115=
0089010010999992017010119004+70933-008667FM-12+000999999V0203501N004019999999N999999999-00471-00941102111ADDMA1999999101991MD1710051+9999REMSYN04801001 46/// /3504 11047 21094 30199 40211 57005=
0089010010999992017010120004+70933-008667FM-12+000999999V0203301N005019999999N999999999-00441-00831102091ADDMA1999999101971MD1510061+9999REMSYN04801001 46/// /3305 11044 21083 30197 40209 55006=
0093010010999992017010121004+70939-008669FM-12+001099999V0203301N0062199999999999999999-00501-00741102081ADDKA1010M-00431KA2010N-00511MA1999999101961MD1510051+9999OC100951OD190100621999REMSYN004BUFR
0089010010999992017010122004+70933-008667FM-12+000999999V0203401N006019999999N999999999-00481-00971102051ADDMA1999999101931MD1810061+9999REMSYN04801001 46/// /3406 11048 21097 30193 40205 58006=
0093010010999992017010123004+70939-008669FM-12+001099999V0203461N0055199999999999999999-00471-00991102021ADDKA1010M-00481KA2010N-00501MA1999999101901MD1810071+9999OC100811OD190100601999REMSYN004BUFR
0228010010999992017010200004+70933-008667FM-12+000999999V0203301N009019999999N010000199-00491-00931101901ADDAA106000431AY181021AY221021GA1061+008001081GE19MSL   +99999+99999GF106991061999008001999999MA1999999101781MD1810181+9999MW1851OD139901201999REMSYN07601001 11560 63309 11049 21093 30178 40190 58018 69941 78582 86800 333 91112=
0093010010999992017010201004+70939-008669FM-12+001099999V0203461N0072199999999999999999-00471-00961101901ADDKA1010M-00471KA2010N-00491MA1999999101781MD1610151+9999OC101011OD190100911999REMSYN004BUFR
0089010010999992017010202004+70933-008667FM-12+000999999V0203201N004019999999N999999999-00501-00981101891ADDMA1999999101771MD1510121+9999REMSYN04801001 46/// /3204 11050 21098 30177 40189 55012=
0093010010999992017010203004+70939-008669FM-12+001099999V0203281N0030199999999999999999-00471-00951101851ADDKA1010M-00471KA2010N-00501MA1999999101731MD1810051+9999OC100691OD190100911999REMSYN004BUFR
0089010010999992017010204004+70933-008667FM-12+000999999V0203201N002019999999N999999999-00521-00951101761ADDMA1999999101641MD1810131+9999REMSYN04801001 46/// /3202 11052 21095 30164 40176 58013=
0089010010999992017010205004+70933-008667FM-12+000999999V0203101N002019999999N999999999-00621-00971101631ADDMA1999999101511MD1810261+9999REMSYN04801001 46/// /3102 11062 21097 30151 40163 58026=
0293010010999992017010206004+70933-008667FM-12+000999999V0202601N002019999999N020000199-00571-00911101501ADDAA112000091AA224000731AJ199991999999999AY121021AY221021GA1081+012501061GE19MSL   +99999+99999GF108991081999012501999999IA1249KA1240N-00661MA1999999101381MD1810351+9999MW1031OD139901201999REMSYN09401001 11670 82602 11057 21091 30138 40150 58035 60002 70322 885// 333 21066 44999 70007 91112=
0089010010999992017010207004+70933-008667FM-12+000999999V0202301N003019999999N999999999-00461-00861101411ADDMA1999999101291MD1810361+9999REMSYN04801001 46/// /2303 11046 21086 30129 40141 58036=
0093010010999992017010208004+70939-008669FM-12+001099999V0202061N0045199999999999999999-00371-00721101311ADDKA1010M-00381KA2010N-00461MA1999999101191MD1810321+9999OC100721OD190100451999REMSYN004BUFR
0187010010999992017010209004+70933-008667FM-12+000999999V0201801N006019999999N020000199-00301-00731101171ADDAY121021AY221021GA1081+012501061GE19MSL   +99999+99999GF108991081999012501999999MA1999999101051MD1810341+9999MW1021REMSYN06001001 41670 81806 11030 21073 30105 40117 58034 70222 885//=
0089010010999992017010210004+70933-008667FM-12+000999999V0201701N006019999999N999999999-00291-00641101011ADDMA1999999100891MD1810401+9999REMSYN04801001 46/// /1706 11029 21064 30089 40101 58040=
0089010010999992017010211004+70933-008667FM-12+000999999V0201601N008019999999N999999999-00371-00491100821ADDMA1999999100701MD1810491+9999REMSYN04801001 46/// /1608 11037 21049 30070 40082 58049=
0267010010999992017010212004+70933-008667FM-12+000999999V0201401N010019999999N020000199-00271-00571100531ADDAA106000091AY171021AY221021GA1071+008001061GE19MSL   +99999+99999GF107991071999008001999999MA1999999100411MD1810641+9999MW1361OD139901201999SA1+0111REMSYN08801001 11570 71410 11027 21057 30041 40053 58064 69901 73672 875// 222// 00011 333 91112=EQDQ01  00002PRCP06
0089010010999992017010213004+70933-008667FM-12+000999999V0201301N009019999999N999999999-00261-00661100341ADDMA1999999100221MD1810661+9999REMSYN04801001 46/// /1309 11026 21066 30022 40034 58066=
0089010010999992017010214004+70933-008667FM-12+000999999V0201201N009019999999N999999999-00251-00551100121ADDMA1999999100001MD1610701+9999REMSYN04801001 46/// /1209 11025 21055 30000 40012 56070=
0224010010999992017010215004+70939-008669FM-12+001099999V0201061N0087100200199001000199-00291-00351099901ADDAY171031AY221031GA1081+002001061GA2999+999999101GA3999+999999101GE19MSL   +99999+99999GF108991081999002001999999KA1010M-00251KA2010N-00331MA1999999099781MD1810631+9999MW1721OC101081OD190101031999UA19999999039REMSYN004BUFR
0089010010999992017010216004+70933-008667FM-12+000999999V0200901N010019999999N999999999-00281-00321099661ADDMA1999999099541MD1810681+9999REMSYN04801001 46/// /0910 11028 21032 39954 49966 58068=
0089010010999992017010217004+70933-008667FM-12+000999999V0200801N012019999999N999999999-00271-00311099471ADDMA1999999099351MD1810651+9999REMSYN04801001 46/// /0812 11027 21031 39935 49947 58065=
0235010010999992017010218004+70939-008669FM-12+001099999V0200671N0103100300199005000199-00241-00331099361ADDAA112000531AY171061AY271061GA1081+003001061GA2999+999999101GA3999+999999101GE19MSL   +99999+99999GF108991081999003001999999KA1120M-00231KA2120N-00571MA1999999099241MD1610541+9999MW1711OC101281OD190601221999UA19999999039REMSYN004BUFR
0093010010999992017010219004+70939-008669FM-12+001099999V0200721N0106199999999999999999-00151-00341099322ADDKA1010M-00161KA2010N-00241MA1999999099202MD1610341+9999OC101321OD190101111999REMSYN004BUFR
0089010010999992017010220004+70933-008667FM-12+000999999V0200501N009019999999N999999999-00121-00331099331ADDMA1999999099211MD1610141+9999REMSYN04801001 46/// /0509 11012 21033 39921 49933 56014=
0089010010999992017010221004+70933-008667FM-12+000999999V0200701N010019999999N999999999-00081-00351099341ADDMA1999999099221MD1510031+9999REMSYN04801001 46/// /0710 11008 21035 39922 49934 55003=
0089010010999992017010222004+70933-008667FM-12+000999999V0203601N010019999999N999999999-00171-00351099351ADDMA1999999099231MD1310031+9999REMSYN04801001 46/// /3610 11017 21035 39923 49935 53003=
0089010010999992017010223004+70933-008667FM-12+000999999V0200201N015019999999N999999999-00221-00331099471ADDMA1999999099351MD1310141+9999REMSYN04801001 46/// /0215 11022 21033 39935 49947 53014=
0228010010999992017010300004+70933-008667FM-12+000999999V0200101N011019999999N005000199-00211-00321099581ADDAA106000131AY171021AY271021GA1081+008001061GE19MSL   +99999+99999GF108991081999008001999999MA1999999099461MD1310251+9999MW1711OD139902001999REMSYN07601001 11550 80111 11021 21032 39946 49958 53025 69911 77177 885// 333 91120=
0093010010999992017010301004+70939-008669FM-12+001099999V0200051N0129199999999999999999-00171-00321099631ADDKA1010M-00151KA2010N-00231MA1999999099511MD1110281+9999OC101911OD190101431999REMSYN004BUFR
0089010010999992017010302004+70933-008667FM-12+000999999V0200201N011019999999N999999999-00111-00171099731ADDMA1999999099611MD1310251+9999REMSYN04801001 46/// /0211 11011 21017 39961 49973 53025=
0093010010999992017010303004+70939-008669FM-12+001099999V0200181N0141199999999999999999-00121-00201099911ADDKA1010M-00091KA2010N-00141MA1999999099791MD1310331+9999OC101831OD190101431999REMSYN004BUFR
0093010010999992017010304004+70939-008669FM-12+001099999V0200151N0153199999999999999999-00121-00261100091ADDKA1010M-00101KA2010N-00151MA1999999099971MD1310461+9999OC102021OD190101671999REMSYN004BUFR
0093010010999992017010305004+70939-008669FM-12+001099999V0203571N0125199999999999999999-00151-00261100251ADDKA1010M-00111KA2010N-00201MA1999999100131MD1210531+9999OC101761OD190101571999REMSYN004BUFR
0244010010999992017010306004+70939-008669FM-12+001099999V020999999999999999999003000199-00271-00321100431ADDAA112000831AA224001331AY181061AY271061GA1091+999999101GA2999+999999101GA3999+999999101GE19MSL   +99999+99999GF199999091999999999999999IA1289KA1120M-00081KA2120N-00271MA1999999100311MD1310521+9999MW1881OD190601671999UA19999999039REMSYN004BUFR
0093010010999992017010307004+70939-008669FM-12+001099999V0203531N0116199999999999999999-00341-00411100581ADDKA1010M-00271KA2010N-00341MA1999999100461MD1310491+9999OC101751OD190101611999REMSYN004BUFR
0089010010999992017010308004+70933-008667FM-12+000999999V0203401N014019999999N999999999-00421-00541100781ADDMA1999999100661MD1310531+9999REMSYN04801001 46/// /3414 11042 21054 30066 40078 53053=
0224010010999992017010309004+70939-008669FM-12+001099999V0203411N0119100300199004000199-00471-00651100971ADDAY181031AY271031GA1081+003001061GA2999+999999101GA3999+999999101GE19MSL   +99999+99999GF108991081999003001999999KA1010M-00421KA2010N-00471MA1999999100851MD1310551+9999MW1711OC101841OD190101611999UA19999999039REMSYN004BUFR
0093010010999992017010310004+70939-008669FM-12+001099999V0203401N0093199999999999999999-00491-00691101071ADDKA1010M-00461KA2010N-00491MA1999999100951MD1110491+9999OC101451OD190101301999REMSYN004BUFR
0093010010999992017010311004+70939-008669FM-12+001099999V0203411N0095199999999999999999-00521-00681101141ADDKA1010M-00481KA2010N-00521MA1999999101021MD1110361+9999OC101401OD190101111999REMSYN004BUFR
0235010010999992017010312004+70939-008669FM-12+001099999V0203311N0100199999999001000199-00551-00671101221ADDAA106002031AY171061AY231061GA1091+999999101GA2999+999999101GA3999+999999101GE19MSL   +99999+99999GF199999091999999999999999KA1010M-00511KA2010N-00571MA1999999101101MD1210251+9999MW1731OC101371OD190601611999UA19999999039REMSYN004BUFR
0093010010999992017010313004+70939-008669FM-12+001099999V0203291N0112199999999999999999-00621-00731101301ADDKA1010M-00551KA2010N-00631MA1999999101181MD1310231+9999OC101481OD190101281999REMSYN004BUFR
0089010010999992017010314004+70933-008667FM-12+000999999V0203301N013019999999N999999999-00691-00851101351ADDMA1999999101231MD1110211+9999REMSYN04801001 46/// /3313 11069 21085 30123 40135 51021=
0187010010999992017010315004+70933-008667FM-12+000999999V0203201N010019999999N004000199-00691-00891101471ADDAY171021AY231021GA1061+004501071GE19MSL   +99999+99999GF106991061999004501999999MA1999999101351MD1310251+9999MW1361REMSYN06001001 41440 63210 11069 21089 30135 40147 53025 73673 86600=
0089010010999992017010316004+70933-008667FM-12+000999999V0203301N012019999999N999999999-00701-00921101511ADDMA1999999101391MD1310211+9999REMSYN04801001 46/// /3312 11070 21092 30139 40151 53021=
0093010010999992017010317004+70939-008669FM-12+001099999V0203361N0096199999999999999999-00621-00921101581ADDKA1010M-00631KA2010N-00711MA1999999101461MD1110231+9999OC101501OD190101321999REMSYN004BUFR
0235010010999992017010318004+70939-008669FM-12+001099999V0203381N0116100300199010000199-00591-00791101631ADDAA112003031AY171061AY231061GA1071+003001061GA2999+999999101GA3999+999999101GE19MSL   +99999+99999GF107991071999003001999999KA1120M-00271KA2120N-00711MA1999999101511MD1310161+9999MW1711OC101721OD190601351999UA19999999039REMSYN004BUFR
0089010010999992017010319004+70933-008667FM-12+000999999V0203401N013019999999N999999999-00551-00701101731ADDMA1999999101611MD1310221+9999REMSYN04801001 46/// /3413 11055 21070 30161 40173 53022=
0089010010999992017010320004+70933-008667FM-12+000999999V0203301N012019999999N999999999-00551-00631101801ADDMA1999999101681MD1310221+9999REMSYN04801001 46/// /3312 11055 21063 30168 40180 53022=
0093010010999992017010321004+70939-008669FM-12+001099999V0203271N0113199999999999999999-00541-00671101921ADDKA1010M-00541KA2010N-00561MA1999999101801MD1310291+9999OC101901OD190101351999REMSYN004BUFR
0089010010999992017010322004+70933-008667FM-12+000999999V0203201N012019999999N999999999-00571-00741102001ADDMA1999999101881MD1310271+9999REMSYN04801001 46/// /3212 11057 21074 30188 40200 53027=
0089010010999992017010323004+70933-008667FM-12+000999999V0203301N012019999999N999999999-00551-00831102061ADDMA1999999101941MD1110251+9999REMSYN04801001 46/// /3312 11055 21083 30194 40206 51025=
0228010010999992017010400004+70933-008667FM-12+000999999V0203301N010019999999N030000199-00541-00871102151ADDAA106001031AY171021AY231021GA1051+012501061GE19MSL   +99999+99999GF105991051999012501999999MA1999999102031MD1310231+9999MW1711OD139902101999REMSYN07601001 11680 53310 11054 21087 30203 40215 53023 60011 77173 85500 333 91121=
0089010010999992017010401004+70933-008667FM-12+000999999V0203301N010019999999N999999999-00561-00871102201ADDMA1999999102081MD1210201+9999REMSYN04801001 46/// /3310 11056 21087 30208 40220 52020=
0093010010999992017010402004+70939-008669FM-12+001099999V0203351N0110199999999999999999-00571-00971102191ADDKA1010M-00551KA2010N-00601MA1999999102071MD1010141+9999OC101831OD190101171999REMSYN004BUFR
0089010010999992017010403004+70933-008667FM-12+000999999V0203301N011019999999N999999999-00621-01021102241ADDMA1999999102121MD1310081+9999REMSYN04801001 46/// /3311 11062 21102 30212 40224 53008=
0089010010999992017010404004+70933-008667FM-12+000999999V0203301N012019999999N999999999-00631-00901102241ADDMA1999999102121MD1310041+9999REMSYN04801001 46/// /3312 11063 21090 30212 40224 53004=
0089010010999992017010405004+70933-008667FM-12+000999999V0203401N008019999999N999999999-00601-00951102281ADDMA1999999102161MD1310081+9999REMSYN04801001 46/// /3408 11060 21095 30216 40228 53008=
0252010010999992017010406004+70939-008669FM-12+001099999V0203251N0111100600199015000199-00591-00931102231ADDAA112001431AA224004431AY171061AY231061GA1081+006001061GA2999+999999101GA3999+999999101GE19MSL   +99999+99999GF108991081999006001999999IA1289KA1120M-00511KA2120N-00641MA1999999102111MD1010001+9999MW1711OC101881OD190601261999UA19999999039REMSYN004BUFR
0093010010999992017010407004+70939-008669FM-12+001099999V0203401N0073199999999999999999-00571-00961102311ADDKA1010M-00561KA2010N-00601MA1999999102191MD1310071+9999OC101381OD190101161999REMSYN004BUFR
0089010010999992017010408004+70933-008667FM-12+000999999V0203301N003019999999N999999999-00571-01001102281ADDMA1999999102161MD1510001+9999REMSYN04801001 46/// /3303 11057 21100 30216 40228 55000=
0224010010999992017010409004+70939-008669FM-12+001099999V0202501N0029100600199050000199-00571-01071102281ADDAY121031AY221031GA1071+006001061GA2999+999999101GA3999+999999101GE19MSL   +99999+99999GF107991071999006001999999KA1010M-00571KA2010N-00581MA1999999102161MD1010051+9999MW1021OC100761OD190101161999UA19999999039REMSYN004BUFR
0089010010999992017010410004+70933-008667FM-12+000999999V0202501N004019999999N999999999-00551-01071102241ADDMA1999999102121MD1810071+9999REMSYN04801001 46/// /2504 11055 21107 30212 40224 58007=
0089010010999992017010411004+70933-008667FM-12+000999999V0202601N004019999999N999999999-00531-01131102191ADDMA1999999102071MD1810091+9999REMSYN04801001 46/// /2604 11053 21113 30207 40219 58009=
0235010010999992017010412004+70939-008669FM-12+001099999V0202271N0042199999999075000199-00541-01111102141ADDAA106999999AY121061AY221061GA1021+003001061GA2999+999999031GA3999+999999021GE19MSL   +99999+99999GF106991021999003001999999KA1010M-00521KA2010N-00571MA1999999102021MD1810141+9999MW1021OC100601OD190601161999UA19999999039REMSYN004BUFR
0089010010999992017010413004+70933-008667FM-12+000999999V0202101N004019999999N999999999-00461-00851102081ADDMA1999999101961MD1810161+9999REMSYN04801001 46/// /2104 11046 21085 30196 40208 58016=
0089010010999992017010414004+70933-008667FM-12+000999999V0202301N004019999999N999999999-00361-00711102021ADDMA1999999101901MD1710161+9999REMSYN04801001 46/// /2304 11036 21071 30190 40202 57016=
0187010010999992017010415004+70933-008667FM-12+000999999V0202301N007019999999N015000199-00281-00581101901ADDAY171021AY221021GA1081+004501061GE19MSL   +99999+99999GF108991081999004501999999MA1999999101781MD1810241+9999MW1701REMSYN06001001 41465 82307 11028 21058 30178 40190 58024 77072 885//=
0089010010999992017010416004+70933-008667FM-12+000999999V0202301N007019999999N999999999-00241-00611101781ADDMA1999999101661MD1810301+9999REMSYN04801001 46/// /2307 11024 21061 30166 40178 58030=
0089010010999992017010417004+70933-008667FM-12+000999999V0202301N008019999999N999999999-00231-00611101671ADDMA1999999101551MD1710351+9999REMSYN04801001 46/// /2308 11023 21061 30155 40167 57035=
0247010010999992017010418004+70933-008667FM-12+000999999V0202301N008019999999N020000199-00211-00611101591ADDAA112000131AY171021AY221021GA1081+008001061GE19MSL   +99999+99999GF108991081999008001999999KA1120M-00211MA1999999101471MD1610301+9999MW1021OD139901401999REMSYN08201001 11570 82308 11021 21061 30147 40159 56030 69912 70272 885// 333 11021 91114=
0089010010999992017010419004+70933-008667FM-12+000999999V0202101N012019999999N999999999-00171-00501101441ADDMA1999999101321MD1810341+9999REMSYN04801001 46/// /2112 11017 21050 30132 40144 58034=
0089010010999992017010420004+70933-008667FM-12+000999999V0202101N011019999999N999999999-00101-00361101341ADDMA1999999101221MD1810331+9999REMSYN04801001 46/// /2111 11010 21036 30122 40134 58033=
0089010010999992017010421004+70933-008667FM-12+000999999V0202101N013019999999N999999999-00031-00261101191ADDMA1999999101071MD1810401+9999REMSYN04801001 46/// /2113 11003 21026 30107 40119 58040=
0089010010999992017010422004+70933-008667FM-12+000999999V0202201N008019999999N999999999+00041-00191101101ADDMA1999999100981MD1810341+9999REMSYN04801001 46/// /2208 10004 21019 30098 40110 58034=
0089010010999992017010423004+70933-008667FM-12+000999999V0202101N011019999999N999999999+00071-00051100951ADDMA1999999100831MD1810391+9999REMSYN04801001 46/// /2111 10007 21005 30083 40095 58039=
0228010010999992017010500004+70933-008667FM-12+000999999V0202101N010019999999N005000199+00131+00041100831ADDAA106000131AY171021AY261021GA1081+002501051GE19MSL   +99999+99999GF108991081999002501999999MA1999999100711MD1810371+9999MW1631OD139901801999REMSYN07601001 11350 82110 10013 20004 30071 40083 58037 69911 76376 8802/ 333 91118=
0089010010999992017010501004+70933-008667FM-12+000999999V0202101N010019999999N999999999+00161+00021100771ADDMA1999999100651MD1610331+9999REMSYN04801001 46/// /2110 10016 20002 30065 40077 56033=
0089010010999992017010502004+70933-008667FM-12+000999999V0202101N008019999999N999999999+00171+00041100691ADDMA1999999100571MD1610261+9999REMSYN04801001 46/// /2108 10017 20004 30057 40069 56026=
0089010010999992017010503004+70933-008667FM-12+000999999V0202101N006019999999N999999999+00201+00091100611ADDMA1999999100491MD1810221+9999REMSYN04801001 46/// /2106 10020 20009 30049 40061 58022=
0089010010999992017010504004+70933-008667FM-12+000999999V0202101N006019999999N999999999+00231+00081100541ADDMA1999999100421MD1810221+9999REMSYN04801001 46/// /2106 10023 20008 30042 40054 58022=
0089010010999992017010505004+70933-008667FM-12+000999999V0202101N007019999999N999999999+00231+00061100491ADDMA1999999100371MD1610201+9999REMSYN04801001 46/// /2107 10023 20006 30037 40049 56020=
0293010010999992017010506004+70933-008667FM-12+000999999V0202301N007019999999N010000199+00231+00061100421ADDAA112000331AA224000431AJ199991999999999AY161021AY221021GA1081+004501061GE19MSL   +99999+99999GF108991081999004501999999IA1269KA1240N-00221MA1999999100301MD1810181+9999MW1021OD139901501999REMSYN09401001 11460 82307 10023 20006 30030 40042 58018 69932 70262 885// 333 21022 42999 70004 91115=
0089010010999992017010507004+70933-008667FM-12+000999999V0202301N007019999999N999999999+00241+00071100371ADDMA1999999100251MD1810181+9999REMSYN04801001 46/// /2307 10024 20007 30025 40037 58018=
0089010010999992017010508004+70933-008667FM-12+000999999V0202101N008019999999N999999999+00181+00061100301ADDMA1999999100181MD1710191+9999REMSYN04801001 46/// /2108 10018 20006 30018 40030 57019=
0187010010999992017010509004+70933-008667FM-12+000999999V0202001N006019999999N010000199+00161+00061100261ADDAY161021AY221021GA1071+004501061GE19MSL   +99999+99999GF107991071999004501999999MA1999999100141MD1710161+9999MW1021REMSYN06001001 41460 72006 10016 20006 30014 40026 57016 70262 875//=
0089010010999992017010510004+70933-008667FM-12+000999999V0201901N004019999999N999999999+00151+00091100201ADDMA1999999100081MD1710171+9999REMSYN04801001 46/// /1904 10015 20009 30008 40020 57017=
0089010010999992017010511004+70933-008667FM-12+000999999V0202101N003019999999N999999999+00141+00081100081ADDMA1999999099961MD1810221+9999REMSYN04801001 46/// /2103 10014 20008 39996 40008 58022=
0235010010999992017010512004+70939-008669FM-12+001099999V0201901N0029100100199008000199+00151+00101099931ADDAA106999999AY151061AY221061GA1081+001001071GA2999+999999101GA3999+999999101GE19MSL   +99999+99999GF108991081999001001999999KA1010M+00171KA2010N+00141MA1999999099811MD1810331+9999MW1101OC101141OD190600911999UA19999999039REMSYN004BUFR
0089010010999992017010513004+70933-008667FM-12+000999999V0201501N005019999999N999999999+00161+00111099801ADDMA1999999099681MD1810401+9999REMSYN04801001 46/// /1505 10016 20011 39968 49980 58040=
0089010010999992017010514004+70933-008667FM-12+000999999V0201401N005019999999N999999999+00161+00111099631ADDMA1999999099511MD1810441+9999REMSYN04801001 46/// /1405 10016 20011 39951 49963 58044=
0187010010999992017010515004+70933-008667FM-12+000999999V0201201N007019999999N005000199+00151+00081099451ADDAY161021AY221021GA1081+001501051GE19MSL   +99999+99999GF108991081999001501999999MA1999999099331MD1810481+9999MW1631REMSYN06001001 41250 81207 10015 20008 39933 49945 58048 76362 8802/=
0089010010999992017010516004+70933-008667FM-12+000999999V0201001N008019999999N999999999+00151+00111099181ADDMA1999999099061MD1810621+9999REMSYN04801001 46/// /1008 10015 20011 39906 49918 58062=
0089010010999992017010517004+70933-008667FM-12+000999999V0201001N008019999999N999999999+00151+00121098901ADDMA1999999098781MD1810731+9999REMSYN04801001 46/// /1008 10015 20012 39878 49890 58073=
0263010010999992017010518004+70933-008667FM-12+000999999V0201301N008019999999N002000199+00231+00211098611ADDAA112003031AY161021AY221021GA1041+001501071GA2999+999999051GE19MSL   +99999+99999GF108991041999001501999999KA1120M+00241MA1999999098501MD1810831+9999MW1651OD139901101999REMSYN08201001 11220 81308 10023 20021 39850 49861 58083 60032 76562 8472/ 333 10024 91111=
0089010010999992017010519004+70933-008667FM-12+000999999V0201301N010019999999N999999999+00261+00231098271ADDMA1999999098161MD1810901+9999REMSYN04801001 46/// /1310 10026 20023 39816 49827 58090=
0089010010999992017010520004+70933-008667FM-12+000999999V0201501N010019999999N999999999+00281+00231097931ADDMA1999999097821MD1810971+9999REMSYN04801001 46/// /1510 10028 20023 39782 49793 58097=
0089010010999992017010521004+70933-008667FM-12+000999999V0201501N011019999999N999999999+00281+00251097591ADDMA1999999097481MD1811021+9999REMSYN04801001 46/// /1511 10028 20025 39748 49759 58102=
0093010010999992017010522004+70939-008669FM-12+001099999V0202641N0115199999999999999999+00251-00101097441ADDKA1010M+00291KA2010N+00151MA1999999097331MD1610821+9999OC101631OD190101571999REMSYN004BUFR
0089010010999992017010523004+70933-008667FM-12+000999999V0202201N011019999999N999999999+00101-00161097611ADDMA1999999097501MD1510311+9999REMSYN04801001 46/// /2211 10010 21016 39750 49761 55031=
0235010010999992017010600004+70939-008669FM-12+001099999V0202191N0106199999999005000199+00021-00461097631ADDAA106005531AY171061AY221061GA1041+003001071GA2999+999999051GA3999+999999101GE19MSL   +99999+99999GF108991041999003001999999KA1010M+00111KA2010N+00021MA1999999097521MD1310041+9999MW1681OC101401OD190601571999UA19999999039REMSYN004BUFR
0089010010999992017010601004+70933-008667FM-12+000999999V0202201N010019999999N999999999+00001-00361097631ADDMA1999999097521MD1110181+9999REMSYN04801001 46/// /2210 10000 21036 39752 49763 51018=
0089010010999992017010602004+70933-008667FM-12+000999999V0202301N011019999999N999999999-00021-00481097611ADDMA1999999097501MD1990001+9999REMSYN04801001 46/// /2311 11002 21048 39750 49761 50000=
0089010010999992017010603004+70933-008667FM-12+000999999V0202101N012019999999N999999999+00001-00421097541ADDMA1999999097431MD1810091+9999REMSYN04801001 46/// /2112 10000 21042 39743 49754 58009=
0089010010999992017010604004+70933-008667FM-12+000999999V0201901N014019999999N999999999-00061-00201097341ADDMA1999999097231MD1810281+9999REMSYN04801001 46/// /1914 11006 21020 39723 49734 58028=
0089010010999992017010605004+70933-008667FM-12+000999999V0202101N012019999999N999999999-00031-00251097251ADDMA1999999097141MD1810361+9999REMSYN04801001 46/// /2112 11003 21025 39714 49725 58036=
0252010010999992017010606004+70939-008669FM-12+001099999V0202121N0109100600199005000199-00151-00591097261ADDAA112005631AA224008831AY181061AY271061GA1081+006001091GA2999+999999101GA3999+999999101GE19MSL   +99999+99999GF108991081999006001999999IA1199KA1120M+00291KA2120N-00161MA1999999097151MD1610281+9999MW1871OC101511OD190601511999UA19999999049REMSYN004BUFR
0089010010999992017010607004+70933-008667FM-12+000999999V0202101N005019999999N999999999-00231-00511097291ADDMA1999999097181MD1510051+9999REMSYN04801001 46/// /2105 11023 21051 39718 49729 55005=
0089010010999992017010608004+70933-008667FM-12+000999999V0203001N005019999999N999999999-00301-00681097321ADDMA1999999097201MD1310061+9999REMSYN04801001 46/// /3005 11030 21068 39720 49732 53006=
0187010010999992017010609004+70933-008667FM-12+000999999V0202901N006019999999N003000199-00281-00471097351ADDAY181021AY221021GA1071+004501081GE19MSL   +99999+99999GF107991071999004501999999MA1999999097231MD1210081+9999MW1851REMSYN06001001 41430 72906 11028 21047 39723 49735 52008 78582 878//=
0089010010999992017010610004+70933-008667FM-12+000999999V0203601N004019999999N999999999-00151-00311097471ADDMA1999999097361MD1310171+9999REMSYN04801001 46/// /3604 11015 21031 39736 49747 53017=
0089010010999992017010611004+70933-008667FM-12+000999999V0203401N016019999999N999999999-00411-00501097901ADDMA1999999097781MD1310581+9999REMSYN04801001 46/// /3416 11041 21050 39778 49790 53058=
0235010010999992017010612004+70939-008669FM-12+001099999V0203501N0181100300199000200199-00471-00711098241ADDAA106000531AY181061AY221061GA1081+003001081GA2999+999999101GA3999+999999101GE19MSL   +99999+99999GF108991081999003001999999KA1010M-00391KA2010N-00481MA1999999098121MD1310891+9999MW1851OC102911OD190602021999UA19999999049REMSYN004BUFR
0089010010999992017010613004+70933-008667FM-12+000999999V0203501N016019999999N999999999-00441-00681098521ADDMA1999999098401MD1111041+9999REMSYN04801001 46/// /3516 11044 21068 39840 49852 51104=
0093010010999992017010614004+70939-008669FM-12+001099999V0203451N0141199999999999999999-00401-00661098821ADDKA1010M-00391KA2010N-00451MA1999999098701MD1310921+9999OC102501OD190101761999REMSYN004BUFR
0224010010999992017010615004+70939-008669FM-12+001099999V0203481N0132100300199002000199-00421-00651099141ADDAY171031AY221031GA1081+003001061GA2999+999999101GA3999+999999101GE19MSL   +99999+99999GF108991081999003001999999KA1010M-00401KA2010N-00441MA1999999099021MD1310901+9999MW1711OC102481OD190101891999UA19999999049REMSYN004BUFR
0089010010999992017010616004+70933-008667FM-12+000999999V0203401N014019999999N999999999-00431-00651099361ADDMA1999999099241MD1210841+9999REMSYN04801001 46/// /3414 11043 21065 39924 49936 52084=
0093010010999992017010617004+70939-008669FM-12+001099999V0203381N0155199999999999999999-00441-00691099491ADDKA1010M-00421KA2010N-00441MA1999999099371MD1110681+9999OC102531OD190101601999REMSYN004BUFR
0235010010999992017010618004+70939-008669FM-12+001099999V0203461N0153100300199005000199-00401-00621099731ADDAA112000131AY171061AY221061GA1081+003001061GA2999+999999101GA3999+999999101GE19MSL   +99999+99999GF108991081999003001999999KA1120M-00121KA2120N-00511MA1999999099611MD1310601+9999MW1361OC102481OD190601891999UA19999999049REMSYN004BUFR
0089010010999992017010619004+70933-008667FM-12+000999999V0203301N015019999999N999999999-00411-00611099991ADDMA1999999099871MD1310621+9999REMSYN04801001 46/// /3315 11041 21061 39987 49999 53062=
0089010010999992017010620004+70933-008667FM-12+000999999V0203401N014019999999N999999999-00391-00561100161ADDMA1999999100041MD1110671+9999REMSYN04801001 46/// /3414 11039 21056 30004 40016 51067=
0089010010999992017010621004+70933-008667FM-12+000999999V0203401N012019999999N999999999-00381-00551100331ADDMA1999999100211MD1110601+9999REMSYN04801001 46/// /3412 11038 21055 30021 40033 51060=
0089010010999992017010622004+70933-008667FM-12+000999999V0203401N010019999999N999999999-00361-00571100491ADDMA1999999100371MD1110511+9999REMSYN04801001 46/// /3410 11036 21057 30037 40049 51051=
0089010010999992017010623004+70933-008667FM-12+000999999V0203501N007019999999N999999999-00371-00591100651ADDMA1999999100531MD1110481+9999REMSYN04801001 46/// /3507 11037 21059 30053 40065 51048=
0235010010999992017010700004+70939-008669FM-12+001099999V0203081N0051100600199030000199-00391-00651100741ADDAA106999999AY121061AY221061GA1081+006001061GA2999+999999101GA3999+999999101GE19MSL   +99999+99999GF108991081999006001999999KA1010M-00361KA2010N-00401MA1999999100621MD1110411+9999MW1021OC101111OD190601581999UA19999999039REMSYN004BUFR
0093010010999992017010701004+70939-008669FM-12+001099999V0202811N0050199999999999999999-00401-00681100811ADDKA1010M-00391KA2010N-00421MA1999999100691MD1110321+9999OC101191OD190100721999REMSYN004BUFR
0093010010999992017010702004+70939-008669FM-12+001099999V0202811N0056199999999999999999-00401-00661100852ADDKA1010M-00401KA2010N-00421MA1999999100732MD1110211+9999OC101151OD190100681999REMSYN004BUFR
0089010010999992017010703004+70933-008667FM-12+000999999V0203001N008019999999N999999999-00391-00681100831ADDMA1999999100711MD1990091+9999REMSYN04801001 46/// /3008 11039 21068 30071 40083 50009=
0089010010999992017010704004+70933-008667FM-12+000999999V0203001N009019999999N999999999-00391-00721100761ADDMA1999999100641MD1810051+9999REMSYN04801001 46/// /3009 11039 21072 30064 40076 58005=
0089010010999992017010705004+70933-008667FM-12+000999999V0202801N008019999999N999999999-00361-00681100761ADDMA1999999100641MD1610091+9999REMSYN04801001 46/// /2808 11036 21068 30064 40076 56009=
0293010010999992017010706004+70933-008667FM-12+000999999V0202401N003019999999N040000199-00361-00671100731ADDAA112000091AA224000131AJ199991999999999AY111021AY201021GA1021+008001061GE19MSL   +99999+99999GF102991021999008001999999IA1229KA1240N-00421MA1999999100611MD1810091+9999MW1011OD139901501999REMSYN09401001 11582 22403 11036 21067 30061 40073 58009 60002 70110 82500 333 21042 46999 70001 91115=
0089010010999992017010707004+70933-008667FM-12+000999999V0202901N001019999999N999999999-00371-00671100671ADDMA1999999100551MD1810091+9999REMSYN04801001 46/// /2901 11037 21067 30055 40067 58009=
0093010010999992017010708004+70939-008669FM-12+001099999V0201991N0068199999999999999999-00241-00531100541ADDKA1010M-00241KA2010N-00401MA1999999100421MD1810221+9999OC100911OD190100681999REMSYN004BUFR
0187010010999992017010709004+70933-008667FM-12+000999999V0201901N010019999999N040000199-00151-00511100441ADDAY121021AY211021GA1081+012501061GE19MSL   +99999+99999GF108991081999012501999999MA1999999100321MD1810291+9999MW1031REMSYN06001001 41682 81910 11015 21051 30032 40044 58029 70321 885//=
0089010010999992017010710004+70933-008667FM-12+000999999V0201801N012019999999N999999999-00141-00541100321ADDMA1999999100201MD1810351+9999REMSYN04801001 46/// /1812 11014 21054 30020 40032 58035=
0089010010999992017010711004+70933-008667FM-12+000999999V0201701N011019999999N999999999-00231-00311100101ADDMA1999999099981MD1810441+9999REMSYN04801001 46/// /1711 11023 21031 39998 40010 58044=
0219010010999992017010712004+70939-008669FM-12+001099999V0201601N0115100200199000600199-00151-00171099901ADDAA106000231AY171061AY221061GA1081+002001051GA2999+999999101GE19MSL   +99999+99999GF108991081999002001999999KA1010M-00151KA2010N-00241MA1999999099781MD1810551+9999MW1731OC101341OD190601301999UA19999999039REMSYN004BUFR
0089010010999992017010713004+70933-008667FM-12+000999999V0201601N008019999999N999999999+00001-00011099651ADDMA1999999099531MD1810671+9999REMSYN04801001 46/// /1608 10000 21001 39953 49965 58067=
0089010010999992017010714004+70933-008667FM-12+000999999V0202201N009019999999N999999999+00171+00151099401ADDMA1999999099281MD1810701+9999REMSYN04801001 46/// /2209 10017 20015 39928 49940 58070=
0187010010999992017010715004+70933-008667FM-12+000999999V0202401N010019999999N010000199+00211-00041099311ADDAY161021AY221021GA1071+008001061GE19MSL   +99999+99999GF107991071999008001999999MA1999999099191MD1610581+9999MW1151REMSYN06001001 41560 72410 10021 21004 39919 49931 56058 71562 875//=
0089010010999992017010716004+70933-008667FM-12+000999999V0202501N011019999999N999999999+00161-00191099231ADDMA1999999099111MD1610411+9999REMSYN04801001 46/// /2511 10016 21019 39911 49923 56041=
0089010010999992017010717004+70933-008667FM-12+000999999V0202501N012019999999N999999999+00121-00131099221ADDMA1999999099101MD1610171+9999REMSYN04801001 46/// /2512 10012 21013 39910 49922 56017=
0235010010999992017010718004+70939-008669FM-12+001099999V0202511N0130100300199010000199-00021-00261099151ADDAA112003131AY171061AY261061GA1081+003001061GA2999+999999101GA3999+999999101GE19MSL   +99999+99999GF108991081999003001999999KA1120M+00221KA2120N-00401MA1999999099031MD1810161+9999MW1031OC101841OD190601381999UA19999999039REMSYN004BUFR
0093010010999992017010719004+70939-008669FM-12+001099999V0202511N0133199999999999999999-00091-00391099141ADDKA1010M-00021KA2010N-00091MA1999999099021MD1810091+9999OC101861OD190101431999REMSYN004BUFR
0089010010999992017010720004+70933-008667FM-12+000999999V0202501N013019999999N999999999-00131-00451099121ADDMA1999999099001MD1610111+9999REMSYN04801001 46/// /2513 11013 21045 39900 49912 56011=
0093010010999992017010721004+70939-008669FM-12+001099999V0202531N0121199999999999999999-00171-00481099121ADDKA1010M-00131KA2010N-00171MA1999999099001MD1510031+9999OC101921OD190101441999REMSYN004BUFR
0093010010999992017010722004+70939-008669FM-12+001099999V0202691N0113199999999999999999-00201-00531099101ADDKA1010M-00171KA2010N-00201MA1999999098981MD1610041+9999OC101751OD190101261999REMSYN004BUFR
0089010010999992017010723004+70933-008667FM-12+000999999V0202701N011019999999N999999999-00201-00531099071ADDMA1999999098951MD1810051+9999REMSYN04801001 46/// /2711 11020 21053 39895 49907 58005=
0228010010999992017010800004+70933-008667FM-12+000999999V0202801N011019999999N020000199-00251-00521099041ADDAA106000091AY121021AY221021GA1061+004501061GE19MSL   +99999+99999GF106991061999004501999999MA1999999098921MD1710081+9999MW1361OD139902101999REMSYN07601001 11470 62811 11025 21052 39892 49904 57008 60001 73622 86500 333 91121=
0089010010999992017010801004+70933-008667FM-12+000999999V0202701N009019999999N999999999-00311-00601099061ADDMA1999999098941MD1510041+9999REMSYN04801001 46/// /2709 11031 21060 39894 49906 55004=
0089010010999992017010802004+70933-008667FM-12+000999999V0202701N011019999999N999999999-00331-00691099031ADDMA1999999098911MD1510031+9999REMSYN04801001 46/// /2711 11033 21069 39891 49903 55003=
0089010010999992017010803004+70933-008667FM-12+000999999V0202701N009019999999N999999999-00361-00671099091ADDMA1999999098971MD1310051+9999REMSYN04801001 46/// /2709 11036 21067 39897 49909 53005=
0089010010999992017010804004+70933-008667FM-12+000999999V0202701N007019999999N999999999-00391-00691099131ADDMA1999999099011MD1310071+9999REMSYN04801001 46/// /2707 11039 21069 39901 49913 53007=
0089010010999992017010805004+70933-008667FM-12+000999999V0202801N008019999999N999999999-00471-00811099181ADDMA1999999099061MD1210151+9999REMSYN04801001 46/// /2808 11047 21081 39906 49918 52015=
0252010010999992017010806004+70939-008669FM-12+001099999V0202761N0061100600199040000199-00501-00931099291ADDAA112999999AA224003131AY171061AY221061GA1071+006001061GA2999+999999101GA3999+999999101GE19MSL   +99999+99999GF107991071999006001999999IA1289KA1120M-00021KA2120N-00511MA1999999099171MD1310201+9999MW1711OC101161OD190601171999UA19999999049REMSYN004BUFR
0093010010999992017010807004+70939-008669FM-12+001099999V0202911N0085199999999999999999-00591-00951099401ADDKA1010M-00511KA2010N-00591MA1999999099281MD1310261+9999OC101411OD190100851999REMSYN004BUFR
0093010010999992017010808004+70939-008669FM-12+001099999V0202931N0083199999999999999999-00641-01061099521ADDKA1010M-00591KA2010N-00641MA1999999099401MD1310341+9999OC101551OD190100911999REMSYN004BUFR
0224010010999992017010809004+70939-008669FM-12+001099999V0202851N0075100300199003000199-00671-01141099631ADDAY171031AY221031GA1071+003001061GA2999+999999101GA3999+999999101GE19MSL   +99999+99999GF107991071999003001999999KA1010M-00641KA2010N-00681MA1999999099511MD1210341+9999MW1711OC101361OD190100911999UA19999999049REMSYN004BUFR
0093010010999992017010810004+70939-008669FM-12+001099999V0202751N0083199999999999999999-00701-01121099741ADDKA1010M-00671KA2010N-00701MA1999999099621MD1210351+9999OC101491OD190100861999REMSYN004BUFR
0089010010999992017010811004+70933-008667FM-12+000999999V0202701N007019999999N999999999-00711-01001099851ADDMA1999999099731MD1310331+9999REMSYN04801001 46/// /2707 11071 21100 39973 49985 53033=
0235010010999992017010812004+70939-008669FM-12+001099999V0203071N0061100300199020000199-00701-01181099941ADDAA106000131AY171061AY231061GA1071+003001061GA2999+999999101GA3999+999999101GE19MSL   +99999+99999GF107991071999003001999999KA1010M-00691KA2010N-00731MA1999999099821MD1310321+9999MW1711OC102121OD190600991999UA19999999039REMSYN004BUFR
0093010010999992017010813004+70939-008669FM-12+001099999V0203051N0074199999999999999999-00721-01011100051ADDKA1010M-00671KA2010N-00731MA1999999099931MD1310321+9999OC101641OD190100851999REMSYN004BUFR
0093010010999992017010814004+70939-008669FM-12+001099999V0203531N0086199999999999999999-00651-01111100151ADDKA1010M-00661KA2010N-00731MA1999999100031MD1310301+9999OC101691OD190100861999REMSYN004BUFR
0224010010999992017010815004+70939-008669FM-12+001099999V0202941N0048100300199007000199-00671-01021100241ADDAY171031AY231031GA1071+003001061GA2999+999999101GA3999+999999101GE19MSL   +99999+99999GF107991071999003001999999KA1010M-00661KA2010N-00701MA1999999100121MD1210291+9999MW1711OC101171OD190101071999UA19999999039REMSYN004BUFR
0093010010999992017010816004+70939-008669FM-12+001099999V0202761N0063199999999999999999-00651-00831100311ADDKA1010M-00651KA2010N-00691MA1999999100191MD1210251+9999OC101111OD190100801999REMSYN004BUFR
0089010010999992017010817004+70933-008667FM-12+000999999V0203401N007019999999N999999999-00621-00881100391ADDMA1999999100271MD1210251+9999REMSYN04801001 46/// /3407 11062 21088 30027 40039 52025=
0235010010999992017010818004+70939-008669FM-12+001099999V0203441N0077100600199003000199-00601-00861100481ADDAA112000831AY171061AY231061GA1071+006001061GA2999+999999101GA3999+999999101GE19MSL   +99999+99999GF107991071999006001999999KA1120M-00511KA2120N-00731MA1999999100361MD1310251+9999MW1711OC101211OD190601071999UA19999999039REMSYN004BUFR
0093010010999992017010819004+70939-008669FM-12+001099999V0203461N0051199999999999999999-00601-00951100601ADDKA1010M-00601KA2010N-00611MA1999999100481MD1310291+9999OC100931OD190100871999REMSYN004BUFR
0093010010999992017010820004+70939-008669FM-12+001099999V0203421N0066199999999999999999-00641-00871100691ADDKA1010M-00591KA2010N-00641MA1999999100571MD1310301+9999OC101391OD190100661999REMSYN004BUFR
0089010010999992017010821004+70933-008667FM-12+000999999V0203401N008019999999N999999999-00651-00941100761ADDMA1999999100641MD1110281+9999REMSYN04801001 46/// /3408 11065 21094 30064 40076 51028=
0089010010999992017010822004+70933-008667FM-12+000999999V0203601N007019999999N999999999-00651-00901100771ADDMA1999999100651MD1110171+9999REMSYN04801001 46/// /3607 11065 21090 30065 40077 51017=
0089010010999992017010823004+70933-008667FM-12+000999999V0203601N005019999999N999999999-00671-00931100811ADDMA1999999100691MD1110121+9999REMSYN04801001 46/// /3605 11067 21093 30069 40081 51012=
0228010010999992017010900004+70933-008667FM-12+000999999V0203501N007019999999N001000199-00701-00901100801ADDAA106002031AY171021AY221021GA1081+008001061GE19MSL   +99999+99999GF108991081999008001999999MA1999999100681MD1990041+9999MW1731OD139901401999REMSYN07601001 11510 83507 11070 21090 30068 40080 50004 60021 77372 885// 333 91114=
0089010010999992017010901004+70933-008667FM-12+000999999V0203601N008019999999N999999999-00701-01091100811ADDMA1999999100691MD1990041+9999REMSYN04801001 46/// /3608 11070 21109 30069 40081 50004=
0089010010999992017010902004+70933-008667FM-12+000999999V0203601N008019999999N999999999-00701-01181100821ADDMA1999999100701MD1210011+9999REMSYN04801001 46/// /3608 11070 21118 30070 40082 52001=
0089010010999992017010903004+70933-008667FM-12+000999999V0203601N011019999999N999999999-00741-00971100851ADDMA1999999100731MD1210051+9999REMSYN04801001 46/// /3611 11074 21097 30073 40085 52005=
0089010010999992017010904004+70933-008667FM-12+000999999V0203501N009019999999N999999999-00781-01151100851ADDMA1999999100731MD1210041+9999REMSYN04801001 46/// /3509 11078 21115 30073 40085 52004=
0093010010999992017010905004+70939-008669FM-12+001099999V0203491N0084199999999999999999-00771-01161100861ADDKA1010M-00771KA2010N-00781MA1999999100741MD1210041+9999OC101171OD190100931999REMSYN004BUFR
0252010010999992017010906004+70939-008669FM-12+001099999V0203531N0088101000199010000199-00801-01211100861ADDAA112001631AA224002431AY171061AY221061GA1081+010001061GA2999+999999101GA3999+999999101GE19MSL   +99999+99999GF108991081999010001999999IA1289KA1120M-00591KA2120N-00821MA1999999100741MD1210021+9999MW1711OC101121OD190601091999UA19999999039REMSYN004BUFR
0093010010999992017010907004+70939-008669FM-12+001099999V0203501N0090199999999999999999-00851-01281100871ADDKA1010M-00801KA2010N-00861MA1999999100751MD1210021+9999OC101321OD190100991999REMSYN004BUFR
0089010010999992017010908004+70933-008667FM-12+000999999V0203601N009019999999N999999999-00861-01431100871ADDMA1999999100751MD1210011+9999REMSYN04801001 46/// /3609 11086 21143 30075 40087 52001=
0243010010999992017010909004+70939-008669FM-12+001099999V0200061N0079100600199030000199-00871-01391100871ADDAY171031AY221031GA1071+006001061GA2999+999999101GA3999+999999101GE19MSL   +99999+99999GF107991071999006001999999KA1010M-00851KA2010N-00871MA1999999100751MD1290019+9999MW1021OC101071OD190101031999UA19999999039REMSYN004BUFREQDQ01.1    3APC3  
0089010010999992017010910004+70933-008667FM-12+000999999V0203501N007019999999N999999999-00891-01501100851ADDMA1999999100731MD1710021+9999REMSYN04801001 46/// /3507 11089 21150 30073 40085 57002=
0089010010999992017010911004+70933-008667FM-12+000999999V0200101N011019999999N999999999-00891-01361100811ADDMA1999999100691MD1810061+9999REMSYN04801001 46/// /0111 11089 21136 30069 40081 58006=
0248010010999992017010912004+70933-008667FM-12+000999999V0200201N007019999999N030000199-00841-01461100821ADDAA106000091AY121021AY221021GA1071+012501061GE19MSL   +99999+99999GF107991071999012501999999MA1999999100701MD1510051+9999MW1021OD139901401999SA1+0081REMSYN08801001 11680 70207 11084 21146 30070 40082 55005 60001 70222 875// 222// 00008 333 91114=
0089010010999992017010913004+70933-008667FM-12+000999999V0200101N007019999999N999999999-00821-01431100791ADDMA1999999100671MD1610061+9999REMSYN04801001 46/// /0107 11082 21143 30067 40079 56006=
0089010010999992017010914004+70933-008667FM-12+000999999V0200101N004019999999N999999999-00791-01451100771ADDMA1999999100651MD1510041+9999REMSYN04801001 46/// /0104 11079 21145 30065 40077 55004=
0187010010999992017010915004+70933-008667FM-12+000999999V0200501N006019999999N030000199-00731-01211100761ADDAY121021AY221021GA1071+008001061GE19MSL   +99999+99999GF107991071999008001999999MA1999999100641MD1510061+9999MW1021REMSYN06001001 41580 70506 11073 21121 30064 40076 55006 70222 875//=
0093010010999992017010916004+70939-008669FM-12+001099999V0203591N0064199999999999999999-00701-01231100711ADDKA1010M-00681KA2010N-00731MA1999999100591MD1810081+9999OC101001OD190100641999REMSYN004BUFR
0093010010999992017010917004+70939-008669FM-12+001099999V0200141N0067199999999999999999-00701-01241100691ADDKA1010M-00691KA2010N-00721MA1999999100571MD1810081+9999OC101001OD190101031999REMSYN004BUFR
0247010010999992017010918004+70933-008667FM-12+000999999V0200101N008019999999N030000199-00691-01221100681ADDAA112000091AY121021AY221021GA1051+012501061GE19MSL   +99999+99999GF105991051999012501999999KA1120M-00671MA1999999100561MD1610081+9999MW1011OD139901401999REMSYN08201001 11680 50108 11069 21122 30056 40068 56008 60002 70122 85500 333 11067 91114=
0093010010999992017010919004+70939-008669FM-12+001099999V0200121N0072199999999999999999-00641-01161100671ADDKA1010M-00641KA2010N-00701MA1999999100551MD1710041+9999OC100961OD190100861999REMSYN004BUFR
0093010010999992017010920004+70939-008669FM-12+001099999V0200141N0076199999999999999999-00621-01181100671ADDKA1010M-00621KA2010N-00641MA1999999100551MD1510021+9999OC101071OD190100811999REMSYN004BUFR
0093010010999992017010921004+70939-008669FM-12+001099999V0200301N0057199999999999999999-00671-01161100601ADDKA1010M-00621KA2010N-00671MA1999999100481MD1810081+9999OC100861OD190100861999REMSYN004BUFR
0089010010999992017010922004+70933-008667FM-12+000999999V0200301N005019999999N999999999-00711-01191100591ADDMA1999999100471MD1810081+9999REMSYN04801001 46/// /0305 11071 21119 30047 40059 58008=
0093010010999992017010923004+70939-008669FM-12+001099999V0203421N0048199999999999999999-00601-01191100551ADDKA1010M-00611KA2010N-00701MA1999999100431MD1610121+9999OC100691OD190100601999REMSYN004BUFR
0219010010999992017011000004+70939-008669FM-12+001099999V0203501N0017199999999030000199-00601-01211100481ADDAA106999999AY121061AY221061GA1031+006001061GA2999+999999021GE19MSL   +99999+99999GF108991031999006001999999KA1010M-00581KA2010N-00621MA1999999100361MD1810121+9999MW1031OC101161OD190600871999UA19999999039REMSYN004BUFR
0093010010999992017011001004+70939-008669FM-12+001099999V0201241N0031199999999999999999-00551-01191100441ADDKA1010M-00561KA2010N-00641MA1999999100321MD1610151+9999OC100911OD190100571999REMSYN004BUFR
0093010010999992017011002004+70939-008669FM-12+001099999V0200851N0051199999999999999999-00551-01221100361ADDKA1010M-00511KA2010N-00571MA1999999100241MD1810191+9999OC100831OD190100781999REMSYN004BUFR
0093010010999992017011003004+70939-008669FM-12+001099999V0200411N0029199999999999999999-00551-01171100311ADDKA1010M-00531KA2010N-00601MA1999999100191MD1810171+9999OC100751OD190100781999REMSYN004BUFR
0093010010999992017011004004+70939-008669FM-12+001099999V0200241N0032199999999999999999-00601-01191100171ADDKA1010M-00511KA2010N-00631MA1999999100051MD1810271+9999OC100591OD190100631999REMSYN004BUFR
0093010010999992017011005004+70939-008669FM-12+001099999V0200781N0066199999999999999999-00451-00971100131ADDKA1010M-00461KA2010N-00591MA1999999100011MD1810221+9999OC100851OD190100661999REMSYN004BUFR
0252010010999992017011006004+70939-008669FM-12+001099999V0203411N0096199999999010000199-00451-01061100031ADDAA112999999AA224999999AY131061AY221061GA1031+006001061GA2999+999999041GA3999+999999101GE19MSL   +99999+99999GF108991031999006001999999IA1289KA1120M-00421KA2120N-00711MA1999999099911MD1610281+9999MW1021OC101281OD190601111999UA19999999039REMSYN004BUFR
0093010010999992017011007004+70939-008669FM-12+001099999V0203601N0020199999999999999999-00451-01021099971ADDKA1010M-00411KA2010N-00461MA1999999099851MD1810201+9999OC101131OD190100991999REMSYN004BUFR
0089010010999992017011008004+70933-008667FM-12+000999999V0203501N003019999999N999999999-00381-00961099891ADDMA1999999099771MD1710241+9999REMSYN04801001 46/// /3503 11038 21096 39977 49989 57024=
0224010010999992017011009004+70939-008669FM-12+001099999V0200481N0043199999999010000199-00351-00791099791ADDAY121031AY221031GA1031+010001061GA2999+999999041GA3999+999999101GE19MSL   +99999+99999GF108991031999010001999999KA1010M-00361KA2010N-00441MA1999999099671MD1810241+9999MW1021OC100801OD190100991999UA19999999039REMSYN004BUFR
0093010010999992017011010004+70939-008669FM-12+001099999V0200681N0108199999999999999999-00291-00611099721ADDKA1010M-00281KA2010N-00361MA1999999099601MD1710251+9999OC101411OD190101361999REMSYN004BUFR
0093010010999992017011011004+70939-008669FM-12+001099999V0200661N0115199999999999999999-00221-00601099611ADDKA1010M-00231KA2010N-00301MA1999999099491MD1810291+9999OC101441OD190101161999REMSYN004BUFR
0235010010999992017011012004+70939-008669FM-12+001099999V0200731N0120100600199020000199-00201-00481099521ADDAA106999999AY131061AY221061GA1061+006001061GA2999+999999041GA3999+999999101GE19MSL   +99999+99999GF108991061999006001999999KA1010M-00201KA2010N-00241MA1999999099401MD1810271+9999MW1361OC101551OD190601361999UA19999999049REMSYN004BUFR
0089010010999992017011013004+70933-008667FM-12+000999999V0200701N014019999999N999999999-00241-00401099401ADDMA1999999099281MD1810321+9999REMSYN04801001 46/// /0714 11024 21040 39928 49940 58032=
0093010010999992017011014004+70939-008669FM-12+001099999V0200701N0142199999999999999999-00171-00451099311ADDKA1010M-00181KA2010N-00231MA1999999099191MD1710291+9999OC101851OD190101441999REMSYN004BUFR
0224010010999992017011015004+70939-008669FM-12+001099999V0200641N0112199999999006000199-00201-00421099241ADDAY171031AY231031GA1021+006001061GA2999+999999041GA3999+999999021GE19MSL   +99999+99999GF108991021999006001999999KA1010M-00181KA2010N-00231MA1999999099121MD1710281+9999MW1701OC101461OD190101451999UA19999999049REMSYN004BUFR
0089010010999992017011016004+70933-008667FM-12+000999999V0200601N013019999999N999999999-00171-00431099131ADDMA1999999099011MD1810271+9999REMSYN04801001 46/// /0613 11017 21043 39901 49913 58027=
0089010010999992017011017004+70933-008667FM-12+000999999V0200701N013019999999N999999999-00131-00391099031ADDMA1999999098911MD1810281+9999REMSYN04801001 46/// /0713 11013 21039 39891 49903 58028=
0235010010999992017011018004+70939-008669FM-12+001099999V0200651N0130199999999006000199-00141-00391098961ADDAA112999999AY121061AY221061GA1031+006001061GA2999+999999041GA3999+999999101GE19MSL   +99999+99999GF108991031999006001999999KA1120M-00121KA2120N-00471MA1999999098841MD1710281+9999MW1701OC101751OD190601451999UA19999999049REMSYN004BUFR
0089010010999992017011019004+70933-008667FM-12+000999999V0200701N013019999999N999999999-00191-00401098911ADDMA1999999098791MD1610221+9999REMSYN04801001 46/// /0713 11019 21040 39879 49891 56022=
0089010010999992017011020004+70933-008667FM-12+000999999V0200701N010019999999N999999999-00201-00501098861ADDMA1999999098741MD1710171+9999REMSYN04801001 46/// /0710 11020 21050 39874 49886 57017=
0093010010999992017011021004+70939-008669FM-12+001099999V0200401N0104199999999999999999-00171-00641098731ADDKA1010M-00181KA2010N-00241MA1999999098611MD1810231+9999OC101871OD190101391999REMSYN004BUFR
0093010010999992017011022004+70939-008669FM-12+001099999V0200701N0072199999999999999999-00151-00621098661ADDKA1010M-00161KA2010N-00211MA1999999098541MD1810251+9999OC101471OD190101501999REMSYN004BUFR
0089010010999992017011023004+70933-008667FM-12+000999999V0200801N016019999999N999999999-00181-00421098571ADDMA1999999098451MD1810291+9999REMSYN04801001 46/// /0816 11018 21042 39845 49857 58029=
0224010010999992017011100004+70939-008669FM-12+001099999V0203331N0040199999999025000199-00151-00591098561ADDAY121061AY221061GA1041+010001061GA2999+999999041GA3999+999999101GE19MSL   +99999+99999GF108991041999010001999999KA1010M-00141KA2010N-00181MA1999999098441MD1810181+9999MW1021OC101091OD190601601999UA19999999049REMSYN004BUFR
0089010010999992017011101004+70933-008667FM-12+000999999V0200901N012019999999N999999999-00161-00541098521ADDMA1999999098401MD1610141+9999REMSYN04801001 46/// /0912 11016 21054 39840 49852 56014=
0089010010999992017011102004+70933-008667FM-12+000999999V0200601N003019999999N999999999-00161-00551098591ADDMA1999999098471MD1310021+9999REMSYN04801001 46/// /0603 11016 21055 39847 49859 53002=
0093010010999992017011103004+70939-008669FM-12+001099999V0202761N0023199999999999999999-00171-00571098591ADDKA1010M-00151KA2010N-00181MA1999999098471MD1310031+9999OC101681OD190101351999REMSYN004BUFR
0093010010999992017011104004+70939-008669FM-12+001099999V0200161N0100199999999999999999-00251-00551098591ADDKA1010M-00171KA2010N-00301MA1999999098471MD1010071+9999OC101821OD190101491999REMSYN004BUFR
0089010010999992017011105004+70933-008667FM-12+000999999V0200101N017019999999N999999999-00371-00481098611ADDMA1999999098491MD1310021+9999REMSYN04801001 46/// /0117 11037 21048 39849 49861 53002=
0230010010999992017011106004+70939-008669FM-12+001099999V0200171N0129101000199010000199-00351-00671098641ADDAY121061AY221061GA1051+010001061GA2999+999999041GA3999+999999101GE19MSL   +99999+99999GF108991051999010001999999IA1289KA1120M-00141KA2120N-00401MA1999999098521MD1310061+9999MW1381OC102141OD190601741999UA19999999049REMSYN004BUFR
0093010010999992017011107004+70939-008669FM-12+001099999V0200141N0159199999999999999999-00351-00701098701ADDKA1010M-00341KA2010N-00381MA1999999098581MD1310111+9999OC102451OD190101751999REMSYN004BUFR
0093010010999992017011108004+70939-008669FM-12+001099999V0200141N0154199999999999999999-00351-00791098761ADDKA1010M-00321KA2010N-00371MA1999999098641MD1310151+9999OC102161OD190101751999REMSYN004BUFR
0224010010999992017011109004+70939-008669FM-12+001099999V0200161N0150101000199025000199-00451-00711098821ADDAY121031AY221031GA1071+010001061GA2999+999999101GA3999+999999101GE19MSL   +99999+99999GF107991071999010001999999KA1010M-00321KA2010N-00461MA1999999098701MD1310171+9999MW1021OC102261OD190101751999UA19999999049REMSYN004BUFR
0093010010999992017011110004+70939-008669FM-12+001099999V0200021N0098199999999999999999-00401-00641098791ADDKA1010M-00381KA2010N-00481MA1999999098671MD1010091+9999OC101531OD190101561999REMSYN004BUFR
0093010010999992017011111004+70939-008669FM-12+001099999V0203341N0036199999999999999999-00371-00741098851ADDKA1010M-00371KA2010N-00461MA1999999098731MD1310091+9999OC100721OD190101701999REMSYN004BUFR
0203010010999992017011112004+70939-008669FM-12+001099999V0200591N0092100600199010000199-00351-00801098891ADDAA106999999AY181061AY221061GA1051+006001081GE19MSL   +99999+99999GF105991051999006001999999KA1010M-00351KA2010N-00431MA1999999098771MD1310071+9999MW1271OC101831OD190601751999UA19999999049REMSYN004BUFR
0093010010999992017011113004+70939-008669FM-12+001099999V0200191N0129199999999999999999-00391-00821098931ADDKA1010M-00361KA2010N-00411MA1999999098811MD1110141+9999OC101901OD190101581999REMSYN004BUFR
0093010010999992017011114004+70939-008669FM-12+001099999V0200201N0129199999999999999999-00421-00831099001ADDKA1010M-00391KA2010N-00511MA1999999098881MD1310161+9999OC101901OD190101321999REMSYN004BUFR
0192010010999992017011115004+70939-008669FM-12+001099999V0200161N0137100600199010000199-00441-00931099031ADDAY121031AY221031GA1061+006001091GE19MSL   +99999+99999GF106991061999006001999999KA1010M-00411KA2010N-00551MA1999999098911MD1310141+9999MW1021OC102021OD190101581999UA19999999049REMSYN004BUFR
0093010010999992017011116004+70939-008669FM-12+001099999V0200531N0114199999999999999999-00421-01061099131ADDKA1010M-00421KA2010N-00541MA1999999099011MD1310211+9999OC102401OD190101391999REMSYN004BUFR
0093010010999992017011117004+70939-008669FM-12+001099999V0200171N0137199999999999999999-00471-00951099151ADDKA1010M-00421KA2010N-00561MA1999999099031MD1310151+9999OC101851OD190101631999REMSYN004BUFR
0247010010999992017011118004+70933-008667FM-12+000999999V0200101N010019999999N050000199-00581-00831099211ADDAA112000131AY181021AY231021GA1061+004501091GE19MSL   +99999+99999GF106991061999004501999999KA1120M-00321MA1999999099091MD1310171+9999MW1361OD139902401999REMSYN08201001 11484 60110 11058 21083 39909 49921 53017 69912 73683 86300 333 11032 91124=
0093010010999992017011119004+70939-008669FM-12+001099999V0200371N0098199999999999999999-00521-00931099291ADDKA1010M-00491KA2010N-00611MA1999999099171MD1310161+9999OC101841OD190101421999REMSYN004BUFR
0093010010999992017011120004+70939-008669FM-12+001099999V0200221N0101199999999999999999-00551-00971099321ADDKA1010M-00491KA2010N-00561MA1999999099201MD1310171+9999OC101651OD190101211999REMSYN004BUFR
0089010010999992017011121004+70933-008667FM-12+000999999V0200301N012019999999N999999999-00511-01151099371ADDMA1999999099251MD1310161+9999REMSYN04801001 46/// /0312 11051 21115 39925 49937 53016=
0093010010999992017011122004+70939-008669FM-12+001099999V0200161N0158199999999999999999-00551-00881099411ADDKA1010M-00491KA2010N-00611MA1999999099291MD1310131+9999OC102281OD190101661999REMSYN004BUFR
0093010010999992017011123004+70939-008669FM-12+001099999V0200201N0130199999999999999999-00521-01011099471ADDKA1010M-00491KA2010N-00571MA1999999099351MD1310151+9999OC102221OD190101521999REMSYN004BUFR
0235010010999992017011200004+70939-008669FM-12+001099999V0200151N0132100600199060000199-00551-01181099571ADDAA106999999AY181061AY231061GA1071+006001081GA2999+999999101GA3999+999999101GE19MSL   +99999+99999GF107991071999006001999999KA1010M-00521KA2010N-00571MA1999999099451MD1310201+9999MW1381OC102111OD190601661999UA19999999049REMSYN004BUFR
0093010010999992017011201004+70939-008669FM-12+001099999V0200141N0132199999999999999999-00601-01161099631ADDKA1010M-00561KA2010N-00691MA1999999099511MD1310221+9999OC102061OD190101611999REMSYN004BUFR
0093010010999992017011202004+70939-008669FM-12+001099999V0200121N0140199999999999999999-00641-01111099671ADDKA1010M-00601KA2010N-00661MA1999999099551MD1110201+9999OC102031OD190101551999REMSYN004BUFR
0089010010999992017011203004+70933-008667FM-12+000999999V0200101N013019999999N999999999-00661-01241099751ADDMA1999999099631MD1210181+9999REMSYN04801001 46/// /0113 11066 21124 39963 49975 52018=
0093010010999992017011204004+70939-008669FM-12+001099999V0200081N0123199999999999999999-00701-01221099771ADDKA1010M-00651KA2010N-00721MA1999999099651MD1210141+9999OC101741OD190101311999REMSYN004BUFR
0093010010999992017011205004+70939-008669FM-12+001099999V0200061N0130199999999999999999-00751-01351099811ADDKA1010M-00711KA2010N-00751MA1999999099691MD1110141+9999OC101691OD190101301999REMSYN004BUFR
0252010010999992017011206004+70939-008669FM-12+001099999V0200031N0120101000199050000199-00751-01251099841ADDAA112999999AA224000131AY181061AY231061GA1071+010001061GA2999+999999101GA3999+999999101GE19MSL   +99999+99999GF107991071999010001999999IA1229KA1120M-00491KA2120N-00771MA1999999099721MD1210101+9999MW1021OC101671OD190601611999UA19999999049REMSYN004BUFR
0089010010999992017011207004+70933-008667FM-12+000999999V0203601N011019999999N999999999-00761-01271099911ADDMA1999999099791MD1310141+9999REMSYN04801001 46/// /3611 11076 21127 39979 49991 53014=
0089010010999992017011208004+70933-008667FM-12+000999999V0200101N009019999999N999999999-00801-01411099951ADDMA1999999099831MD1310151+9999REMSYN04801001 46/// /0109 11080 21141 39983 49995 53015=
0187010010999992017011209004+70933-008667FM-12+000999999V0203601N009019999999N030000199-00801-01231100021ADDAY121021AY221021GA1071+008001061GE19MSL   +99999+99999GF107991071999008001999999MA1999999099901MD1210181+9999MW1021REMSYN06001001 41580 73609 11080 21123 39990 40002 52018 70222 875//=
0089010010999992017011210004+70933-008667FM-12+000999999V0203601N010019999999N999999999-00821-01211100071ADDMA1999999099951MD1210161+9999REMSYN04801001 46/// /3610 11082 21121 39995 40007 52016=
0089010010999992017011211004+70933-008667FM-12+000999999V0203401N010019999999N999999999-00801-01371100091ADDMA1999999099971MD1110141+9999REMSYN04801001 46/// /3410 11080 21137 39997 40009 51014=
0248010010999992017011212004+70933-008667FM-12+000999999V0203601N009019999999N015000199-00831-01241100101ADDAA106000021AY181021AY231021GA1071+004501091GE19MSL   +99999+99999GF107991071999004501999999MA1999999099981MD1110081+9999MW1851OD139902001999SA1+0041REMSYN08801001 11465 73609 11083 21124 39998 40010 51008 69901 78583 873// 222// 00004 333 91120=
0089010010999992017011213004+70933-008667FM-12+000999999V0203401N010019999999N999999999-00791-01101100091ADDMA1999999099971MD1210031+9999REMSYN04801001 46/// /3410 11079 21110 39997 40009 52003=
0108010010999992017011214004+70933-008667FM-12+000999999V0203501N009019999999N999999999-00781-01121100111ADDMA1999999099991MD1290029+9999REMSYN04801001 46/// /3509 11078 21112 39999 40011 54001=EQDQ01.1    3APC3  
0224010010999992017011215004+70939-008669FM-12+001099999V0203541N0095100300199001000199-00741-01181100111ADDAY181031AY231031GA1081+003001081GA2999+999999101GA3999+999999101GE19MSL   +99999+99999GF108991081999003001999999KA1010M-00731KA2010N-00821MA1999999099991MD1210011+9999MW1861OC101461OD190101131999UA19999999049REMSYN004BUFR
0093010010999992017011216004+70939-008669FM-12+001099999V0203591N0092199999999999999999-00701-01081100091ADDKA1010M-00681KA2010N-00751MA1999999099971MD1410001+9999OC101541OD190101101999REMSYN004BUFR
0089010010999992017011217004+70933-008667FM-12+000999999V0203601N009019999999N999999999-00631-01171100081ADDMA1999999099961MD1710021+9999REMSYN04801001 46/// /3609 11063 21117 39996 40008 57002=
0247010010999992017011218004+70933-008667FM-12+000999999V0203601N009019999999N005000199-00591-00921100081ADDAA112000131AY181021AY231021GA1071+008001081GE19MSL   +99999+99999GF107991071999008001999999KA1120M-00591MA1999999099961MD1710031+9999MW1851OD139901801999REMSYN08201001 11550 73609 11059 21092 39996 40008 57003 69912 78583 878// 333 11059 91118=
0089010010999992017011219004+70933-008667FM-12+000999999V0203401N009019999999N999999999-00531-00891100071ADDMA1999999099951MD1710021+9999REMSYN04801001 46/// /3409 11053 21089 39995 40007 57002=
0093010010999992017011220004+70939-008669FM-12+001099999V0200071N0122199999999999999999-00591-00771100101ADDKA1010M-00481KA2010N-00591MA1999999099981MD1310031+9999OC101691OD190101251999REMSYN004BUFR
0093010010999992017011221004+70939-008669FM-12+001099999V0203451N0103199999999999999999-00551-00901100161ADDKA1010M-00551KA2010N-00631MA1999999100041MD1310081+9999OC101611OD190101271999REMSYN004BUFR
0093010010999992017011222004+70939-008669FM-12+001099999V0203421N0098199999999999999999-00571-00981100181ADDKA1010M-00531KA2010N-00671MA1999999100061MD1210111+9999OC101541OD190101281999REMSYN004BUFR
0089010010999992017011223004+70933-008667FM-12+000999999V0203601N008019999999N999999999-00611-01061100201ADDMA1999999100081MD1110101+9999REMSYN04801001 46/// /3608 11061 21106 30008 40020 51010=
0228010010999992017011300004+70933-008667FM-12+000999999V0203401N010019999999N003000199-00601-00931100191ADDAA106000631AY181021AY231021GA1071+012501081GE19MSL   +99999+99999GF107991071999012501999999MA1999999100071MD1990031+9999MW1851OD139902001999REMSYN07601001 11630 73410 11060 21093 30007 40019 50003 69961 78583 878// 333 91120=
0089010010999992017011301004+70933-008667FM-12+000999999V0203501N010019999999N999999999-00601-01011100171ADDMA1999999100051MD1810011+9999REMSYN04801001 46/// /3510 11060 21101 30005 40017 58001=
0093010010999992017011302004+70939-008669FM-12+001099999V0203411N0091199999999999999999-00621-01061100181ADDKA1010M-00591KA2010N-00651MA1999999100061MD1710031+9999OC101461OD190101091999REMSYN004BUFR
0093010010999992017011303004+70939-008669FM-12+001099999V0203371N0093199999999999999999-00701-01001100171ADDKA1010M-00611KA2010N-00701MA1999999100051MD1710031+9999OC101461OD190101201999REMSYN004BUFR
0089010010999992017011304004+70933-008667FM-12+000999999V0203501N010019999999N999999999-00621-01281100131ADDMA1999999100011MD1810041+9999REMSYN04801001 46/// /3510 11062 21128 30001 40013 58004=
0089010010999992017011305004+70933-008667FM-12+000999999V0203401N009019999999N999999999-00641-01001100101ADDMA1999999099981MD1810081+9999REMSYN04801001 46/// /3409 11064 21100 39998 40010 58008=
0220010010999992017011306004+70939-008669FM-12+001099999V0203461N0098100600199010000199-00691-00911100091ADDAA112000731AA224000831AY181061AY221061GA1061+006001081GE19MSL   +99999+99999GF106991061999006001999999IA1289KA1120M-00481KA2120N-00761MA1999999099971MD1810081+9999MW1851OC101461OD190601201999UA19999999049REMSYN004BUFR
0093010010999992017011307004+70939-008669FM-12+001099999V0203541N0113199999999999999999-00751-01091100121ADDKA1010M-00691KA2010N-00761MA1999999100001MD1510001+9999OC101921OD190101411999REMSYN004BUFR
0089010010999992017011308004+70933-008667FM-12+000999999V0203401N012019999999N999999999-00721-01301100171ADDMA1999999100051MD1310081+9999REMSYN04801001 46/// /3412 11072 21130 30005 40017 53008=
0224010010999992017011309004+70939-008669FM-12+001099999V0203421N0123100600199001000199-00821-01101100171ADDAY181031AY231031GA1071+006001081GA2999+999999101GA3999+999999101GE19MSL   +99999+99999GF107991071999006001999999KA1010M-00721KA2010N-00871MA1999999100051MD1010081+9999MW1861OC101801OD190101411999UA19999999049REMSYN004BUFR
0093010010999992017011310004+70939-008669FM-12+001099999V0203451N0094199999999999999999-00891-01001100191ADDKA1010M-00781KA2010N-00911MA1999999100071MD1110071+9999OC101651OD190101271999REMSYN004BUFR
0089010010999992017011311004+70933-008667FM-12+000999999V0203401N010019999999N999999999-00811-01091100191ADDMA1999999100071MD1210021+9999REMSYN04801001 46/// /3410 11081 21109 30007 40019 52002=
0248010010999992017011312004+70933-008667FM-12+000999999V0200101N010019999999N000500199-00851-01001100161ADDAA106000631AY181021AY231021GA1071+008001081GE19MSL   +99999+99999GF107991071999008001999999MA1999999100041MD1810011+9999MW1391OD139902201999SA1+0001REMSYN08801001 11505 70110 11085 21100 30004 40016 58001 69961 73983 872// 222// 00000 333 91122=
0089010010999992017011313004+70933-008667FM-12+000999999V0203601N011019999999N999999999-00761-00961100151ADDMA1999999100031MD1810041+9999REMSYN04801001 46/// /3611 11076 21096 30003 40015 58004=
0093010010999992017011314004+70939-008669FM-12+001099999V0203451N0127199999999999999999-00721-01131100171ADDKA1010M-00701KA2010N-00821MA1999999100051MD1510031+9999OC101881OD190101301999REMSYN004BUFR
0224010010999992017011315004+70939-008669FM-12+001099999V0203381N0112100600199005000199-00671-01171100201ADDAY181031AY221031GA1071+006001081GA2999+999999101GA3999+999999101GE19MSL   +99999+99999GF107991071999006001999999KA1010M-00671KA2010N-00741MA1999999100081MD1310051+9999MW1261OC101681OD190101321999UA19999999039REMSYN004BUFR
0093010010999992017011316004+70939-008669FM-12+001099999V0203471N0126199999999999999999-00771-00901100251ADDKA1010M-00661KA2010N-00801MA1999999100131MD1310101+9999OC101851OD190101311999REMSYN004BUFR
0089010010999992017011317004+70933-008667FM-12+000999999V0203401N012019999999N999999999-00741-01171100291ADDMA1999999100171MD1210121+9999REMSYN04801001 46/// /3412 11074 21117 30017 40029 52012=
0247010010999992017011318004+70933-008667FM-12+000999999V0203401N010019999999N005000199-00741-01121100291ADDAA112000131AY181021AY221021GA1071+012501081GE19MSL   +99999+99999GF107991071999012501999999KA1120M-00661MA1999999100171MD1990081+9999MW1381OD139902201999REMSYN08201001 11650 73410 11074 21112 30017 40029 50008 69912 73882 878// 333 11066 91122=
0089010010999992017011319004+70933-008667FM-12+000999999V0203401N013019999999N999999999-00791-01341100261ADDMA1999999100141MD1990011+9999REMSYN04801001 46/// /3413 11079 21134 30014 40026 50001=
0093010010999992017011320004+70939-008669FM-12+001099999V0203431N0090199999999999999999-00821-01241100281ADDKA1010M-00771KA2010N-00831MA1999999100161MD1510011+9999OC101461OD190101281999REMSYN004BUFR
0089010010999992017011321004+70933-008667FM-12+000999999V0203501N010019999999N999999999-00781-01381100261ADDMA1999999100141MD1510011+9999REMSYN04801001 46/// /3510 11078 21138 30014 40026 55001=
0089010010999992017011322004+70933-008667FM-12+000999999V0203401N010019999999N999999999-00841-01161100301ADDMA1999999100181MD1310041+9999REMSYN04801001 46/// /3410 11084 21116 30018 40030 53004=
0089010010999992017011323004+70933-008667FM-12+000999999V0203501N010019999999N999999999-00881-01111100331ADDMA1999999100211MD1310051+9999REMSYN04801001 46/// /3510 11088 21111 30021 40033 53005=
0235010010999992017011400004+70939-008669FM-12+001099999V0203441N0106101000199003000199-00791-01231100321ADDAA106000131AY131061AY221061GA1071+010001081GA2999+999999101GA3999+999999101GE19MSL   +99999+99999GF107991071999010001999999KA1010M-00781KA2010N-00891MA1999999100201MD1210061+9999MW1851OC101871OD190601281999UA19999999049REMSYN004BUFR
0089010010999992017011401004+70933-008667FM-12+000999999V0203401N009019999999N999999999-00821-01111100351ADDMA1999999100231MD1210051+9999REMSYN04801001 46/// /3409 11082 21111 30023 40035 52005=
0089010010999992017011402004+70933-008667FM-12+000999999V0203301N007019999999N999999999-00821-01201100371ADDMA1999999100251MD1310051+9999REMSYN04801001 46/// /3307 11082 21120 30025 40037 53005=
0089010010999992017011403004+70933-008667FM-12+000999999V0203301N007019999999N999999999-00791-01301100391ADDMA1999999100271MD1310061+9999REMSYN04801001 46/// /3307 11079 21130 30027 40039 53006=
0089010010999992017011404004+70933-008667FM-12+000999999V0203201N005019999999N999999999-00801-01411100401ADDMA1999999100281MD1310051+9999REMSYN04801001 46/// /3205 11080 21141 30028 40040 53005=
0093010010999992017011405004+70939-008669FM-12+001099999V0203451N0081199999999999999999-00821-01431100441ADDKA1010M-00801KA2010N-00831MA1999999100321MD1210061+9999OC101341OD190100821999REMSYN004BUFR
0252010010999992017011406004+70939-008669FM-12+001099999V0203501N0085100600199010000199-00821-01361100431ADDAA112999999AA224000131AY181061AY221061GA1071+006001081GA2999+999999101GA3999+999999101GE19MSL   +99999+99999GF107991071999006001999999IA1229KA1120M-00731KA2120N-00911MA1999999100311MD1210051+9999MW1851OC101311OD190601131999UA19999999039REMSYN004BUFR
0093010010999992017011407004+70939-008669FM-12+001099999V0203541N0076199999999999999999-00801-01321100471ADDKA1010M-00801KA2010N-00831MA1999999100351MD1310071+9999OC101371OD190100881999REMSYN004BUFR
0089010010999992017011408004+70933-008667FM-12+000999999V0203501N005019999999N999999999-00831-01371100511ADDMA1999999100391MD1310081+9999REMSYN04801001 46/// /3505 11083 21137 30039 40051 53008=
0187010010999992017011409004+70933-008667FM-12+000999999V0203601N006019999999N020000199-00791-01351100551ADDAY171021AY231021GA1071+008001061GE19MSL   +99999+99999GF107991071999008001999999MA1999999100431MD1310131+9999MW1701REMSYN06001001 41570 73606 11079 21135 30043 40055 53013 77073 875//=
0089010010999992017011410004+70933-008667FM-12+000999999V0203401N005019999999N999999999-00771-01331100591ADDMA1999999100471MD1110131+9999REMSYN04801001 46/// /3405 11077 21133 30047 40059 51013=
0089010010999992017011411004+70933-008667FM-12+000999999V0200101N003019999999N999999999-00741-01261100601ADDMA1999999100481MD1110091+9999REMSYN04801001 46/// /0103 11074 21126 30048 40060 51009=
0248010010999992017011412004+70933-008667FM-12+000999999V0203501N004019999999N050000199-00721-01221100601ADDAA106000091AY121021AY221021GA1051+008001061GE19MSL   +99999+99999GF105991051999008001999999MA1999999100481MD1210041+9999MW1011OD139901601999SA1+0031REMSYN08801001 11584 53504 11072 21122 30048 40060 52004 60001 70122 85500 222// 00003 333 91116=
0089010010999992017011413004+70933-008667FM-12+000999999V0203501N003019999999N999999999-00711-01201100631ADDMA1999999100511MD1310041+9999REMSYN04801001 46/// /3503 11071 21120 30051 40063 53004=
0089010010999992017011414004+70933-008667FM-12+000999999V0200101N003019999999N999999999-00691-01141100641ADDMA1999999100521MD1310041+9999REMSYN04801001 46/// /0103 11069 21114 30052 40064 53004=
0187010010999992017011415004+70933-008667FM-12+000999999V0200201N002019999999N050000199-00681-01121100661ADDAY121021AY221021GA1061+008001061GE19MSL   +99999+99999GF106991061999008001999999MA1999999100541MD1210061+9999MW1031REMSYN06001001 41584 60202 11068 21112 30054 40066 52006 70322 86500=
0089010010999992017011416004+70933-008667FM-12+000999999V0203601N003019999999N999999999-00661-01091100661ADDMA1999999100541MD1210031+9999REMSYN04801001 46/// /3603 11066 21109 30054 40066 52003=
0085010010999992017011417004+70939-008669FM-12+001099999V0200541N0015199999999999999999-00621-01081100681ADDKA1010M-00611KA2010N-00661MA1999999100561MD1210051+9999OD190100371999REMSYN004BUFR
0247010010999992017011418004+70933-008667FM-12+000999999V0209999C999999999999N050000199-00641-01101100691ADDAA112000091AY121021AY221021GA1081+012501061GE19MSL   +99999+99999GF108991081999012501999999KA1120M-00611MA1999999100571MD1210031+9999MW1031OD139900701999REMSYN08201001 11684 8//// 11064 21110 30057 40069 52003 60002 70322 885// 333 11061 91107=
0089010010999992017011419004+70933-008667FM-12+000999999V0202701N002019999999N999999999-00671-01051100711ADDMA1999999100591MD1310051+9999REMSYN04801001 46/// /2702 11067 21105 30059 40071 53005=
0085010010999992017011420004+70939-008669FM-12+001099999V0202741N0010199999999999999999-00621-01021100731ADDKA1010M-00601KA2010N-00681MA1999999100611MD1310051+9999OD190100211999REMSYN004BUFR
0089010010999992017011421004+70933-008667FM-12+000999999V0202201N001019999999N999999999-00571-00971100781ADDMA1999999100661MD1310091+9999REMSYN04801001 46/// /2201 11057 21097 30066 40078 53009=
0089010010999992017011422004+70933-008667FM-12+000999999V0201401N003019999999N999999999-00491-00901100801ADDMA1999999100681MD1210091+9999REMSYN04801001 46/// /1403 11049 21090 30068 40080 52009=
0093010010999992017011423004+70939-008669FM-12+001099999V0201281N0031199999999999999999-00471-00891100851ADDKA1010M-00461KA2010N-00491MA1999999100731MD1210121+9999OC100551OD190100381999REMSYN004BUFR
0235010010999992017011500004+70939-008669FM-12+001099999V0201351N0026100600199050000199-00451-00871100881ADDAA106999999AY171061AY221061GA1081+006001061GA2999+999999101GA3999+999999101GE19MSL   +99999+99999GF108991081999006001999999KA1010M-00451KA2010N-00471MA1999999100761MD1210101+9999MW1021OC100571OD190600381999UA19999999039REMSYN004BUFR
0085010010999992017011501004+70939-008669FM-12+001099999V0201451N0025199999999999999999-00421-00851100911ADDKA1010M-00431KA2010N-00451MA1999999100791MD1110111+9999OD190100281999REMSYN004BUFR
0089010010999992017011502004+70933-008667FM-12+000999999V0201301N003019999999N999999999-00411-00811100941ADDMA1999999100821MD1210091+9999REMSYN04801001 46/// /1303 11041 21081 30082 40094 52009=
0089010010999992017011503004+70933-008667FM-12+000999999V0201201N002019999999N999999999-00411-00781100941ADDMA1999999100821MD1110071+9999REMSYN04801001 46/// /1202 11041 21078 30082 40094 51007=
0089010010999992017011504004+70933-008667FM-12+000999999V0200801N002019999999N999999999-00401-00741100981ADDMA1999999100861MD1210081+9999REMSYN04801001 46/// /0802 11040 21074 30086 40098 52008=
0089010010999992017011505004+70933-008667FM-12+000999999V0203601N002019999999N999999999-00411-00751100971ADDMA1999999100851MD1990041+9999REMSYN04801001 46/// /3602 11041 21075 30085 40097 50004=
0293010010999992017011506004+70933-008667FM-12+000999999V0200101N002019999999N030000199-00381-00661101021ADDAA112000021AA224000021AJ199991999999999AY171021AY221021GA1071+008001061GE19MSL   +99999+99999GF107991071999008001999999IA1229KA1240N-00681MA1999999100901MD1210071+9999MW1711OD139900601999REMSYN09401001 11580 70102 11038 21066 30090 40102 52007 69902 77172 875// 333 21068 46999 79999 91106=
0089010010999992017011507004+70933-008667FM-12+000999999V0203601N002019999999N999999999-00361-00641101041ADDMA1999999100921MD1310051+9999REMSYN04801001 46/// /3602 11036 21064 30092 40104 53005=
0089010010999992017011508004+70933-008667FM-12+000999999V0202601N001019999999N999999999-00481-00881101081ADDMA1999999100961MD1310111+9999REMSYN04801001 46/// /2601 11048 21088 30096 40108 53011=
0187010010999992017011509004+70933-008667FM-12+000999999V0202501N002019999999N030000199-00461-00811101061ADDAY121021AY201021GA1021+008001061GE19MSL   +99999+99999GF102991021999008001999999MA1999999100941MD1990051+9999MW1011REMSYN06001001 41580 22502 11046 21081 30094 40106 50005 70120 82500=
0089010010999992017011510004+70933-008667FM-12+000999999V0202301N003019999999N999999999-00451-00841101041ADDMA1999999100921MD1990011+9999REMSYN04801001 46/// /2303 11045 21084 30092 40104 50001=
0089010010999992017011511004+70933-008667FM-12+000999999V0201701N005019999999N999999999-00301-00731101021ADDMA1999999100901MD1810071+9999REMSYN04801001 46/// /1705 11030 21073 30090 40102 58007=
0248010010999992017011512004+70933-008667FM-12+000999999V0201501N005019999999N050000199-00191-00611100961ADDAA106000091AY121021AY201021GA1071+008001061GE19MSL   +99999+99999GF107991071999008001999999MA1999999100841MD1810101+9999MW1031OD139900801999SA1+0031REMSYN08801001 11584 71505 11019 21061 30084 40096 58010 60001 70320 875// 222// 00003 333 91108=
0089010010999992017011513004+70933-008667FM-12+000999999V0201301N007019999999N999999999-00111-00421100881ADDMA1999999100761MD1810161+9999REMSYN04801001 46/// /1307 11011 21042 30076 40088 58016=
0089010010999992017011514004+70933-008667FM-12+000999999V0201401N009019999999N999999999+00021-00191100751ADDMA1999999100631MD1810261+9999REMSYN04801001 46/// /1409 10002 21019 30063 40075 58026=
0187010010999992017011515004+70933-008667FM-12+000999999V0201401N011019999999N004000199+00111+00071100561ADDAY121021AY221021GA1081+004501051GE19MSL   +99999+99999GF108991081999004501999999MA1999999100441MD1810401+9999MW1631REMSYN06001001 41440 81411 10011 20007 30044 40056 58040 76322 8802/=
0089010010999992017011516004+70933-008667FM-12+000999999V0201601N012019999999N999999999+00151+00121100421ADDMA1999999100301MD1810461+9999REMSYN04801001 46/// /1612 10015 20012 30030 40042 58046=
0089010010999992017011517004+70933-008667FM-12+000999999V0201601N011019999999N999999999+00181+00061100261ADDMA1999999100141MD1810491+9999REMSYN04801001 46/// /1611 10018 20006 30014 40026 58049=
0247010010999992017011518004+70933-008667FM-12+000999999V0201601N015019999999N030000199+00201+00071100091ADDAA112000021AY161021AY221021GA1081+004501061GE19MSL   +99999+99999GF108991081999004501999999KA1120M+00201MA1999999099971MD1810481+9999MW1611OD139901801999REMSYN08201001 11480 81615 10020 20007 39997 40009 58048 69902 76162 885// 333 10020 91118=
0089010010999992017011519004+70933-008667FM-12+000999999V0201601N012019999999N999999999+00191+00091099981ADDMA1999999099861MD1610441+9999REMSYN04801001 46/// /1612 10019 20009 39986 49998 56044=
0089010010999992017011520004+70933-008667FM-12+000999999V0201701N012019999999N999999999+00191+00151099741ADDMA1999999099621MD1810521+9999REMSYN04801001 46/// /1712 10019 20015 39962 49974 58052=
0093010010999992017011521004+70939-008669FM-12+001099999V0201791N0140199999999999999999+00211+00171099521ADDKA1010M+00211KA2010N+00181MA1999999099401MD1810571+9999OC101811OD190101451999REMSYN004BUFR
0089010010999992017011522004+70933-008667FM-12+000999999V0201901N014019999999N999999999+00231+00201099341ADDMA1999999099221MD1610641+9999REMSYN04801001 46/// /1914 10023 20020 39922 49934 56064=
0093010010999992017011523004+70939-008669FM-12+001099999V0201981N0134199999999999999999+00221+00191099181ADDKA1010M+00251KA2010N+00231MA1999999099061MD1610551+9999OC101681OD190101421999REMSYN004BUFR
0228010010999992017011600004+70933-008667FM-12+000999999V0202101N010019999999N003000199+00261+00231099071ADDAA106005031AY161021AY221021GA1081+001501051GE19MSL   +99999+99999GF108991081999001501999999MA1999999098951MD1710451+9999MW1651OD139901901999REMSYN07601001 11230 82110 10026 20023 39895 49907 57045 60051 76562 8802/ 333 91119=
0089010010999992017011601004+70933-008667FM-12+000999999V0202101N011019999999N999999999+00301+00251098961ADDMA1999999098851MD1610371+9999REMSYN04801001 46/// /2111 10030 20025 39885 49896 56037=
0089010010999992017011602004+70933-008667FM-12+000999999V0202001N010019999999N999999999+00271+00231098871ADDMA1999999098761MD1810301+9999REMSYN04801001 46/// /2010 10027 20023 39876 49887 58030=
0089010010999992017011603004+70933-008667FM-12+000999999V0202601N014019999999N999999999+00341+00111098881ADDMA1999999098771MD1610171+9999REMSYN04801001 46/// /2614 10034 20011 39877 49888 56017=
0089010010999992017011604004+70933-008667FM-12+000999999V0202301N006019999999N999999999+00261-00241098981ADDMA1999999098871MD1310011+9999REMSYN04801001 46/// /2306 10026 21024 39887 49898 53001=
0089010010999992017011605004+70933-008667FM-12+000999999V0202101N008019999999N999999999+00221-00181098981ADDMA1999999098861MD1310101+9999REMSYN04801001 46/// /2108 10022 21018 39886 49898 53010=
0293010010999992017011606004+70933-008667FM-12+000999999V0202201N010019999999N040000199+00191-00181098931ADDAA112010031AA224010231AJ199991999999999AY161021AY221021GA1071+022501031GE19MSL   +99999+99999GF107991071999022501999999IA1269KA1240N+00181MA1999999098811MD1990051+9999MW1021OD139902101999REMSYN09401001 11882 72210 10019 21018 39881 49893 50005 60102 70262 8703/ 333 20018 42999 70102 91121=
0093010010999992017011607004+70939-008669FM-12+001099999V0202231N0111199999999999999999+00171-00241098971ADDKA1010M+00191KA2010N+00161MA1999999098851MD1510011+9999OC101591OD190101111999REMSYN004BUFR
0089010010999992017011608004+70933-008667FM-12+000999999V0202201N009019999999N999999999+00131-00261099001ADDMA1999999098881MD1310021+9999REMSYN04801001 46/// /2209 10013 21026 39888 49900 53002=
0192010010999992017011609004+70939-008669FM-12+001099999V0202301N0102199999999030000199+00151-00481098961ADDAY121031AY201031GA1011+006001061GE19MSL   +99999+99999GF101991011999006001999999KA1010M+00141KA2010N+00121MA1999999098841MD1010021+9999MW1021OC101561OD190101191999UA19999999049REMSYN004BUFR
0089010010999992017011610004+70933-008667FM-12+000999999V0202201N012019999999N999999999+00171-00211098981ADDMA1999999098861MD1410001+9999REMSYN04801001 46/// /2212 10017 21021 39886 49898 54000=
0093010010999992017011611004+70939-008669FM-12+001099999V0202221N0116199999999999999999+00111-00221098901ADDKA1010M+00171KA2010N+00101MA1999999098781MD1810101+9999OC101541OD190101181999REMSYN004BUFR
0248010010999992017011612004+70933-008667FM-12+000999999V0202201N012019999999N030000199+00111-00241098871ADDAA106000091AY121021AY201021GA1051+004501061GE19MSL   +99999+99999GF105991051999004501999999MA1999999098751MD1810091+9999MW1021OD139901801999SA1+0081REMSYN08801001 11480 52212 10011 21024 39875 49887 58009 60001 70220 85500 222// 00008 333 91118=
0093010010999992017011613004+70939-008669FM-12+001099999V0202301N0122199999999999999999+00051-00331098851ADDKA1010M+00111KA2010N+00041MA1999999098731MD1610121+9999OC102371OD190101491999REMSYN004BUFR
0089010010999992017011614004+70933-008667FM-12+000999999V0202201N011019999999N999999999+00051-00291098751ADDMA1999999098631MD1810151+9999REMSYN04801001 46/// /2211 10005 21029 39863 49875 58015=
0187010010999992017011615004+70933-008667FM-12+000999999V0202301N012019999999N002000199-00041-00331098701ADDAY181021AY221021GA1071+004501091GE19MSL   +99999+99999GF107991071999004501999999MA1999999098581MD1810181+9999MW1861REMSYN06001001 41420 72312 11004 21033 39858 49870 58018 78682 873//=
0093010010999992017011616004+70939-008669FM-12+001099999V0202271N0141199999999999999999-00071-00291098681ADDKA1010M+00001KA2010N-00071MA1999999098561MD1610171+9999OC102161OD190101541999REMSYN004BUFR
0093010010999992017011617004+70939-008669FM-12+001099999V0202231N0144199999999999999999+00001-00431098621ADDKA1010M+00011KA2010N-00081MA1999999098501MD1810121+9999OC102321OD190101551999REMSYN004BUFR
0203010010999992017011618004+70939-008669FM-12+001099999V0202231N0135199999999040000199-00021-00511098571ADDAA112000631AY181061AY211061GA1031+010001061GE19MSL   +99999+99999GF103991031999010001999999KA1120M+00191KA2120N-00131MA1999999098451MD1810121+9999MW1021OC102071OD190601571999UA19999999049REMSYN004BUFR
0089010010999992017011619004+70933-008667FM-12+000999999V0202301N016019999999N999999999-00031-00561098561ADDMA1999999098441MD1510111+9999REMSYN04801001 46/// /2316 11003 21056 39844 49856 55011=
0093010010999992017011620004+70939-008669FM-12+001099999V0202301N0167199999999999999999-00021-00611098631ADDKA1010M+00011KA2010N-00031MA1999999098511MD1510001+9999OC102701OD190101861999REMSYN004BUFR
0089010010999992017011621004+70933-008667FM-12+000999999V0202401N016019999999N999999999-00061-00841098711ADDMA1999999098591MD1310141+9999REMSYN04801001 46/// /2416 11006 21084 39859 49871 53014=
0089010010999992017011622004+70933-008667FM-12+000999999V0202301N016019999999N999999999-00041-00751098761ADDMA1999999098641MD1310191+9999REMSYN04801001 46/// /2316 11004 21075 39864 49876 53019=
0089010010999992017011623004+70933-008667FM-12+000999999V0202301N015019999999N999999999-00061-00781098791ADDMA1999999098671MD1110161+9999REMSYN04801001 46/// /2315 11006 21078 39867 49879 51016=
0235010010999992017011700004+70939-008669FM-12+001099999V0202331N0149101000199020000199-00041-00721098841ADDAA106999999AY181061AY231061GA1071+010001081GA2999+999999101GA3999+999999101GE19MSL   +99999+99999GF107991071999010001999999KA1010M-00041KA2010N-00081MA1999999098721MD1010131+9999MW1311OC102271OD190602311999UA19999999049REMSYN004BUFR
0089010010999992017011701004+70933-008667FM-12+000999999V0202301N017019999999N999999999-00041-00751098851ADDMA1999999098731MD1990101+9999REMSYN04801001 46/// /2317 11004 21075 39873 49885 50010=
0093010010999992017011702004+70939-008669FM-12+001099999V0202391N0150199999999999999999-00051-00711098831ADDKA1010M-00031KA2010N-00211MA1999999098711MD1010041+9999OC102361OD190101731999REMSYN004BUFR
0089010010999992017011703004+70933-008667FM-12+000999999V0202301N015019999999N999999999-00211-00601098871ADDMA1999999098751MD1310021+9999REMSYN04801001 46/// /2315 11021 21060 39875 49887 53002=
0089010010999992017011704004+70933-008667FM-12+000999999V0202501N015019999999N999999999-00371-00551098931ADDMA1999999098811MD1310081+9999REMSYN04801001 46/// /2515 11037 21055 39881 49893 53008=
0089010010999992017011705004+70933-008667FM-12+000999999V0209999C999999999999N999999999-00351-00491098941ADDMA1999999098821MD1310111+9999REMSYN04801001 46/// ///// 11035 21049 39882 49894 53011=
0244010010999992017011706004+70939-008669FM-12+001099999V020999999999901000199000400199-00441-00481099021ADDAA112000631AA224001231AY181061AY231061GA1071+010001091GA2999+999999101GA3999+999999101GE19MSL   +99999+99999GF107991071999010001999999IA1229KA1120M+00011KA2120N-00451MA1999999098901MD1310161+9999MW1861OD190601861999UA19999999049REMSYN004BUFR
0089010010999992017011707004+70933-008667FM-12+000999999V0202401N011019999999N999999999-00441-00611099071ADDMA1999999098951MD1310131+9999REMSYN04801001 46/// /2411 11044 21061 39895 49907 53013=
0089010010999992017011708004+70933-008667FM-12+000999999V0202401N017019999999N999999999-00441-00941099231ADDMA1999999099111MD1310311+9999REMSYN04801001 46/// /2417 11044 21094 39911 49923 53031=
0187010010999992017011709004+70933-008667FM-12+000999999V0202501N013019999999N005000199-00401-01061099351ADDAY181021AY231021GA1071+012501091GE19MSL   +99999+99999GF107991071999012501999999MA1999999099231MD1310331+9999MW1851REMSYN06001001 41650 72513 11040 21106 39923 49935 53033 78583 873//=
0089010010999992017011710004+70933-008667FM-12+000999999V0202401N012019999999N999999999-00421-01201099491ADDMA1999999099371MD1310421+9999REMSYN04801001 46/// /2412 11042 21120 39937 49949 53042=
0089010010999992017011711004+70933-008667FM-12+000999999V0202501N007019999999N999999999-00501-00881099631ADDMA1999999099511MD1310391+9999REMSYN04801001 46/// /2507 11050 21088 39951 49963 53039=
0235010010999992017011712004+70939-008669FM-12+001099999V0202641N0060101000199010000199-00521-00951099791ADDAA106000231AY181061AY221061GA1081+010001061GA2999+999999101GA3999+999999101GE19MSL   +99999+99999GF108991081999010001999999KA1010M-00501KA2010N-00531MA1999999099671MD1310451+9999MW1021OC101101OD190601671999UA19999999049REMSYN004BUFR
0089010010999992017011713004+70933-008667FM-12+000999999V0202601N007019999999N999999999-00571-01041099931ADDMA1999999099811MD1310441+9999REMSYN04801001 46/// /2607 11057 21104 39981 49993 53044=
0093010010999992017011714004+70939-008669FM-12+001099999V0202651N0052199999999999999999-00601-01041100021ADDKA1010M-00561KA2010N-00611MA1999999099901MD1210391+9999OC100971OD190100721999REMSYN004BUFR
0187010010999992017011715004+70933-008667FM-12+000999999V0202501N005019999999N010000199-00601-01041100101ADDAY121021AY221021GA1081+008001061GE19MSL   +99999+99999GF108991081999008001999999MA1999999099981MD1110301+9999MW1021REMSYN06001001 41560 82505 11060 21104 39998 40010 51030 70222 885//=
0089010010999992017011716004+70933-008667FM-12+000999999V0202601N004019999999N999999999-00591-01101100221ADDMA1999999100101MD1310301+9999REMSYN04801001 46/// /2604 11059 21110 30010 40022 53030=
0089010010999992017011717004+70933-008667FM-12+000999999V0202401N004019999999N999999999-00591-01071100261ADDMA1999999100141MD1110231+9999REMSYN04801001 46/// /2404 11059 21107 30014 40026 51023=
0247010010999992017011718004+70933-008667FM-12+000999999V0202501N007019999999N010000199-00521-01121100301ADDAA112000021AY181021AY221021GA1071+012501081GE19MSL   +99999+99999GF107991071999012501999999KA1120M-00381MA1999999100181MD1110201+9999MW1851OD139901401999REMSYN08201001 11660 72507 11052 21112 30018 40030 51020 69902 78582 878// 333 11038 91114=
0089010010999992017011719004+70933-008667FM-12+000999999V0202501N011019999999N999999999-00491-01321100351ADDMA1999999100231MD1210121+9999REMSYN04801001 46/// /2511 11049 21132 30023 40035 52012=
0089010010999992017011720004+70933-008667FM-12+000999999V0202401N012019999999N999999999-00451-01161100361ADDMA1999999100241MD1210111+9999REMSYN04801001 46/// /2412 11045 21116 30024 40036 52011=
0089010010999992017011721004+70933-008667FM-12+000999999V0202401N010019999999N999999999-00381-01021100381ADDMA1999999100261MD1110081+9999REMSYN04801001 46/// /2410 11038 21102 30026 40038 51008=
0089010010999992017011722004+70933-008667FM-12+000999999V0202401N010019999999N999999999-00361-00981100361ADDMA1999999100241MD1990021+9999REMSYN04801001 46/// /2410 11036 21098 30024 40036 50002=
0093010010999992017011723004+70939-008669FM-12+001099999V0202391N0090199999999999999999-00301-00991100341ADDKA1010M-00311KA2010N-00351MA1999999100221MD1810031+9999OC101611OD190101091999REMSYN004BUFR
0228010010999992017011800004+70933-008667FM-12+000999999V0202401N007019999999N005000199-00291-00891100321ADDAA106000021AY181021AY221021GA1081+012501081GE19MSL   +99999+99999GF108991081999012501999999MA1999999100201MD1710061+9999MW1851OD139902201999REMSYN07601001 11650 82407 11029 21089 30020 40032 57006 69901 78582 888// 333 91122=
0093010010999992017011801004+70939-008669FM-12+001099999V0202341N0070199999999999999999-00291-00881100241ADDKA1010M-00291KA2010N-00301MA1999999100121MD1810121+9999OC101261OD190100931999REMSYN004BUFR
0093010010999992017011802004+70939-008669FM-12+001099999V0202391N0061199999999999999999-00271-00861100181ADDKA1010M-00271KA2010N-00301MA1999999100061MD1810161+9999OC101061OD190100751999REMSYN004BUFR
0093010010999992017011803004+70939-008669FM-12+001099999V0202311N0062199999999999999999-00241-00741100121ADDKA1010M-00241KA2010N-00271MA1999999100001MD1710191+9999OC100921OD190100931999REMSYN004BUFR
0093010010999992017011804004+70939-008669FM-12+001099999V0202381N0054199999999999999999-00251-00831100061ADDKA1010M-00241KA2010N-00261MA1999999099941MD1710191+9999OC100981OD190100661999REMSYN004BUFR
0093010010999992017011805004+70939-008669FM-12+001099999V0202301N0043199999999999999999-00271-00811100001ADDKA1010M-00261KA2010N-00281MA1999999099881MD1710181+9999OC101021OD190100681999REMSYN004BUFR
0292010010999992017011806004+70933-008667FM-12+000999999V0202401N003019999999N020000199-00291-00761099991ADDAA112000021AJ199991999999999AY121021AY221021GA1021+012501061GA2999+999999021GE19MSL   +99999+99999GF107991021999012501999999IA1229KA1240N-00521MA1999999099871MD1610131+9999MW1021OD139901501999REMSYN08801001 11670 72403 11029 21076 39987 49999 56013 69902 70222 82507 333 21052 46999 91115=
0089010010999992017011807004+70933-008667FM-12+000999999V0202401N003019999999N999999999-00291-00731099971ADDMA1999999099851MD1610081+9999REMSYN04801001 46/// /2403 11029 21073 39985 49997 56008=
0089010010999992017011808004+70933-008667FM-12+000999999V0202601N004019999999N999999999-00331-00741099981ADDMA1999999099861MD1510011+9999REMSYN04801001 46/// /2604 11033 21074 39986 49998 55001=
0093010010999992017011810004+70939-008669FM-12+001099999V0202651N0049199999999999999999-00371-00921099951ADDKA1010M-00371KA2010N-00391MA1999999099831MD1810021+9999OC100951OD190100501999REMSYN004BUFR
0093010010999992017011811004+70939-008669FM-12+001099999V0202711N0095199999999999999999-00391-01041099891ADDKA1010M-00371KA2010N-00391MA1999999099771MD1810091+9999OC101321OD190100971999REMSYN004BUFR
0280010010999992017011812004+70933-008667FM-12+000999999V0202901N011019999999N040000199-00401-00921099821ADDAA106000091AY121021AY221021GA1031+008001061GA2999+999999031GA3999+999999021GE19MSL   +99999+99999GF108991031999008001999999MA1999999099701MD1810131+9999MW1031OD139901601999SA1+0111REMSYN08801001 11582 82911 11040 21092 39970 49982 58013 60001 70322 83577 222// 00011 333 91116=
0089010010999992017011813004+70933-008667FM-12+000999999V0202801N009019999999N999999999-00441-00891099851ADDMA1999999099731MD1510101+9999REMSYN04801001 46/// /2809 11044 21089 39973 49985 55010=
0089010010999992017011814004+70933-008667FM-12+000999999V0202601N003019999999N999999999-00501-00771099851ADDMA1999999099731MD1510041+9999REMSYN04801001 46/// /2603 11050 21077 39973 49985 55004=
0089010010999992017011815004+70933-008667FM-12+000999999V0203501N004019999999N999999999-00551-00751099751ADDMA1999999099631MD1810081+9999REMSYN04801001 46/// /3504 11055 21075 39963 49975 58008=
0089010010999992017011816004+70933-008667FM-12+000999999V0203401N006019999999N999999999-00581-00761099641ADDMA1999999099521MD1810221+9999REMSYN04801001 46/// /3406 11058 21076 39952 49964 58022=
0093010010999992017011817004+70939-008669FM-12+001099999V0203381N0059199999999999999999-00601-00761099611ADDKA1010M-00581KA2010N-00611MA1999999099491MD1610241+9999OC100751OD190100661999REMSYN004BUFR
0247010010999992017011818004+70933-008667FM-12+000999999V0203401N005019999999N004000199-00631-00821099521ADDAA112003031AY171021AY221021GA1081+004501051GE19MSL   +99999+99999GF108991081999004501999999KA1120M-00291MA1999999099401MD1810231+9999MW1711OD139901601999REMSYN08201001 11440 83405 11063 21082 39940 49952 58023 60032 77172 8802/ 333 11029 91116=
0093010010999992017011820004+70939-008669FM-12+001099999V0203091N0062199999999999999999-00751-00981099501ADDKA1010M-00631KA2010N-00751MA1999999099381MD1610111+9999OC101311OD190100621999REMSYN004BUFR
0089010010999992017011821004+70933-008667FM-12+000999999V0203201N009019999999N999999999-00941-01171099561ADDMA1999999099441MD1310041+9999REMSYN04801001 46/// /3209 11094 21117 39944 49956 53004=
0089010010999992017011822004+70933-008667FM-12+000999999V0202901N007019999999N999999999-01001-01301099611ADDMA1999999099491MD1310111+9999REMSYN04801001 46/// /2907 11100 21130 39949 49961 53011=
0089010010999992017011823004+70933-008667FM-12+000999999V0203101N006019999999N999999999-01031-01431099691ADDMA1999999099571MD1310191+9999REMSYN04801001 46/// /3106 11103 21143 39957 49969 53019=
0228010010999992017011900004+70933-008667FM-12+000999999V0202701N007019999999N003000199-01101-01481099701ADDAA106000631AY171021AY271021GA1081+008001061GE19MSL   +99999+99999GF108991081999008001999999MA1999999099581MD1310151+9999MW1711OD139902001999REMSYN07601001 11530 82707 11110 21148 39958 49970 53015 69961 77177 885// 333 91120=
0089010010999992017011901004+70933-008667FM-12+000999999V0202801N006019999999N999999999-01121-01601099811ADDMA1999999099691MD1310181+9999REMSYN04801001 46/// /2806 11112 21160 39969 49981 53018=
